{
	"FoodTraceability.sol": {
		"FoodTraceabilityFull": {
			"abi": [
				{
					"inputs": [],
					"stateMutability": "nonpayable",
					"type": "constructor"
				},
				{
					"anonymous": false,
					"inputs": [
						{
							"indexed": true,
							"internalType": "string",
							"name": "lotNumber",
							"type": "string"
						},
						{
							"indexed": false,
							"internalType": "string",
							"name": "badgeName",
							"type": "string"
						}
					],
					"name": "BadgeAwarded",
					"type": "event"
				},
				{
					"anonymous": false,
					"inputs": [
						{
							"indexed": true,
							"internalType": "string",
							"name": "lotNumber",
							"type": "string"
						},
						{
							"indexed": false,
							"internalType": "int256",
							"name": "temperature",
							"type": "int256"
						},
						{
							"indexed": false,
							"internalType": "string",
							"name": "notes",
							"type": "string"
						}
					],
					"name": "IoTDataCaptured",
					"type": "event"
				},
				{
					"anonymous": false,
					"inputs": [
						{
							"indexed": true,
							"internalType": "string",
							"name": "lotNumber",
							"type": "string"
						},
						{
							"indexed": false,
							"internalType": "string",
							"name": "name",
							"type": "string"
						},
						{
							"indexed": false,
							"internalType": "string",
							"name": "origin",
							"type": "string"
						}
					],
					"name": "ProductRegistered",
					"type": "event"
				},
				{
					"anonymous": false,
					"inputs": [
						{
							"indexed": true,
							"internalType": "string",
							"name": "lotNumber",
							"type": "string"
						},
						{
							"indexed": false,
							"internalType": "string",
							"name": "qrToken",
							"type": "string"
						}
					],
					"name": "QRGenerated",
					"type": "event"
				},
				{
					"anonymous": false,
					"inputs": [
						{
							"indexed": true,
							"internalType": "address",
							"name": "account",
							"type": "address"
						},
						{
							"indexed": false,
							"internalType": "enum FoodTraceabilityFull.Role",
							"name": "role",
							"type": "uint8"
						}
					],
					"name": "RoleAssigned",
					"type": "event"
				},
				{
					"anonymous": false,
					"inputs": [
						{
							"indexed": true,
							"internalType": "string",
							"name": "lotNumber",
							"type": "string"
						},
						{
							"indexed": false,
							"internalType": "enum FoodTraceabilityFull.Stage",
							"name": "stage",
							"type": "uint8"
						},
						{
							"indexed": false,
							"internalType": "address",
							"name": "handler",
							"type": "address"
						}
					],
					"name": "StageUpdated",
					"type": "event"
				},
				{
					"anonymous": false,
					"inputs": [
						{
							"indexed": true,
							"internalType": "string",
							"name": "lotNumber",
							"type": "string"
						},
						{
							"indexed": false,
							"internalType": "int256",
							"name": "minTemp",
							"type": "int256"
						},
						{
							"indexed": false,
							"internalType": "int256",
							"name": "maxTemp",
							"type": "int256"
						}
					],
					"name": "ThresholdsSet",
					"type": "event"
				},
				{
					"inputs": [
						{
							"internalType": "address",
							"name": "account",
							"type": "address"
						},
						{
							"internalType": "enum FoodTraceabilityFull.Role",
							"name": "role",
							"type": "uint8"
						}
					],
					"name": "assignRole",
					"outputs": [],
					"stateMutability": "nonpayable",
					"type": "function"
				},
				{
					"inputs": [
						{
							"internalType": "string",
							"name": "lotNumber",
							"type": "string"
						},
						{
							"internalType": "string",
							"name": "badgeName",
							"type": "string"
						}
					],
					"name": "awardBadge",
					"outputs": [],
					"stateMutability": "nonpayable",
					"type": "function"
				},
				{
					"inputs": [
						{
							"internalType": "string",
							"name": "lotNumber",
							"type": "string"
						},
						{
							"internalType": "int256",
							"name": "temperature",
							"type": "int256"
						},
						{
							"internalType": "string",
							"name": "handlingNotes",
							"type": "string"
						}
					],
					"name": "captureIoTData",
					"outputs": [],
					"stateMutability": "nonpayable",
					"type": "function"
				},
				{
					"inputs": [
						{
							"internalType": "string",
							"name": "lotNumber",
							"type": "string"
						}
					],
					"name": "checkTemperatureCompliance",
					"outputs": [
						{
							"internalType": "bool",
							"name": "",
							"type": "bool"
						}
					],
					"stateMutability": "view",
					"type": "function"
				},
				{
					"inputs": [
						{
							"internalType": "string",
							"name": "lotNumber",
							"type": "string"
						}
					],
					"name": "consumerLookupByLot",
					"outputs": [
						{
							"internalType": "string",
							"name": "name",
							"type": "string"
						},
						{
							"internalType": "string",
							"name": "origin",
							"type": "string"
						},
						{
							"internalType": "string",
							"name": "certifications",
							"type": "string"
						},
						{
							"internalType": "enum FoodTraceabilityFull.Stage",
							"name": "stage",
							"type": "uint8"
						},
						{
							"internalType": "address",
							"name": "handler",
							"type": "address"
						},
						{
							"internalType": "string",
							"name": "latestQR",
							"type": "string"
						}
					],
					"stateMutability": "view",
					"type": "function"
				},
				{
					"inputs": [
						{
							"internalType": "string",
							"name": "qrToken",
							"type": "string"
						}
					],
					"name": "consumerLookupByQR",
					"outputs": [
						{
							"internalType": "string",
							"name": "lotNumber",
							"type": "string"
						},
						{
							"internalType": "string",
							"name": "name",
							"type": "string"
						},
						{
							"internalType": "string",
							"name": "origin",
							"type": "string"
						},
						{
							"internalType": "string",
							"name": "certifications",
							"type": "string"
						},
						{
							"internalType": "enum FoodTraceabilityFull.Stage",
							"name": "stage",
							"type": "uint8"
						},
						{
							"internalType": "address",
							"name": "handler",
							"type": "address"
						}
					],
					"stateMutability": "view",
					"type": "function"
				},
				{
					"inputs": [
						{
							"internalType": "string",
							"name": "lotNumber",
							"type": "string"
						}
					],
					"name": "generateQRToken",
					"outputs": [
						{
							"internalType": "string",
							"name": "",
							"type": "string"
						}
					],
					"stateMutability": "nonpayable",
					"type": "function"
				},
				{
					"inputs": [
						{
							"internalType": "string",
							"name": "lotNumber",
							"type": "string"
						}
					],
					"name": "getAnalytics",
					"outputs": [
						{
							"internalType": "uint256",
							"name": "totalLogs",
							"type": "uint256"
						},
						{
							"internalType": "int256",
							"name": "avgTemp",
							"type": "int256"
						},
						{
							"internalType": "int256",
							"name": "minTemp",
							"type": "int256"
						},
						{
							"internalType": "int256",
							"name": "maxTemp",
							"type": "int256"
						},
						{
							"internalType": "bool",
							"name": "compliant",
							"type": "bool"
						}
					],
					"stateMutability": "view",
					"type": "function"
				},
				{
					"inputs": [
						{
							"internalType": "string",
							"name": "lotNumber",
							"type": "string"
						}
					],
					"name": "getBadges",
					"outputs": [
						{
							"internalType": "string[]",
							"name": "",
							"type": "string[]"
						}
					],
					"stateMutability": "view",
					"type": "function"
				},
				{
					"inputs": [
						{
							"internalType": "string",
							"name": "lotNumber",
							"type": "string"
						}
					],
					"name": "getIoTLogs",
					"outputs": [
						{
							"internalType": "int256[]",
							"name": "temps",
							"type": "int256[]"
						},
						{
							"internalType": "string[]",
							"name": "notes",
							"type": "string[]"
						},
						{
							"internalType": "uint256[]",
							"name": "timestamps",
							"type": "uint256[]"
						}
					],
					"stateMutability": "view",
					"type": "function"
				},
				{
					"inputs": [
						{
							"internalType": "string",
							"name": "lotNumber",
							"type": "string"
						},
						{
							"internalType": "string",
							"name": "badgeName",
							"type": "string"
						}
					],
					"name": "hasBadge",
					"outputs": [
						{
							"internalType": "bool",
							"name": "",
							"type": "bool"
						}
					],
					"stateMutability": "view",
					"type": "function"
				},
				{
					"inputs": [],
					"name": "owner",
					"outputs": [
						{
							"internalType": "address",
							"name": "",
							"type": "address"
						}
					],
					"stateMutability": "view",
					"type": "function"
				},
				{
					"inputs": [
						{
							"internalType": "string",
							"name": "lotNumber",
							"type": "string"
						},
						{
							"internalType": "string",
							"name": "name",
							"type": "string"
						},
						{
							"internalType": "string",
							"name": "origin",
							"type": "string"
						},
						{
							"internalType": "string",
							"name": "certifications",
							"type": "string"
						}
					],
					"name": "registerProduct",
					"outputs": [],
					"stateMutability": "nonpayable",
					"type": "function"
				},
				{
					"inputs": [
						{
							"internalType": "address",
							"name": "",
							"type": "address"
						}
					],
					"name": "roles",
					"outputs": [
						{
							"internalType": "enum FoodTraceabilityFull.Role",
							"name": "",
							"type": "uint8"
						}
					],
					"stateMutability": "view",
					"type": "function"
				},
				{
					"inputs": [
						{
							"internalType": "string",
							"name": "lotNumber",
							"type": "string"
						},
						{
							"internalType": "int256",
							"name": "minTemp",
							"type": "int256"
						},
						{
							"internalType": "int256",
							"name": "maxTemp",
							"type": "int256"
						}
					],
					"name": "setTemperatureThresholds",
					"outputs": [],
					"stateMutability": "nonpayable",
					"type": "function"
				},
				{
					"inputs": [
						{
							"internalType": "string",
							"name": "lotNumber",
							"type": "string"
						},
						{
							"internalType": "enum FoodTraceabilityFull.Stage",
							"name": "newStage",
							"type": "uint8"
						}
					],
					"name": "updateStage",
					"outputs": [],
					"stateMutability": "nonpayable",
					"type": "function"
				}
			],
			"devdoc": {
				"kind": "dev",
				"methods": {},
				"title": "FoodTraceabilityFull",
				"version": 1
			},
			"evm": {
				"assembly": "    /* \"FoodTraceability.sol\":622:16187  contract FoodTraceabilityFull {... */\n  mstore(0x40, 0x80)\n    /* \"FoodTraceability.sol\":3980:4116  constructor() {... */\n  callvalue\n  dup1\n  iszero\n  tag_1\n  jumpi\n  revert(0x00, 0x00)\ntag_1:\n  pop\n    /* \"FoodTraceability.sol\":4013:4023  msg.sender */\n  caller\n    /* \"FoodTraceability.sol\":4005:4010  owner */\n  0x00\n  0x00\n    /* \"FoodTraceability.sol\":4005:4023  owner = msg.sender */\n  0x0100\n  exp\n  dup2\n  sload\n  dup2\n  0xffffffffffffffffffffffffffffffffffffffff\n  mul\n  not\n  and\n  swap1\n  dup4\n  0xffffffffffffffffffffffffffffffffffffffff\n  and\n  mul\n  or\n  swap1\n  sstore\n  pop\n    /* \"FoodTraceability.sol\":4054:4063  Role.None */\n  0x00\n    /* \"FoodTraceability.sol\":4034:4039  roles */\n  0x03\n    /* \"FoodTraceability.sol\":4034:4051  roles[msg.sender] */\n  0x00\n    /* \"FoodTraceability.sol\":4040:4050  msg.sender */\n  caller\n    /* \"FoodTraceability.sol\":4034:4051  roles[msg.sender] */\n  0xffffffffffffffffffffffffffffffffffffffff\n  and\n  0xffffffffffffffffffffffffffffffffffffffff\n  and\n  dup2\n  mstore\n  0x20\n  add\n  swap1\n  dup2\n  mstore\n  0x20\n  add\n  0x00\n  keccak256\n  0x00\n    /* \"FoodTraceability.sol\":4034:4063  roles[msg.sender] = Role.None */\n  0x0100\n  exp\n  dup2\n  sload\n  dup2\n  0xff\n  mul\n  not\n  and\n  swap1\n  dup4\n  0x04\n  dup2\n  gt\n  iszero\n  tag_4\n  jumpi\n  tag_5\n  tag_6\n  jump\t// in\ntag_5:\ntag_4:\n  mul\n  or\n  swap1\n  sstore\n  pop\n    /* \"FoodTraceability.sol\":622:16187  contract FoodTraceabilityFull {... */\n  jump(tag_7)\n    /* \"#utility.yul\":7:187   */\ntag_6:\n    /* \"#utility.yul\":55:132   */\n  0x4e487b7100000000000000000000000000000000000000000000000000000000\n    /* \"#utility.yul\":52:53   */\n  0x00\n    /* \"#utility.yul\":45:133   */\n  mstore\n    /* \"#utility.yul\":152:156   */\n  0x21\n    /* \"#utility.yul\":149:150   */\n  0x04\n    /* \"#utility.yul\":142:157   */\n  mstore\n    /* \"#utility.yul\":176:180   */\n  0x24\n    /* \"#utility.yul\":173:174   */\n  0x00\n    /* \"#utility.yul\":166:181   */\n  revert\n    /* \"FoodTraceability.sol\":622:16187  contract FoodTraceabilityFull {... */\ntag_7:\n  dataSize(sub_0)\n  dup1\n  dataOffset(sub_0)\n  0x00\n  codecopy\n  0x00\n  return\nstop\n\nsub_0: assembly {\n        /* \"FoodTraceability.sol\":622:16187  contract FoodTraceabilityFull {... */\n      mstore(0x40, 0x80)\n      callvalue\n      dup1\n      iszero\n      tag_1\n      jumpi\n      revert(0x00, 0x00)\n    tag_1:\n      pop\n      jumpi(tag_2, lt(calldatasize, 0x04))\n      shr(0xe0, calldataload(0x00))\n      dup1\n      0x8da5cb5b\n      gt\n      tag_19\n      jumpi\n      dup1\n      0xb6017c67\n      gt\n      tag_20\n      jumpi\n      dup1\n      0xb6017c67\n      eq\n      tag_15\n      jumpi\n      dup1\n      0xc6b0b839\n      eq\n      tag_16\n      jumpi\n      dup1\n      0xd5feb194\n      eq\n      tag_17\n      jumpi\n      dup1\n      0xfbf4a0cd\n      eq\n      tag_18\n      jumpi\n      jump(tag_2)\n    tag_20:\n      dup1\n      0x8da5cb5b\n      eq\n      tag_11\n      jumpi\n      dup1\n      0x90506e02\n      eq\n      tag_12\n      jumpi\n      dup1\n      0x99374642\n      eq\n      tag_13\n      jumpi\n      dup1\n      0xa560b77c\n      eq\n      tag_14\n      jumpi\n      jump(tag_2)\n    tag_19:\n      dup1\n      0x5cf291dc\n      gt\n      tag_21\n      jumpi\n      dup1\n      0x5cf291dc\n      eq\n      tag_7\n      jumpi\n      dup1\n      0x630a195b\n      eq\n      tag_8\n      jumpi\n      dup1\n      0x7ab6cd50\n      eq\n      tag_9\n      jumpi\n      dup1\n      0x8799d6fc\n      eq\n      tag_10\n      jumpi\n      jump(tag_2)\n    tag_21:\n      dup1\n      0x06922f52\n      eq\n      tag_3\n      jumpi\n      dup1\n      0x1ea32e5c\n      eq\n      tag_4\n      jumpi\n      dup1\n      0x3567fa7d\n      eq\n      tag_5\n      jumpi\n      dup1\n      0x4e5ae78b\n      eq\n      tag_6\n      jumpi\n    tag_2:\n      revert(0x00, 0x00)\n        /* \"FoodTraceability.sol\":11585:11745  function getBadges(string memory lotNumber) external view productExists(lotNumber) returns (string[] memory) {... */\n    tag_3:\n      tag_22\n      0x04\n      dup1\n      calldatasize\n      sub\n      dup2\n      add\n      swap1\n      tag_23\n      swap2\n      swap1\n      tag_24\n      jump\t// in\n    tag_23:\n      tag_25\n      jump\t// in\n    tag_22:\n      mload(0x40)\n      tag_26\n      swap2\n      swap1\n      tag_27\n      jump\t// in\n    tag_26:\n      mload(0x40)\n      dup1\n      swap2\n      sub\n      swap1\n      return\n        /* \"FoodTraceability.sol\":10063:10580  function consumerLookupByLot(string memory lotNumber)... */\n    tag_4:\n      tag_28\n      0x04\n      dup1\n      calldatasize\n      sub\n      dup2\n      add\n      swap1\n      tag_29\n      swap2\n      swap1\n      tag_24\n      jump\t// in\n    tag_29:\n      tag_30\n      jump\t// in\n    tag_28:\n      mload(0x40)\n      tag_31\n      swap7\n      swap6\n      swap5\n      swap4\n      swap3\n      swap2\n      swap1\n      tag_32\n      jump\t// in\n    tag_31:\n      mload(0x40)\n      dup1\n      swap2\n      sub\n      swap1\n      return\n        /* \"FoodTraceability.sol\":7849:8504  function captureIoTData(... */\n    tag_5:\n      tag_33\n      0x04\n      dup1\n      calldatasize\n      sub\n      dup2\n      add\n      swap1\n      tag_34\n      swap2\n      swap1\n      tag_35\n      jump\t// in\n    tag_34:\n      tag_36\n      jump\t// in\n    tag_33:\n      stop\n        /* \"FoodTraceability.sol\":16008:16184  function hasBadge(string memory lotNumber, string memory badgeName) external view productExists(lotNumber) returns (bool) {... */\n    tag_6:\n      tag_37\n      0x04\n      dup1\n      calldatasize\n      sub\n      dup2\n      add\n      swap1\n      tag_38\n      swap2\n      swap1\n      tag_39\n      jump\t// in\n    tag_38:\n      tag_40\n      jump\t// in\n    tag_37:\n      mload(0x40)\n      tag_41\n      swap2\n      swap1\n      tag_42\n      jump\t// in\n    tag_41:\n      mload(0x40)\n      dup1\n      swap2\n      sub\n      swap1\n      return\n        /* \"FoodTraceability.sol\":6024:7750  function updateStage(string memory lotNumber, Stage newStage) external productExists(lotNumber) {... */\n    tag_7:\n      tag_43\n      0x04\n      dup1\n      calldatasize\n      sub\n      dup2\n      add\n      swap1\n      tag_44\n      swap2\n      swap1\n      tag_45\n      jump\t// in\n    tag_44:\n      tag_46\n      jump\t// in\n    tag_43:\n      stop\n        /* \"FoodTraceability.sol\":4214:4364  function assignRole(address account, Role role) external onlyOwner {... */\n    tag_8:\n      tag_47\n      0x04\n      dup1\n      calldatasize\n      sub\n      dup2\n      add\n      swap1\n      tag_48\n      swap2\n      swap1\n      tag_49\n      jump\t// in\n    tag_48:\n      tag_50\n      jump\t// in\n    tag_47:\n      stop\n        /* \"FoodTraceability.sol\":10745:11134  function awardBadge(string memory lotNumber, string memory badgeName) external productExists(lotNumber) {... */\n    tag_9:\n      tag_51\n      0x04\n      dup1\n      calldatasize\n      sub\n      dup2\n      add\n      swap1\n      tag_52\n      swap2\n      swap1\n      tag_39\n      jump\t// in\n    tag_52:\n      tag_53\n      jump\t// in\n    tag_51:\n      stop\n        /* \"FoodTraceability.sol\":4575:5212  function registerProduct(... */\n    tag_10:\n      tag_54\n      0x04\n      dup1\n      calldatasize\n      sub\n      dup2\n      add\n      swap1\n      tag_55\n      swap2\n      swap1\n      tag_56\n      jump\t// in\n    tag_55:\n      tag_57\n      jump\t// in\n    tag_54:\n      stop\n        /* \"FoodTraceability.sol\":1563:1583  address public owner */\n    tag_11:\n      tag_58\n      tag_59\n      jump\t// in\n    tag_58:\n      mload(0x40)\n      tag_60\n      swap2\n      swap1\n      tag_61\n      jump\t// in\n    tag_60:\n      mload(0x40)\n      dup1\n      swap2\n      sub\n      swap1\n      return\n        /* \"FoodTraceability.sol\":15217:15880  function getIoTLogs(string memory lotNumber) external view productExists(lotNumber)... */\n    tag_12:\n      tag_62\n      0x04\n      dup1\n      calldatasize\n      sub\n      dup2\n      add\n      swap1\n      tag_63\n      swap2\n      swap1\n      tag_24\n      jump\t// in\n    tag_63:\n      tag_64\n      jump\t// in\n    tag_62:\n      mload(0x40)\n      tag_65\n      swap4\n      swap3\n      swap2\n      swap1\n      tag_66\n      jump\t// in\n    tag_65:\n      mload(0x40)\n      dup1\n      swap2\n      sub\n      swap1\n      return\n        /* \"FoodTraceability.sol\":1768:1805  mapping(address => Role) public roles */\n    tag_13:\n      tag_67\n      0x04\n      dup1\n      calldatasize\n      sub\n      dup2\n      add\n      swap1\n      tag_68\n      swap2\n      swap1\n      tag_69\n      jump\t// in\n    tag_68:\n      tag_70\n      jump\t// in\n    tag_67:\n      mload(0x40)\n      tag_71\n      swap2\n      swap1\n      tag_72\n      jump\t// in\n    tag_71:\n      mload(0x40)\n      dup1\n      swap2\n      sub\n      swap1\n      return\n        /* \"FoodTraceability.sol\":12786:13762  function getAnalytics(string memory lotNumber) external view productExists(lotNumber)... */\n    tag_14:\n      tag_73\n      0x04\n      dup1\n      calldatasize\n      sub\n      dup2\n      add\n      swap1\n      tag_74\n      swap2\n      swap1\n      tag_24\n      jump\t// in\n    tag_74:\n      tag_75\n      jump\t// in\n    tag_73:\n      mload(0x40)\n      tag_76\n      swap6\n      swap5\n      swap4\n      swap3\n      swap2\n      swap1\n      tag_77\n      jump\t// in\n    tag_76:\n      mload(0x40)\n      dup1\n      swap2\n      sub\n      swap1\n      return\n        /* \"FoodTraceability.sol\":8644:9366  function generateQRToken(string memory lotNumber) external productExists(lotNumber) returns (string memory) {... */\n    tag_15:\n      tag_78\n      0x04\n      dup1\n      calldatasize\n      sub\n      dup2\n      add\n      swap1\n      tag_79\n      swap2\n      swap1\n      tag_24\n      jump\t// in\n    tag_79:\n      tag_80\n      jump\t// in\n    tag_78:\n      mload(0x40)\n      tag_81\n      swap2\n      swap1\n      tag_82\n      jump\t// in\n    tag_81:\n      mload(0x40)\n      dup1\n      swap2\n      sub\n      swap1\n      return\n        /* \"FoodTraceability.sol\":9431:10008  function consumerLookupByQR(string memory qrToken)... */\n    tag_16:\n      tag_83\n      0x04\n      dup1\n      calldatasize\n      sub\n      dup2\n      add\n      swap1\n      tag_84\n      swap2\n      swap1\n      tag_24\n      jump\t// in\n    tag_84:\n      tag_85\n      jump\t// in\n    tag_83:\n      mload(0x40)\n      tag_86\n      swap7\n      swap6\n      swap5\n      swap4\n      swap3\n      swap2\n      swap1\n      tag_87\n      jump\t// in\n    tag_86:\n      mload(0x40)\n      dup1\n      swap2\n      sub\n      swap1\n      return\n        /* \"FoodTraceability.sol\":11964:12620  function checkTemperatureCompliance(string memory lotNumber) public view productExists(lotNumber) returns (bool) {... */\n    tag_17:\n      tag_88\n      0x04\n      dup1\n      calldatasize\n      sub\n      dup2\n      add\n      swap1\n      tag_89\n      swap2\n      swap1\n      tag_24\n      jump\t// in\n    tag_89:\n      tag_90\n      jump\t// in\n    tag_88:\n      mload(0x40)\n      tag_91\n      swap2\n      swap1\n      tag_42\n      jump\t// in\n    tag_91:\n      mload(0x40)\n      dup1\n      swap2\n      sub\n      swap1\n      return\n        /* \"FoodTraceability.sol\":5306:5796  function setTemperatureThresholds(... */\n    tag_18:\n      tag_92\n      0x04\n      dup1\n      calldatasize\n      sub\n      dup2\n      add\n      swap1\n      tag_93\n      swap2\n      swap1\n      tag_94\n      jump\t// in\n    tag_93:\n      tag_95\n      jump\t// in\n    tag_92:\n      stop\n        /* \"FoodTraceability.sol\":11585:11745  function getBadges(string memory lotNumber) external view productExists(lotNumber) returns (string[] memory) {... */\n    tag_25:\n        /* \"FoodTraceability.sol\":11677:11692  string[] memory */\n      0x60\n        /* \"FoodTraceability.sol\":11657:11666  lotNumber */\n      dup2\n        /* \"FoodTraceability.sol\":3115:3129  registeredLots */\n      0x02\n        /* \"FoodTraceability.sol\":3130:3139  lotNumber */\n      dup2\n        /* \"FoodTraceability.sol\":3115:3140  registeredLots[lotNumber] */\n      mload(0x40)\n      tag_97\n      swap2\n      swap1\n      tag_98\n      jump\t// in\n    tag_97:\n      swap1\n      dup2\n      mstore\n      0x20\n      add\n      mload(0x40)\n      dup1\n      swap2\n      sub\n      swap1\n      keccak256\n      0x00\n      swap1\n      sload\n      swap1\n      0x0100\n      exp\n      swap1\n      div\n      0xff\n      and\n        /* \"FoodTraceability.sol\":3107:3167  require(registeredLots[lotNumber], \"Product not registered\") */\n      tag_99\n      jumpi\n      mload(0x40)\n      0x08c379a000000000000000000000000000000000000000000000000000000000\n      dup2\n      mstore\n      0x04\n      add\n      tag_100\n      swap1\n      tag_101\n      jump\t// in\n    tag_100:\n      mload(0x40)\n      dup1\n      swap2\n      sub\n      swap1\n      revert\n    tag_99:\n        /* \"FoodTraceability.sol\":11712:11726  badgeListByLot */\n      0x07\n        /* \"FoodTraceability.sol\":11727:11736  lotNumber */\n      dup4\n        /* \"FoodTraceability.sol\":11712:11737  badgeListByLot[lotNumber] */\n      mload(0x40)\n      tag_103\n      swap2\n      swap1\n      tag_98\n      jump\t// in\n    tag_103:\n      swap1\n      dup2\n      mstore\n      0x20\n      add\n      mload(0x40)\n      dup1\n      swap2\n      sub\n      swap1\n      keccak256\n        /* \"FoodTraceability.sol\":11705:11737  return badgeListByLot[lotNumber] */\n      dup1\n      sload\n      dup1\n      0x20\n      mul\n      0x20\n      add\n      mload(0x40)\n      swap1\n      dup2\n      add\n      0x40\n      mstore\n      dup1\n      swap3\n      swap2\n      swap1\n      dup2\n      dup2\n      mstore\n      0x20\n      add\n      0x00\n      swap1\n    tag_104:\n      dup3\n      dup3\n      lt\n      iszero\n      tag_105\n      jumpi\n      dup4\n      dup3\n      swap1\n      0x00\n      mstore\n      keccak256(0x00, 0x20)\n      add\n      dup1\n      sload\n      tag_107\n      swap1\n      tag_108\n      jump\t// in\n    tag_107:\n      dup1\n      0x1f\n      add\n      0x20\n      dup1\n      swap2\n      div\n      mul\n      0x20\n      add\n      mload(0x40)\n      swap1\n      dup2\n      add\n      0x40\n      mstore\n      dup1\n      swap3\n      swap2\n      swap1\n      dup2\n      dup2\n      mstore\n      0x20\n      add\n      dup3\n      dup1\n      sload\n      tag_109\n      swap1\n      tag_108\n      jump\t// in\n    tag_109:\n      dup1\n      iszero\n      tag_110\n      jumpi\n      dup1\n      0x1f\n      lt\n      tag_111\n      jumpi\n      0x0100\n      dup1\n      dup4\n      sload\n      div\n      mul\n      dup4\n      mstore\n      swap2\n      0x20\n      add\n      swap2\n      jump(tag_110)\n    tag_111:\n      dup3\n      add\n      swap2\n      swap1\n      0x00\n      mstore\n      keccak256(0x00, 0x20)\n      swap1\n    tag_112:\n      dup2\n      sload\n      dup2\n      mstore\n      swap1\n      0x01\n      add\n      swap1\n      0x20\n      add\n      dup1\n      dup4\n      gt\n      tag_112\n      jumpi\n      dup3\n      swap1\n      sub\n      0x1f\n      and\n      dup3\n      add\n      swap2\n    tag_110:\n      pop\n      pop\n      pop\n      pop\n      pop\n      dup2\n      mstore\n      0x20\n      add\n      swap1\n      0x01\n      add\n      swap1\n      jump(tag_104)\n    tag_105:\n      pop\n      pop\n      pop\n      pop\n      swap2\n      pop\n        /* \"FoodTraceability.sol\":11585:11745  function getBadges(string memory lotNumber) external view productExists(lotNumber) returns (string[] memory) {... */\n      pop\n      swap2\n      swap1\n      pop\n      jump\t// out\n        /* \"FoodTraceability.sol\":10063:10580  function consumerLookupByLot(string memory lotNumber)... */\n    tag_30:\n        /* \"FoodTraceability.sol\":10215:10233  string memory name */\n      0x60\n        /* \"FoodTraceability.sol\":10248:10268  string memory origin */\n      dup1\n        /* \"FoodTraceability.sol\":10283:10311  string memory certifications */\n      0x60\n        /* \"FoodTraceability.sol\":10326:10337  Stage stage */\n      0x00\n        /* \"FoodTraceability.sol\":10352:10367  address handler */\n      0x00\n        /* \"FoodTraceability.sol\":10382:10404  string memory latestQR */\n      0x60\n        /* \"FoodTraceability.sol\":10172:10181  lotNumber */\n      dup7\n        /* \"FoodTraceability.sol\":3115:3129  registeredLots */\n      0x02\n        /* \"FoodTraceability.sol\":3130:3139  lotNumber */\n      dup2\n        /* \"FoodTraceability.sol\":3115:3140  registeredLots[lotNumber] */\n      mload(0x40)\n      tag_114\n      swap2\n      swap1\n      tag_98\n      jump\t// in\n    tag_114:\n      swap1\n      dup2\n      mstore\n      0x20\n      add\n      mload(0x40)\n      dup1\n      swap2\n      sub\n      swap1\n      keccak256\n      0x00\n      swap1\n      sload\n      swap1\n      0x0100\n      exp\n      swap1\n      div\n      0xff\n      and\n        /* \"FoodTraceability.sol\":3107:3167  require(registeredLots[lotNumber], \"Product not registered\") */\n      tag_115\n      jumpi\n      mload(0x40)\n      0x08c379a000000000000000000000000000000000000000000000000000000000\n      dup2\n      mstore\n      0x04\n      add\n      tag_116\n      swap1\n      tag_101\n      jump\t// in\n    tag_116:\n      mload(0x40)\n      dup1\n      swap2\n      sub\n      swap1\n      revert\n    tag_115:\n        /* \"FoodTraceability.sol\":10432:10449  Product storage p */\n      0x00\n        /* \"FoodTraceability.sol\":10452:10460  products */\n      0x01\n        /* \"FoodTraceability.sol\":10461:10470  lotNumber */\n      dup10\n        /* \"FoodTraceability.sol\":10452:10471  products[lotNumber] */\n      mload(0x40)\n      tag_118\n      swap2\n      swap1\n      tag_98\n      jump\t// in\n    tag_118:\n      swap1\n      dup2\n      mstore\n      0x20\n      add\n      mload(0x40)\n      dup1\n      swap2\n      sub\n      swap1\n      keccak256\n        /* \"FoodTraceability.sol\":10432:10471  Product storage p = products[lotNumber] */\n      swap1\n      pop\n        /* \"FoodTraceability.sol\":10490:10491  p */\n      dup1\n        /* \"FoodTraceability.sol\":10490:10496  p.name */\n      0x01\n      add\n        /* \"FoodTraceability.sol\":10498:10499  p */\n      dup2\n        /* \"FoodTraceability.sol\":10498:10506  p.origin */\n      0x02\n      add\n        /* \"FoodTraceability.sol\":10508:10509  p */\n      dup3\n        /* \"FoodTraceability.sol\":10508:10524  p.certifications */\n      0x03\n      add\n        /* \"FoodTraceability.sol\":10526:10527  p */\n      dup4\n        /* \"FoodTraceability.sol\":10526:10533  p.stage */\n      0x04\n      add\n      0x00\n      swap1\n      sload\n      swap1\n      0x0100\n      exp\n      swap1\n      div\n      0xff\n      and\n        /* \"FoodTraceability.sol\":10535:10536  p */\n      dup5\n        /* \"FoodTraceability.sol\":10535:10551  p.currentHandler */\n      0x04\n      add\n      0x01\n      swap1\n      sload\n      swap1\n      0x0100\n      exp\n      swap1\n      div\n      0xffffffffffffffffffffffffffffffffffffffff\n      and\n        /* \"FoodTraceability.sol\":10553:10560  lotToQr */\n      0x05\n        /* \"FoodTraceability.sol\":10561:10570  lotNumber */\n      dup15\n        /* \"FoodTraceability.sol\":10553:10571  lotToQr[lotNumber] */\n      mload(0x40)\n      tag_119\n      swap2\n      swap1\n      tag_98\n      jump\t// in\n    tag_119:\n      swap1\n      dup2\n      mstore\n      0x20\n      add\n      mload(0x40)\n      dup1\n      swap2\n      sub\n      swap1\n      keccak256\n        /* \"FoodTraceability.sol\":10482:10572  return (p.name, p.origin, p.certifications, p.stage, p.currentHandler, lotToQr[lotNumber]) */\n      dup6\n      dup1\n      sload\n      tag_120\n      swap1\n      tag_108\n      jump\t// in\n    tag_120:\n      dup1\n      0x1f\n      add\n      0x20\n      dup1\n      swap2\n      div\n      mul\n      0x20\n      add\n      mload(0x40)\n      swap1\n      dup2\n      add\n      0x40\n      mstore\n      dup1\n      swap3\n      swap2\n      swap1\n      dup2\n      dup2\n      mstore\n      0x20\n      add\n      dup3\n      dup1\n      sload\n      tag_121\n      swap1\n      tag_108\n      jump\t// in\n    tag_121:\n      dup1\n      iszero\n      tag_122\n      jumpi\n      dup1\n      0x1f\n      lt\n      tag_123\n      jumpi\n      0x0100\n      dup1\n      dup4\n      sload\n      div\n      mul\n      dup4\n      mstore\n      swap2\n      0x20\n      add\n      swap2\n      jump(tag_122)\n    tag_123:\n      dup3\n      add\n      swap2\n      swap1\n      0x00\n      mstore\n      keccak256(0x00, 0x20)\n      swap1\n    tag_124:\n      dup2\n      sload\n      dup2\n      mstore\n      swap1\n      0x01\n      add\n      swap1\n      0x20\n      add\n      dup1\n      dup4\n      gt\n      tag_124\n      jumpi\n      dup3\n      swap1\n      sub\n      0x1f\n      and\n      dup3\n      add\n      swap2\n    tag_122:\n      pop\n      pop\n      pop\n      pop\n      pop\n      swap6\n      pop\n      dup5\n      dup1\n      sload\n      tag_125\n      swap1\n      tag_108\n      jump\t// in\n    tag_125:\n      dup1\n      0x1f\n      add\n      0x20\n      dup1\n      swap2\n      div\n      mul\n      0x20\n      add\n      mload(0x40)\n      swap1\n      dup2\n      add\n      0x40\n      mstore\n      dup1\n      swap3\n      swap2\n      swap1\n      dup2\n      dup2\n      mstore\n      0x20\n      add\n      dup3\n      dup1\n      sload\n      tag_126\n      swap1\n      tag_108\n      jump\t// in\n    tag_126:\n      dup1\n      iszero\n      tag_127\n      jumpi\n      dup1\n      0x1f\n      lt\n      tag_128\n      jumpi\n      0x0100\n      dup1\n      dup4\n      sload\n      div\n      mul\n      dup4\n      mstore\n      swap2\n      0x20\n      add\n      swap2\n      jump(tag_127)\n    tag_128:\n      dup3\n      add\n      swap2\n      swap1\n      0x00\n      mstore\n      keccak256(0x00, 0x20)\n      swap1\n    tag_129:\n      dup2\n      sload\n      dup2\n      mstore\n      swap1\n      0x01\n      add\n      swap1\n      0x20\n      add\n      dup1\n      dup4\n      gt\n      tag_129\n      jumpi\n      dup3\n      swap1\n      sub\n      0x1f\n      and\n      dup3\n      add\n      swap2\n    tag_127:\n      pop\n      pop\n      pop\n      pop\n      pop\n      swap5\n      pop\n      dup4\n      dup1\n      sload\n      tag_130\n      swap1\n      tag_108\n      jump\t// in\n    tag_130:\n      dup1\n      0x1f\n      add\n      0x20\n      dup1\n      swap2\n      div\n      mul\n      0x20\n      add\n      mload(0x40)\n      swap1\n      dup2\n      add\n      0x40\n      mstore\n      dup1\n      swap3\n      swap2\n      swap1\n      dup2\n      dup2\n      mstore\n      0x20\n      add\n      dup3\n      dup1\n      sload\n      tag_131\n      swap1\n      tag_108\n      jump\t// in\n    tag_131:\n      dup1\n      iszero\n      tag_132\n      jumpi\n      dup1\n      0x1f\n      lt\n      tag_133\n      jumpi\n      0x0100\n      dup1\n      dup4\n      sload\n      div\n      mul\n      dup4\n      mstore\n      swap2\n      0x20\n      add\n      swap2\n      jump(tag_132)\n    tag_133:\n      dup3\n      add\n      swap2\n      swap1\n      0x00\n      mstore\n      keccak256(0x00, 0x20)\n      swap1\n    tag_134:\n      dup2\n      sload\n      dup2\n      mstore\n      swap1\n      0x01\n      add\n      swap1\n      0x20\n      add\n      dup1\n      dup4\n      gt\n      tag_134\n      jumpi\n      dup3\n      swap1\n      sub\n      0x1f\n      and\n      dup3\n      add\n      swap2\n    tag_132:\n      pop\n      pop\n      pop\n      pop\n      pop\n      swap4\n      pop\n      dup1\n      dup1\n      sload\n      tag_135\n      swap1\n      tag_108\n      jump\t// in\n    tag_135:\n      dup1\n      0x1f\n      add\n      0x20\n      dup1\n      swap2\n      div\n      mul\n      0x20\n      add\n      mload(0x40)\n      swap1\n      dup2\n      add\n      0x40\n      mstore\n      dup1\n      swap3\n      swap2\n      swap1\n      dup2\n      dup2\n      mstore\n      0x20\n      add\n      dup3\n      dup1\n      sload\n      tag_136\n      swap1\n      tag_108\n      jump\t// in\n    tag_136:\n      dup1\n      iszero\n      tag_137\n      jumpi\n      dup1\n      0x1f\n      lt\n      tag_138\n      jumpi\n      0x0100\n      dup1\n      dup4\n      sload\n      div\n      mul\n      dup4\n      mstore\n      swap2\n      0x20\n      add\n      swap2\n      jump(tag_137)\n    tag_138:\n      dup3\n      add\n      swap2\n      swap1\n      0x00\n      mstore\n      keccak256(0x00, 0x20)\n      swap1\n    tag_139:\n      dup2\n      sload\n      dup2\n      mstore\n      swap1\n      0x01\n      add\n      swap1\n      0x20\n      add\n      dup1\n      dup4\n      gt\n      tag_139\n      jumpi\n      dup3\n      swap1\n      sub\n      0x1f\n      and\n      dup3\n      add\n      swap2\n    tag_137:\n      pop\n      pop\n      pop\n      pop\n      pop\n      swap1\n      pop\n      swap8\n      pop\n      swap8\n      pop\n      swap8\n      pop\n      swap8\n      pop\n      swap8\n      pop\n      swap8\n      pop\n      pop\n        /* \"FoodTraceability.sol\":10063:10580  function consumerLookupByLot(string memory lotNumber)... */\n      pop\n      swap2\n      swap4\n      swap6\n      pop\n      swap2\n      swap4\n      swap6\n      jump\t// out\n        /* \"FoodTraceability.sol\":7849:8504  function captureIoTData(... */\n    tag_36:\n        /* \"FoodTraceability.sol\":8004:8013  lotNumber */\n      dup3\n        /* \"FoodTraceability.sol\":3115:3129  registeredLots */\n      0x02\n        /* \"FoodTraceability.sol\":3130:3139  lotNumber */\n      dup2\n        /* \"FoodTraceability.sol\":3115:3140  registeredLots[lotNumber] */\n      mload(0x40)\n      tag_141\n      swap2\n      swap1\n      tag_98\n      jump\t// in\n    tag_141:\n      swap1\n      dup2\n      mstore\n      0x20\n      add\n      mload(0x40)\n      dup1\n      swap2\n      sub\n      swap1\n      keccak256\n      0x00\n      swap1\n      sload\n      swap1\n      0x0100\n      exp\n      swap1\n      div\n      0xff\n      and\n        /* \"FoodTraceability.sol\":3107:3167  require(registeredLots[lotNumber], \"Product not registered\") */\n      tag_142\n      jumpi\n      mload(0x40)\n      0x08c379a000000000000000000000000000000000000000000000000000000000\n      dup2\n      mstore\n      0x04\n      add\n      tag_143\n      swap1\n      tag_101\n      jump\t// in\n    tag_143:\n      mload(0x40)\n      dup1\n      swap2\n      sub\n      swap1\n      revert\n    tag_142:\n        /* \"FoodTraceability.sol\":8136:8141  owner */\n      0x00\n      0x00\n      swap1\n      sload\n      swap1\n      0x0100\n      exp\n      swap1\n      div\n      0xffffffffffffffffffffffffffffffffffffffff\n      and\n        /* \"FoodTraceability.sol\":8122:8141  msg.sender == owner */\n      0xffffffffffffffffffffffffffffffffffffffff\n      and\n        /* \"FoodTraceability.sol\":8122:8132  msg.sender */\n      caller\n        /* \"FoodTraceability.sol\":8122:8141  msg.sender == owner */\n      0xffffffffffffffffffffffffffffffffffffffff\n      and\n      eq\n        /* \"FoodTraceability.sol\":8122:8180  msg.sender == owner || roles[msg.sender] == Role.Logistics */\n      dup1\n      tag_145\n      jumpi\n      pop\n        /* \"FoodTraceability.sol\":8166:8180  Role.Logistics */\n      0x03\n        /* \"FoodTraceability.sol\":8145:8180  roles[msg.sender] == Role.Logistics */\n      0x04\n      dup2\n      gt\n      iszero\n      tag_146\n      jumpi\n      tag_147\n      tag_148\n      jump\t// in\n    tag_147:\n    tag_146:\n        /* \"FoodTraceability.sol\":8145:8150  roles */\n      0x03\n        /* \"FoodTraceability.sol\":8145:8162  roles[msg.sender] */\n      0x00\n        /* \"FoodTraceability.sol\":8151:8161  msg.sender */\n      caller\n        /* \"FoodTraceability.sol\":8145:8162  roles[msg.sender] */\n      0xffffffffffffffffffffffffffffffffffffffff\n      and\n      0xffffffffffffffffffffffffffffffffffffffff\n      and\n      dup2\n      mstore\n      0x20\n      add\n      swap1\n      dup2\n      mstore\n      0x20\n      add\n      0x00\n      keccak256\n      0x00\n      swap1\n      sload\n      swap1\n      0x0100\n      exp\n      swap1\n      div\n      0xff\n      and\n        /* \"FoodTraceability.sol\":8145:8180  roles[msg.sender] == Role.Logistics */\n      0x04\n      dup2\n      gt\n      iszero\n      tag_149\n      jumpi\n      tag_150\n      tag_148\n      jump\t// in\n    tag_150:\n    tag_149:\n      eq\n        /* \"FoodTraceability.sol\":8122:8180  msg.sender == owner || roles[msg.sender] == Role.Logistics */\n    tag_145:\n        /* \"FoodTraceability.sol\":8114:8228  require(msg.sender == owner || roles[msg.sender] == Role.Logistics, \"Only Logistics or owner can upload IoT data\") */\n      tag_151\n      jumpi\n      mload(0x40)\n      0x08c379a000000000000000000000000000000000000000000000000000000000\n      dup2\n      mstore\n      0x04\n      add\n      tag_152\n      swap1\n      tag_153\n      jump\t// in\n    tag_152:\n      mload(0x40)\n      dup1\n      swap2\n      sub\n      swap1\n      revert\n    tag_151:\n        /* \"FoodTraceability.sol\":8241:8249  products */\n      0x01\n        /* \"FoodTraceability.sol\":8250:8259  lotNumber */\n      dup5\n        /* \"FoodTraceability.sol\":8241:8260  products[lotNumber] */\n      mload(0x40)\n      tag_154\n      swap2\n      swap1\n      tag_98\n      jump\t// in\n    tag_154:\n      swap1\n      dup2\n      mstore\n      0x20\n      add\n      mload(0x40)\n      dup1\n      swap2\n      sub\n      swap1\n      keccak256\n        /* \"FoodTraceability.sol\":8241:8274  products[lotNumber].transportLogs */\n      0x05\n      add\n        /* \"FoodTraceability.sol\":8280:8423  IoTData({... */\n      mload(0x40)\n      dup1\n      0x60\n      add\n      0x40\n      mstore\n      dup1\n        /* \"FoodTraceability.sol\":8316:8327  temperature */\n      dup6\n        /* \"FoodTraceability.sol\":8280:8423  IoTData({... */\n      dup2\n      mstore\n      0x20\n      add\n        /* \"FoodTraceability.sol\":8357:8370  handlingNotes */\n      dup5\n        /* \"FoodTraceability.sol\":8280:8423  IoTData({... */\n      dup2\n      mstore\n      0x20\n      add\n        /* \"FoodTraceability.sol\":8396:8411  block.timestamp */\n      timestamp\n        /* \"FoodTraceability.sol\":8280:8423  IoTData({... */\n      dup2\n      mstore\n      pop\n        /* \"FoodTraceability.sol\":8241:8424  products[lotNumber].transportLogs.push(IoTData({... */\n      swap1\n      dup1\n      0x01\n      dup2\n      sload\n      add\n      dup1\n      dup3\n      sstore\n      dup1\n      swap2\n      pop\n      pop\n      0x01\n      swap1\n      sub\n      swap1\n      0x00\n      mstore\n      keccak256(0x00, 0x20)\n      swap1\n      0x03\n      mul\n      add\n      0x00\n      swap1\n      swap2\n      swap1\n      swap2\n      swap1\n      swap2\n      pop\n      0x00\n      dup3\n      add\n      mload\n      dup2\n      0x00\n      add\n      sstore\n      0x20\n      dup3\n      add\n      mload\n      dup2\n      0x01\n      add\n      swap1\n      dup2\n      tag_156\n      swap2\n      swap1\n      tag_157\n      jump\t// in\n    tag_156:\n      pop\n      0x40\n      dup3\n      add\n      mload\n      dup2\n      0x02\n      add\n      sstore\n      pop\n      pop\n        /* \"FoodTraceability.sol\":8458:8467  lotNumber */\n      dup4\n        /* \"FoodTraceability.sol\":8442:8496  IoTDataCaptured(lotNumber, temperature, handlingNotes) */\n      mload(0x40)\n      tag_158\n      swap2\n      swap1\n      tag_98\n      jump\t// in\n    tag_158:\n      mload(0x40)\n      dup1\n      swap2\n      sub\n      swap1\n      keccak256\n      0x684479d30f778d7227907b06c6d91844ada06c36ad099d3e79def4dddc42e310\n        /* \"FoodTraceability.sol\":8469:8480  temperature */\n      dup5\n        /* \"FoodTraceability.sol\":8482:8495  handlingNotes */\n      dup5\n        /* \"FoodTraceability.sol\":8442:8496  IoTDataCaptured(lotNumber, temperature, handlingNotes) */\n      mload(0x40)\n      tag_159\n      swap3\n      swap2\n      swap1\n      tag_160\n      jump\t// in\n    tag_159:\n      mload(0x40)\n      dup1\n      swap2\n      sub\n      swap1\n      log2\n        /* \"FoodTraceability.sol\":7849:8504  function captureIoTData(... */\n      pop\n      pop\n      pop\n      pop\n      jump\t// out\n        /* \"FoodTraceability.sol\":16008:16184  function hasBadge(string memory lotNumber, string memory badgeName) external view productExists(lotNumber) returns (bool) {... */\n    tag_40:\n        /* \"FoodTraceability.sol\":16124:16128  bool */\n      0x00\n        /* \"FoodTraceability.sol\":16104:16113  lotNumber */\n      dup3\n        /* \"FoodTraceability.sol\":3115:3129  registeredLots */\n      0x02\n        /* \"FoodTraceability.sol\":3130:3139  lotNumber */\n      dup2\n        /* \"FoodTraceability.sol\":3115:3140  registeredLots[lotNumber] */\n      mload(0x40)\n      tag_162\n      swap2\n      swap1\n      tag_98\n      jump\t// in\n    tag_162:\n      swap1\n      dup2\n      mstore\n      0x20\n      add\n      mload(0x40)\n      dup1\n      swap2\n      sub\n      swap1\n      keccak256\n      0x00\n      swap1\n      sload\n      swap1\n      0x0100\n      exp\n      swap1\n      div\n      0xff\n      and\n        /* \"FoodTraceability.sol\":3107:3167  require(registeredLots[lotNumber], \"Product not registered\") */\n      tag_163\n      jumpi\n      mload(0x40)\n      0x08c379a000000000000000000000000000000000000000000000000000000000\n      dup2\n      mstore\n      0x04\n      add\n      tag_164\n      swap1\n      tag_101\n      jump\t// in\n    tag_164:\n      mload(0x40)\n      dup1\n      swap2\n      sub\n      swap1\n      revert\n    tag_163:\n        /* \"FoodTraceability.sol\":16148:16154  badges */\n      0x06\n        /* \"FoodTraceability.sol\":16155:16164  lotNumber */\n      dup5\n        /* \"FoodTraceability.sol\":16148:16165  badges[lotNumber] */\n      mload(0x40)\n      tag_166\n      swap2\n      swap1\n      tag_98\n      jump\t// in\n    tag_166:\n      swap1\n      dup2\n      mstore\n      0x20\n      add\n      mload(0x40)\n      dup1\n      swap2\n      sub\n      swap1\n      keccak256\n        /* \"FoodTraceability.sol\":16166:16175  badgeName */\n      dup4\n        /* \"FoodTraceability.sol\":16148:16176  badges[lotNumber][badgeName] */\n      mload(0x40)\n      tag_167\n      swap2\n      swap1\n      tag_98\n      jump\t// in\n    tag_167:\n      swap1\n      dup2\n      mstore\n      0x20\n      add\n      mload(0x40)\n      dup1\n      swap2\n      sub\n      swap1\n      keccak256\n      0x00\n      swap1\n      sload\n      swap1\n      0x0100\n      exp\n      swap1\n      div\n      0xff\n      and\n        /* \"FoodTraceability.sol\":16141:16176  return badges[lotNumber][badgeName] */\n      swap2\n      pop\n        /* \"FoodTraceability.sol\":16008:16184  function hasBadge(string memory lotNumber, string memory badgeName) external view productExists(lotNumber) returns (bool) {... */\n      pop\n      swap3\n      swap2\n      pop\n      pop\n      jump\t// out\n        /* \"FoodTraceability.sol\":6024:7750  function updateStage(string memory lotNumber, Stage newStage) external productExists(lotNumber) {... */\n    tag_46:\n        /* \"FoodTraceability.sol\":6109:6118  lotNumber */\n      dup2\n        /* \"FoodTraceability.sol\":3115:3129  registeredLots */\n      0x02\n        /* \"FoodTraceability.sol\":3130:3139  lotNumber */\n      dup2\n        /* \"FoodTraceability.sol\":3115:3140  registeredLots[lotNumber] */\n      mload(0x40)\n      tag_169\n      swap2\n      swap1\n      tag_98\n      jump\t// in\n    tag_169:\n      swap1\n      dup2\n      mstore\n      0x20\n      add\n      mload(0x40)\n      dup1\n      swap2\n      sub\n      swap1\n      keccak256\n      0x00\n      swap1\n      sload\n      swap1\n      0x0100\n      exp\n      swap1\n      div\n      0xff\n      and\n        /* \"FoodTraceability.sol\":3107:3167  require(registeredLots[lotNumber], \"Product not registered\") */\n      tag_170\n      jumpi\n      mload(0x40)\n      0x08c379a000000000000000000000000000000000000000000000000000000000\n      dup2\n      mstore\n      0x04\n      add\n      tag_171\n      swap1\n      tag_101\n      jump\t// in\n    tag_171:\n      mload(0x40)\n      dup1\n      swap2\n      sub\n      swap1\n      revert\n    tag_170:\n        /* \"FoodTraceability.sol\":6131:6148  Product storage p */\n      0x00\n        /* \"FoodTraceability.sol\":6151:6159  products */\n      0x01\n        /* \"FoodTraceability.sol\":6160:6169  lotNumber */\n      dup5\n        /* \"FoodTraceability.sol\":6151:6170  products[lotNumber] */\n      mload(0x40)\n      tag_173\n      swap2\n      swap1\n      tag_98\n      jump\t// in\n    tag_173:\n      swap1\n      dup2\n      mstore\n      0x20\n      add\n      mload(0x40)\n      dup1\n      swap2\n      sub\n      swap1\n      keccak256\n        /* \"FoodTraceability.sol\":6131:6170  Product storage p = products[lotNumber] */\n      swap1\n      pop\n        /* \"FoodTraceability.sol\":6252:6253  p */\n      dup1\n        /* \"FoodTraceability.sol\":6252:6259  p.stage */\n      0x04\n      add\n      0x00\n      swap1\n      sload\n      swap1\n      0x0100\n      exp\n      swap1\n      div\n      0xff\n      and\n        /* \"FoodTraceability.sol\":6247:6260  uint(p.stage) */\n      0x05\n      dup2\n      gt\n      iszero\n      tag_174\n      jumpi\n      tag_175\n      tag_148\n      jump\t// in\n    tag_175:\n    tag_174:\n        /* \"FoodTraceability.sol\":6235:6243  newStage */\n      dup4\n        /* \"FoodTraceability.sol\":6230:6244  uint(newStage) */\n      0x05\n      dup2\n      gt\n      iszero\n      tag_176\n      jumpi\n      tag_177\n      tag_148\n      jump\t// in\n    tag_177:\n    tag_176:\n        /* \"FoodTraceability.sol\":6230:6260  uint(newStage) > uint(p.stage) */\n      gt\n        /* \"FoodTraceability.sol\":6222:6313  require(uint(newStage) > uint(p.stage), \"Invalid stage transition (must progress forward)\") */\n      tag_178\n      jumpi\n      mload(0x40)\n      0x08c379a000000000000000000000000000000000000000000000000000000000\n      dup2\n      mstore\n      0x04\n      add\n      tag_179\n      swap1\n      tag_180\n      jump\t// in\n    tag_179:\n      mload(0x40)\n      dup1\n      swap2\n      sub\n      swap1\n      revert\n    tag_178:\n        /* \"FoodTraceability.sol\":6445:6457  Stage.Vendor */\n      0x01\n        /* \"FoodTraceability.sol\":6433:6457  newStage == Stage.Vendor */\n      0x05\n      dup2\n      gt\n      iszero\n      tag_181\n      jumpi\n      tag_182\n      tag_148\n      jump\t// in\n    tag_182:\n    tag_181:\n        /* \"FoodTraceability.sol\":6433:6441  newStage */\n      dup4\n        /* \"FoodTraceability.sol\":6433:6457  newStage == Stage.Vendor */\n      0x05\n      dup2\n      gt\n      iszero\n      tag_183\n      jumpi\n      tag_184\n      tag_148\n      jump\t// in\n    tag_184:\n    tag_183:\n      sub\n        /* \"FoodTraceability.sol\":6429:7234  if (newStage == Stage.Vendor) {... */\n      tag_185\n      jumpi\n        /* \"FoodTraceability.sol\":6503:6514  Role.Vendor */\n      0x01\n        /* \"FoodTraceability.sol\":6482:6514  roles[msg.sender] == Role.Vendor */\n      0x04\n      dup2\n      gt\n      iszero\n      tag_186\n      jumpi\n      tag_187\n      tag_148\n      jump\t// in\n    tag_187:\n    tag_186:\n        /* \"FoodTraceability.sol\":6482:6487  roles */\n      0x03\n        /* \"FoodTraceability.sol\":6482:6499  roles[msg.sender] */\n      0x00\n        /* \"FoodTraceability.sol\":6488:6498  msg.sender */\n      caller\n        /* \"FoodTraceability.sol\":6482:6499  roles[msg.sender] */\n      0xffffffffffffffffffffffffffffffffffffffff\n      and\n      0xffffffffffffffffffffffffffffffffffffffff\n      and\n      dup2\n      mstore\n      0x20\n      add\n      swap1\n      dup2\n      mstore\n      0x20\n      add\n      0x00\n      keccak256\n      0x00\n      swap1\n      sload\n      swap1\n      0x0100\n      exp\n      swap1\n      div\n      0xff\n      and\n        /* \"FoodTraceability.sol\":6482:6514  roles[msg.sender] == Role.Vendor */\n      0x04\n      dup2\n      gt\n      iszero\n      tag_188\n      jumpi\n      tag_189\n      tag_148\n      jump\t// in\n    tag_189:\n    tag_188:\n      eq\n        /* \"FoodTraceability.sol\":6474:6533  require(roles[msg.sender] == Role.Vendor, \"Must be Vendor\") */\n      tag_190\n      jumpi\n      mload(0x40)\n      0x08c379a000000000000000000000000000000000000000000000000000000000\n      dup2\n      mstore\n      0x04\n      add\n      tag_191\n      swap1\n      tag_192\n      jump\t// in\n    tag_191:\n      mload(0x40)\n      dup1\n      swap2\n      sub\n      swap1\n      revert\n    tag_190:\n        /* \"FoodTraceability.sol\":6429:7234  if (newStage == Stage.Vendor) {... */\n      jump(tag_193)\n    tag_185:\n        /* \"FoodTraceability.sol\":6567:6586  Stage.Manufacturing */\n      0x02\n        /* \"FoodTraceability.sol\":6555:6586  newStage == Stage.Manufacturing */\n      0x05\n      dup2\n      gt\n      iszero\n      tag_194\n      jumpi\n      tag_195\n      tag_148\n      jump\t// in\n    tag_195:\n    tag_194:\n        /* \"FoodTraceability.sol\":6555:6563  newStage */\n      dup4\n        /* \"FoodTraceability.sol\":6555:6586  newStage == Stage.Manufacturing */\n      0x05\n      dup2\n      gt\n      iszero\n      tag_196\n      jumpi\n      tag_197\n      tag_148\n      jump\t// in\n    tag_197:\n    tag_196:\n      sub\n        /* \"FoodTraceability.sol\":6551:7234  if (newStage == Stage.Manufacturing) {... */\n      tag_198\n      jumpi\n        /* \"FoodTraceability.sol\":6632:6649  Role.Manufacturer */\n      0x02\n        /* \"FoodTraceability.sol\":6611:6649  roles[msg.sender] == Role.Manufacturer */\n      0x04\n      dup2\n      gt\n      iszero\n      tag_199\n      jumpi\n      tag_200\n      tag_148\n      jump\t// in\n    tag_200:\n    tag_199:\n        /* \"FoodTraceability.sol\":6611:6616  roles */\n      0x03\n        /* \"FoodTraceability.sol\":6611:6628  roles[msg.sender] */\n      0x00\n        /* \"FoodTraceability.sol\":6617:6627  msg.sender */\n      caller\n        /* \"FoodTraceability.sol\":6611:6628  roles[msg.sender] */\n      0xffffffffffffffffffffffffffffffffffffffff\n      and\n      0xffffffffffffffffffffffffffffffffffffffff\n      and\n      dup2\n      mstore\n      0x20\n      add\n      swap1\n      dup2\n      mstore\n      0x20\n      add\n      0x00\n      keccak256\n      0x00\n      swap1\n      sload\n      swap1\n      0x0100\n      exp\n      swap1\n      div\n      0xff\n      and\n        /* \"FoodTraceability.sol\":6611:6649  roles[msg.sender] == Role.Manufacturer */\n      0x04\n      dup2\n      gt\n      iszero\n      tag_201\n      jumpi\n      tag_202\n      tag_148\n      jump\t// in\n    tag_202:\n    tag_201:\n      eq\n        /* \"FoodTraceability.sol\":6603:6674  require(roles[msg.sender] == Role.Manufacturer, \"Must be Manufacturer\") */\n      tag_203\n      jumpi\n      mload(0x40)\n      0x08c379a000000000000000000000000000000000000000000000000000000000\n      dup2\n      mstore\n      0x04\n      add\n      tag_204\n      swap1\n      tag_205\n      jump\t// in\n    tag_204:\n      mload(0x40)\n      dup1\n      swap2\n      sub\n      swap1\n      revert\n    tag_203:\n        /* \"FoodTraceability.sol\":6551:7234  if (newStage == Stage.Manufacturing) {... */\n      jump(tag_206)\n    tag_198:\n        /* \"FoodTraceability.sol\":6708:6723  Stage.Logistics */\n      0x03\n        /* \"FoodTraceability.sol\":6696:6723  newStage == Stage.Logistics */\n      0x05\n      dup2\n      gt\n      iszero\n      tag_207\n      jumpi\n      tag_208\n      tag_148\n      jump\t// in\n    tag_208:\n    tag_207:\n        /* \"FoodTraceability.sol\":6696:6704  newStage */\n      dup4\n        /* \"FoodTraceability.sol\":6696:6723  newStage == Stage.Logistics */\n      0x05\n      dup2\n      gt\n      iszero\n      tag_209\n      jumpi\n      tag_210\n      tag_148\n      jump\t// in\n    tag_210:\n    tag_209:\n      sub\n        /* \"FoodTraceability.sol\":6692:7234  if (newStage == Stage.Logistics) {... */\n      tag_211\n      jumpi\n        /* \"FoodTraceability.sol\":6769:6783  Role.Logistics */\n      0x03\n        /* \"FoodTraceability.sol\":6748:6783  roles[msg.sender] == Role.Logistics */\n      0x04\n      dup2\n      gt\n      iszero\n      tag_212\n      jumpi\n      tag_213\n      tag_148\n      jump\t// in\n    tag_213:\n    tag_212:\n        /* \"FoodTraceability.sol\":6748:6753  roles */\n      0x03\n        /* \"FoodTraceability.sol\":6748:6765  roles[msg.sender] */\n      0x00\n        /* \"FoodTraceability.sol\":6754:6764  msg.sender */\n      caller\n        /* \"FoodTraceability.sol\":6748:6765  roles[msg.sender] */\n      0xffffffffffffffffffffffffffffffffffffffff\n      and\n      0xffffffffffffffffffffffffffffffffffffffff\n      and\n      dup2\n      mstore\n      0x20\n      add\n      swap1\n      dup2\n      mstore\n      0x20\n      add\n      0x00\n      keccak256\n      0x00\n      swap1\n      sload\n      swap1\n      0x0100\n      exp\n      swap1\n      div\n      0xff\n      and\n        /* \"FoodTraceability.sol\":6748:6783  roles[msg.sender] == Role.Logistics */\n      0x04\n      dup2\n      gt\n      iszero\n      tag_214\n      jumpi\n      tag_215\n      tag_148\n      jump\t// in\n    tag_215:\n    tag_214:\n      eq\n        /* \"FoodTraceability.sol\":6740:6805  require(roles[msg.sender] == Role.Logistics, \"Must be Logistics\") */\n      tag_216\n      jumpi\n      mload(0x40)\n      0x08c379a000000000000000000000000000000000000000000000000000000000\n      dup2\n      mstore\n      0x04\n      add\n      tag_217\n      swap1\n      tag_218\n      jump\t// in\n    tag_217:\n      mload(0x40)\n      dup1\n      swap2\n      sub\n      swap1\n      revert\n    tag_216:\n        /* \"FoodTraceability.sol\":6692:7234  if (newStage == Stage.Logistics) {... */\n      jump(tag_219)\n    tag_211:\n        /* \"FoodTraceability.sol\":6839:6851  Stage.Retail */\n      0x04\n        /* \"FoodTraceability.sol\":6827:6851  newStage == Stage.Retail */\n      0x05\n      dup2\n      gt\n      iszero\n      tag_220\n      jumpi\n      tag_221\n      tag_148\n      jump\t// in\n    tag_221:\n    tag_220:\n        /* \"FoodTraceability.sol\":6827:6835  newStage */\n      dup4\n        /* \"FoodTraceability.sol\":6827:6851  newStage == Stage.Retail */\n      0x05\n      dup2\n      gt\n      iszero\n      tag_222\n      jumpi\n      tag_223\n      tag_148\n      jump\t// in\n    tag_223:\n    tag_222:\n      sub\n        /* \"FoodTraceability.sol\":6823:7234  if (newStage == Stage.Retail) {... */\n      tag_224\n      jumpi\n        /* \"FoodTraceability.sol\":6897:6910  Role.Retailer */\n      0x04\n        /* \"FoodTraceability.sol\":6876:6910  roles[msg.sender] == Role.Retailer */\n      dup1\n      dup2\n      gt\n      iszero\n      tag_225\n      jumpi\n      tag_226\n      tag_148\n      jump\t// in\n    tag_226:\n    tag_225:\n        /* \"FoodTraceability.sol\":6876:6881  roles */\n      0x03\n        /* \"FoodTraceability.sol\":6876:6893  roles[msg.sender] */\n      0x00\n        /* \"FoodTraceability.sol\":6882:6892  msg.sender */\n      caller\n        /* \"FoodTraceability.sol\":6876:6893  roles[msg.sender] */\n      0xffffffffffffffffffffffffffffffffffffffff\n      and\n      0xffffffffffffffffffffffffffffffffffffffff\n      and\n      dup2\n      mstore\n      0x20\n      add\n      swap1\n      dup2\n      mstore\n      0x20\n      add\n      0x00\n      keccak256\n      0x00\n      swap1\n      sload\n      swap1\n      0x0100\n      exp\n      swap1\n      div\n      0xff\n      and\n        /* \"FoodTraceability.sol\":6876:6910  roles[msg.sender] == Role.Retailer */\n      0x04\n      dup2\n      gt\n      iszero\n      tag_227\n      jumpi\n      tag_228\n      tag_148\n      jump\t// in\n    tag_228:\n    tag_227:\n      eq\n        /* \"FoodTraceability.sol\":6868:6931  require(roles[msg.sender] == Role.Retailer, \"Must be Retailer\") */\n      tag_229\n      jumpi\n      mload(0x40)\n      0x08c379a000000000000000000000000000000000000000000000000000000000\n      dup2\n      mstore\n      0x04\n      add\n      tag_230\n      swap1\n      tag_231\n      jump\t// in\n    tag_230:\n      mload(0x40)\n      dup1\n      swap2\n      sub\n      swap1\n      revert\n    tag_229:\n        /* \"FoodTraceability.sol\":6823:7234  if (newStage == Stage.Retail) {... */\n      jump(tag_232)\n    tag_224:\n        /* \"FoodTraceability.sol\":6965:6980  Stage.Completed */\n      0x05\n        /* \"FoodTraceability.sol\":6953:6980  newStage == Stage.Completed */\n      dup1\n      dup2\n      gt\n      iszero\n      tag_233\n      jumpi\n      tag_234\n      tag_148\n      jump\t// in\n    tag_234:\n    tag_233:\n        /* \"FoodTraceability.sol\":6953:6961  newStage */\n      dup4\n        /* \"FoodTraceability.sol\":6953:6980  newStage == Stage.Completed */\n      0x05\n      dup2\n      gt\n      iszero\n      tag_235\n      jumpi\n      tag_236\n      tag_148\n      jump\t// in\n    tag_236:\n    tag_235:\n      sub\n        /* \"FoodTraceability.sol\":6949:7234  if (newStage == Stage.Completed) {... */\n      tag_237\n      jumpi\n        /* \"FoodTraceability.sol\":7077:7082  owner */\n      0x00\n      0x00\n      swap1\n      sload\n      swap1\n      0x0100\n      exp\n      swap1\n      div\n      0xffffffffffffffffffffffffffffffffffffffff\n      and\n        /* \"FoodTraceability.sol\":7063:7082  msg.sender == owner */\n      0xffffffffffffffffffffffffffffffffffffffff\n      and\n        /* \"FoodTraceability.sol\":7063:7073  msg.sender */\n      caller\n        /* \"FoodTraceability.sol\":7063:7082  msg.sender == owner */\n      0xffffffffffffffffffffffffffffffffffffffff\n      and\n      eq\n        /* \"FoodTraceability.sol\":7063:7120  msg.sender == owner || roles[msg.sender] == Role.Retailer */\n      dup1\n      tag_238\n      jumpi\n      pop\n        /* \"FoodTraceability.sol\":7107:7120  Role.Retailer */\n      0x04\n        /* \"FoodTraceability.sol\":7086:7120  roles[msg.sender] == Role.Retailer */\n      dup1\n      dup2\n      gt\n      iszero\n      tag_239\n      jumpi\n      tag_240\n      tag_148\n      jump\t// in\n    tag_240:\n    tag_239:\n        /* \"FoodTraceability.sol\":7086:7091  roles */\n      0x03\n        /* \"FoodTraceability.sol\":7086:7103  roles[msg.sender] */\n      0x00\n        /* \"FoodTraceability.sol\":7092:7102  msg.sender */\n      caller\n        /* \"FoodTraceability.sol\":7086:7103  roles[msg.sender] */\n      0xffffffffffffffffffffffffffffffffffffffff\n      and\n      0xffffffffffffffffffffffffffffffffffffffff\n      and\n      dup2\n      mstore\n      0x20\n      add\n      swap1\n      dup2\n      mstore\n      0x20\n      add\n      0x00\n      keccak256\n      0x00\n      swap1\n      sload\n      swap1\n      0x0100\n      exp\n      swap1\n      div\n      0xff\n      and\n        /* \"FoodTraceability.sol\":7086:7120  roles[msg.sender] == Role.Retailer */\n      0x04\n      dup2\n      gt\n      iszero\n      tag_241\n      jumpi\n      tag_242\n      tag_148\n      jump\t// in\n    tag_242:\n    tag_241:\n      eq\n        /* \"FoodTraceability.sol\":7063:7120  msg.sender == owner || roles[msg.sender] == Role.Retailer */\n    tag_238:\n        /* \"FoodTraceability.sol\":7055:7162  require(msg.sender == owner || roles[msg.sender] == Role.Retailer, \"Must be owner or retailer to complete\") */\n      tag_243\n      jumpi\n      mload(0x40)\n      0x08c379a000000000000000000000000000000000000000000000000000000000\n      dup2\n      mstore\n      0x04\n      add\n      tag_244\n      swap1\n      tag_245\n      jump\t// in\n    tag_244:\n      mload(0x40)\n      dup1\n      swap2\n      sub\n      swap1\n      revert\n    tag_243:\n        /* \"FoodTraceability.sol\":6949:7234  if (newStage == Stage.Completed) {... */\n      jump(tag_246)\n    tag_237:\n        /* \"FoodTraceability.sol\":7195:7222  revert(\"Unsupported stage\") */\n      mload(0x40)\n      0x08c379a000000000000000000000000000000000000000000000000000000000\n      dup2\n      mstore\n      0x04\n      add\n      tag_247\n      swap1\n      tag_248\n      jump\t// in\n    tag_247:\n      mload(0x40)\n      dup1\n      swap2\n      sub\n      swap1\n      revert\n        /* \"FoodTraceability.sol\":6949:7234  if (newStage == Stage.Completed) {... */\n    tag_246:\n        /* \"FoodTraceability.sol\":6823:7234  if (newStage == Stage.Retail) {... */\n    tag_232:\n        /* \"FoodTraceability.sol\":6692:7234  if (newStage == Stage.Logistics) {... */\n    tag_219:\n        /* \"FoodTraceability.sol\":6551:7234  if (newStage == Stage.Manufacturing) {... */\n    tag_206:\n        /* \"FoodTraceability.sol\":6429:7234  if (newStage == Stage.Vendor) {... */\n    tag_193:\n        /* \"FoodTraceability.sol\":7256:7264  newStage */\n      dup3\n        /* \"FoodTraceability.sol\":7246:7247  p */\n      dup2\n        /* \"FoodTraceability.sol\":7246:7253  p.stage */\n      0x04\n      add\n      0x00\n        /* \"FoodTraceability.sol\":7246:7264  p.stage = newStage */\n      0x0100\n      exp\n      dup2\n      sload\n      dup2\n      0xff\n      mul\n      not\n      and\n      swap1\n      dup4\n      0x05\n      dup2\n      gt\n      iszero\n      tag_249\n      jumpi\n      tag_250\n      tag_148\n      jump\t// in\n    tag_250:\n    tag_249:\n      mul\n      or\n      swap1\n      sstore\n      pop\n        /* \"FoodTraceability.sol\":7294:7304  msg.sender */\n      caller\n        /* \"FoodTraceability.sol\":7275:7276  p */\n      dup2\n        /* \"FoodTraceability.sol\":7275:7291  p.currentHandler */\n      0x04\n      add\n      0x01\n        /* \"FoodTraceability.sol\":7275:7304  p.currentHandler = msg.sender */\n      0x0100\n      exp\n      dup2\n      sload\n      dup2\n      0xffffffffffffffffffffffffffffffffffffffff\n      mul\n      not\n      and\n      swap1\n      dup4\n      0xffffffffffffffffffffffffffffffffffffffff\n      and\n      mul\n      or\n      swap1\n      sstore\n      pop\n        /* \"FoodTraceability.sol\":7335:7344  lotNumber */\n      dup4\n        /* \"FoodTraceability.sol\":7322:7367  StageUpdated(lotNumber, newStage, msg.sender) */\n      mload(0x40)\n      tag_251\n      swap2\n      swap1\n      tag_98\n      jump\t// in\n    tag_251:\n      mload(0x40)\n      dup1\n      swap2\n      sub\n      swap1\n      keccak256\n      0x9eabd3215b4e6fad51a44eb557fbb8224e77209a699c1e273f0d45e3849c1c2b\n        /* \"FoodTraceability.sol\":7346:7354  newStage */\n      dup5\n        /* \"FoodTraceability.sol\":7356:7366  msg.sender */\n      caller\n        /* \"FoodTraceability.sol\":7322:7367  StageUpdated(lotNumber, newStage, msg.sender) */\n      mload(0x40)\n      tag_252\n      swap3\n      swap2\n      swap1\n      tag_253\n      jump\t// in\n    tag_252:\n      mload(0x40)\n      dup1\n      swap2\n      sub\n      swap1\n      log2\n        /* \"FoodTraceability.sol\":7522:7534  Stage.Retail */\n      0x04\n        /* \"FoodTraceability.sol\":7510:7534  newStage == Stage.Retail */\n      0x05\n      dup2\n      gt\n      iszero\n      tag_254\n      jumpi\n      tag_255\n      tag_148\n      jump\t// in\n    tag_255:\n    tag_254:\n        /* \"FoodTraceability.sol\":7510:7518  newStage */\n      dup4\n        /* \"FoodTraceability.sol\":7510:7534  newStage == Stage.Retail */\n      0x05\n      dup2\n      gt\n      iszero\n      tag_256\n      jumpi\n      tag_257\n      tag_148\n      jump\t// in\n    tag_257:\n    tag_256:\n      sub\n        /* \"FoodTraceability.sol\":7506:7743  if (newStage == Stage.Retail) {... */\n      tag_258\n      jumpi\n        /* \"FoodTraceability.sol\":7555:7610  _containsCertification(p.certifications, \"Sustainable\") */\n      tag_259\n        /* \"FoodTraceability.sol\":7578:7579  p */\n      dup2\n        /* \"FoodTraceability.sol\":7578:7594  p.certifications */\n      0x03\n      add\n        /* \"FoodTraceability.sol\":7555:7610  _containsCertification(p.certifications, \"Sustainable\") */\n      dup1\n      sload\n      tag_260\n      swap1\n      tag_108\n      jump\t// in\n    tag_260:\n      dup1\n      0x1f\n      add\n      0x20\n      dup1\n      swap2\n      div\n      mul\n      0x20\n      add\n      mload(0x40)\n      swap1\n      dup2\n      add\n      0x40\n      mstore\n      dup1\n      swap3\n      swap2\n      swap1\n      dup2\n      dup2\n      mstore\n      0x20\n      add\n      dup3\n      dup1\n      sload\n      tag_261\n      swap1\n      tag_108\n      jump\t// in\n    tag_261:\n      dup1\n      iszero\n      tag_262\n      jumpi\n      dup1\n      0x1f\n      lt\n      tag_263\n      jumpi\n      0x0100\n      dup1\n      dup4\n      sload\n      div\n      mul\n      dup4\n      mstore\n      swap2\n      0x20\n      add\n      swap2\n      jump(tag_262)\n    tag_263:\n      dup3\n      add\n      swap2\n      swap1\n      0x00\n      mstore\n      keccak256(0x00, 0x20)\n      swap1\n    tag_264:\n      dup2\n      sload\n      dup2\n      mstore\n      swap1\n      0x01\n      add\n      swap1\n      0x20\n      add\n      dup1\n      dup4\n      gt\n      tag_264\n      jumpi\n      dup3\n      swap1\n      sub\n      0x1f\n      and\n      dup3\n      add\n      swap2\n    tag_262:\n      pop\n      pop\n      pop\n      pop\n      pop\n      mload(0x40)\n      dup1\n      0x40\n      add\n      0x40\n      mstore\n      dup1\n      0x0b\n      dup2\n      mstore\n      0x20\n      add\n      0x5375737461696e61626c65000000000000000000000000000000000000000000\n      dup2\n      mstore\n      pop\n        /* \"FoodTraceability.sol\":7555:7577  _containsCertification */\n      tag_265\n        /* \"FoodTraceability.sol\":7555:7610  _containsCertification(p.certifications, \"Sustainable\") */\n      jump\t// in\n    tag_259:\n        /* \"FoodTraceability.sol\":7555:7650  _containsCertification(p.certifications, \"Sustainable\") && !_hasBadge(lotNumber, \"Sustainable\") */\n      dup1\n      iszero\n      tag_266\n      jumpi\n      pop\n        /* \"FoodTraceability.sol\":7615:7650  _hasBadge(lotNumber, \"Sustainable\") */\n      tag_267\n        /* \"FoodTraceability.sol\":7625:7634  lotNumber */\n      dup5\n        /* \"FoodTraceability.sol\":7615:7650  _hasBadge(lotNumber, \"Sustainable\") */\n      mload(0x40)\n      dup1\n      0x40\n      add\n      0x40\n      mstore\n      dup1\n      0x0b\n      dup2\n      mstore\n      0x20\n      add\n      0x5375737461696e61626c65000000000000000000000000000000000000000000\n      dup2\n      mstore\n      pop\n        /* \"FoodTraceability.sol\":7615:7624  _hasBadge */\n      tag_268\n        /* \"FoodTraceability.sol\":7615:7650  _hasBadge(lotNumber, \"Sustainable\") */\n      jump\t// in\n    tag_267:\n        /* \"FoodTraceability.sol\":7614:7650  !_hasBadge(lotNumber, \"Sustainable\") */\n      iszero\n        /* \"FoodTraceability.sol\":7555:7650  _containsCertification(p.certifications, \"Sustainable\") && !_hasBadge(lotNumber, \"Sustainable\") */\n    tag_266:\n        /* \"FoodTraceability.sol\":7551:7732  if (_containsCertification(p.certifications, \"Sustainable\") && !_hasBadge(lotNumber, \"Sustainable\")) {... */\n      iszero\n      tag_269\n      jumpi\n        /* \"FoodTraceability.sol\":7671:7716  _awardBadgeInternal(lotNumber, \"Sustainable\") */\n      tag_270\n        /* \"FoodTraceability.sol\":7691:7700  lotNumber */\n      dup5\n        /* \"FoodTraceability.sol\":7671:7716  _awardBadgeInternal(lotNumber, \"Sustainable\") */\n      mload(0x40)\n      dup1\n      0x40\n      add\n      0x40\n      mstore\n      dup1\n      0x0b\n      dup2\n      mstore\n      0x20\n      add\n      0x5375737461696e61626c65000000000000000000000000000000000000000000\n      dup2\n      mstore\n      pop\n        /* \"FoodTraceability.sol\":7671:7690  _awardBadgeInternal */\n      tag_271\n        /* \"FoodTraceability.sol\":7671:7716  _awardBadgeInternal(lotNumber, \"Sustainable\") */\n      jump\t// in\n    tag_270:\n        /* \"FoodTraceability.sol\":7551:7732  if (_containsCertification(p.certifications, \"Sustainable\") && !_hasBadge(lotNumber, \"Sustainable\")) {... */\n    tag_269:\n        /* \"FoodTraceability.sol\":7506:7743  if (newStage == Stage.Retail) {... */\n    tag_258:\n        /* \"FoodTraceability.sol\":6120:7750  {... */\n      pop\n        /* \"FoodTraceability.sol\":6024:7750  function updateStage(string memory lotNumber, Stage newStage) external productExists(lotNumber) {... */\n      pop\n      pop\n      pop\n      jump\t// out\n        /* \"FoodTraceability.sol\":4214:4364  function assignRole(address account, Role role) external onlyOwner {... */\n    tag_50:\n        /* \"FoodTraceability.sol\":3000:3005  owner */\n      0x00\n      0x00\n      swap1\n      sload\n      swap1\n      0x0100\n      exp\n      swap1\n      div\n      0xffffffffffffffffffffffffffffffffffffffff\n      and\n        /* \"FoodTraceability.sol\":2986:3005  msg.sender == owner */\n      0xffffffffffffffffffffffffffffffffffffffff\n      and\n        /* \"FoodTraceability.sol\":2986:2996  msg.sender */\n      caller\n        /* \"FoodTraceability.sol\":2986:3005  msg.sender == owner */\n      0xffffffffffffffffffffffffffffffffffffffff\n      and\n      eq\n        /* \"FoodTraceability.sol\":2978:3020  require(msg.sender == owner, \"Only owner\") */\n      tag_273\n      jumpi\n      mload(0x40)\n      0x08c379a000000000000000000000000000000000000000000000000000000000\n      dup2\n      mstore\n      0x04\n      add\n      tag_274\n      swap1\n      tag_275\n      jump\t// in\n    tag_274:\n      mload(0x40)\n      dup1\n      swap2\n      sub\n      swap1\n      revert\n    tag_273:\n        /* \"FoodTraceability.sol\":4309:4313  role */\n      dup1\n        /* \"FoodTraceability.sol\":4292:4297  roles */\n      0x03\n        /* \"FoodTraceability.sol\":4292:4306  roles[account] */\n      0x00\n        /* \"FoodTraceability.sol\":4298:4305  account */\n      dup5\n        /* \"FoodTraceability.sol\":4292:4306  roles[account] */\n      0xffffffffffffffffffffffffffffffffffffffff\n      and\n      0xffffffffffffffffffffffffffffffffffffffff\n      and\n      dup2\n      mstore\n      0x20\n      add\n      swap1\n      dup2\n      mstore\n      0x20\n      add\n      0x00\n      keccak256\n      0x00\n        /* \"FoodTraceability.sol\":4292:4313  roles[account] = role */\n      0x0100\n      exp\n      dup2\n      sload\n      dup2\n      0xff\n      mul\n      not\n      and\n      swap1\n      dup4\n      0x04\n      dup2\n      gt\n      iszero\n      tag_277\n      jumpi\n      tag_278\n      tag_148\n      jump\t// in\n    tag_278:\n    tag_277:\n      mul\n      or\n      swap1\n      sstore\n      pop\n        /* \"FoodTraceability.sol\":4342:4349  account */\n      dup2\n        /* \"FoodTraceability.sol\":4329:4356  RoleAssigned(account, role) */\n      0xffffffffffffffffffffffffffffffffffffffff\n      and\n      0x4ac36fa53f167ceb85964be512e01de2a3b8bdb9862f917da079deeeff689b38\n        /* \"FoodTraceability.sol\":4351:4355  role */\n      dup3\n        /* \"FoodTraceability.sol\":4329:4356  RoleAssigned(account, role) */\n      mload(0x40)\n      tag_279\n      swap2\n      swap1\n      tag_72\n      jump\t// in\n    tag_279:\n      mload(0x40)\n      dup1\n      swap2\n      sub\n      swap1\n      log2\n        /* \"FoodTraceability.sol\":4214:4364  function assignRole(address account, Role role) external onlyOwner {... */\n      pop\n      pop\n      jump\t// out\n        /* \"FoodTraceability.sol\":10745:11134  function awardBadge(string memory lotNumber, string memory badgeName) external productExists(lotNumber) {... */\n    tag_53:\n        /* \"FoodTraceability.sol\":10838:10847  lotNumber */\n      dup2\n        /* \"FoodTraceability.sol\":3115:3129  registeredLots */\n      0x02\n        /* \"FoodTraceability.sol\":3130:3139  lotNumber */\n      dup2\n        /* \"FoodTraceability.sol\":3115:3140  registeredLots[lotNumber] */\n      mload(0x40)\n      tag_281\n      swap2\n      swap1\n      tag_98\n      jump\t// in\n    tag_281:\n      swap1\n      dup2\n      mstore\n      0x20\n      add\n      mload(0x40)\n      dup1\n      swap2\n      sub\n      swap1\n      keccak256\n      0x00\n      swap1\n      sload\n      swap1\n      0x0100\n      exp\n      swap1\n      div\n      0xff\n      and\n        /* \"FoodTraceability.sol\":3107:3167  require(registeredLots[lotNumber], \"Product not registered\") */\n      tag_282\n      jumpi\n      mload(0x40)\n      0x08c379a000000000000000000000000000000000000000000000000000000000\n      dup2\n      mstore\n      0x04\n      add\n      tag_283\n      swap1\n      tag_101\n      jump\t// in\n    tag_283:\n      mload(0x40)\n      dup1\n      swap2\n      sub\n      swap1\n      revert\n    tag_282:\n        /* \"FoodTraceability.sol\":10860:10877  Product storage p */\n      0x00\n        /* \"FoodTraceability.sol\":10880:10888  products */\n      0x01\n        /* \"FoodTraceability.sol\":10889:10898  lotNumber */\n      dup5\n        /* \"FoodTraceability.sol\":10880:10899  products[lotNumber] */\n      mload(0x40)\n      tag_285\n      swap2\n      swap1\n      tag_98\n      jump\t// in\n    tag_285:\n      swap1\n      dup2\n      mstore\n      0x20\n      add\n      mload(0x40)\n      dup1\n      swap2\n      sub\n      swap1\n      keccak256\n        /* \"FoodTraceability.sol\":10860:10899  Product storage p = products[lotNumber] */\n      swap1\n      pop\n        /* \"FoodTraceability.sol\":10932:10937  owner */\n      0x00\n      0x00\n      swap1\n      sload\n      swap1\n      0x0100\n      exp\n      swap1\n      div\n      0xffffffffffffffffffffffffffffffffffffffff\n      and\n        /* \"FoodTraceability.sol\":10918:10937  msg.sender == owner */\n      0xffffffffffffffffffffffffffffffffffffffff\n      and\n        /* \"FoodTraceability.sol\":10918:10928  msg.sender */\n      caller\n        /* \"FoodTraceability.sol\":10918:10937  msg.sender == owner */\n      0xffffffffffffffffffffffffffffffffffffffff\n      and\n      eq\n        /* \"FoodTraceability.sol\":10918:10971  msg.sender == owner || msg.sender == p.currentHandler */\n      dup1\n      tag_286\n      jumpi\n      pop\n        /* \"FoodTraceability.sol\":10955:10956  p */\n      dup1\n        /* \"FoodTraceability.sol\":10955:10971  p.currentHandler */\n      0x04\n      add\n      0x01\n      swap1\n      sload\n      swap1\n      0x0100\n      exp\n      swap1\n      div\n      0xffffffffffffffffffffffffffffffffffffffff\n      and\n        /* \"FoodTraceability.sol\":10941:10971  msg.sender == p.currentHandler */\n      0xffffffffffffffffffffffffffffffffffffffff\n      and\n        /* \"FoodTraceability.sol\":10941:10951  msg.sender */\n      caller\n        /* \"FoodTraceability.sol\":10941:10971  msg.sender == p.currentHandler */\n      0xffffffffffffffffffffffffffffffffffffffff\n      and\n      eq\n        /* \"FoodTraceability.sol\":10918:10971  msg.sender == owner || msg.sender == p.currentHandler */\n    tag_286:\n        /* \"FoodTraceability.sol\":10910:10997  require(msg.sender == owner || msg.sender == p.currentHandler, \"Only owner or handler\") */\n      tag_287\n      jumpi\n      mload(0x40)\n      0x08c379a000000000000000000000000000000000000000000000000000000000\n      dup2\n      mstore\n      0x04\n      add\n      tag_288\n      swap1\n      tag_289\n      jump\t// in\n    tag_288:\n      mload(0x40)\n      dup1\n      swap2\n      sub\n      swap1\n      revert\n    tag_287:\n        /* \"FoodTraceability.sol\":11017:11048  _hasBadge(lotNumber, badgeName) */\n      tag_290\n        /* \"FoodTraceability.sol\":11027:11036  lotNumber */\n      dup5\n        /* \"FoodTraceability.sol\":11038:11047  badgeName */\n      dup5\n        /* \"FoodTraceability.sol\":11017:11026  _hasBadge */\n      tag_268\n        /* \"FoodTraceability.sol\":11017:11048  _hasBadge(lotNumber, badgeName) */\n      jump\t// in\n    tag_290:\n        /* \"FoodTraceability.sol\":11016:11048  !_hasBadge(lotNumber, badgeName) */\n      iszero\n        /* \"FoodTraceability.sol\":11008:11074  require(!_hasBadge(lotNumber, badgeName), \"Badge already awarded\") */\n      tag_291\n      jumpi\n      mload(0x40)\n      0x08c379a000000000000000000000000000000000000000000000000000000000\n      dup2\n      mstore\n      0x04\n      add\n      tag_292\n      swap1\n      tag_293\n      jump\t// in\n    tag_292:\n      mload(0x40)\n      dup1\n      swap2\n      sub\n      swap1\n      revert\n    tag_291:\n        /* \"FoodTraceability.sol\":11085:11126  _awardBadgeInternal(lotNumber, badgeName) */\n      tag_294\n        /* \"FoodTraceability.sol\":11105:11114  lotNumber */\n      dup5\n        /* \"FoodTraceability.sol\":11116:11125  badgeName */\n      dup5\n        /* \"FoodTraceability.sol\":11085:11104  _awardBadgeInternal */\n      tag_271\n        /* \"FoodTraceability.sol\":11085:11126  _awardBadgeInternal(lotNumber, badgeName) */\n      jump\t// in\n    tag_294:\n        /* \"FoodTraceability.sol\":10849:11134  {... */\n      pop\n        /* \"FoodTraceability.sol\":10745:11134  function awardBadge(string memory lotNumber, string memory badgeName) external productExists(lotNumber) {... */\n      pop\n      pop\n      pop\n      jump\t// out\n        /* \"FoodTraceability.sol\":4575:5212  function registerProduct(... */\n    tag_57:\n        /* \"FoodTraceability.sol\":4769:4783  registeredLots */\n      0x02\n        /* \"FoodTraceability.sol\":4784:4793  lotNumber */\n      dup5\n        /* \"FoodTraceability.sol\":4769:4794  registeredLots[lotNumber] */\n      mload(0x40)\n      tag_296\n      swap2\n      swap1\n      tag_98\n      jump\t// in\n    tag_296:\n      swap1\n      dup2\n      mstore\n      0x20\n      add\n      mload(0x40)\n      dup1\n      swap2\n      sub\n      swap1\n      keccak256\n      0x00\n      swap1\n      sload\n      swap1\n      0x0100\n      exp\n      swap1\n      div\n      0xff\n      and\n        /* \"FoodTraceability.sol\":4768:4794  !registeredLots[lotNumber] */\n      iszero\n        /* \"FoodTraceability.sol\":4760:4821  require(!registeredLots[lotNumber], \"Lot already registered\") */\n      tag_297\n      jumpi\n      mload(0x40)\n      0x08c379a000000000000000000000000000000000000000000000000000000000\n      dup2\n      mstore\n      0x04\n      add\n      tag_298\n      swap1\n      tag_299\n      jump\t// in\n    tag_298:\n      mload(0x40)\n      dup1\n      swap2\n      sub\n      swap1\n      revert\n    tag_297:\n        /* \"FoodTraceability.sol\":4832:4849  Product storage p */\n      0x00\n        /* \"FoodTraceability.sol\":4852:4860  products */\n      0x01\n        /* \"FoodTraceability.sol\":4861:4870  lotNumber */\n      dup6\n        /* \"FoodTraceability.sol\":4852:4871  products[lotNumber] */\n      mload(0x40)\n      tag_300\n      swap2\n      swap1\n      tag_98\n      jump\t// in\n    tag_300:\n      swap1\n      dup2\n      mstore\n      0x20\n      add\n      mload(0x40)\n      dup1\n      swap2\n      sub\n      swap1\n      keccak256\n        /* \"FoodTraceability.sol\":4832:4871  Product storage p = products[lotNumber] */\n      swap1\n      pop\n        /* \"FoodTraceability.sol\":4896:4905  lotNumber */\n      dup5\n        /* \"FoodTraceability.sol\":4882:4883  p */\n      dup2\n        /* \"FoodTraceability.sol\":4882:4893  p.lotNumber */\n      0x00\n      add\n        /* \"FoodTraceability.sol\":4882:4905  p.lotNumber = lotNumber */\n      swap1\n      dup2\n      tag_301\n      swap2\n      swap1\n      tag_157\n      jump\t// in\n    tag_301:\n      pop\n        /* \"FoodTraceability.sol\":4925:4929  name */\n      dup4\n        /* \"FoodTraceability.sol\":4916:4917  p */\n      dup2\n        /* \"FoodTraceability.sol\":4916:4922  p.name */\n      0x01\n      add\n        /* \"FoodTraceability.sol\":4916:4929  p.name = name */\n      swap1\n      dup2\n      tag_302\n      swap2\n      swap1\n      tag_157\n      jump\t// in\n    tag_302:\n      pop\n        /* \"FoodTraceability.sol\":4951:4957  origin */\n      dup3\n        /* \"FoodTraceability.sol\":4940:4941  p */\n      dup2\n        /* \"FoodTraceability.sol\":4940:4948  p.origin */\n      0x02\n      add\n        /* \"FoodTraceability.sol\":4940:4957  p.origin = origin */\n      swap1\n      dup2\n      tag_303\n      swap2\n      swap1\n      tag_157\n      jump\t// in\n    tag_303:\n      pop\n        /* \"FoodTraceability.sol\":4987:5001  certifications */\n      dup2\n        /* \"FoodTraceability.sol\":4968:4969  p */\n      dup2\n        /* \"FoodTraceability.sol\":4968:4984  p.certifications */\n      0x03\n      add\n        /* \"FoodTraceability.sol\":4968:5001  p.certifications = certifications */\n      swap1\n      dup2\n      tag_304\n      swap2\n      swap1\n      tag_157\n      jump\t// in\n    tag_304:\n      pop\n        /* \"FoodTraceability.sol\":5022:5035  Stage.Created */\n      0x00\n        /* \"FoodTraceability.sol\":5012:5013  p */\n      dup2\n        /* \"FoodTraceability.sol\":5012:5019  p.stage */\n      0x04\n      add\n      0x00\n        /* \"FoodTraceability.sol\":5012:5035  p.stage = Stage.Created */\n      0x0100\n      exp\n      dup2\n      sload\n      dup2\n      0xff\n      mul\n      not\n      and\n      swap1\n      dup4\n      0x05\n      dup2\n      gt\n      iszero\n      tag_305\n      jumpi\n      tag_306\n      tag_148\n      jump\t// in\n    tag_306:\n    tag_305:\n      mul\n      or\n      swap1\n      sstore\n      pop\n        /* \"FoodTraceability.sol\":5065:5075  msg.sender */\n      caller\n        /* \"FoodTraceability.sol\":5046:5047  p */\n      dup2\n        /* \"FoodTraceability.sol\":5046:5062  p.currentHandler */\n      0x04\n      add\n      0x01\n        /* \"FoodTraceability.sol\":5046:5075  p.currentHandler = msg.sender */\n      0x0100\n      exp\n      dup2\n      sload\n      dup2\n      0xffffffffffffffffffffffffffffffffffffffff\n      mul\n      not\n      and\n      swap1\n      dup4\n      0xffffffffffffffffffffffffffffffffffffffff\n      and\n      mul\n      or\n      swap1\n      sstore\n      pop\n        /* \"FoodTraceability.sol\":5097:5101  true */\n      0x01\n        /* \"FoodTraceability.sol\":5086:5087  p */\n      dup2\n        /* \"FoodTraceability.sol\":5086:5094  p.exists */\n      0x06\n      add\n      0x00\n        /* \"FoodTraceability.sol\":5086:5101  p.exists = true */\n      0x0100\n      exp\n      dup2\n      sload\n      dup2\n      0xff\n      mul\n      not\n      and\n      swap1\n      dup4\n      iszero\n      iszero\n      mul\n      or\n      swap1\n      sstore\n      pop\n        /* \"FoodTraceability.sol\":5140:5144  true */\n      0x01\n        /* \"FoodTraceability.sol\":5112:5126  registeredLots */\n      0x02\n        /* \"FoodTraceability.sol\":5127:5136  lotNumber */\n      dup7\n        /* \"FoodTraceability.sol\":5112:5137  registeredLots[lotNumber] */\n      mload(0x40)\n      tag_307\n      swap2\n      swap1\n      tag_98\n      jump\t// in\n    tag_307:\n      swap1\n      dup2\n      mstore\n      0x20\n      add\n      mload(0x40)\n      dup1\n      swap2\n      sub\n      swap1\n      keccak256\n      0x00\n        /* \"FoodTraceability.sol\":5112:5144  registeredLots[lotNumber] = true */\n      0x0100\n      exp\n      dup2\n      sload\n      dup2\n      0xff\n      mul\n      not\n      and\n      swap1\n      dup4\n      iszero\n      iszero\n      mul\n      or\n      swap1\n      sstore\n      pop\n        /* \"FoodTraceability.sol\":5180:5189  lotNumber */\n      dup5\n        /* \"FoodTraceability.sol\":5162:5204  ProductRegistered(lotNumber, name, origin) */\n      mload(0x40)\n      tag_308\n      swap2\n      swap1\n      tag_98\n      jump\t// in\n    tag_308:\n      mload(0x40)\n      dup1\n      swap2\n      sub\n      swap1\n      keccak256\n      0x5a304478b5ad812924e60fb3ee7fadbb2269effa0df0ede39b00fc1c606ee0c0\n        /* \"FoodTraceability.sol\":5191:5195  name */\n      dup6\n        /* \"FoodTraceability.sol\":5197:5203  origin */\n      dup6\n        /* \"FoodTraceability.sol\":5162:5204  ProductRegistered(lotNumber, name, origin) */\n      mload(0x40)\n      tag_309\n      swap3\n      swap2\n      swap1\n      tag_310\n      jump\t// in\n    tag_309:\n      mload(0x40)\n      dup1\n      swap2\n      sub\n      swap1\n      log2\n        /* \"FoodTraceability.sol\":4749:5212  {... */\n      pop\n        /* \"FoodTraceability.sol\":4575:5212  function registerProduct(... */\n      pop\n      pop\n      pop\n      pop\n      jump\t// out\n        /* \"FoodTraceability.sol\":1563:1583  address public owner */\n    tag_59:\n      0x00\n      0x00\n      swap1\n      sload\n      swap1\n      0x0100\n      exp\n      swap1\n      div\n      0xffffffffffffffffffffffffffffffffffffffff\n      and\n      dup2\n      jump\t// out\n        /* \"FoodTraceability.sol\":15217:15880  function getIoTLogs(string memory lotNumber) external view productExists(lotNumber)... */\n    tag_64:\n        /* \"FoodTraceability.sol\":15319:15340  int256[] memory temps */\n      0x60\n        /* \"FoodTraceability.sol\":15342:15363  string[] memory notes */\n      dup1\n        /* \"FoodTraceability.sol\":15365:15392  uint256[] memory timestamps */\n      0x60\n        /* \"FoodTraceability.sol\":15290:15299  lotNumber */\n      dup4\n        /* \"FoodTraceability.sol\":3115:3129  registeredLots */\n      0x02\n        /* \"FoodTraceability.sol\":3130:3139  lotNumber */\n      dup2\n        /* \"FoodTraceability.sol\":3115:3140  registeredLots[lotNumber] */\n      mload(0x40)\n      tag_312\n      swap2\n      swap1\n      tag_98\n      jump\t// in\n    tag_312:\n      swap1\n      dup2\n      mstore\n      0x20\n      add\n      mload(0x40)\n      dup1\n      swap2\n      sub\n      swap1\n      keccak256\n      0x00\n      swap1\n      sload\n      swap1\n      0x0100\n      exp\n      swap1\n      div\n      0xff\n      and\n        /* \"FoodTraceability.sol\":3107:3167  require(registeredLots[lotNumber], \"Product not registered\") */\n      tag_313\n      jumpi\n      mload(0x40)\n      0x08c379a000000000000000000000000000000000000000000000000000000000\n      dup2\n      mstore\n      0x04\n      add\n      tag_314\n      swap1\n      tag_101\n      jump\t// in\n    tag_314:\n      mload(0x40)\n      dup1\n      swap2\n      sub\n      swap1\n      revert\n    tag_313:\n        /* \"FoodTraceability.sol\":15410:15427  Product storage p */\n      0x00\n        /* \"FoodTraceability.sol\":15430:15438  products */\n      0x01\n        /* \"FoodTraceability.sol\":15439:15448  lotNumber */\n      dup7\n        /* \"FoodTraceability.sol\":15430:15449  products[lotNumber] */\n      mload(0x40)\n      tag_316\n      swap2\n      swap1\n      tag_98\n      jump\t// in\n    tag_316:\n      swap1\n      dup2\n      mstore\n      0x20\n      add\n      mload(0x40)\n      dup1\n      swap2\n      sub\n      swap1\n      keccak256\n        /* \"FoodTraceability.sol\":15410:15449  Product storage p = products[lotNumber] */\n      swap1\n      pop\n        /* \"FoodTraceability.sol\":15460:15469  uint256 n */\n      0x00\n        /* \"FoodTraceability.sol\":15472:15473  p */\n      dup2\n        /* \"FoodTraceability.sol\":15472:15487  p.transportLogs */\n      0x05\n      add\n        /* \"FoodTraceability.sol\":15472:15494  p.transportLogs.length */\n      dup1\n      sload\n      swap1\n      pop\n        /* \"FoodTraceability.sol\":15460:15494  uint256 n = p.transportLogs.length */\n      swap1\n      pop\n        /* \"FoodTraceability.sol\":15526:15527  n */\n      dup1\n        /* \"FoodTraceability.sol\":15513:15528  new int256[](n) */\n      0xffffffffffffffff\n      dup2\n      gt\n      iszero\n      tag_317\n      jumpi\n      tag_318\n      tag_319\n      jump\t// in\n    tag_318:\n    tag_317:\n      mload(0x40)\n      swap1\n      dup1\n      dup3\n      mstore\n      dup1\n      0x20\n      mul\n      0x20\n      add\n      dup3\n      add\n      0x40\n      mstore\n      dup1\n      iszero\n      tag_320\n      jumpi\n      dup2\n      0x20\n      add\n      0x20\n      dup3\n      mul\n      dup1\n      calldatasize\n      dup4\n      calldatacopy\n      dup1\n      dup3\n      add\n      swap2\n      pop\n      pop\n      swap1\n      pop\n    tag_320:\n      pop\n        /* \"FoodTraceability.sol\":15505:15528  temps = new int256[](n) */\n      swap6\n      pop\n        /* \"FoodTraceability.sol\":15560:15561  n */\n      dup1\n        /* \"FoodTraceability.sol\":15547:15562  new string[](n) */\n      0xffffffffffffffff\n      dup2\n      gt\n      iszero\n      tag_321\n      jumpi\n      tag_322\n      tag_319\n      jump\t// in\n    tag_322:\n    tag_321:\n      mload(0x40)\n      swap1\n      dup1\n      dup3\n      mstore\n      dup1\n      0x20\n      mul\n      0x20\n      add\n      dup3\n      add\n      0x40\n      mstore\n      dup1\n      iszero\n      tag_323\n      jumpi\n      dup2\n      0x20\n      add\n    tag_324:\n      0x60\n      dup2\n      mstore\n      0x20\n      add\n      swap1\n      0x01\n      swap1\n      sub\n      swap1\n      dup2\n      tag_324\n      jumpi\n      swap1\n      pop\n    tag_323:\n      pop\n        /* \"FoodTraceability.sol\":15539:15562  notes = new string[](n) */\n      swap5\n      pop\n        /* \"FoodTraceability.sol\":15600:15601  n */\n      dup1\n        /* \"FoodTraceability.sol\":15586:15602  new uint256[](n) */\n      0xffffffffffffffff\n      dup2\n      gt\n      iszero\n      tag_325\n      jumpi\n      tag_326\n      tag_319\n      jump\t// in\n    tag_326:\n    tag_325:\n      mload(0x40)\n      swap1\n      dup1\n      dup3\n      mstore\n      dup1\n      0x20\n      mul\n      0x20\n      add\n      dup3\n      add\n      0x40\n      mstore\n      dup1\n      iszero\n      tag_327\n      jumpi\n      dup2\n      0x20\n      add\n      0x20\n      dup3\n      mul\n      dup1\n      calldatasize\n      dup4\n      calldatacopy\n      dup1\n      dup3\n      add\n      swap2\n      pop\n      pop\n      swap1\n      pop\n    tag_327:\n      pop\n        /* \"FoodTraceability.sol\":15573:15602  timestamps = new uint256[](n) */\n      swap4\n      pop\n        /* \"FoodTraceability.sol\":15620:15626  uint i */\n      0x00\n        /* \"FoodTraceability.sol\":15629:15630  0 */\n      0x00\n        /* \"FoodTraceability.sol\":15620:15630  uint i = 0 */\n      swap1\n      pop\n        /* \"FoodTraceability.sol\":15615:15829  for (uint i = 0; i < n; i++) {... */\n    tag_328:\n        /* \"FoodTraceability.sol\":15636:15637  n */\n      dup2\n        /* \"FoodTraceability.sol\":15632:15633  i */\n      dup2\n        /* \"FoodTraceability.sol\":15632:15637  i < n */\n      lt\n        /* \"FoodTraceability.sol\":15615:15829  for (uint i = 0; i < n; i++) {... */\n      iszero\n      tag_329\n      jumpi\n        /* \"FoodTraceability.sol\":15670:15671  p */\n      dup3\n        /* \"FoodTraceability.sol\":15670:15685  p.transportLogs */\n      0x05\n      add\n        /* \"FoodTraceability.sol\":15686:15687  i */\n      dup2\n        /* \"FoodTraceability.sol\":15670:15688  p.transportLogs[i] */\n      dup2\n      sload\n      dup2\n      lt\n      tag_331\n      jumpi\n      tag_332\n      tag_333\n      jump\t// in\n    tag_332:\n    tag_331:\n      swap1\n      0x00\n      mstore\n      keccak256(0x00, 0x20)\n      swap1\n      0x03\n      mul\n      add\n        /* \"FoodTraceability.sol\":15670:15700  p.transportLogs[i].temperature */\n      0x00\n      add\n      sload\n        /* \"FoodTraceability.sol\":15659:15664  temps */\n      dup8\n        /* \"FoodTraceability.sol\":15665:15666  i */\n      dup3\n        /* \"FoodTraceability.sol\":15659:15667  temps[i] */\n      dup2\n      mload\n      dup2\n      lt\n      tag_335\n      jumpi\n      tag_336\n      tag_333\n      jump\t// in\n    tag_336:\n    tag_335:\n      0x20\n      mul\n      0x20\n      add\n      add\n        /* \"FoodTraceability.sol\":15659:15700  temps[i] = p.transportLogs[i].temperature */\n      dup2\n      dup2\n      mstore\n      pop\n      pop\n        /* \"FoodTraceability.sol\":15726:15727  p */\n      dup3\n        /* \"FoodTraceability.sol\":15726:15741  p.transportLogs */\n      0x05\n      add\n        /* \"FoodTraceability.sol\":15742:15743  i */\n      dup2\n        /* \"FoodTraceability.sol\":15726:15744  p.transportLogs[i] */\n      dup2\n      sload\n      dup2\n      lt\n      tag_337\n      jumpi\n      tag_338\n      tag_333\n      jump\t// in\n    tag_338:\n    tag_337:\n      swap1\n      0x00\n      mstore\n      keccak256(0x00, 0x20)\n      swap1\n      0x03\n      mul\n      add\n        /* \"FoodTraceability.sol\":15726:15758  p.transportLogs[i].handlingNotes */\n      0x01\n      add\n        /* \"FoodTraceability.sol\":15715:15758  notes[i] = p.transportLogs[i].handlingNotes */\n      dup1\n      sload\n      tag_340\n      swap1\n      tag_108\n      jump\t// in\n    tag_340:\n      dup1\n      0x1f\n      add\n      0x20\n      dup1\n      swap2\n      div\n      mul\n      0x20\n      add\n      mload(0x40)\n      swap1\n      dup2\n      add\n      0x40\n      mstore\n      dup1\n      swap3\n      swap2\n      swap1\n      dup2\n      dup2\n      mstore\n      0x20\n      add\n      dup3\n      dup1\n      sload\n      tag_341\n      swap1\n      tag_108\n      jump\t// in\n    tag_341:\n      dup1\n      iszero\n      tag_342\n      jumpi\n      dup1\n      0x1f\n      lt\n      tag_343\n      jumpi\n      0x0100\n      dup1\n      dup4\n      sload\n      div\n      mul\n      dup4\n      mstore\n      swap2\n      0x20\n      add\n      swap2\n      jump(tag_342)\n    tag_343:\n      dup3\n      add\n      swap2\n      swap1\n      0x00\n      mstore\n      keccak256(0x00, 0x20)\n      swap1\n    tag_344:\n      dup2\n      sload\n      dup2\n      mstore\n      swap1\n      0x01\n      add\n      swap1\n      0x20\n      add\n      dup1\n      dup4\n      gt\n      tag_344\n      jumpi\n      dup3\n      swap1\n      sub\n      0x1f\n      and\n      dup3\n      add\n      swap2\n    tag_342:\n      pop\n      pop\n      pop\n      pop\n      pop\n        /* \"FoodTraceability.sol\":15715:15720  notes */\n      dup7\n        /* \"FoodTraceability.sol\":15721:15722  i */\n      dup3\n        /* \"FoodTraceability.sol\":15715:15723  notes[i] */\n      dup2\n      mload\n      dup2\n      lt\n      tag_345\n      jumpi\n      tag_346\n      tag_333\n      jump\t// in\n    tag_346:\n    tag_345:\n      0x20\n      mul\n      0x20\n      add\n      add\n        /* \"FoodTraceability.sol\":15715:15758  notes[i] = p.transportLogs[i].handlingNotes */\n      dup2\n      swap1\n      mstore\n      pop\n        /* \"FoodTraceability.sol\":15789:15790  p */\n      dup3\n        /* \"FoodTraceability.sol\":15789:15804  p.transportLogs */\n      0x05\n      add\n        /* \"FoodTraceability.sol\":15805:15806  i */\n      dup2\n        /* \"FoodTraceability.sol\":15789:15807  p.transportLogs[i] */\n      dup2\n      sload\n      dup2\n      lt\n      tag_347\n      jumpi\n      tag_348\n      tag_333\n      jump\t// in\n    tag_348:\n    tag_347:\n      swap1\n      0x00\n      mstore\n      keccak256(0x00, 0x20)\n      swap1\n      0x03\n      mul\n      add\n        /* \"FoodTraceability.sol\":15789:15817  p.transportLogs[i].timestamp */\n      0x02\n      add\n      sload\n        /* \"FoodTraceability.sol\":15773:15783  timestamps */\n      dup6\n        /* \"FoodTraceability.sol\":15784:15785  i */\n      dup3\n        /* \"FoodTraceability.sol\":15773:15786  timestamps[i] */\n      dup2\n      mload\n      dup2\n      lt\n      tag_350\n      jumpi\n      tag_351\n      tag_333\n      jump\t// in\n    tag_351:\n    tag_350:\n      0x20\n      mul\n      0x20\n      add\n      add\n        /* \"FoodTraceability.sol\":15773:15817  timestamps[i] = p.transportLogs[i].timestamp */\n      dup2\n      dup2\n      mstore\n      pop\n      pop\n        /* \"FoodTraceability.sol\":15639:15642  i++ */\n      dup1\n      dup1\n      0x01\n      add\n      swap2\n      pop\n      pop\n        /* \"FoodTraceability.sol\":15615:15829  for (uint i = 0; i < n; i++) {... */\n      jump(tag_328)\n    tag_329:\n      pop\n        /* \"FoodTraceability.sol\":15839:15872  return (temps, notes, timestamps) */\n      pop\n      pop\n        /* \"FoodTraceability.sol\":15217:15880  function getIoTLogs(string memory lotNumber) external view productExists(lotNumber)... */\n      pop\n      swap2\n      swap4\n      swap1\n      swap3\n      pop\n      jump\t// out\n        /* \"FoodTraceability.sol\":1768:1805  mapping(address => Role) public roles */\n    tag_70:\n      mstore(0x20, 0x03)\n      dup1\n      0x00\n      mstore\n      keccak256(0x00, 0x40)\n      0x00\n      swap2\n      pop\n      sload\n      swap1\n      0x0100\n      exp\n      swap1\n      div\n      0xff\n      and\n      dup2\n      jump\t// out\n        /* \"FoodTraceability.sol\":12786:13762  function getAnalytics(string memory lotNumber) external view productExists(lotNumber)... */\n    tag_75:\n        /* \"FoodTraceability.sol\":12904:12921  uint256 totalLogs */\n      0x00\n        /* \"FoodTraceability.sol\":12936:12950  int256 avgTemp */\n      0x00\n        /* \"FoodTraceability.sol\":12965:12979  int256 minTemp */\n      0x00\n        /* \"FoodTraceability.sol\":12994:13008  int256 maxTemp */\n      0x00\n        /* \"FoodTraceability.sol\":13023:13037  bool compliant */\n      0x00\n        /* \"FoodTraceability.sol\":12861:12870  lotNumber */\n      dup6\n        /* \"FoodTraceability.sol\":3115:3129  registeredLots */\n      0x02\n        /* \"FoodTraceability.sol\":3130:3139  lotNumber */\n      dup2\n        /* \"FoodTraceability.sol\":3115:3140  registeredLots[lotNumber] */\n      mload(0x40)\n      tag_353\n      swap2\n      swap1\n      tag_98\n      jump\t// in\n    tag_353:\n      swap1\n      dup2\n      mstore\n      0x20\n      add\n      mload(0x40)\n      dup1\n      swap2\n      sub\n      swap1\n      keccak256\n      0x00\n      swap1\n      sload\n      swap1\n      0x0100\n      exp\n      swap1\n      div\n      0xff\n      and\n        /* \"FoodTraceability.sol\":3107:3167  require(registeredLots[lotNumber], \"Product not registered\") */\n      tag_354\n      jumpi\n      mload(0x40)\n      0x08c379a000000000000000000000000000000000000000000000000000000000\n      dup2\n      mstore\n      0x04\n      add\n      tag_355\n      swap1\n      tag_101\n      jump\t// in\n    tag_355:\n      mload(0x40)\n      dup1\n      swap2\n      sub\n      swap1\n      revert\n    tag_354:\n        /* \"FoodTraceability.sol\":13065:13082  Product storage p */\n      0x00\n        /* \"FoodTraceability.sol\":13085:13093  products */\n      0x01\n        /* \"FoodTraceability.sol\":13094:13103  lotNumber */\n      dup9\n        /* \"FoodTraceability.sol\":13085:13104  products[lotNumber] */\n      mload(0x40)\n      tag_357\n      swap2\n      swap1\n      tag_98\n      jump\t// in\n    tag_357:\n      swap1\n      dup2\n      mstore\n      0x20\n      add\n      mload(0x40)\n      dup1\n      swap2\n      sub\n      swap1\n      keccak256\n        /* \"FoodTraceability.sol\":13065:13104  Product storage p = products[lotNumber] */\n      swap1\n      pop\n        /* \"FoodTraceability.sol\":13115:13124  uint256 n */\n      0x00\n        /* \"FoodTraceability.sol\":13127:13128  p */\n      dup2\n        /* \"FoodTraceability.sol\":13127:13142  p.transportLogs */\n      0x05\n      add\n        /* \"FoodTraceability.sol\":13127:13149  p.transportLogs.length */\n      dup1\n      sload\n      swap1\n      pop\n        /* \"FoodTraceability.sol\":13115:13149  uint256 n = p.transportLogs.length */\n      swap1\n      pop\n        /* \"FoodTraceability.sol\":13169:13170  0 */\n      0x00\n        /* \"FoodTraceability.sol\":13164:13165  n */\n      dup2\n        /* \"FoodTraceability.sol\":13164:13170  n == 0 */\n      sub\n        /* \"FoodTraceability.sol\":13160:13257  if (n == 0) {... */\n      tag_358\n      jumpi\n        /* \"FoodTraceability.sol\":13195:13196  0 */\n      0x00\n        /* \"FoodTraceability.sol\":13198:13199  0 */\n      0x00\n        /* \"FoodTraceability.sol\":13201:13202  0 */\n      0x00\n        /* \"FoodTraceability.sol\":13204:13205  0 */\n      0x00\n        /* \"FoodTraceability.sol\":13207:13244  checkTemperatureCompliance(lotNumber) */\n      tag_359\n        /* \"FoodTraceability.sol\":13234:13243  lotNumber */\n      dup14\n        /* \"FoodTraceability.sol\":13207:13233  checkTemperatureCompliance */\n      tag_90\n        /* \"FoodTraceability.sol\":13207:13244  checkTemperatureCompliance(lotNumber) */\n      jump\t// in\n    tag_359:\n        /* \"FoodTraceability.sol\":13187:13245  return (0, 0, 0, 0, checkTemperatureCompliance(lotNumber)) */\n      swap8\n      pop\n      swap8\n      pop\n      swap8\n      pop\n      swap8\n      pop\n      swap8\n      pop\n      pop\n      pop\n      jump(tag_356)\n        /* \"FoodTraceability.sol\":13160:13257  if (n == 0) {... */\n    tag_358:\n        /* \"FoodTraceability.sol\":13269:13279  int256 sum */\n      0x00\n        /* \"FoodTraceability.sol\":13282:13283  0 */\n      0x00\n        /* \"FoodTraceability.sol\":13269:13283  int256 sum = 0 */\n      swap1\n      pop\n        /* \"FoodTraceability.sol\":13294:13305  int256 minT */\n      0x00\n        /* \"FoodTraceability.sol\":13308:13309  p */\n      dup4\n        /* \"FoodTraceability.sol\":13308:13323  p.transportLogs */\n      0x05\n      add\n        /* \"FoodTraceability.sol\":13324:13325  0 */\n      0x00\n        /* \"FoodTraceability.sol\":13308:13326  p.transportLogs[0] */\n      dup2\n      sload\n      dup2\n      lt\n      tag_360\n      jumpi\n      tag_361\n      tag_333\n      jump\t// in\n    tag_361:\n    tag_360:\n      swap1\n      0x00\n      mstore\n      keccak256(0x00, 0x20)\n      swap1\n      0x03\n      mul\n      add\n        /* \"FoodTraceability.sol\":13308:13338  p.transportLogs[0].temperature */\n      0x00\n      add\n      sload\n        /* \"FoodTraceability.sol\":13294:13338  int256 minT = p.transportLogs[0].temperature */\n      swap1\n      pop\n        /* \"FoodTraceability.sol\":13349:13360  int256 maxT */\n      0x00\n        /* \"FoodTraceability.sol\":13363:13364  p */\n      dup5\n        /* \"FoodTraceability.sol\":13363:13378  p.transportLogs */\n      0x05\n      add\n        /* \"FoodTraceability.sol\":13379:13380  0 */\n      0x00\n        /* \"FoodTraceability.sol\":13363:13381  p.transportLogs[0] */\n      dup2\n      sload\n      dup2\n      lt\n      tag_363\n      jumpi\n      tag_364\n      tag_333\n      jump\t// in\n    tag_364:\n    tag_363:\n      swap1\n      0x00\n      mstore\n      keccak256(0x00, 0x20)\n      swap1\n      0x03\n      mul\n      add\n        /* \"FoodTraceability.sol\":13363:13393  p.transportLogs[0].temperature */\n      0x00\n      add\n      sload\n        /* \"FoodTraceability.sol\":13349:13393  int256 maxT = p.transportLogs[0].temperature */\n      swap1\n      pop\n        /* \"FoodTraceability.sol\":13411:13417  uint i */\n      0x00\n        /* \"FoodTraceability.sol\":13420:13421  0 */\n      0x00\n        /* \"FoodTraceability.sol\":13411:13421  uint i = 0 */\n      swap1\n      pop\n        /* \"FoodTraceability.sol\":13406:13608  for (uint i = 0; i < n; i++) {... */\n    tag_366:\n        /* \"FoodTraceability.sol\":13427:13428  n */\n      dup5\n        /* \"FoodTraceability.sol\":13423:13424  i */\n      dup2\n        /* \"FoodTraceability.sol\":13423:13428  i < n */\n      lt\n        /* \"FoodTraceability.sol\":13406:13608  for (uint i = 0; i < n; i++) {... */\n      iszero\n      tag_367\n      jumpi\n        /* \"FoodTraceability.sol\":13450:13458  int256 t */\n      0x00\n        /* \"FoodTraceability.sol\":13461:13462  p */\n      dup7\n        /* \"FoodTraceability.sol\":13461:13476  p.transportLogs */\n      0x05\n      add\n        /* \"FoodTraceability.sol\":13477:13478  i */\n      dup3\n        /* \"FoodTraceability.sol\":13461:13479  p.transportLogs[i] */\n      dup2\n      sload\n      dup2\n      lt\n      tag_369\n      jumpi\n      tag_370\n      tag_333\n      jump\t// in\n    tag_370:\n    tag_369:\n      swap1\n      0x00\n      mstore\n      keccak256(0x00, 0x20)\n      swap1\n      0x03\n      mul\n      add\n        /* \"FoodTraceability.sol\":13461:13491  p.transportLogs[i].temperature */\n      0x00\n      add\n      sload\n        /* \"FoodTraceability.sol\":13450:13491  int256 t = p.transportLogs[i].temperature */\n      swap1\n      pop\n        /* \"FoodTraceability.sol\":13513:13514  t */\n      dup1\n        /* \"FoodTraceability.sol\":13506:13514  sum += t */\n      dup6\n      tag_372\n      swap2\n      swap1\n      tag_373\n      jump\t// in\n    tag_372:\n      swap5\n      pop\n        /* \"FoodTraceability.sol\":13537:13541  minT */\n      dup4\n        /* \"FoodTraceability.sol\":13533:13534  t */\n      dup2\n        /* \"FoodTraceability.sol\":13533:13541  t < minT */\n      slt\n        /* \"FoodTraceability.sol\":13529:13556  if (t < minT) { minT = t; } */\n      iszero\n      tag_374\n      jumpi\n        /* \"FoodTraceability.sol\":13552:13553  t */\n      dup1\n        /* \"FoodTraceability.sol\":13545:13553  minT = t */\n      swap4\n      pop\n        /* \"FoodTraceability.sol\":13529:13556  if (t < minT) { minT = t; } */\n    tag_374:\n        /* \"FoodTraceability.sol\":13578:13582  maxT */\n      dup3\n        /* \"FoodTraceability.sol\":13574:13575  t */\n      dup2\n        /* \"FoodTraceability.sol\":13574:13582  t > maxT */\n      sgt\n        /* \"FoodTraceability.sol\":13570:13597  if (t > maxT) { maxT = t; } */\n      iszero\n      tag_375\n      jumpi\n        /* \"FoodTraceability.sol\":13593:13594  t */\n      dup1\n        /* \"FoodTraceability.sol\":13586:13594  maxT = t */\n      swap3\n      pop\n        /* \"FoodTraceability.sol\":13570:13597  if (t > maxT) { maxT = t; } */\n    tag_375:\n        /* \"FoodTraceability.sol\":13435:13608  {... */\n      pop\n        /* \"FoodTraceability.sol\":13430:13433  i++ */\n      dup1\n      dup1\n      0x01\n      add\n      swap2\n      pop\n      pop\n        /* \"FoodTraceability.sol\":13406:13608  for (uint i = 0; i < n; i++) {... */\n      jump(tag_366)\n    tag_367:\n      pop\n        /* \"FoodTraceability.sol\":13620:13634  int256 average */\n      0x00\n        /* \"FoodTraceability.sol\":13650:13651  n */\n      dup5\n        /* \"FoodTraceability.sol\":13637:13640  sum */\n      dup5\n        /* \"FoodTraceability.sol\":13637:13652  sum / int256(n) */\n      tag_376\n      swap2\n      swap1\n      tag_377\n      jump\t// in\n    tag_376:\n        /* \"FoodTraceability.sol\":13620:13652  int256 average = sum / int256(n) */\n      swap1\n      pop\n        /* \"FoodTraceability.sol\":13663:13669  bool c */\n      0x00\n        /* \"FoodTraceability.sol\":13672:13709  checkTemperatureCompliance(lotNumber) */\n      tag_378\n        /* \"FoodTraceability.sol\":13699:13708  lotNumber */\n      dup15\n        /* \"FoodTraceability.sol\":13672:13698  checkTemperatureCompliance */\n      tag_90\n        /* \"FoodTraceability.sol\":13672:13709  checkTemperatureCompliance(lotNumber) */\n      jump\t// in\n    tag_378:\n        /* \"FoodTraceability.sol\":13663:13709  bool c = checkTemperatureCompliance(lotNumber) */\n      swap1\n      pop\n        /* \"FoodTraceability.sol\":13728:13729  n */\n      dup6\n        /* \"FoodTraceability.sol\":13731:13738  average */\n      dup3\n        /* \"FoodTraceability.sol\":13740:13744  minT */\n      dup6\n        /* \"FoodTraceability.sol\":13746:13750  maxT */\n      dup6\n        /* \"FoodTraceability.sol\":13752:13753  c */\n      dup5\n        /* \"FoodTraceability.sol\":13720:13754  return (n, average, minT, maxT, c) */\n      swap13\n      pop\n      swap13\n      pop\n      swap13\n      pop\n      swap13\n      pop\n      swap13\n      pop\n      pop\n      pop\n      pop\n      pop\n      pop\n      pop\n      pop\n        /* \"FoodTraceability.sol\":3178:3179  _ */\n    tag_356:\n        /* \"FoodTraceability.sol\":12786:13762  function getAnalytics(string memory lotNumber) external view productExists(lotNumber)... */\n      pop\n      swap2\n      swap4\n      swap6\n      swap1\n      swap3\n      swap5\n      pop\n      jump\t// out\n        /* \"FoodTraceability.sol\":8644:9366  function generateQRToken(string memory lotNumber) external productExists(lotNumber) returns (string memory) {... */\n    tag_80:\n        /* \"FoodTraceability.sol\":8737:8750  string memory */\n      0x60\n        /* \"FoodTraceability.sol\":8717:8726  lotNumber */\n      dup2\n        /* \"FoodTraceability.sol\":3115:3129  registeredLots */\n      0x02\n        /* \"FoodTraceability.sol\":3130:3139  lotNumber */\n      dup2\n        /* \"FoodTraceability.sol\":3115:3140  registeredLots[lotNumber] */\n      mload(0x40)\n      tag_380\n      swap2\n      swap1\n      tag_98\n      jump\t// in\n    tag_380:\n      swap1\n      dup2\n      mstore\n      0x20\n      add\n      mload(0x40)\n      dup1\n      swap2\n      sub\n      swap1\n      keccak256\n      0x00\n      swap1\n      sload\n      swap1\n      0x0100\n      exp\n      swap1\n      div\n      0xff\n      and\n        /* \"FoodTraceability.sol\":3107:3167  require(registeredLots[lotNumber], \"Product not registered\") */\n      tag_381\n      jumpi\n      mload(0x40)\n      0x08c379a000000000000000000000000000000000000000000000000000000000\n      dup2\n      mstore\n      0x04\n      add\n      tag_382\n      swap1\n      tag_101\n      jump\t// in\n    tag_382:\n      mload(0x40)\n      dup1\n      swap2\n      sub\n      swap1\n      revert\n    tag_381:\n        /* \"FoodTraceability.sol\":8833:8850  Product storage p */\n      0x00\n        /* \"FoodTraceability.sol\":8853:8861  products */\n      0x01\n        /* \"FoodTraceability.sol\":8862:8871  lotNumber */\n      dup5\n        /* \"FoodTraceability.sol\":8853:8872  products[lotNumber] */\n      mload(0x40)\n      tag_384\n      swap2\n      swap1\n      tag_98\n      jump\t// in\n    tag_384:\n      swap1\n      dup2\n      mstore\n      0x20\n      add\n      mload(0x40)\n      dup1\n      swap2\n      sub\n      swap1\n      keccak256\n        /* \"FoodTraceability.sol\":8833:8872  Product storage p = products[lotNumber] */\n      swap1\n      pop\n        /* \"FoodTraceability.sol\":8905:8910  owner */\n      0x00\n      0x00\n      swap1\n      sload\n      swap1\n      0x0100\n      exp\n      swap1\n      div\n      0xffffffffffffffffffffffffffffffffffffffff\n      and\n        /* \"FoodTraceability.sol\":8891:8910  msg.sender == owner */\n      0xffffffffffffffffffffffffffffffffffffffff\n      and\n        /* \"FoodTraceability.sol\":8891:8901  msg.sender */\n      caller\n        /* \"FoodTraceability.sol\":8891:8910  msg.sender == owner */\n      0xffffffffffffffffffffffffffffffffffffffff\n      and\n      eq\n        /* \"FoodTraceability.sol\":8891:8944  msg.sender == owner || msg.sender == p.currentHandler */\n      dup1\n      tag_385\n      jumpi\n      pop\n        /* \"FoodTraceability.sol\":8928:8929  p */\n      dup1\n        /* \"FoodTraceability.sol\":8928:8944  p.currentHandler */\n      0x04\n      add\n      0x01\n      swap1\n      sload\n      swap1\n      0x0100\n      exp\n      swap1\n      div\n      0xffffffffffffffffffffffffffffffffffffffff\n      and\n        /* \"FoodTraceability.sol\":8914:8944  msg.sender == p.currentHandler */\n      0xffffffffffffffffffffffffffffffffffffffff\n      and\n        /* \"FoodTraceability.sol\":8914:8924  msg.sender */\n      caller\n        /* \"FoodTraceability.sol\":8914:8944  msg.sender == p.currentHandler */\n      0xffffffffffffffffffffffffffffffffffffffff\n      and\n      eq\n        /* \"FoodTraceability.sol\":8891:8944  msg.sender == owner || msg.sender == p.currentHandler */\n    tag_385:\n        /* \"FoodTraceability.sol\":8883:8978  require(msg.sender == owner || msg.sender == p.currentHandler, \"Only owner or current handler\") */\n      tag_386\n      jumpi\n      mload(0x40)\n      0x08c379a000000000000000000000000000000000000000000000000000000000\n      dup2\n      mstore\n      0x04\n      add\n      tag_387\n      swap1\n      tag_388\n      jump\t// in\n    tag_387:\n      mload(0x40)\n      dup1\n      swap2\n      sub\n      swap1\n      revert\n    tag_386:\n        /* \"FoodTraceability.sol\":9081:9092  bytes32 raw */\n      0x00\n        /* \"FoodTraceability.sol\":9122:9131  lotNumber */\n      dup5\n        /* \"FoodTraceability.sol\":9133:9143  msg.sender */\n      caller\n        /* \"FoodTraceability.sol\":9145:9160  block.timestamp */\n      timestamp\n        /* \"FoodTraceability.sol\":9105:9161  abi.encodePacked(lotNumber, msg.sender, block.timestamp) */\n      add(0x20, mload(0x40))\n      tag_389\n      swap4\n      swap3\n      swap2\n      swap1\n      tag_390\n      jump\t// in\n    tag_389:\n      mload(0x40)\n      0x20\n      dup2\n      dup4\n      sub\n      sub\n      dup2\n      mstore\n      swap1\n      0x40\n      mstore\n        /* \"FoodTraceability.sol\":9095:9162  keccak256(abi.encodePacked(lotNumber, msg.sender, block.timestamp)) */\n      dup1\n      mload\n      swap1\n      0x20\n      add\n      keccak256\n        /* \"FoodTraceability.sol\":9081:9162  bytes32 raw = keccak256(abi.encodePacked(lotNumber, msg.sender, block.timestamp)) */\n      swap1\n      pop\n        /* \"FoodTraceability.sol\":9173:9192  string memory token */\n      0x00\n        /* \"FoodTraceability.sol\":9195:9212  _toHexString(raw) */\n      tag_391\n        /* \"FoodTraceability.sol\":9208:9211  raw */\n      dup3\n        /* \"FoodTraceability.sol\":9195:9207  _toHexString */\n      tag_392\n        /* \"FoodTraceability.sol\":9195:9212  _toHexString(raw) */\n      jump\t// in\n    tag_391:\n        /* \"FoodTraceability.sol\":9173:9212  string memory token = _toHexString(raw) */\n      swap1\n      pop\n        /* \"FoodTraceability.sol\":9242:9251  lotNumber */\n      dup6\n        /* \"FoodTraceability.sol\":9225:9232  qrToLot */\n      0x04\n        /* \"FoodTraceability.sol\":9233:9238  token */\n      dup3\n        /* \"FoodTraceability.sol\":9225:9239  qrToLot[token] */\n      mload(0x40)\n      tag_393\n      swap2\n      swap1\n      tag_98\n      jump\t// in\n    tag_393:\n      swap1\n      dup2\n      mstore\n      0x20\n      add\n      mload(0x40)\n      dup1\n      swap2\n      sub\n      swap1\n      keccak256\n        /* \"FoodTraceability.sol\":9225:9251  qrToLot[token] = lotNumber */\n      swap1\n      dup2\n      tag_394\n      swap2\n      swap1\n      tag_157\n      jump\t// in\n    tag_394:\n      pop\n        /* \"FoodTraceability.sol\":9283:9288  token */\n      dup1\n        /* \"FoodTraceability.sol\":9262:9269  lotToQr */\n      0x05\n        /* \"FoodTraceability.sol\":9270:9279  lotNumber */\n      dup8\n        /* \"FoodTraceability.sol\":9262:9280  lotToQr[lotNumber] */\n      mload(0x40)\n      tag_395\n      swap2\n      swap1\n      tag_98\n      jump\t// in\n    tag_395:\n      swap1\n      dup2\n      mstore\n      0x20\n      add\n      mload(0x40)\n      dup1\n      swap2\n      sub\n      swap1\n      keccak256\n        /* \"FoodTraceability.sol\":9262:9288  lotToQr[lotNumber] = token */\n      swap1\n      dup2\n      tag_396\n      swap2\n      swap1\n      tag_157\n      jump\t// in\n    tag_396:\n      pop\n        /* \"FoodTraceability.sol\":9318:9327  lotNumber */\n      dup6\n        /* \"FoodTraceability.sol\":9306:9335  QRGenerated(lotNumber, token) */\n      mload(0x40)\n      tag_397\n      swap2\n      swap1\n      tag_98\n      jump\t// in\n    tag_397:\n      mload(0x40)\n      dup1\n      swap2\n      sub\n      swap1\n      keccak256\n      0x5b09ec3fe7870357cbc45ef4e1d69860d921f49908dd748edeeaefc8158864db\n        /* \"FoodTraceability.sol\":9329:9334  token */\n      dup3\n        /* \"FoodTraceability.sol\":9306:9335  QRGenerated(lotNumber, token) */\n      mload(0x40)\n      tag_398\n      swap2\n      swap1\n      tag_82\n      jump\t// in\n    tag_398:\n      mload(0x40)\n      dup1\n      swap2\n      sub\n      swap1\n      log2\n        /* \"FoodTraceability.sol\":9353:9358  token */\n      dup1\n        /* \"FoodTraceability.sol\":9346:9358  return token */\n      swap5\n      pop\n      pop\n      pop\n      pop\n        /* \"FoodTraceability.sol\":8644:9366  function generateQRToken(string memory lotNumber) external productExists(lotNumber) returns (string memory) {... */\n      pop\n      swap2\n      swap1\n      pop\n      jump\t// out\n        /* \"FoodTraceability.sol\":9431:10008  function consumerLookupByQR(string memory qrToken)... */\n    tag_85:\n        /* \"FoodTraceability.sol\":9546:9569  string memory lotNumber */\n      0x60\n        /* \"FoodTraceability.sol\":9584:9602  string memory name */\n      dup1\n        /* \"FoodTraceability.sol\":9617:9637  string memory origin */\n      0x60\n        /* \"FoodTraceability.sol\":9652:9680  string memory certifications */\n      dup1\n        /* \"FoodTraceability.sol\":9695:9706  Stage stage */\n      0x00\n        /* \"FoodTraceability.sol\":9721:9736  address handler */\n      0x00\n        /* \"FoodTraceability.sol\":9764:9781  string memory lot */\n      0x00\n        /* \"FoodTraceability.sol\":9784:9791  qrToLot */\n      0x04\n        /* \"FoodTraceability.sol\":9792:9799  qrToken */\n      dup9\n        /* \"FoodTraceability.sol\":9784:9800  qrToLot[qrToken] */\n      mload(0x40)\n      tag_400\n      swap2\n      swap1\n      tag_98\n      jump\t// in\n    tag_400:\n      swap1\n      dup2\n      mstore\n      0x20\n      add\n      mload(0x40)\n      dup1\n      swap2\n      sub\n      swap1\n      keccak256\n        /* \"FoodTraceability.sol\":9764:9800  string memory lot = qrToLot[qrToken] */\n      dup1\n      sload\n      tag_401\n      swap1\n      tag_108\n      jump\t// in\n    tag_401:\n      dup1\n      0x1f\n      add\n      0x20\n      dup1\n      swap2\n      div\n      mul\n      0x20\n      add\n      mload(0x40)\n      swap1\n      dup2\n      add\n      0x40\n      mstore\n      dup1\n      swap3\n      swap2\n      swap1\n      dup2\n      dup2\n      mstore\n      0x20\n      add\n      dup3\n      dup1\n      sload\n      tag_402\n      swap1\n      tag_108\n      jump\t// in\n    tag_402:\n      dup1\n      iszero\n      tag_403\n      jumpi\n      dup1\n      0x1f\n      lt\n      tag_404\n      jumpi\n      0x0100\n      dup1\n      dup4\n      sload\n      div\n      mul\n      dup4\n      mstore\n      swap2\n      0x20\n      add\n      swap2\n      jump(tag_403)\n    tag_404:\n      dup3\n      add\n      swap2\n      swap1\n      0x00\n      mstore\n      keccak256(0x00, 0x20)\n      swap1\n    tag_405:\n      dup2\n      sload\n      dup2\n      mstore\n      swap1\n      0x01\n      add\n      swap1\n      0x20\n      add\n      dup1\n      dup4\n      gt\n      tag_405\n      jumpi\n      dup3\n      swap1\n      sub\n      0x1f\n      and\n      dup3\n      add\n      swap2\n    tag_403:\n      pop\n      pop\n      pop\n      pop\n      pop\n      swap1\n      pop\n        /* \"FoodTraceability.sol\":9840:9841  0 */\n      0x00\n        /* \"FoodTraceability.sol\":9825:9828  lot */\n      dup2\n        /* \"FoodTraceability.sol\":9819:9836  bytes(lot).length */\n      mload\n        /* \"FoodTraceability.sol\":9819:9841  bytes(lot).length != 0 */\n      sub\n        /* \"FoodTraceability.sol\":9811:9862  require(bytes(lot).length != 0, \"Invalid QR token\") */\n      tag_406\n      jumpi\n      mload(0x40)\n      0x08c379a000000000000000000000000000000000000000000000000000000000\n      dup2\n      mstore\n      0x04\n      add\n      tag_407\n      swap1\n      tag_408\n      jump\t// in\n    tag_407:\n      mload(0x40)\n      dup1\n      swap2\n      sub\n      swap1\n      revert\n    tag_406:\n        /* \"FoodTraceability.sol\":9873:9890  Product storage p */\n      0x00\n        /* \"FoodTraceability.sol\":9893:9901  products */\n      0x01\n        /* \"FoodTraceability.sol\":9902:9905  lot */\n      dup3\n        /* \"FoodTraceability.sol\":9893:9906  products[lot] */\n      mload(0x40)\n      tag_409\n      swap2\n      swap1\n      tag_98\n      jump\t// in\n    tag_409:\n      swap1\n      dup2\n      mstore\n      0x20\n      add\n      mload(0x40)\n      dup1\n      swap2\n      sub\n      swap1\n      keccak256\n        /* \"FoodTraceability.sol\":9873:9906  Product storage p = products[lot] */\n      swap1\n      pop\n        /* \"FoodTraceability.sol\":9925:9926  p */\n      dup1\n        /* \"FoodTraceability.sol\":9925:9936  p.lotNumber */\n      0x00\n      add\n        /* \"FoodTraceability.sol\":9938:9939  p */\n      dup2\n        /* \"FoodTraceability.sol\":9938:9944  p.name */\n      0x01\n      add\n        /* \"FoodTraceability.sol\":9946:9947  p */\n      dup3\n        /* \"FoodTraceability.sol\":9946:9954  p.origin */\n      0x02\n      add\n        /* \"FoodTraceability.sol\":9956:9957  p */\n      dup4\n        /* \"FoodTraceability.sol\":9956:9972  p.certifications */\n      0x03\n      add\n        /* \"FoodTraceability.sol\":9974:9975  p */\n      dup5\n        /* \"FoodTraceability.sol\":9974:9981  p.stage */\n      0x04\n      add\n      0x00\n      swap1\n      sload\n      swap1\n      0x0100\n      exp\n      swap1\n      div\n      0xff\n      and\n        /* \"FoodTraceability.sol\":9983:9984  p */\n      dup6\n        /* \"FoodTraceability.sol\":9983:9999  p.currentHandler */\n      0x04\n      add\n      0x01\n      swap1\n      sload\n      swap1\n      0x0100\n      exp\n      swap1\n      div\n      0xffffffffffffffffffffffffffffffffffffffff\n      and\n        /* \"FoodTraceability.sol\":9917:10000  return (p.lotNumber, p.name, p.origin, p.certifications, p.stage, p.currentHandler) */\n      dup6\n      dup1\n      sload\n      tag_410\n      swap1\n      tag_108\n      jump\t// in\n    tag_410:\n      dup1\n      0x1f\n      add\n      0x20\n      dup1\n      swap2\n      div\n      mul\n      0x20\n      add\n      mload(0x40)\n      swap1\n      dup2\n      add\n      0x40\n      mstore\n      dup1\n      swap3\n      swap2\n      swap1\n      dup2\n      dup2\n      mstore\n      0x20\n      add\n      dup3\n      dup1\n      sload\n      tag_411\n      swap1\n      tag_108\n      jump\t// in\n    tag_411:\n      dup1\n      iszero\n      tag_412\n      jumpi\n      dup1\n      0x1f\n      lt\n      tag_413\n      jumpi\n      0x0100\n      dup1\n      dup4\n      sload\n      div\n      mul\n      dup4\n      mstore\n      swap2\n      0x20\n      add\n      swap2\n      jump(tag_412)\n    tag_413:\n      dup3\n      add\n      swap2\n      swap1\n      0x00\n      mstore\n      keccak256(0x00, 0x20)\n      swap1\n    tag_414:\n      dup2\n      sload\n      dup2\n      mstore\n      swap1\n      0x01\n      add\n      swap1\n      0x20\n      add\n      dup1\n      dup4\n      gt\n      tag_414\n      jumpi\n      dup3\n      swap1\n      sub\n      0x1f\n      and\n      dup3\n      add\n      swap2\n    tag_412:\n      pop\n      pop\n      pop\n      pop\n      pop\n      swap6\n      pop\n      dup5\n      dup1\n      sload\n      tag_415\n      swap1\n      tag_108\n      jump\t// in\n    tag_415:\n      dup1\n      0x1f\n      add\n      0x20\n      dup1\n      swap2\n      div\n      mul\n      0x20\n      add\n      mload(0x40)\n      swap1\n      dup2\n      add\n      0x40\n      mstore\n      dup1\n      swap3\n      swap2\n      swap1\n      dup2\n      dup2\n      mstore\n      0x20\n      add\n      dup3\n      dup1\n      sload\n      tag_416\n      swap1\n      tag_108\n      jump\t// in\n    tag_416:\n      dup1\n      iszero\n      tag_417\n      jumpi\n      dup1\n      0x1f\n      lt\n      tag_418\n      jumpi\n      0x0100\n      dup1\n      dup4\n      sload\n      div\n      mul\n      dup4\n      mstore\n      swap2\n      0x20\n      add\n      swap2\n      jump(tag_417)\n    tag_418:\n      dup3\n      add\n      swap2\n      swap1\n      0x00\n      mstore\n      keccak256(0x00, 0x20)\n      swap1\n    tag_419:\n      dup2\n      sload\n      dup2\n      mstore\n      swap1\n      0x01\n      add\n      swap1\n      0x20\n      add\n      dup1\n      dup4\n      gt\n      tag_419\n      jumpi\n      dup3\n      swap1\n      sub\n      0x1f\n      and\n      dup3\n      add\n      swap2\n    tag_417:\n      pop\n      pop\n      pop\n      pop\n      pop\n      swap5\n      pop\n      dup4\n      dup1\n      sload\n      tag_420\n      swap1\n      tag_108\n      jump\t// in\n    tag_420:\n      dup1\n      0x1f\n      add\n      0x20\n      dup1\n      swap2\n      div\n      mul\n      0x20\n      add\n      mload(0x40)\n      swap1\n      dup2\n      add\n      0x40\n      mstore\n      dup1\n      swap3\n      swap2\n      swap1\n      dup2\n      dup2\n      mstore\n      0x20\n      add\n      dup3\n      dup1\n      sload\n      tag_421\n      swap1\n      tag_108\n      jump\t// in\n    tag_421:\n      dup1\n      iszero\n      tag_422\n      jumpi\n      dup1\n      0x1f\n      lt\n      tag_423\n      jumpi\n      0x0100\n      dup1\n      dup4\n      sload\n      div\n      mul\n      dup4\n      mstore\n      swap2\n      0x20\n      add\n      swap2\n      jump(tag_422)\n    tag_423:\n      dup3\n      add\n      swap2\n      swap1\n      0x00\n      mstore\n      keccak256(0x00, 0x20)\n      swap1\n    tag_424:\n      dup2\n      sload\n      dup2\n      mstore\n      swap1\n      0x01\n      add\n      swap1\n      0x20\n      add\n      dup1\n      dup4\n      gt\n      tag_424\n      jumpi\n      dup3\n      swap1\n      sub\n      0x1f\n      and\n      dup3\n      add\n      swap2\n    tag_422:\n      pop\n      pop\n      pop\n      pop\n      pop\n      swap4\n      pop\n      dup3\n      dup1\n      sload\n      tag_425\n      swap1\n      tag_108\n      jump\t// in\n    tag_425:\n      dup1\n      0x1f\n      add\n      0x20\n      dup1\n      swap2\n      div\n      mul\n      0x20\n      add\n      mload(0x40)\n      swap1\n      dup2\n      add\n      0x40\n      mstore\n      dup1\n      swap3\n      swap2\n      swap1\n      dup2\n      dup2\n      mstore\n      0x20\n      add\n      dup3\n      dup1\n      sload\n      tag_426\n      swap1\n      tag_108\n      jump\t// in\n    tag_426:\n      dup1\n      iszero\n      tag_427\n      jumpi\n      dup1\n      0x1f\n      lt\n      tag_428\n      jumpi\n      0x0100\n      dup1\n      dup4\n      sload\n      div\n      mul\n      dup4\n      mstore\n      swap2\n      0x20\n      add\n      swap2\n      jump(tag_427)\n    tag_428:\n      dup3\n      add\n      swap2\n      swap1\n      0x00\n      mstore\n      keccak256(0x00, 0x20)\n      swap1\n    tag_429:\n      dup2\n      sload\n      dup2\n      mstore\n      swap1\n      0x01\n      add\n      swap1\n      0x20\n      add\n      dup1\n      dup4\n      gt\n      tag_429\n      jumpi\n      dup3\n      swap1\n      sub\n      0x1f\n      and\n      dup3\n      add\n      swap2\n    tag_427:\n      pop\n      pop\n      pop\n      pop\n      pop\n      swap3\n      pop\n      swap8\n      pop\n      swap8\n      pop\n      swap8\n      pop\n      swap8\n      pop\n      swap8\n      pop\n      swap8\n      pop\n      pop\n      pop\n        /* \"FoodTraceability.sol\":9431:10008  function consumerLookupByQR(string memory qrToken)... */\n      swap2\n      swap4\n      swap6\n      pop\n      swap2\n      swap4\n      swap6\n      jump\t// out\n        /* \"FoodTraceability.sol\":11964:12620  function checkTemperatureCompliance(string memory lotNumber) public view productExists(lotNumber) returns (bool) {... */\n    tag_90:\n        /* \"FoodTraceability.sol\":12071:12075  bool */\n      0x00\n        /* \"FoodTraceability.sol\":12051:12060  lotNumber */\n      dup2\n        /* \"FoodTraceability.sol\":3115:3129  registeredLots */\n      0x02\n        /* \"FoodTraceability.sol\":3130:3139  lotNumber */\n      dup2\n        /* \"FoodTraceability.sol\":3115:3140  registeredLots[lotNumber] */\n      mload(0x40)\n      tag_431\n      swap2\n      swap1\n      tag_98\n      jump\t// in\n    tag_431:\n      swap1\n      dup2\n      mstore\n      0x20\n      add\n      mload(0x40)\n      dup1\n      swap2\n      sub\n      swap1\n      keccak256\n      0x00\n      swap1\n      sload\n      swap1\n      0x0100\n      exp\n      swap1\n      div\n      0xff\n      and\n        /* \"FoodTraceability.sol\":3107:3167  require(registeredLots[lotNumber], \"Product not registered\") */\n      tag_432\n      jumpi\n      mload(0x40)\n      0x08c379a000000000000000000000000000000000000000000000000000000000\n      dup2\n      mstore\n      0x04\n      add\n      tag_433\n      swap1\n      tag_101\n      jump\t// in\n    tag_433:\n      mload(0x40)\n      dup1\n      swap2\n      sub\n      swap1\n      revert\n    tag_432:\n        /* \"FoodTraceability.sol\":12088:12105  Product storage p */\n      0x00\n        /* \"FoodTraceability.sol\":12108:12116  products */\n      0x01\n        /* \"FoodTraceability.sol\":12117:12126  lotNumber */\n      dup5\n        /* \"FoodTraceability.sol\":12108:12127  products[lotNumber] */\n      mload(0x40)\n      tag_435\n      swap2\n      swap1\n      tag_98\n      jump\t// in\n    tag_435:\n      swap1\n      dup2\n      mstore\n      0x20\n      add\n      mload(0x40)\n      dup1\n      swap2\n      sub\n      swap1\n      keccak256\n        /* \"FoodTraceability.sol\":12088:12127  Product storage p = products[lotNumber] */\n      swap1\n      pop\n        /* \"FoodTraceability.sol\":12145:12146  p */\n      dup1\n        /* \"FoodTraceability.sol\":12145:12157  p.minTempSet */\n      0x09\n      add\n      0x00\n      swap1\n      sload\n      swap1\n      0x0100\n      exp\n      swap1\n      div\n      0xff\n      and\n        /* \"FoodTraceability.sol\":12144:12157  !p.minTempSet */\n      iszero\n        /* \"FoodTraceability.sol\":12144:12174  !p.minTempSet && !p.maxTempSet */\n      dup1\n      iszero\n      tag_436\n      jumpi\n      pop\n        /* \"FoodTraceability.sol\":12162:12163  p */\n      dup1\n        /* \"FoodTraceability.sol\":12162:12174  p.maxTempSet */\n      0x09\n      add\n      0x01\n      swap1\n      sload\n      swap1\n      0x0100\n      exp\n      swap1\n      div\n      0xff\n      and\n        /* \"FoodTraceability.sol\":12161:12174  !p.maxTempSet */\n      iszero\n        /* \"FoodTraceability.sol\":12144:12174  !p.minTempSet && !p.maxTempSet */\n    tag_436:\n        /* \"FoodTraceability.sol\":12140:12269  if (!p.minTempSet && !p.maxTempSet) {... */\n      iszero\n      tag_437\n      jumpi\n        /* \"FoodTraceability.sol\":12253:12257  true */\n      0x01\n        /* \"FoodTraceability.sol\":12246:12257  return true */\n      swap3\n      pop\n      pop\n      jump(tag_434)\n        /* \"FoodTraceability.sol\":12140:12269  if (!p.minTempSet && !p.maxTempSet) {... */\n    tag_437:\n        /* \"FoodTraceability.sol\":12286:12292  uint i */\n      0x00\n        /* \"FoodTraceability.sol\":12295:12296  0 */\n      0x00\n        /* \"FoodTraceability.sol\":12286:12296  uint i = 0 */\n      swap1\n      pop\n        /* \"FoodTraceability.sol\":12281:12591  for (uint i = 0; i < p.transportLogs.length; i++) {... */\n    tag_438:\n        /* \"FoodTraceability.sol\":12302:12303  p */\n      dup2\n        /* \"FoodTraceability.sol\":12302:12317  p.transportLogs */\n      0x05\n      add\n        /* \"FoodTraceability.sol\":12302:12324  p.transportLogs.length */\n      dup1\n      sload\n      swap1\n      pop\n        /* \"FoodTraceability.sol\":12298:12299  i */\n      dup2\n        /* \"FoodTraceability.sol\":12298:12324  i < p.transportLogs.length */\n      lt\n        /* \"FoodTraceability.sol\":12281:12591  for (uint i = 0; i < p.transportLogs.length; i++) {... */\n      iszero\n      tag_439\n      jumpi\n        /* \"FoodTraceability.sol\":12346:12354  int256 t */\n      0x00\n        /* \"FoodTraceability.sol\":12357:12358  p */\n      dup3\n        /* \"FoodTraceability.sol\":12357:12372  p.transportLogs */\n      0x05\n      add\n        /* \"FoodTraceability.sol\":12373:12374  i */\n      dup3\n        /* \"FoodTraceability.sol\":12357:12375  p.transportLogs[i] */\n      dup2\n      sload\n      dup2\n      lt\n      tag_441\n      jumpi\n      tag_442\n      tag_333\n      jump\t// in\n    tag_442:\n    tag_441:\n      swap1\n      0x00\n      mstore\n      keccak256(0x00, 0x20)\n      swap1\n      0x03\n      mul\n      add\n        /* \"FoodTraceability.sol\":12357:12387  p.transportLogs[i].temperature */\n      0x00\n      add\n      sload\n        /* \"FoodTraceability.sol\":12346:12387  int256 t = p.transportLogs[i].temperature */\n      swap1\n      pop\n        /* \"FoodTraceability.sol\":12406:12407  p */\n      dup3\n        /* \"FoodTraceability.sol\":12406:12418  p.minTempSet */\n      0x09\n      add\n      0x00\n      swap1\n      sload\n      swap1\n      0x0100\n      exp\n      swap1\n      div\n      0xff\n      and\n        /* \"FoodTraceability.sol\":12406:12435  p.minTempSet && t < p.minTemp */\n      dup1\n      iszero\n      tag_444\n      jumpi\n      pop\n        /* \"FoodTraceability.sol\":12426:12427  p */\n      dup3\n        /* \"FoodTraceability.sol\":12426:12435  p.minTemp */\n      0x07\n      add\n      sload\n        /* \"FoodTraceability.sol\":12422:12423  t */\n      dup2\n        /* \"FoodTraceability.sol\":12422:12435  t < p.minTemp */\n      slt\n        /* \"FoodTraceability.sol\":12406:12435  p.minTempSet && t < p.minTemp */\n    tag_444:\n        /* \"FoodTraceability.sol\":12402:12484  if (p.minTempSet && t < p.minTemp) {... */\n      iszero\n      tag_445\n      jumpi\n        /* \"FoodTraceability.sol\":12463:12468  false */\n      0x00\n        /* \"FoodTraceability.sol\":12456:12468  return false */\n      swap5\n      pop\n      pop\n      pop\n      pop\n      jump(tag_434)\n        /* \"FoodTraceability.sol\":12402:12484  if (p.minTempSet && t < p.minTemp) {... */\n    tag_445:\n        /* \"FoodTraceability.sol\":12502:12503  p */\n      dup3\n        /* \"FoodTraceability.sol\":12502:12514  p.maxTempSet */\n      0x09\n      add\n      0x01\n      swap1\n      sload\n      swap1\n      0x0100\n      exp\n      swap1\n      div\n      0xff\n      and\n        /* \"FoodTraceability.sol\":12502:12531  p.maxTempSet && t > p.maxTemp */\n      dup1\n      iszero\n      tag_446\n      jumpi\n      pop\n        /* \"FoodTraceability.sol\":12522:12523  p */\n      dup3\n        /* \"FoodTraceability.sol\":12522:12531  p.maxTemp */\n      0x08\n      add\n      sload\n        /* \"FoodTraceability.sol\":12518:12519  t */\n      dup2\n        /* \"FoodTraceability.sol\":12518:12531  t > p.maxTemp */\n      sgt\n        /* \"FoodTraceability.sol\":12502:12531  p.maxTempSet && t > p.maxTemp */\n    tag_446:\n        /* \"FoodTraceability.sol\":12498:12580  if (p.maxTempSet && t > p.maxTemp) {... */\n      iszero\n      tag_447\n      jumpi\n        /* \"FoodTraceability.sol\":12559:12564  false */\n      0x00\n        /* \"FoodTraceability.sol\":12552:12564  return false */\n      swap5\n      pop\n      pop\n      pop\n      pop\n      jump(tag_434)\n        /* \"FoodTraceability.sol\":12498:12580  if (p.maxTempSet && t > p.maxTemp) {... */\n    tag_447:\n        /* \"FoodTraceability.sol\":12331:12591  {... */\n      pop\n        /* \"FoodTraceability.sol\":12326:12329  i++ */\n      dup1\n      dup1\n      0x01\n      add\n      swap2\n      pop\n      pop\n        /* \"FoodTraceability.sol\":12281:12591  for (uint i = 0; i < p.transportLogs.length; i++) {... */\n      jump(tag_438)\n    tag_439:\n      pop\n        /* \"FoodTraceability.sol\":12608:12612  true */\n      0x01\n        /* \"FoodTraceability.sol\":12601:12612  return true */\n      swap3\n      pop\n      pop\n        /* \"FoodTraceability.sol\":3178:3179  _ */\n    tag_434:\n        /* \"FoodTraceability.sol\":11964:12620  function checkTemperatureCompliance(string memory lotNumber) public view productExists(lotNumber) returns (bool) {... */\n      pop\n      swap2\n      swap1\n      pop\n      jump\t// out\n        /* \"FoodTraceability.sol\":5306:5796  function setTemperatureThresholds(... */\n    tag_95:\n        /* \"FoodTraceability.sol\":5454:5463  lotNumber */\n      dup3\n        /* \"FoodTraceability.sol\":3115:3129  registeredLots */\n      0x02\n        /* \"FoodTraceability.sol\":3130:3139  lotNumber */\n      dup2\n        /* \"FoodTraceability.sol\":3115:3140  registeredLots[lotNumber] */\n      mload(0x40)\n      tag_449\n      swap2\n      swap1\n      tag_98\n      jump\t// in\n    tag_449:\n      swap1\n      dup2\n      mstore\n      0x20\n      add\n      mload(0x40)\n      dup1\n      swap2\n      sub\n      swap1\n      keccak256\n      0x00\n      swap1\n      sload\n      swap1\n      0x0100\n      exp\n      swap1\n      div\n      0xff\n      and\n        /* \"FoodTraceability.sol\":3107:3167  require(registeredLots[lotNumber], \"Product not registered\") */\n      tag_450\n      jumpi\n      mload(0x40)\n      0x08c379a000000000000000000000000000000000000000000000000000000000\n      dup2\n      mstore\n      0x04\n      add\n      tag_451\n      swap1\n      tag_101\n      jump\t// in\n    tag_451:\n      mload(0x40)\n      dup1\n      swap2\n      sub\n      swap1\n      revert\n    tag_450:\n        /* \"FoodTraceability.sol\":5498:5503  owner */\n      0x00\n      0x00\n      swap1\n      sload\n      swap1\n      0x0100\n      exp\n      swap1\n      div\n      0xffffffffffffffffffffffffffffffffffffffff\n      and\n        /* \"FoodTraceability.sol\":5484:5503  msg.sender == owner */\n      0xffffffffffffffffffffffffffffffffffffffff\n      and\n        /* \"FoodTraceability.sol\":5484:5494  msg.sender */\n      caller\n        /* \"FoodTraceability.sol\":5484:5503  msg.sender == owner */\n      0xffffffffffffffffffffffffffffffffffffffff\n      and\n      eq\n        /* \"FoodTraceability.sol\":5484:5537  msg.sender == owner || roles[msg.sender] != Role.None */\n      dup1\n      tag_453\n      jumpi\n      pop\n        /* \"FoodTraceability.sol\":5528:5537  Role.None */\n      0x00\n        /* \"FoodTraceability.sol\":5507:5537  roles[msg.sender] != Role.None */\n      0x04\n      dup2\n      gt\n      iszero\n      tag_454\n      jumpi\n      tag_455\n      tag_148\n      jump\t// in\n    tag_455:\n    tag_454:\n        /* \"FoodTraceability.sol\":5507:5512  roles */\n      0x03\n        /* \"FoodTraceability.sol\":5507:5524  roles[msg.sender] */\n      0x00\n        /* \"FoodTraceability.sol\":5513:5523  msg.sender */\n      caller\n        /* \"FoodTraceability.sol\":5507:5524  roles[msg.sender] */\n      0xffffffffffffffffffffffffffffffffffffffff\n      and\n      0xffffffffffffffffffffffffffffffffffffffff\n      and\n      dup2\n      mstore\n      0x20\n      add\n      swap1\n      dup2\n      mstore\n      0x20\n      add\n      0x00\n      keccak256\n      0x00\n      swap1\n      sload\n      swap1\n      0x0100\n      exp\n      swap1\n      div\n      0xff\n      and\n        /* \"FoodTraceability.sol\":5507:5537  roles[msg.sender] != Role.None */\n      0x04\n      dup2\n      gt\n      iszero\n      tag_456\n      jumpi\n      tag_457\n      tag_148\n      jump\t// in\n    tag_457:\n    tag_456:\n      eq\n      iszero\n        /* \"FoodTraceability.sol\":5484:5537  msg.sender == owner || roles[msg.sender] != Role.None */\n    tag_453:\n        /* \"FoodTraceability.sol\":5476:5560  require(msg.sender == owner || roles[msg.sender] != Role.None, \"Only owner or role\") */\n      tag_458\n      jumpi\n      mload(0x40)\n      0x08c379a000000000000000000000000000000000000000000000000000000000\n      dup2\n      mstore\n      0x04\n      add\n      tag_459\n      swap1\n      tag_460\n      jump\t// in\n    tag_459:\n      mload(0x40)\n      dup1\n      swap2\n      sub\n      swap1\n      revert\n    tag_458:\n        /* \"FoodTraceability.sol\":5571:5588  Product storage p */\n      0x00\n        /* \"FoodTraceability.sol\":5591:5599  products */\n      0x01\n        /* \"FoodTraceability.sol\":5600:5609  lotNumber */\n      dup6\n        /* \"FoodTraceability.sol\":5591:5610  products[lotNumber] */\n      mload(0x40)\n      tag_461\n      swap2\n      swap1\n      tag_98\n      jump\t// in\n    tag_461:\n      swap1\n      dup2\n      mstore\n      0x20\n      add\n      mload(0x40)\n      dup1\n      swap2\n      sub\n      swap1\n      keccak256\n        /* \"FoodTraceability.sol\":5571:5610  Product storage p = products[lotNumber] */\n      swap1\n      pop\n        /* \"FoodTraceability.sol\":5633:5640  minTemp */\n      dup4\n        /* \"FoodTraceability.sol\":5621:5622  p */\n      dup2\n        /* \"FoodTraceability.sol\":5621:5630  p.minTemp */\n      0x07\n      add\n        /* \"FoodTraceability.sol\":5621:5640  p.minTemp = minTemp */\n      dup2\n      swap1\n      sstore\n      pop\n        /* \"FoodTraceability.sol\":5663:5670  maxTemp */\n      dup3\n        /* \"FoodTraceability.sol\":5651:5652  p */\n      dup2\n        /* \"FoodTraceability.sol\":5651:5660  p.maxTemp */\n      0x08\n      add\n        /* \"FoodTraceability.sol\":5651:5670  p.maxTemp = maxTemp */\n      dup2\n      swap1\n      sstore\n      pop\n        /* \"FoodTraceability.sol\":5696:5700  true */\n      0x01\n        /* \"FoodTraceability.sol\":5681:5682  p */\n      dup2\n        /* \"FoodTraceability.sol\":5681:5693  p.minTempSet */\n      0x09\n      add\n      0x00\n        /* \"FoodTraceability.sol\":5681:5700  p.minTempSet = true */\n      0x0100\n      exp\n      dup2\n      sload\n      dup2\n      0xff\n      mul\n      not\n      and\n      swap1\n      dup4\n      iszero\n      iszero\n      mul\n      or\n      swap1\n      sstore\n      pop\n        /* \"FoodTraceability.sol\":5726:5730  true */\n      0x01\n        /* \"FoodTraceability.sol\":5711:5712  p */\n      dup2\n        /* \"FoodTraceability.sol\":5711:5723  p.maxTempSet */\n      0x09\n      add\n      0x01\n        /* \"FoodTraceability.sol\":5711:5730  p.maxTempSet = true */\n      0x0100\n      exp\n      dup2\n      sload\n      dup2\n      0xff\n      mul\n      not\n      and\n      swap1\n      dup4\n      iszero\n      iszero\n      mul\n      or\n      swap1\n      sstore\n      pop\n        /* \"FoodTraceability.sol\":5760:5769  lotNumber */\n      dup5\n        /* \"FoodTraceability.sol\":5746:5788  ThresholdsSet(lotNumber, minTemp, maxTemp) */\n      mload(0x40)\n      tag_462\n      swap2\n      swap1\n      tag_98\n      jump\t// in\n    tag_462:\n      mload(0x40)\n      dup1\n      swap2\n      sub\n      swap1\n      keccak256\n      0x2927e1ce4ffbe3bb1ec8ded8077445fd60eb0de83debbb3a01462a85f82ac59e\n        /* \"FoodTraceability.sol\":5771:5778  minTemp */\n      dup6\n        /* \"FoodTraceability.sol\":5780:5787  maxTemp */\n      dup6\n        /* \"FoodTraceability.sol\":5746:5788  ThresholdsSet(lotNumber, minTemp, maxTemp) */\n      mload(0x40)\n      tag_463\n      swap3\n      swap2\n      swap1\n      tag_464\n      jump\t// in\n    tag_463:\n      mload(0x40)\n      dup1\n      swap2\n      sub\n      swap1\n      log2\n        /* \"FoodTraceability.sol\":5465:5796  {... */\n      pop\n        /* \"FoodTraceability.sol\":5306:5796  function setTemperatureThresholds(... */\n      pop\n      pop\n      pop\n      pop\n      jump\t// out\n        /* \"FoodTraceability.sol\":13852:14474  function _containsCertification(string memory certs, string memory key) internal pure returns (bool) {... */\n    tag_265:\n        /* \"FoodTraceability.sol\":13947:13951  bool */\n      0x00\n        /* \"FoodTraceability.sol\":13998:14012  bytes memory a */\n      0x00\n        /* \"FoodTraceability.sol\":14021:14026  certs */\n      dup4\n        /* \"FoodTraceability.sol\":13998:14027  bytes memory a = bytes(certs) */\n      swap1\n      pop\n        /* \"FoodTraceability.sol\":14038:14052  bytes memory b */\n      0x00\n        /* \"FoodTraceability.sol\":14061:14064  key */\n      dup4\n        /* \"FoodTraceability.sol\":14038:14065  bytes memory b = bytes(key) */\n      swap1\n      pop\n        /* \"FoodTraceability.sol\":14091:14092  b */\n      dup1\n        /* \"FoodTraceability.sol\":14091:14099  b.length */\n      mload\n        /* \"FoodTraceability.sol\":14080:14081  a */\n      dup3\n        /* \"FoodTraceability.sol\":14080:14088  a.length */\n      mload\n        /* \"FoodTraceability.sol\":14080:14099  a.length < b.length */\n      lt\n        /* \"FoodTraceability.sol\":14076:14113  if (a.length < b.length) return false */\n      iszero\n      tag_466\n      jumpi\n        /* \"FoodTraceability.sol\":14108:14113  false */\n      0x00\n        /* \"FoodTraceability.sol\":14101:14113  return false */\n      swap3\n      pop\n      pop\n      pop\n      jump(tag_465)\n        /* \"FoodTraceability.sol\":14076:14113  if (a.length < b.length) return false */\n    tag_466:\n        /* \"FoodTraceability.sol\":14129:14135  uint i */\n      0x00\n        /* \"FoodTraceability.sol\":14138:14139  0 */\n      0x00\n        /* \"FoodTraceability.sol\":14129:14139  uint i = 0 */\n      swap1\n      pop\n        /* \"FoodTraceability.sol\":14124:14444  for (uint i = 0; i <= a.length - b.length; i++) {... */\n    tag_467:\n        /* \"FoodTraceability.sol\":14157:14158  b */\n      dup2\n        /* \"FoodTraceability.sol\":14157:14165  b.length */\n      mload\n        /* \"FoodTraceability.sol\":14146:14147  a */\n      dup4\n        /* \"FoodTraceability.sol\":14146:14154  a.length */\n      mload\n        /* \"FoodTraceability.sol\":14146:14165  a.length - b.length */\n      tag_470\n      swap2\n      swap1\n      tag_471\n      jump\t// in\n    tag_470:\n        /* \"FoodTraceability.sol\":14141:14142  i */\n      dup2\n        /* \"FoodTraceability.sol\":14141:14165  i <= a.length - b.length */\n      gt\n        /* \"FoodTraceability.sol\":14124:14444  for (uint i = 0; i <= a.length - b.length; i++) {... */\n      tag_468\n      jumpi\n        /* \"FoodTraceability.sol\":14187:14198  bool match_ */\n      0x00\n        /* \"FoodTraceability.sol\":14201:14205  true */\n      0x01\n        /* \"FoodTraceability.sol\":14187:14205  bool match_ = true */\n      swap1\n      pop\n        /* \"FoodTraceability.sol\":14225:14231  uint j */\n      0x00\n        /* \"FoodTraceability.sol\":14234:14235  0 */\n      0x00\n        /* \"FoodTraceability.sol\":14225:14235  uint j = 0 */\n      swap1\n      pop\n        /* \"FoodTraceability.sol\":14220:14395  for (uint j = 0; j < b.length; j++) {... */\n    tag_472:\n        /* \"FoodTraceability.sol\":14241:14242  b */\n      dup4\n        /* \"FoodTraceability.sol\":14241:14249  b.length */\n      mload\n        /* \"FoodTraceability.sol\":14237:14238  j */\n      dup2\n        /* \"FoodTraceability.sol\":14237:14249  j < b.length */\n      lt\n        /* \"FoodTraceability.sol\":14220:14395  for (uint j = 0; j < b.length; j++) {... */\n      iszero\n      tag_473\n      jumpi\n        /* \"FoodTraceability.sol\":14289:14290  b */\n      dup4\n        /* \"FoodTraceability.sol\":14291:14292  j */\n      dup2\n        /* \"FoodTraceability.sol\":14289:14293  b[j] */\n      dup2\n      mload\n      dup2\n      lt\n      tag_475\n      jumpi\n      tag_476\n      tag_333\n      jump\t// in\n    tag_476:\n    tag_475:\n      0x20\n      add\n      add\n      mload\n      0xf8\n      shr\n      0xf8\n      shl\n        /* \"FoodTraceability.sol\":14279:14293  a[i+j] != b[j] */\n      not(0xffffffffffffffffffffffffffffffffffffffffffffffffffffffffffffff)\n      and\n        /* \"FoodTraceability.sol\":14279:14280  a */\n      dup6\n        /* \"FoodTraceability.sol\":14283:14284  j */\n      dup3\n        /* \"FoodTraceability.sol\":14281:14282  i */\n      dup6\n        /* \"FoodTraceability.sol\":14281:14284  i+j */\n      tag_477\n      swap2\n      swap1\n      tag_478\n      jump\t// in\n    tag_477:\n        /* \"FoodTraceability.sol\":14279:14285  a[i+j] */\n      dup2\n      mload\n      dup2\n      lt\n      tag_479\n      jumpi\n      tag_480\n      tag_333\n      jump\t// in\n    tag_480:\n    tag_479:\n      0x20\n      add\n      add\n      mload\n      0xf8\n      shr\n      0xf8\n      shl\n        /* \"FoodTraceability.sol\":14279:14293  a[i+j] != b[j] */\n      not(0xffffffffffffffffffffffffffffffffffffffffffffffffffffffffffffff)\n      and\n      eq\n        /* \"FoodTraceability.sol\":14275:14380  if (a[i+j] != b[j]) {... */\n      tag_481\n      jumpi\n        /* \"FoodTraceability.sol\":14327:14332  false */\n      0x00\n        /* \"FoodTraceability.sol\":14318:14332  match_ = false */\n      swap2\n      pop\n        /* \"FoodTraceability.sol\":14355:14360  break */\n      jump(tag_473)\n        /* \"FoodTraceability.sol\":14275:14380  if (a[i+j] != b[j]) {... */\n    tag_481:\n        /* \"FoodTraceability.sol\":14251:14254  j++ */\n      dup1\n      dup1\n      0x01\n      add\n      swap2\n      pop\n      pop\n        /* \"FoodTraceability.sol\":14220:14395  for (uint j = 0; j < b.length; j++) {... */\n      jump(tag_472)\n    tag_473:\n      pop\n        /* \"FoodTraceability.sol\":14413:14419  match_ */\n      dup1\n        /* \"FoodTraceability.sol\":14409:14432  if (match_) return true */\n      iszero\n      tag_482\n      jumpi\n        /* \"FoodTraceability.sol\":14428:14432  true */\n      0x01\n        /* \"FoodTraceability.sol\":14421:14432  return true */\n      swap5\n      pop\n      pop\n      pop\n      pop\n      pop\n      jump(tag_465)\n        /* \"FoodTraceability.sol\":14409:14432  if (match_) return true */\n    tag_482:\n        /* \"FoodTraceability.sol\":14172:14444  {... */\n      pop\n        /* \"FoodTraceability.sol\":14167:14170  i++ */\n      dup1\n      dup1\n      tag_483\n      swap1\n      tag_484\n      jump\t// in\n    tag_483:\n      swap2\n      pop\n      pop\n        /* \"FoodTraceability.sol\":14124:14444  for (uint i = 0; i <= a.length - b.length; i++) {... */\n      jump(tag_467)\n    tag_468:\n      pop\n        /* \"FoodTraceability.sol\":14461:14466  false */\n      0x00\n        /* \"FoodTraceability.sol\":14454:14466  return false */\n      swap3\n      pop\n      pop\n      pop\n        /* \"FoodTraceability.sol\":13852:14474  function _containsCertification(string memory certs, string memory key) internal pure returns (bool) {... */\n    tag_465:\n      swap3\n      swap2\n      pop\n      pop\n      jump\t// out\n        /* \"FoodTraceability.sol\":11394:11546  function _hasBadge(string memory lotNumber, string memory badgeName) internal view returns (bool) {... */\n    tag_268:\n        /* \"FoodTraceability.sol\":11486:11490  bool */\n      0x00\n        /* \"FoodTraceability.sol\":11510:11516  badges */\n      0x06\n        /* \"FoodTraceability.sol\":11517:11526  lotNumber */\n      dup4\n        /* \"FoodTraceability.sol\":11510:11527  badges[lotNumber] */\n      mload(0x40)\n      tag_486\n      swap2\n      swap1\n      tag_98\n      jump\t// in\n    tag_486:\n      swap1\n      dup2\n      mstore\n      0x20\n      add\n      mload(0x40)\n      dup1\n      swap2\n      sub\n      swap1\n      keccak256\n        /* \"FoodTraceability.sol\":11528:11537  badgeName */\n      dup3\n        /* \"FoodTraceability.sol\":11510:11538  badges[lotNumber][badgeName] */\n      mload(0x40)\n      tag_487\n      swap2\n      swap1\n      tag_98\n      jump\t// in\n    tag_487:\n      swap1\n      dup2\n      mstore\n      0x20\n      add\n      mload(0x40)\n      dup1\n      swap2\n      sub\n      swap1\n      keccak256\n      0x00\n      swap1\n      sload\n      swap1\n      0x0100\n      exp\n      swap1\n      div\n      0xff\n      and\n        /* \"FoodTraceability.sol\":11503:11538  return badges[lotNumber][badgeName] */\n      swap1\n      pop\n        /* \"FoodTraceability.sol\":11394:11546  function _hasBadge(string memory lotNumber, string memory badgeName) internal view returns (bool) {... */\n      swap3\n      swap2\n      pop\n      pop\n      jump\t// out\n        /* \"FoodTraceability.sol\":11142:11386  function _awardBadgeInternal(string memory lotNumber, string memory badgeName) internal {... */\n    tag_271:\n        /* \"FoodTraceability.sol\":11272:11276  true */\n      0x01\n        /* \"FoodTraceability.sol\":11241:11247  badges */\n      0x06\n        /* \"FoodTraceability.sol\":11248:11257  lotNumber */\n      dup4\n        /* \"FoodTraceability.sol\":11241:11258  badges[lotNumber] */\n      mload(0x40)\n      tag_489\n      swap2\n      swap1\n      tag_98\n      jump\t// in\n    tag_489:\n      swap1\n      dup2\n      mstore\n      0x20\n      add\n      mload(0x40)\n      dup1\n      swap2\n      sub\n      swap1\n      keccak256\n        /* \"FoodTraceability.sol\":11259:11268  badgeName */\n      dup3\n        /* \"FoodTraceability.sol\":11241:11269  badges[lotNumber][badgeName] */\n      mload(0x40)\n      tag_490\n      swap2\n      swap1\n      tag_98\n      jump\t// in\n    tag_490:\n      swap1\n      dup2\n      mstore\n      0x20\n      add\n      mload(0x40)\n      dup1\n      swap2\n      sub\n      swap1\n      keccak256\n      0x00\n        /* \"FoodTraceability.sol\":11241:11276  badges[lotNumber][badgeName] = true */\n      0x0100\n      exp\n      dup2\n      sload\n      dup2\n      0xff\n      mul\n      not\n      and\n      swap1\n      dup4\n      iszero\n      iszero\n      mul\n      or\n      swap1\n      sstore\n      pop\n        /* \"FoodTraceability.sol\":11287:11301  badgeListByLot */\n      0x07\n        /* \"FoodTraceability.sol\":11302:11311  lotNumber */\n      dup3\n        /* \"FoodTraceability.sol\":11287:11312  badgeListByLot[lotNumber] */\n      mload(0x40)\n      tag_491\n      swap2\n      swap1\n      tag_98\n      jump\t// in\n    tag_491:\n      swap1\n      dup2\n      mstore\n      0x20\n      add\n      mload(0x40)\n      dup1\n      swap2\n      sub\n      swap1\n      keccak256\n        /* \"FoodTraceability.sol\":11318:11327  badgeName */\n      dup2\n        /* \"FoodTraceability.sol\":11287:11328  badgeListByLot[lotNumber].push(badgeName) */\n      swap1\n      dup1\n      0x01\n      dup2\n      sload\n      add\n      dup1\n      dup3\n      sstore\n      dup1\n      swap2\n      pop\n      pop\n      0x01\n      swap1\n      sub\n      swap1\n      0x00\n      mstore\n      keccak256(0x00, 0x20)\n      add\n      0x00\n      swap1\n      swap2\n      swap1\n      swap2\n      swap1\n      swap2\n      pop\n      swap1\n      dup2\n      tag_493\n      swap2\n      swap1\n      tag_157\n      jump\t// in\n    tag_493:\n      pop\n        /* \"FoodTraceability.sol\":11357:11366  lotNumber */\n      dup2\n        /* \"FoodTraceability.sol\":11344:11378  BadgeAwarded(lotNumber, badgeName) */\n      mload(0x40)\n      tag_494\n      swap2\n      swap1\n      tag_98\n      jump\t// in\n    tag_494:\n      mload(0x40)\n      dup1\n      swap2\n      sub\n      swap1\n      keccak256\n      0x34fcd4787adb461453a1aabffc2349656feba59e5a3e83c4aad58836db82bec6\n        /* \"FoodTraceability.sol\":11368:11377  badgeName */\n      dup3\n        /* \"FoodTraceability.sol\":11344:11378  BadgeAwarded(lotNumber, badgeName) */\n      mload(0x40)\n      tag_495\n      swap2\n      swap1\n      tag_82\n      jump\t// in\n    tag_495:\n      mload(0x40)\n      dup1\n      swap2\n      sub\n      swap1\n      log2\n        /* \"FoodTraceability.sol\":11142:11386  function _awardBadgeInternal(string memory lotNumber, string memory badgeName) internal {... */\n      pop\n      pop\n      jump\t// out\n        /* \"FoodTraceability.sol\":14578:15016  function _toHexString(bytes32 data) internal pure returns (string memory) {... */\n    tag_392:\n        /* \"FoodTraceability.sol\":14637:14650  string memory */\n      0x60\n        /* \"FoodTraceability.sol\":14663:14681  bytes16 hexSymbols */\n      0x00\n        /* \"FoodTraceability.sol\":14663:14702  bytes16 hexSymbols = \"0123456789abcdef\" */\n      0x3031323334353637383961626364656600000000000000000000000000000000\n      swap1\n      pop\n        /* \"FoodTraceability.sol\":14713:14729  bytes memory str */\n      0x00\n        /* \"FoodTraceability.sol\":14742:14748  2 + 64 */\n      0x42\n        /* \"FoodTraceability.sol\":14732:14749  new bytes(2 + 64) */\n      0xffffffffffffffff\n      dup2\n      gt\n      iszero\n      tag_497\n      jumpi\n      tag_498\n      tag_319\n      jump\t// in\n    tag_498:\n    tag_497:\n      mload(0x40)\n      swap1\n      dup1\n      dup3\n      mstore\n      dup1\n      0x1f\n      add\n      not(0x1f)\n      and\n      0x20\n      add\n      dup3\n      add\n      0x40\n      mstore\n      dup1\n      iszero\n      tag_499\n      jumpi\n      dup2\n      0x20\n      add\n      0x01\n      dup3\n      mul\n      dup1\n      calldatasize\n      dup4\n      calldatacopy\n      dup1\n      dup3\n      add\n      swap2\n      pop\n      pop\n      swap1\n      pop\n    tag_499:\n      pop\n        /* \"FoodTraceability.sol\":14713:14749  bytes memory str = new bytes(2 + 64) */\n      swap1\n      pop\n        /* \"FoodTraceability.sol\":14760:14772  str[0] = '0' */\n      0x3000000000000000000000000000000000000000000000000000000000000000\n        /* \"FoodTraceability.sol\":14760:14763  str */\n      dup2\n        /* \"FoodTraceability.sol\":14764:14765  0 */\n      0x00\n        /* \"FoodTraceability.sol\":14760:14766  str[0] */\n      dup2\n      mload\n      dup2\n      lt\n      tag_500\n      jumpi\n      tag_501\n      tag_333\n      jump\t// in\n    tag_501:\n    tag_500:\n      0x20\n      add\n      add\n        /* \"FoodTraceability.sol\":14760:14772  str[0] = '0' */\n      swap1\n      not(0xffffffffffffffffffffffffffffffffffffffffffffffffffffffffffffff)\n      and\n      swap1\n      dup2\n      0x00\n      byte\n      swap1\n      mstore8\n      pop\n        /* \"FoodTraceability.sol\":14783:14795  str[1] = 'x' */\n      0x7800000000000000000000000000000000000000000000000000000000000000\n        /* \"FoodTraceability.sol\":14783:14786  str */\n      dup2\n        /* \"FoodTraceability.sol\":14787:14788  1 */\n      0x01\n        /* \"FoodTraceability.sol\":14783:14789  str[1] */\n      dup2\n      mload\n      dup2\n      lt\n      tag_502\n      jumpi\n      tag_503\n      tag_333\n      jump\t// in\n    tag_503:\n    tag_502:\n      0x20\n      add\n      add\n        /* \"FoodTraceability.sol\":14783:14795  str[1] = 'x' */\n      swap1\n      not(0xffffffffffffffffffffffffffffffffffffffffffffffffffffffffffffff)\n      and\n      swap1\n      dup2\n      0x00\n      byte\n      swap1\n      mstore8\n      pop\n        /* \"FoodTraceability.sol\":14811:14817  uint i */\n      0x00\n        /* \"FoodTraceability.sol\":14820:14821  0 */\n      0x00\n        /* \"FoodTraceability.sol\":14811:14821  uint i = 0 */\n      swap1\n      pop\n        /* \"FoodTraceability.sol\":14806:14980  for (uint i = 0; i < 32; i++) {... */\n    tag_504:\n        /* \"FoodTraceability.sol\":14827:14829  32 */\n      0x20\n        /* \"FoodTraceability.sol\":14823:14824  i */\n      dup2\n        /* \"FoodTraceability.sol\":14823:14829  i < 32 */\n      lt\n        /* \"FoodTraceability.sol\":14806:14980  for (uint i = 0; i < 32; i++) {... */\n      iszero\n      tag_505\n      jumpi\n        /* \"FoodTraceability.sol\":14868:14878  hexSymbols */\n      dup3\n        /* \"FoodTraceability.sol\":14897:14898  4 */\n      0x04\n        /* \"FoodTraceability.sol\":14885:14889  data */\n      dup7\n        /* \"FoodTraceability.sol\":14890:14891  i */\n      dup4\n        /* \"FoodTraceability.sol\":14885:14892  data[i] */\n      0x20\n      dup2\n      lt\n      tag_507\n      jumpi\n      tag_508\n      tag_333\n      jump\t// in\n    tag_508:\n    tag_507:\n      byte\n      0xf8\n      shl\n        /* \"FoodTraceability.sol\":14879:14893  uint8(data[i]) */\n      0xf8\n      shr\n        /* \"FoodTraceability.sol\":14879:14898  uint8(data[i]) >> 4 */\n      0xff\n      and\n      swap1\n      shr\n        /* \"FoodTraceability.sol\":14868:14899  hexSymbols[uint8(data[i]) >> 4] */\n      0xff\n      and\n      0x10\n      dup2\n      lt\n      tag_509\n      jumpi\n      tag_510\n      tag_333\n      jump\t// in\n    tag_510:\n    tag_509:\n      byte\n      0xf8\n      shl\n        /* \"FoodTraceability.sol\":14851:14854  str */\n      dup3\n        /* \"FoodTraceability.sol\":14863:14864  2 */\n      0x02\n        /* \"FoodTraceability.sol\":14859:14860  i */\n      dup4\n        /* \"FoodTraceability.sol\":14859:14864  i * 2 */\n      tag_511\n      swap2\n      swap1\n      tag_512\n      jump\t// in\n    tag_511:\n        /* \"FoodTraceability.sol\":14855:14856  2 */\n      0x02\n        /* \"FoodTraceability.sol\":14855:14864  2 + i * 2 */\n      tag_513\n      swap2\n      swap1\n      tag_478\n      jump\t// in\n    tag_513:\n        /* \"FoodTraceability.sol\":14851:14865  str[2 + i * 2] */\n      dup2\n      mload\n      dup2\n      lt\n      tag_514\n      jumpi\n      tag_515\n      tag_333\n      jump\t// in\n    tag_515:\n    tag_514:\n      0x20\n      add\n      add\n        /* \"FoodTraceability.sol\":14851:14899  str[2 + i * 2] = hexSymbols[uint8(data[i]) >> 4] */\n      swap1\n      not(0xffffffffffffffffffffffffffffffffffffffffffffffffffffffffffffff)\n      and\n      swap1\n      dup2\n      0x00\n      byte\n      swap1\n      mstore8\n      pop\n        /* \"FoodTraceability.sol\":14935:14945  hexSymbols */\n      dup3\n        /* \"FoodTraceability.sol\":14963:14967  0x0f */\n      0x0f\n        /* \"FoodTraceability.sol\":14952:14956  data */\n      dup7\n        /* \"FoodTraceability.sol\":14957:14958  i */\n      dup4\n        /* \"FoodTraceability.sol\":14952:14959  data[i] */\n      0x20\n      dup2\n      lt\n      tag_516\n      jumpi\n      tag_517\n      tag_333\n      jump\t// in\n    tag_517:\n    tag_516:\n      byte\n      0xf8\n      shl\n        /* \"FoodTraceability.sol\":14946:14960  uint8(data[i]) */\n      0xf8\n      shr\n        /* \"FoodTraceability.sol\":14946:14967  uint8(data[i]) & 0x0f */\n      and\n        /* \"FoodTraceability.sol\":14935:14968  hexSymbols[uint8(data[i]) & 0x0f] */\n      0xff\n      and\n      0x10\n      dup2\n      lt\n      tag_518\n      jumpi\n      tag_519\n      tag_333\n      jump\t// in\n    tag_519:\n    tag_518:\n      byte\n      0xf8\n      shl\n        /* \"FoodTraceability.sol\":14914:14917  str */\n      dup3\n        /* \"FoodTraceability.sol\":14930:14931  1 */\n      0x01\n        /* \"FoodTraceability.sol\":14926:14927  2 */\n      0x02\n        /* \"FoodTraceability.sol\":14922:14923  i */\n      dup5\n        /* \"FoodTraceability.sol\":14922:14927  i * 2 */\n      tag_520\n      swap2\n      swap1\n      tag_512\n      jump\t// in\n    tag_520:\n        /* \"FoodTraceability.sol\":14918:14919  2 */\n      0x02\n        /* \"FoodTraceability.sol\":14918:14927  2 + i * 2 */\n      tag_521\n      swap2\n      swap1\n      tag_478\n      jump\t// in\n    tag_521:\n        /* \"FoodTraceability.sol\":14918:14931  2 + i * 2 + 1 */\n      tag_522\n      swap2\n      swap1\n      tag_478\n      jump\t// in\n    tag_522:\n        /* \"FoodTraceability.sol\":14914:14932  str[2 + i * 2 + 1] */\n      dup2\n      mload\n      dup2\n      lt\n      tag_523\n      jumpi\n      tag_524\n      tag_333\n      jump\t// in\n    tag_524:\n    tag_523:\n      0x20\n      add\n      add\n        /* \"FoodTraceability.sol\":14914:14968  str[2 + i * 2 + 1] = hexSymbols[uint8(data[i]) & 0x0f] */\n      swap1\n      not(0xffffffffffffffffffffffffffffffffffffffffffffffffffffffffffffff)\n      and\n      swap1\n      dup2\n      0x00\n      byte\n      swap1\n      mstore8\n      pop\n        /* \"FoodTraceability.sol\":14831:14834  i++ */\n      dup1\n      dup1\n      0x01\n      add\n      swap2\n      pop\n      pop\n        /* \"FoodTraceability.sol\":14806:14980  for (uint i = 0; i < 32; i++) {... */\n      jump(tag_504)\n    tag_505:\n      pop\n        /* \"FoodTraceability.sol\":15004:15007  str */\n      dup1\n        /* \"FoodTraceability.sol\":14990:15008  return string(str) */\n      swap3\n      pop\n      pop\n      pop\n        /* \"FoodTraceability.sol\":14578:15016  function _toHexString(bytes32 data) internal pure returns (string memory) {... */\n      swap2\n      swap1\n      pop\n      jump\t// out\n        /* \"#utility.yul\":7:82   */\n    tag_525:\n        /* \"#utility.yul\":40:46   */\n      0x00\n        /* \"#utility.yul\":73:75   */\n      0x40\n        /* \"#utility.yul\":67:76   */\n      mload\n        /* \"#utility.yul\":57:76   */\n      swap1\n      pop\n        /* \"#utility.yul\":7:82   */\n      swap1\n      jump\t// out\n        /* \"#utility.yul\":88:205   */\n    tag_526:\n        /* \"#utility.yul\":197:198   */\n      0x00\n        /* \"#utility.yul\":194:195   */\n      0x00\n        /* \"#utility.yul\":187:199   */\n      revert\n        /* \"#utility.yul\":211:328   */\n    tag_527:\n        /* \"#utility.yul\":320:321   */\n      0x00\n        /* \"#utility.yul\":317:318   */\n      0x00\n        /* \"#utility.yul\":310:322   */\n      revert\n        /* \"#utility.yul\":334:451   */\n    tag_528:\n        /* \"#utility.yul\":443:444   */\n      0x00\n        /* \"#utility.yul\":440:441   */\n      0x00\n        /* \"#utility.yul\":433:445   */\n      revert\n        /* \"#utility.yul\":457:574   */\n    tag_529:\n        /* \"#utility.yul\":566:567   */\n      0x00\n        /* \"#utility.yul\":563:564   */\n      0x00\n        /* \"#utility.yul\":556:568   */\n      revert\n        /* \"#utility.yul\":580:682   */\n    tag_530:\n        /* \"#utility.yul\":621:627   */\n      0x00\n        /* \"#utility.yul\":672:674   */\n      0x1f\n        /* \"#utility.yul\":668:675   */\n      not\n        /* \"#utility.yul\":663:665   */\n      0x1f\n        /* \"#utility.yul\":656:661   */\n      dup4\n        /* \"#utility.yul\":652:666   */\n      add\n        /* \"#utility.yul\":648:676   */\n      and\n        /* \"#utility.yul\":638:676   */\n      swap1\n      pop\n        /* \"#utility.yul\":580:682   */\n      swap2\n      swap1\n      pop\n      jump\t// out\n        /* \"#utility.yul\":688:868   */\n    tag_319:\n        /* \"#utility.yul\":736:813   */\n      0x4e487b7100000000000000000000000000000000000000000000000000000000\n        /* \"#utility.yul\":733:734   */\n      0x00\n        /* \"#utility.yul\":726:814   */\n      mstore\n        /* \"#utility.yul\":833:837   */\n      0x41\n        /* \"#utility.yul\":830:831   */\n      0x04\n        /* \"#utility.yul\":823:838   */\n      mstore\n        /* \"#utility.yul\":857:861   */\n      0x24\n        /* \"#utility.yul\":854:855   */\n      0x00\n        /* \"#utility.yul\":847:862   */\n      revert\n        /* \"#utility.yul\":874:1155   */\n    tag_531:\n        /* \"#utility.yul\":957:984   */\n      tag_655\n        /* \"#utility.yul\":979:983   */\n      dup3\n        /* \"#utility.yul\":957:984   */\n      tag_530\n      jump\t// in\n    tag_655:\n        /* \"#utility.yul\":949:955   */\n      dup2\n        /* \"#utility.yul\":945:985   */\n      add\n        /* \"#utility.yul\":1087:1093   */\n      dup2\n        /* \"#utility.yul\":1075:1085   */\n      dup2\n        /* \"#utility.yul\":1072:1094   */\n      lt\n        /* \"#utility.yul\":1051:1069   */\n      0xffffffffffffffff\n        /* \"#utility.yul\":1039:1049   */\n      dup3\n        /* \"#utility.yul\":1036:1070   */\n      gt\n        /* \"#utility.yul\":1033:1095   */\n      or\n        /* \"#utility.yul\":1030:1118   */\n      iszero\n      tag_656\n      jumpi\n        /* \"#utility.yul\":1098:1116   */\n      tag_657\n      tag_319\n      jump\t// in\n    tag_657:\n        /* \"#utility.yul\":1030:1118   */\n    tag_656:\n        /* \"#utility.yul\":1138:1148   */\n      dup1\n        /* \"#utility.yul\":1134:1136   */\n      0x40\n        /* \"#utility.yul\":1127:1149   */\n      mstore\n        /* \"#utility.yul\":917:1155   */\n      pop\n        /* \"#utility.yul\":874:1155   */\n      pop\n      pop\n      jump\t// out\n        /* \"#utility.yul\":1161:1290   */\n    tag_532:\n        /* \"#utility.yul\":1195:1201   */\n      0x00\n        /* \"#utility.yul\":1222:1242   */\n      tag_659\n      tag_525\n      jump\t// in\n    tag_659:\n        /* \"#utility.yul\":1212:1242   */\n      swap1\n      pop\n        /* \"#utility.yul\":1251:1284   */\n      tag_660\n        /* \"#utility.yul\":1279:1283   */\n      dup3\n        /* \"#utility.yul\":1271:1277   */\n      dup3\n        /* \"#utility.yul\":1251:1284   */\n      tag_531\n      jump\t// in\n    tag_660:\n        /* \"#utility.yul\":1161:1290   */\n      swap2\n      swap1\n      pop\n      jump\t// out\n        /* \"#utility.yul\":1296:1604   */\n    tag_533:\n        /* \"#utility.yul\":1358:1362   */\n      0x00\n        /* \"#utility.yul\":1448:1466   */\n      0xffffffffffffffff\n        /* \"#utility.yul\":1440:1446   */\n      dup3\n        /* \"#utility.yul\":1437:1467   */\n      gt\n        /* \"#utility.yul\":1434:1490   */\n      iszero\n      tag_662\n      jumpi\n        /* \"#utility.yul\":1470:1488   */\n      tag_663\n      tag_319\n      jump\t// in\n    tag_663:\n        /* \"#utility.yul\":1434:1490   */\n    tag_662:\n        /* \"#utility.yul\":1508:1537   */\n      tag_664\n        /* \"#utility.yul\":1530:1536   */\n      dup3\n        /* \"#utility.yul\":1508:1537   */\n      tag_530\n      jump\t// in\n    tag_664:\n        /* \"#utility.yul\":1500:1537   */\n      swap1\n      pop\n        /* \"#utility.yul\":1592:1596   */\n      0x20\n        /* \"#utility.yul\":1586:1590   */\n      dup2\n        /* \"#utility.yul\":1582:1597   */\n      add\n        /* \"#utility.yul\":1574:1597   */\n      swap1\n      pop\n        /* \"#utility.yul\":1296:1604   */\n      swap2\n      swap1\n      pop\n      jump\t// out\n        /* \"#utility.yul\":1610:1758   */\n    tag_534:\n        /* \"#utility.yul\":1708:1714   */\n      dup3\n        /* \"#utility.yul\":1703:1706   */\n      dup2\n        /* \"#utility.yul\":1698:1701   */\n      dup4\n        /* \"#utility.yul\":1685:1715   */\n      calldatacopy\n        /* \"#utility.yul\":1749:1750   */\n      0x00\n        /* \"#utility.yul\":1740:1746   */\n      dup4\n        /* \"#utility.yul\":1735:1738   */\n      dup4\n        /* \"#utility.yul\":1731:1747   */\n      add\n        /* \"#utility.yul\":1724:1751   */\n      mstore\n        /* \"#utility.yul\":1610:1758   */\n      pop\n      pop\n      pop\n      jump\t// out\n        /* \"#utility.yul\":1764:2189   */\n    tag_535:\n        /* \"#utility.yul\":1842:1847   */\n      0x00\n        /* \"#utility.yul\":1867:1933   */\n      tag_667\n        /* \"#utility.yul\":1883:1932   */\n      tag_668\n        /* \"#utility.yul\":1925:1931   */\n      dup5\n        /* \"#utility.yul\":1883:1932   */\n      tag_533\n      jump\t// in\n    tag_668:\n        /* \"#utility.yul\":1867:1933   */\n      tag_532\n      jump\t// in\n    tag_667:\n        /* \"#utility.yul\":1858:1933   */\n      swap1\n      pop\n        /* \"#utility.yul\":1956:1962   */\n      dup3\n        /* \"#utility.yul\":1949:1954   */\n      dup2\n        /* \"#utility.yul\":1942:1963   */\n      mstore\n        /* \"#utility.yul\":1994:1998   */\n      0x20\n        /* \"#utility.yul\":1987:1992   */\n      dup2\n        /* \"#utility.yul\":1983:1999   */\n      add\n        /* \"#utility.yul\":2032:2035   */\n      dup5\n        /* \"#utility.yul\":2023:2029   */\n      dup5\n        /* \"#utility.yul\":2018:2021   */\n      dup5\n        /* \"#utility.yul\":2014:2030   */\n      add\n        /* \"#utility.yul\":2011:2036   */\n      gt\n        /* \"#utility.yul\":2008:2120   */\n      iszero\n      tag_669\n      jumpi\n        /* \"#utility.yul\":2039:2118   */\n      tag_670\n      tag_529\n      jump\t// in\n    tag_670:\n        /* \"#utility.yul\":2008:2120   */\n    tag_669:\n        /* \"#utility.yul\":2129:2183   */\n      tag_671\n        /* \"#utility.yul\":2176:2182   */\n      dup5\n        /* \"#utility.yul\":2171:2174   */\n      dup3\n        /* \"#utility.yul\":2166:2169   */\n      dup6\n        /* \"#utility.yul\":2129:2183   */\n      tag_534\n      jump\t// in\n    tag_671:\n        /* \"#utility.yul\":1848:2189   */\n      pop\n        /* \"#utility.yul\":1764:2189   */\n      swap4\n      swap3\n      pop\n      pop\n      pop\n      jump\t// out\n        /* \"#utility.yul\":2209:2549   */\n    tag_536:\n        /* \"#utility.yul\":2265:2270   */\n      0x00\n        /* \"#utility.yul\":2314:2317   */\n      dup3\n        /* \"#utility.yul\":2307:2311   */\n      0x1f\n        /* \"#utility.yul\":2299:2305   */\n      dup4\n        /* \"#utility.yul\":2295:2312   */\n      add\n        /* \"#utility.yul\":2291:2318   */\n      slt\n        /* \"#utility.yul\":2281:2403   */\n      tag_673\n      jumpi\n        /* \"#utility.yul\":2322:2401   */\n      tag_674\n      tag_528\n      jump\t// in\n    tag_674:\n        /* \"#utility.yul\":2281:2403   */\n    tag_673:\n        /* \"#utility.yul\":2439:2445   */\n      dup2\n        /* \"#utility.yul\":2426:2446   */\n      calldataload\n        /* \"#utility.yul\":2464:2543   */\n      tag_675\n        /* \"#utility.yul\":2539:2542   */\n      dup5\n        /* \"#utility.yul\":2531:2537   */\n      dup3\n        /* \"#utility.yul\":2524:2528   */\n      0x20\n        /* \"#utility.yul\":2516:2522   */\n      dup7\n        /* \"#utility.yul\":2512:2529   */\n      add\n        /* \"#utility.yul\":2464:2543   */\n      tag_535\n      jump\t// in\n    tag_675:\n        /* \"#utility.yul\":2455:2543   */\n      swap2\n      pop\n        /* \"#utility.yul\":2271:2549   */\n      pop\n        /* \"#utility.yul\":2209:2549   */\n      swap3\n      swap2\n      pop\n      pop\n      jump\t// out\n        /* \"#utility.yul\":2555:3064   */\n    tag_24:\n        /* \"#utility.yul\":2624:2630   */\n      0x00\n        /* \"#utility.yul\":2673:2675   */\n      0x20\n        /* \"#utility.yul\":2661:2670   */\n      dup3\n        /* \"#utility.yul\":2652:2659   */\n      dup5\n        /* \"#utility.yul\":2648:2671   */\n      sub\n        /* \"#utility.yul\":2644:2676   */\n      slt\n        /* \"#utility.yul\":2641:2760   */\n      iszero\n      tag_677\n      jumpi\n        /* \"#utility.yul\":2679:2758   */\n      tag_678\n      tag_526\n      jump\t// in\n    tag_678:\n        /* \"#utility.yul\":2641:2760   */\n    tag_677:\n        /* \"#utility.yul\":2827:2828   */\n      0x00\n        /* \"#utility.yul\":2816:2825   */\n      dup3\n        /* \"#utility.yul\":2812:2829   */\n      add\n        /* \"#utility.yul\":2799:2830   */\n      calldataload\n        /* \"#utility.yul\":2857:2875   */\n      0xffffffffffffffff\n        /* \"#utility.yul\":2849:2855   */\n      dup2\n        /* \"#utility.yul\":2846:2876   */\n      gt\n        /* \"#utility.yul\":2843:2960   */\n      iszero\n      tag_679\n      jumpi\n        /* \"#utility.yul\":2879:2958   */\n      tag_680\n      tag_527\n      jump\t// in\n    tag_680:\n        /* \"#utility.yul\":2843:2960   */\n    tag_679:\n        /* \"#utility.yul\":2984:3047   */\n      tag_681\n        /* \"#utility.yul\":3039:3046   */\n      dup5\n        /* \"#utility.yul\":3030:3036   */\n      dup3\n        /* \"#utility.yul\":3019:3028   */\n      dup6\n        /* \"#utility.yul\":3015:3037   */\n      add\n        /* \"#utility.yul\":2984:3047   */\n      tag_536\n      jump\t// in\n    tag_681:\n        /* \"#utility.yul\":2974:3047   */\n      swap2\n      pop\n        /* \"#utility.yul\":2770:3057   */\n      pop\n        /* \"#utility.yul\":2555:3064   */\n      swap3\n      swap2\n      pop\n      pop\n      jump\t// out\n        /* \"#utility.yul\":3070:3194   */\n    tag_537:\n        /* \"#utility.yul\":3147:3153   */\n      0x00\n        /* \"#utility.yul\":3181:3186   */\n      dup2\n        /* \"#utility.yul\":3175:3187   */\n      mload\n        /* \"#utility.yul\":3165:3187   */\n      swap1\n      pop\n        /* \"#utility.yul\":3070:3194   */\n      swap2\n      swap1\n      pop\n      jump\t// out\n        /* \"#utility.yul\":3200:3394   */\n    tag_538:\n        /* \"#utility.yul\":3309:3320   */\n      0x00\n        /* \"#utility.yul\":3343:3349   */\n      dup3\n        /* \"#utility.yul\":3338:3341   */\n      dup3\n        /* \"#utility.yul\":3331:3350   */\n      mstore\n        /* \"#utility.yul\":3383:3387   */\n      0x20\n        /* \"#utility.yul\":3378:3381   */\n      dup3\n        /* \"#utility.yul\":3374:3388   */\n      add\n        /* \"#utility.yul\":3359:3388   */\n      swap1\n      pop\n        /* \"#utility.yul\":3200:3394   */\n      swap3\n      swap2\n      pop\n      pop\n      jump\t// out\n        /* \"#utility.yul\":3400:3542   */\n    tag_539:\n        /* \"#utility.yul\":3477:3481   */\n      0x00\n        /* \"#utility.yul\":3500:3503   */\n      dup2\n        /* \"#utility.yul\":3492:3503   */\n      swap1\n      pop\n        /* \"#utility.yul\":3530:3534   */\n      0x20\n        /* \"#utility.yul\":3525:3528   */\n      dup3\n        /* \"#utility.yul\":3521:3535   */\n      add\n        /* \"#utility.yul\":3513:3535   */\n      swap1\n      pop\n        /* \"#utility.yul\":3400:3542   */\n      swap2\n      swap1\n      pop\n      jump\t// out\n        /* \"#utility.yul\":3548:3647   */\n    tag_540:\n        /* \"#utility.yul\":3600:3606   */\n      0x00\n        /* \"#utility.yul\":3634:3639   */\n      dup2\n        /* \"#utility.yul\":3628:3640   */\n      mload\n        /* \"#utility.yul\":3618:3640   */\n      swap1\n      pop\n        /* \"#utility.yul\":3548:3647   */\n      swap2\n      swap1\n      pop\n      jump\t// out\n        /* \"#utility.yul\":3653:3812   */\n    tag_541:\n        /* \"#utility.yul\":3727:3738   */\n      0x00\n        /* \"#utility.yul\":3761:3767   */\n      dup3\n        /* \"#utility.yul\":3756:3759   */\n      dup3\n        /* \"#utility.yul\":3749:3768   */\n      mstore\n        /* \"#utility.yul\":3801:3805   */\n      0x20\n        /* \"#utility.yul\":3796:3799   */\n      dup3\n        /* \"#utility.yul\":3792:3806   */\n      add\n        /* \"#utility.yul\":3777:3806   */\n      swap1\n      pop\n        /* \"#utility.yul\":3653:3812   */\n      swap3\n      swap2\n      pop\n      pop\n      jump\t// out\n        /* \"#utility.yul\":3818:3957   */\n    tag_542:\n        /* \"#utility.yul\":3907:3913   */\n      dup3\n        /* \"#utility.yul\":3902:3905   */\n      dup2\n        /* \"#utility.yul\":3897:3900   */\n      dup4\n        /* \"#utility.yul\":3891:3914   */\n      mcopy\n        /* \"#utility.yul\":3948:3949   */\n      0x00\n        /* \"#utility.yul\":3939:3945   */\n      dup4\n        /* \"#utility.yul\":3934:3937   */\n      dup4\n        /* \"#utility.yul\":3930:3946   */\n      add\n        /* \"#utility.yul\":3923:3950   */\n      mstore\n        /* \"#utility.yul\":3818:3957   */\n      pop\n      pop\n      pop\n      jump\t// out\n        /* \"#utility.yul\":3963:4320   */\n    tag_543:\n        /* \"#utility.yul\":4041:4044   */\n      0x00\n        /* \"#utility.yul\":4069:4108   */\n      tag_689\n        /* \"#utility.yul\":4102:4107   */\n      dup3\n        /* \"#utility.yul\":4069:4108   */\n      tag_540\n      jump\t// in\n    tag_689:\n        /* \"#utility.yul\":4124:4185   */\n      tag_690\n        /* \"#utility.yul\":4178:4184   */\n      dup2\n        /* \"#utility.yul\":4173:4176   */\n      dup6\n        /* \"#utility.yul\":4124:4185   */\n      tag_541\n      jump\t// in\n    tag_690:\n        /* \"#utility.yul\":4117:4185   */\n      swap4\n      pop\n        /* \"#utility.yul\":4194:4259   */\n      tag_691\n        /* \"#utility.yul\":4252:4258   */\n      dup2\n        /* \"#utility.yul\":4247:4250   */\n      dup6\n        /* \"#utility.yul\":4240:4244   */\n      0x20\n        /* \"#utility.yul\":4233:4238   */\n      dup7\n        /* \"#utility.yul\":4229:4245   */\n      add\n        /* \"#utility.yul\":4194:4259   */\n      tag_542\n      jump\t// in\n    tag_691:\n        /* \"#utility.yul\":4284:4313   */\n      tag_692\n        /* \"#utility.yul\":4306:4312   */\n      dup2\n        /* \"#utility.yul\":4284:4313   */\n      tag_530\n      jump\t// in\n    tag_692:\n        /* \"#utility.yul\":4279:4282   */\n      dup5\n        /* \"#utility.yul\":4275:4314   */\n      add\n        /* \"#utility.yul\":4268:4314   */\n      swap2\n      pop\n        /* \"#utility.yul\":4045:4320   */\n      pop\n        /* \"#utility.yul\":3963:4320   */\n      swap3\n      swap2\n      pop\n      pop\n      jump\t// out\n        /* \"#utility.yul\":4326:4522   */\n    tag_544:\n        /* \"#utility.yul\":4415:4425   */\n      0x00\n        /* \"#utility.yul\":4450:4516   */\n      tag_694\n        /* \"#utility.yul\":4512:4515   */\n      dup4\n        /* \"#utility.yul\":4504:4510   */\n      dup4\n        /* \"#utility.yul\":4450:4516   */\n      tag_543\n      jump\t// in\n    tag_694:\n        /* \"#utility.yul\":4436:4516   */\n      swap1\n      pop\n        /* \"#utility.yul\":4326:4522   */\n      swap3\n      swap2\n      pop\n      pop\n      jump\t// out\n        /* \"#utility.yul\":4528:4651   */\n    tag_545:\n        /* \"#utility.yul\":4608:4612   */\n      0x00\n        /* \"#utility.yul\":4640:4644   */\n      0x20\n        /* \"#utility.yul\":4635:4638   */\n      dup3\n        /* \"#utility.yul\":4631:4645   */\n      add\n        /* \"#utility.yul\":4623:4645   */\n      swap1\n      pop\n        /* \"#utility.yul\":4528:4651   */\n      swap2\n      swap1\n      pop\n      jump\t// out\n        /* \"#utility.yul\":4685:5676   */\n    tag_546:\n        /* \"#utility.yul\":4824:4827   */\n      0x00\n        /* \"#utility.yul\":4853:4917   */\n      tag_697\n        /* \"#utility.yul\":4911:4916   */\n      dup3\n        /* \"#utility.yul\":4853:4917   */\n      tag_537\n      jump\t// in\n    tag_697:\n        /* \"#utility.yul\":4933:5029   */\n      tag_698\n        /* \"#utility.yul\":5022:5028   */\n      dup2\n        /* \"#utility.yul\":5017:5020   */\n      dup6\n        /* \"#utility.yul\":4933:5029   */\n      tag_538\n      jump\t// in\n    tag_698:\n        /* \"#utility.yul\":4926:5029   */\n      swap4\n      pop\n        /* \"#utility.yul\":5055:5058   */\n      dup4\n        /* \"#utility.yul\":5100:5104   */\n      0x20\n        /* \"#utility.yul\":5092:5098   */\n      dup3\n        /* \"#utility.yul\":5088:5105   */\n      mul\n        /* \"#utility.yul\":5083:5086   */\n      dup6\n        /* \"#utility.yul\":5079:5106   */\n      add\n        /* \"#utility.yul\":5130:5196   */\n      tag_699\n        /* \"#utility.yul\":5190:5195   */\n      dup6\n        /* \"#utility.yul\":5130:5196   */\n      tag_539\n      jump\t// in\n    tag_699:\n        /* \"#utility.yul\":5219:5226   */\n      dup1\n        /* \"#utility.yul\":5250:5251   */\n      0x00\n        /* \"#utility.yul\":5235:5631   */\n    tag_700:\n        /* \"#utility.yul\":5260:5266   */\n      dup6\n        /* \"#utility.yul\":5257:5258   */\n      dup2\n        /* \"#utility.yul\":5254:5267   */\n      lt\n        /* \"#utility.yul\":5235:5631   */\n      iszero\n      tag_702\n      jumpi\n        /* \"#utility.yul\":5331:5340   */\n      dup5\n        /* \"#utility.yul\":5325:5329   */\n      dup5\n        /* \"#utility.yul\":5321:5341   */\n      sub\n        /* \"#utility.yul\":5316:5319   */\n      dup10\n        /* \"#utility.yul\":5309:5342   */\n      mstore\n        /* \"#utility.yul\":5382:5388   */\n      dup2\n        /* \"#utility.yul\":5376:5389   */\n      mload\n        /* \"#utility.yul\":5410:5494   */\n      tag_703\n        /* \"#utility.yul\":5489:5493   */\n      dup6\n        /* \"#utility.yul\":5474:5487   */\n      dup3\n        /* \"#utility.yul\":5410:5494   */\n      tag_544\n      jump\t// in\n    tag_703:\n        /* \"#utility.yul\":5402:5494   */\n      swap5\n      pop\n        /* \"#utility.yul\":5517:5587   */\n      tag_704\n        /* \"#utility.yul\":5580:5586   */\n      dup4\n        /* \"#utility.yul\":5517:5587   */\n      tag_545\n      jump\t// in\n    tag_704:\n        /* \"#utility.yul\":5507:5587   */\n      swap3\n      pop\n        /* \"#utility.yul\":5616:5620   */\n      0x20\n        /* \"#utility.yul\":5611:5614   */\n      dup11\n        /* \"#utility.yul\":5607:5621   */\n      add\n        /* \"#utility.yul\":5600:5621   */\n      swap10\n      pop\n        /* \"#utility.yul\":5295:5631   */\n      pop\n        /* \"#utility.yul\":5282:5283   */\n      0x01\n        /* \"#utility.yul\":5279:5280   */\n      dup2\n        /* \"#utility.yul\":5275:5284   */\n      add\n        /* \"#utility.yul\":5270:5284   */\n      swap1\n      pop\n        /* \"#utility.yul\":5235:5631   */\n      jump(tag_700)\n    tag_702:\n        /* \"#utility.yul\":5239:5253   */\n      pop\n        /* \"#utility.yul\":5647:5651   */\n      dup3\n        /* \"#utility.yul\":5640:5651   */\n      swap8\n      pop\n        /* \"#utility.yul\":5667:5670   */\n      dup8\n        /* \"#utility.yul\":5660:5670   */\n      swap6\n      pop\n        /* \"#utility.yul\":4829:5676   */\n      pop\n      pop\n      pop\n      pop\n      pop\n        /* \"#utility.yul\":4685:5676   */\n      swap3\n      swap2\n      pop\n      pop\n      jump\t// out\n        /* \"#utility.yul\":5682:6095   */\n    tag_27:\n        /* \"#utility.yul\":5845:5849   */\n      0x00\n        /* \"#utility.yul\":5883:5885   */\n      0x20\n        /* \"#utility.yul\":5872:5881   */\n      dup3\n        /* \"#utility.yul\":5868:5886   */\n      add\n        /* \"#utility.yul\":5860:5886   */\n      swap1\n      pop\n        /* \"#utility.yul\":5932:5941   */\n      dup2\n        /* \"#utility.yul\":5926:5930   */\n      dup2\n        /* \"#utility.yul\":5922:5942   */\n      sub\n        /* \"#utility.yul\":5918:5919   */\n      0x00\n        /* \"#utility.yul\":5907:5916   */\n      dup4\n        /* \"#utility.yul\":5903:5920   */\n      add\n        /* \"#utility.yul\":5896:5943   */\n      mstore\n        /* \"#utility.yul\":5960:6088   */\n      tag_706\n        /* \"#utility.yul\":6083:6087   */\n      dup2\n        /* \"#utility.yul\":6074:6080   */\n      dup5\n        /* \"#utility.yul\":5960:6088   */\n      tag_546\n      jump\t// in\n    tag_706:\n        /* \"#utility.yul\":5952:6088   */\n      swap1\n      pop\n        /* \"#utility.yul\":5682:6095   */\n      swap3\n      swap2\n      pop\n      pop\n      jump\t// out\n        /* \"#utility.yul\":6101:6270   */\n    tag_547:\n        /* \"#utility.yul\":6185:6196   */\n      0x00\n        /* \"#utility.yul\":6219:6225   */\n      dup3\n        /* \"#utility.yul\":6214:6217   */\n      dup3\n        /* \"#utility.yul\":6207:6226   */\n      mstore\n        /* \"#utility.yul\":6259:6263   */\n      0x20\n        /* \"#utility.yul\":6254:6257   */\n      dup3\n        /* \"#utility.yul\":6250:6264   */\n      add\n        /* \"#utility.yul\":6235:6264   */\n      swap1\n      pop\n        /* \"#utility.yul\":6101:6270   */\n      swap3\n      swap2\n      pop\n      pop\n      jump\t// out\n        /* \"#utility.yul\":6276:6653   */\n    tag_548:\n        /* \"#utility.yul\":6364:6367   */\n      0x00\n        /* \"#utility.yul\":6392:6431   */\n      tag_709\n        /* \"#utility.yul\":6425:6430   */\n      dup3\n        /* \"#utility.yul\":6392:6431   */\n      tag_540\n      jump\t// in\n    tag_709:\n        /* \"#utility.yul\":6447:6518   */\n      tag_710\n        /* \"#utility.yul\":6511:6517   */\n      dup2\n        /* \"#utility.yul\":6506:6509   */\n      dup6\n        /* \"#utility.yul\":6447:6518   */\n      tag_547\n      jump\t// in\n    tag_710:\n        /* \"#utility.yul\":6440:6518   */\n      swap4\n      pop\n        /* \"#utility.yul\":6527:6592   */\n      tag_711\n        /* \"#utility.yul\":6585:6591   */\n      dup2\n        /* \"#utility.yul\":6580:6583   */\n      dup6\n        /* \"#utility.yul\":6573:6577   */\n      0x20\n        /* \"#utility.yul\":6566:6571   */\n      dup7\n        /* \"#utility.yul\":6562:6578   */\n      add\n        /* \"#utility.yul\":6527:6592   */\n      tag_542\n      jump\t// in\n    tag_711:\n        /* \"#utility.yul\":6617:6646   */\n      tag_712\n        /* \"#utility.yul\":6639:6645   */\n      dup2\n        /* \"#utility.yul\":6617:6646   */\n      tag_530\n      jump\t// in\n    tag_712:\n        /* \"#utility.yul\":6612:6615   */\n      dup5\n        /* \"#utility.yul\":6608:6647   */\n      add\n        /* \"#utility.yul\":6601:6647   */\n      swap2\n      pop\n        /* \"#utility.yul\":6368:6653   */\n      pop\n        /* \"#utility.yul\":6276:6653   */\n      swap3\n      swap2\n      pop\n      pop\n      jump\t// out\n        /* \"#utility.yul\":6659:6839   */\n    tag_148:\n        /* \"#utility.yul\":6707:6784   */\n      0x4e487b7100000000000000000000000000000000000000000000000000000000\n        /* \"#utility.yul\":6704:6705   */\n      0x00\n        /* \"#utility.yul\":6697:6785   */\n      mstore\n        /* \"#utility.yul\":6804:6808   */\n      0x21\n        /* \"#utility.yul\":6801:6802   */\n      0x04\n        /* \"#utility.yul\":6794:6809   */\n      mstore\n        /* \"#utility.yul\":6828:6832   */\n      0x24\n        /* \"#utility.yul\":6825:6826   */\n      0x00\n        /* \"#utility.yul\":6818:6833   */\n      revert\n        /* \"#utility.yul\":6845:6957   */\n    tag_549:\n        /* \"#utility.yul\":6925:6926   */\n      0x06\n        /* \"#utility.yul\":6918:6923   */\n      dup2\n        /* \"#utility.yul\":6915:6927   */\n      lt\n        /* \"#utility.yul\":6905:6951   */\n      tag_715\n      jumpi\n        /* \"#utility.yul\":6931:6949   */\n      tag_716\n      tag_148\n      jump\t// in\n    tag_716:\n        /* \"#utility.yul\":6905:6951   */\n    tag_715:\n        /* \"#utility.yul\":6845:6957   */\n      pop\n      jump\t// out\n        /* \"#utility.yul\":6963:7088   */\n    tag_550:\n        /* \"#utility.yul\":7007:7014   */\n      0x00\n        /* \"#utility.yul\":7036:7041   */\n      dup2\n        /* \"#utility.yul\":7025:7041   */\n      swap1\n      pop\n        /* \"#utility.yul\":7042:7082   */\n      tag_718\n        /* \"#utility.yul\":7076:7081   */\n      dup3\n        /* \"#utility.yul\":7042:7082   */\n      tag_549\n      jump\t// in\n    tag_718:\n        /* \"#utility.yul\":6963:7088   */\n      swap2\n      swap1\n      pop\n      jump\t// out\n        /* \"#utility.yul\":7094:7219   */\n    tag_551:\n        /* \"#utility.yul\":7149:7158   */\n      0x00\n        /* \"#utility.yul\":7182:7213   */\n      tag_720\n        /* \"#utility.yul\":7207:7212   */\n      dup3\n        /* \"#utility.yul\":7182:7213   */\n      tag_550\n      jump\t// in\n    tag_720:\n        /* \"#utility.yul\":7169:7213   */\n      swap1\n      pop\n        /* \"#utility.yul\":7094:7219   */\n      swap2\n      swap1\n      pop\n      jump\t// out\n        /* \"#utility.yul\":7225:7366   */\n    tag_552:\n        /* \"#utility.yul\":7317:7359   */\n      tag_722\n        /* \"#utility.yul\":7353:7358   */\n      dup2\n        /* \"#utility.yul\":7317:7359   */\n      tag_551\n      jump\t// in\n    tag_722:\n        /* \"#utility.yul\":7312:7315   */\n      dup3\n        /* \"#utility.yul\":7305:7360   */\n      mstore\n        /* \"#utility.yul\":7225:7366   */\n      pop\n      pop\n      jump\t// out\n        /* \"#utility.yul\":7372:7498   */\n    tag_553:\n        /* \"#utility.yul\":7409:7416   */\n      0x00\n        /* \"#utility.yul\":7449:7491   */\n      0xffffffffffffffffffffffffffffffffffffffff\n        /* \"#utility.yul\":7442:7447   */\n      dup3\n        /* \"#utility.yul\":7438:7492   */\n      and\n        /* \"#utility.yul\":7427:7492   */\n      swap1\n      pop\n        /* \"#utility.yul\":7372:7498   */\n      swap2\n      swap1\n      pop\n      jump\t// out\n        /* \"#utility.yul\":7504:7600   */\n    tag_554:\n        /* \"#utility.yul\":7541:7548   */\n      0x00\n        /* \"#utility.yul\":7570:7594   */\n      tag_725\n        /* \"#utility.yul\":7588:7593   */\n      dup3\n        /* \"#utility.yul\":7570:7594   */\n      tag_553\n      jump\t// in\n    tag_725:\n        /* \"#utility.yul\":7559:7594   */\n      swap1\n      pop\n        /* \"#utility.yul\":7504:7600   */\n      swap2\n      swap1\n      pop\n      jump\t// out\n        /* \"#utility.yul\":7606:7724   */\n    tag_555:\n        /* \"#utility.yul\":7693:7717   */\n      tag_727\n        /* \"#utility.yul\":7711:7716   */\n      dup2\n        /* \"#utility.yul\":7693:7717   */\n      tag_554\n      jump\t// in\n    tag_727:\n        /* \"#utility.yul\":7688:7691   */\n      dup3\n        /* \"#utility.yul\":7681:7718   */\n      mstore\n        /* \"#utility.yul\":7606:7724   */\n      pop\n      pop\n      jump\t// out\n        /* \"#utility.yul\":7730:8879   */\n    tag_32:\n        /* \"#utility.yul\":8048:8052   */\n      0x00\n        /* \"#utility.yul\":8086:8089   */\n      0xc0\n        /* \"#utility.yul\":8075:8084   */\n      dup3\n        /* \"#utility.yul\":8071:8090   */\n      add\n        /* \"#utility.yul\":8063:8090   */\n      swap1\n      pop\n        /* \"#utility.yul\":8136:8145   */\n      dup2\n        /* \"#utility.yul\":8130:8134   */\n      dup2\n        /* \"#utility.yul\":8126:8146   */\n      sub\n        /* \"#utility.yul\":8122:8123   */\n      0x00\n        /* \"#utility.yul\":8111:8120   */\n      dup4\n        /* \"#utility.yul\":8107:8124   */\n      add\n        /* \"#utility.yul\":8100:8147   */\n      mstore\n        /* \"#utility.yul\":8164:8242   */\n      tag_729\n        /* \"#utility.yul\":8237:8241   */\n      dup2\n        /* \"#utility.yul\":8228:8234   */\n      dup10\n        /* \"#utility.yul\":8164:8242   */\n      tag_548\n      jump\t// in\n    tag_729:\n        /* \"#utility.yul\":8156:8242   */\n      swap1\n      pop\n        /* \"#utility.yul\":8289:8298   */\n      dup2\n        /* \"#utility.yul\":8283:8287   */\n      dup2\n        /* \"#utility.yul\":8279:8299   */\n      sub\n        /* \"#utility.yul\":8274:8276   */\n      0x20\n        /* \"#utility.yul\":8263:8272   */\n      dup4\n        /* \"#utility.yul\":8259:8277   */\n      add\n        /* \"#utility.yul\":8252:8300   */\n      mstore\n        /* \"#utility.yul\":8317:8395   */\n      tag_730\n        /* \"#utility.yul\":8390:8394   */\n      dup2\n        /* \"#utility.yul\":8381:8387   */\n      dup9\n        /* \"#utility.yul\":8317:8395   */\n      tag_548\n      jump\t// in\n    tag_730:\n        /* \"#utility.yul\":8309:8395   */\n      swap1\n      pop\n        /* \"#utility.yul\":8442:8451   */\n      dup2\n        /* \"#utility.yul\":8436:8440   */\n      dup2\n        /* \"#utility.yul\":8432:8452   */\n      sub\n        /* \"#utility.yul\":8427:8429   */\n      0x40\n        /* \"#utility.yul\":8416:8425   */\n      dup4\n        /* \"#utility.yul\":8412:8430   */\n      add\n        /* \"#utility.yul\":8405:8453   */\n      mstore\n        /* \"#utility.yul\":8470:8548   */\n      tag_731\n        /* \"#utility.yul\":8543:8547   */\n      dup2\n        /* \"#utility.yul\":8534:8540   */\n      dup8\n        /* \"#utility.yul\":8470:8548   */\n      tag_548\n      jump\t// in\n    tag_731:\n        /* \"#utility.yul\":8462:8548   */\n      swap1\n      pop\n        /* \"#utility.yul\":8558:8635   */\n      tag_732\n        /* \"#utility.yul\":8631:8633   */\n      0x60\n        /* \"#utility.yul\":8620:8629   */\n      dup4\n        /* \"#utility.yul\":8616:8634   */\n      add\n        /* \"#utility.yul\":8607:8613   */\n      dup7\n        /* \"#utility.yul\":8558:8635   */\n      tag_552\n      jump\t// in\n    tag_732:\n        /* \"#utility.yul\":8645:8718   */\n      tag_733\n        /* \"#utility.yul\":8713:8716   */\n      0x80\n        /* \"#utility.yul\":8702:8711   */\n      dup4\n        /* \"#utility.yul\":8698:8717   */\n      add\n        /* \"#utility.yul\":8689:8695   */\n      dup6\n        /* \"#utility.yul\":8645:8718   */\n      tag_555\n      jump\t// in\n    tag_733:\n        /* \"#utility.yul\":8766:8775   */\n      dup2\n        /* \"#utility.yul\":8760:8764   */\n      dup2\n        /* \"#utility.yul\":8756:8776   */\n      sub\n        /* \"#utility.yul\":8750:8753   */\n      0xa0\n        /* \"#utility.yul\":8739:8748   */\n      dup4\n        /* \"#utility.yul\":8735:8754   */\n      add\n        /* \"#utility.yul\":8728:8777   */\n      mstore\n        /* \"#utility.yul\":8794:8872   */\n      tag_734\n        /* \"#utility.yul\":8867:8871   */\n      dup2\n        /* \"#utility.yul\":8858:8864   */\n      dup5\n        /* \"#utility.yul\":8794:8872   */\n      tag_548\n      jump\t// in\n    tag_734:\n        /* \"#utility.yul\":8786:8872   */\n      swap1\n      pop\n        /* \"#utility.yul\":7730:8879   */\n      swap8\n      swap7\n      pop\n      pop\n      pop\n      pop\n      pop\n      pop\n      pop\n      jump\t// out\n        /* \"#utility.yul\":8885:8961   */\n    tag_556:\n        /* \"#utility.yul\":8921:8928   */\n      0x00\n        /* \"#utility.yul\":8950:8955   */\n      dup2\n        /* \"#utility.yul\":8939:8955   */\n      swap1\n      pop\n        /* \"#utility.yul\":8885:8961   */\n      swap2\n      swap1\n      pop\n      jump\t// out\n        /* \"#utility.yul\":8967:9087   */\n    tag_557:\n        /* \"#utility.yul\":9039:9062   */\n      tag_737\n        /* \"#utility.yul\":9056:9061   */\n      dup2\n        /* \"#utility.yul\":9039:9062   */\n      tag_556\n      jump\t// in\n    tag_737:\n        /* \"#utility.yul\":9032:9037   */\n      dup2\n        /* \"#utility.yul\":9029:9063   */\n      eq\n        /* \"#utility.yul\":9019:9081   */\n      tag_738\n      jumpi\n        /* \"#utility.yul\":9077:9078   */\n      0x00\n        /* \"#utility.yul\":9074:9075   */\n      0x00\n        /* \"#utility.yul\":9067:9079   */\n      revert\n        /* \"#utility.yul\":9019:9081   */\n    tag_738:\n        /* \"#utility.yul\":8967:9087   */\n      pop\n      jump\t// out\n        /* \"#utility.yul\":9093:9230   */\n    tag_558:\n        /* \"#utility.yul\":9138:9143   */\n      0x00\n        /* \"#utility.yul\":9176:9182   */\n      dup2\n        /* \"#utility.yul\":9163:9183   */\n      calldataload\n        /* \"#utility.yul\":9154:9183   */\n      swap1\n      pop\n        /* \"#utility.yul\":9192:9224   */\n      tag_740\n        /* \"#utility.yul\":9218:9223   */\n      dup2\n        /* \"#utility.yul\":9192:9224   */\n      tag_557\n      jump\t// in\n    tag_740:\n        /* \"#utility.yul\":9093:9230   */\n      swap3\n      swap2\n      pop\n      pop\n      jump\t// out\n        /* \"#utility.yul\":9236:10213   */\n    tag_35:\n        /* \"#utility.yul\":9332:9338   */\n      0x00\n        /* \"#utility.yul\":9340:9346   */\n      0x00\n        /* \"#utility.yul\":9348:9354   */\n      0x00\n        /* \"#utility.yul\":9397:9399   */\n      0x60\n        /* \"#utility.yul\":9385:9394   */\n      dup5\n        /* \"#utility.yul\":9376:9383   */\n      dup7\n        /* \"#utility.yul\":9372:9395   */\n      sub\n        /* \"#utility.yul\":9368:9400   */\n      slt\n        /* \"#utility.yul\":9365:9484   */\n      iszero\n      tag_742\n      jumpi\n        /* \"#utility.yul\":9403:9482   */\n      tag_743\n      tag_526\n      jump\t// in\n    tag_743:\n        /* \"#utility.yul\":9365:9484   */\n    tag_742:\n        /* \"#utility.yul\":9551:9552   */\n      0x00\n        /* \"#utility.yul\":9540:9549   */\n      dup5\n        /* \"#utility.yul\":9536:9553   */\n      add\n        /* \"#utility.yul\":9523:9554   */\n      calldataload\n        /* \"#utility.yul\":9581:9599   */\n      0xffffffffffffffff\n        /* \"#utility.yul\":9573:9579   */\n      dup2\n        /* \"#utility.yul\":9570:9600   */\n      gt\n        /* \"#utility.yul\":9567:9684   */\n      iszero\n      tag_744\n      jumpi\n        /* \"#utility.yul\":9603:9682   */\n      tag_745\n      tag_527\n      jump\t// in\n    tag_745:\n        /* \"#utility.yul\":9567:9684   */\n    tag_744:\n        /* \"#utility.yul\":9708:9771   */\n      tag_746\n        /* \"#utility.yul\":9763:9770   */\n      dup7\n        /* \"#utility.yul\":9754:9760   */\n      dup3\n        /* \"#utility.yul\":9743:9752   */\n      dup8\n        /* \"#utility.yul\":9739:9761   */\n      add\n        /* \"#utility.yul\":9708:9771   */\n      tag_536\n      jump\t// in\n    tag_746:\n        /* \"#utility.yul\":9698:9771   */\n      swap4\n      pop\n        /* \"#utility.yul\":9494:9781   */\n      pop\n        /* \"#utility.yul\":9820:9822   */\n      0x20\n        /* \"#utility.yul\":9846:9898   */\n      tag_747\n        /* \"#utility.yul\":9890:9897   */\n      dup7\n        /* \"#utility.yul\":9881:9887   */\n      dup3\n        /* \"#utility.yul\":9870:9879   */\n      dup8\n        /* \"#utility.yul\":9866:9888   */\n      add\n        /* \"#utility.yul\":9846:9898   */\n      tag_558\n      jump\t// in\n    tag_747:\n        /* \"#utility.yul\":9836:9898   */\n      swap3\n      pop\n        /* \"#utility.yul\":9791:9908   */\n      pop\n        /* \"#utility.yul\":9975:9977   */\n      0x40\n        /* \"#utility.yul\":9964:9973   */\n      dup5\n        /* \"#utility.yul\":9960:9978   */\n      add\n        /* \"#utility.yul\":9947:9979   */\n      calldataload\n        /* \"#utility.yul\":10006:10024   */\n      0xffffffffffffffff\n        /* \"#utility.yul\":9998:10004   */\n      dup2\n        /* \"#utility.yul\":9995:10025   */\n      gt\n        /* \"#utility.yul\":9992:10109   */\n      iszero\n      tag_748\n      jumpi\n        /* \"#utility.yul\":10028:10107   */\n      tag_749\n      tag_527\n      jump\t// in\n    tag_749:\n        /* \"#utility.yul\":9992:10109   */\n    tag_748:\n        /* \"#utility.yul\":10133:10196   */\n      tag_750\n        /* \"#utility.yul\":10188:10195   */\n      dup7\n        /* \"#utility.yul\":10179:10185   */\n      dup3\n        /* \"#utility.yul\":10168:10177   */\n      dup8\n        /* \"#utility.yul\":10164:10186   */\n      add\n        /* \"#utility.yul\":10133:10196   */\n      tag_536\n      jump\t// in\n    tag_750:\n        /* \"#utility.yul\":10123:10196   */\n      swap2\n      pop\n        /* \"#utility.yul\":9918:10206   */\n      pop\n        /* \"#utility.yul\":9236:10213   */\n      swap3\n      pop\n      swap3\n      pop\n      swap3\n      jump\t// out\n        /* \"#utility.yul\":10219:11053   */\n    tag_39:\n        /* \"#utility.yul\":10307:10313   */\n      0x00\n        /* \"#utility.yul\":10315:10321   */\n      0x00\n        /* \"#utility.yul\":10364:10366   */\n      0x40\n        /* \"#utility.yul\":10352:10361   */\n      dup4\n        /* \"#utility.yul\":10343:10350   */\n      dup6\n        /* \"#utility.yul\":10339:10362   */\n      sub\n        /* \"#utility.yul\":10335:10367   */\n      slt\n        /* \"#utility.yul\":10332:10451   */\n      iszero\n      tag_752\n      jumpi\n        /* \"#utility.yul\":10370:10449   */\n      tag_753\n      tag_526\n      jump\t// in\n    tag_753:\n        /* \"#utility.yul\":10332:10451   */\n    tag_752:\n        /* \"#utility.yul\":10518:10519   */\n      0x00\n        /* \"#utility.yul\":10507:10516   */\n      dup4\n        /* \"#utility.yul\":10503:10520   */\n      add\n        /* \"#utility.yul\":10490:10521   */\n      calldataload\n        /* \"#utility.yul\":10548:10566   */\n      0xffffffffffffffff\n        /* \"#utility.yul\":10540:10546   */\n      dup2\n        /* \"#utility.yul\":10537:10567   */\n      gt\n        /* \"#utility.yul\":10534:10651   */\n      iszero\n      tag_754\n      jumpi\n        /* \"#utility.yul\":10570:10649   */\n      tag_755\n      tag_527\n      jump\t// in\n    tag_755:\n        /* \"#utility.yul\":10534:10651   */\n    tag_754:\n        /* \"#utility.yul\":10675:10738   */\n      tag_756\n        /* \"#utility.yul\":10730:10737   */\n      dup6\n        /* \"#utility.yul\":10721:10727   */\n      dup3\n        /* \"#utility.yul\":10710:10719   */\n      dup7\n        /* \"#utility.yul\":10706:10728   */\n      add\n        /* \"#utility.yul\":10675:10738   */\n      tag_536\n      jump\t// in\n    tag_756:\n        /* \"#utility.yul\":10665:10738   */\n      swap3\n      pop\n        /* \"#utility.yul\":10461:10748   */\n      pop\n        /* \"#utility.yul\":10815:10817   */\n      0x20\n        /* \"#utility.yul\":10804:10813   */\n      dup4\n        /* \"#utility.yul\":10800:10818   */\n      add\n        /* \"#utility.yul\":10787:10819   */\n      calldataload\n        /* \"#utility.yul\":10846:10864   */\n      0xffffffffffffffff\n        /* \"#utility.yul\":10838:10844   */\n      dup2\n        /* \"#utility.yul\":10835:10865   */\n      gt\n        /* \"#utility.yul\":10832:10949   */\n      iszero\n      tag_757\n      jumpi\n        /* \"#utility.yul\":10868:10947   */\n      tag_758\n      tag_527\n      jump\t// in\n    tag_758:\n        /* \"#utility.yul\":10832:10949   */\n    tag_757:\n        /* \"#utility.yul\":10973:11036   */\n      tag_759\n        /* \"#utility.yul\":11028:11035   */\n      dup6\n        /* \"#utility.yul\":11019:11025   */\n      dup3\n        /* \"#utility.yul\":11008:11017   */\n      dup7\n        /* \"#utility.yul\":11004:11026   */\n      add\n        /* \"#utility.yul\":10973:11036   */\n      tag_536\n      jump\t// in\n    tag_759:\n        /* \"#utility.yul\":10963:11036   */\n      swap2\n      pop\n        /* \"#utility.yul\":10758:11046   */\n      pop\n        /* \"#utility.yul\":10219:11053   */\n      swap3\n      pop\n      swap3\n      swap1\n      pop\n      jump\t// out\n        /* \"#utility.yul\":11059:11149   */\n    tag_559:\n        /* \"#utility.yul\":11093:11100   */\n      0x00\n        /* \"#utility.yul\":11136:11141   */\n      dup2\n        /* \"#utility.yul\":11129:11142   */\n      iszero\n        /* \"#utility.yul\":11122:11143   */\n      iszero\n        /* \"#utility.yul\":11111:11143   */\n      swap1\n      pop\n        /* \"#utility.yul\":11059:11149   */\n      swap2\n      swap1\n      pop\n      jump\t// out\n        /* \"#utility.yul\":11155:11264   */\n    tag_560:\n        /* \"#utility.yul\":11236:11257   */\n      tag_762\n        /* \"#utility.yul\":11251:11256   */\n      dup2\n        /* \"#utility.yul\":11236:11257   */\n      tag_559\n      jump\t// in\n    tag_762:\n        /* \"#utility.yul\":11231:11234   */\n      dup3\n        /* \"#utility.yul\":11224:11258   */\n      mstore\n        /* \"#utility.yul\":11155:11264   */\n      pop\n      pop\n      jump\t// out\n        /* \"#utility.yul\":11270:11480   */\n    tag_42:\n        /* \"#utility.yul\":11357:11361   */\n      0x00\n        /* \"#utility.yul\":11395:11397   */\n      0x20\n        /* \"#utility.yul\":11384:11393   */\n      dup3\n        /* \"#utility.yul\":11380:11398   */\n      add\n        /* \"#utility.yul\":11372:11398   */\n      swap1\n      pop\n        /* \"#utility.yul\":11408:11473   */\n      tag_764\n        /* \"#utility.yul\":11470:11471   */\n      0x00\n        /* \"#utility.yul\":11459:11468   */\n      dup4\n        /* \"#utility.yul\":11455:11472   */\n      add\n        /* \"#utility.yul\":11446:11452   */\n      dup5\n        /* \"#utility.yul\":11408:11473   */\n      tag_560\n      jump\t// in\n    tag_764:\n        /* \"#utility.yul\":11270:11480   */\n      swap3\n      swap2\n      pop\n      pop\n      jump\t// out\n        /* \"#utility.yul\":11486:11592   */\n    tag_561:\n        /* \"#utility.yul\":11566:11567   */\n      0x06\n        /* \"#utility.yul\":11559:11564   */\n      dup2\n        /* \"#utility.yul\":11556:11568   */\n      lt\n        /* \"#utility.yul\":11546:11586   */\n      tag_766\n      jumpi\n        /* \"#utility.yul\":11582:11583   */\n      0x00\n        /* \"#utility.yul\":11579:11580   */\n      0x00\n        /* \"#utility.yul\":11572:11584   */\n      revert\n        /* \"#utility.yul\":11546:11586   */\n    tag_766:\n        /* \"#utility.yul\":11486:11592   */\n      pop\n      jump\t// out\n        /* \"#utility.yul\":11598:11751   */\n    tag_562:\n        /* \"#utility.yul\":11651:11656   */\n      0x00\n        /* \"#utility.yul\":11689:11695   */\n      dup2\n        /* \"#utility.yul\":11676:11696   */\n      calldataload\n        /* \"#utility.yul\":11667:11696   */\n      swap1\n      pop\n        /* \"#utility.yul\":11705:11745   */\n      tag_768\n        /* \"#utility.yul\":11739:11744   */\n      dup2\n        /* \"#utility.yul\":11705:11745   */\n      tag_561\n      jump\t// in\n    tag_768:\n        /* \"#utility.yul\":11598:11751   */\n      swap3\n      swap2\n      pop\n      pop\n      jump\t// out\n        /* \"#utility.yul\":11757:12425   */\n    tag_45:\n        /* \"#utility.yul\":11842:11848   */\n      0x00\n        /* \"#utility.yul\":11850:11856   */\n      0x00\n        /* \"#utility.yul\":11899:11901   */\n      0x40\n        /* \"#utility.yul\":11887:11896   */\n      dup4\n        /* \"#utility.yul\":11878:11885   */\n      dup6\n        /* \"#utility.yul\":11874:11897   */\n      sub\n        /* \"#utility.yul\":11870:11902   */\n      slt\n        /* \"#utility.yul\":11867:11986   */\n      iszero\n      tag_770\n      jumpi\n        /* \"#utility.yul\":11905:11984   */\n      tag_771\n      tag_526\n      jump\t// in\n    tag_771:\n        /* \"#utility.yul\":11867:11986   */\n    tag_770:\n        /* \"#utility.yul\":12053:12054   */\n      0x00\n        /* \"#utility.yul\":12042:12051   */\n      dup4\n        /* \"#utility.yul\":12038:12055   */\n      add\n        /* \"#utility.yul\":12025:12056   */\n      calldataload\n        /* \"#utility.yul\":12083:12101   */\n      0xffffffffffffffff\n        /* \"#utility.yul\":12075:12081   */\n      dup2\n        /* \"#utility.yul\":12072:12102   */\n      gt\n        /* \"#utility.yul\":12069:12186   */\n      iszero\n      tag_772\n      jumpi\n        /* \"#utility.yul\":12105:12184   */\n      tag_773\n      tag_527\n      jump\t// in\n    tag_773:\n        /* \"#utility.yul\":12069:12186   */\n    tag_772:\n        /* \"#utility.yul\":12210:12273   */\n      tag_774\n        /* \"#utility.yul\":12265:12272   */\n      dup6\n        /* \"#utility.yul\":12256:12262   */\n      dup3\n        /* \"#utility.yul\":12245:12254   */\n      dup7\n        /* \"#utility.yul\":12241:12263   */\n      add\n        /* \"#utility.yul\":12210:12273   */\n      tag_536\n      jump\t// in\n    tag_774:\n        /* \"#utility.yul\":12200:12273   */\n      swap3\n      pop\n        /* \"#utility.yul\":11996:12283   */\n      pop\n        /* \"#utility.yul\":12322:12324   */\n      0x20\n        /* \"#utility.yul\":12348:12408   */\n      tag_775\n        /* \"#utility.yul\":12400:12407   */\n      dup6\n        /* \"#utility.yul\":12391:12397   */\n      dup3\n        /* \"#utility.yul\":12380:12389   */\n      dup7\n        /* \"#utility.yul\":12376:12398   */\n      add\n        /* \"#utility.yul\":12348:12408   */\n      tag_562\n      jump\t// in\n    tag_775:\n        /* \"#utility.yul\":12338:12408   */\n      swap2\n      pop\n        /* \"#utility.yul\":12293:12418   */\n      pop\n        /* \"#utility.yul\":11757:12425   */\n      swap3\n      pop\n      swap3\n      swap1\n      pop\n      jump\t// out\n        /* \"#utility.yul\":12431:12553   */\n    tag_563:\n        /* \"#utility.yul\":12504:12528   */\n      tag_777\n        /* \"#utility.yul\":12522:12527   */\n      dup2\n        /* \"#utility.yul\":12504:12528   */\n      tag_554\n      jump\t// in\n    tag_777:\n        /* \"#utility.yul\":12497:12502   */\n      dup2\n        /* \"#utility.yul\":12494:12529   */\n      eq\n        /* \"#utility.yul\":12484:12547   */\n      tag_778\n      jumpi\n        /* \"#utility.yul\":12543:12544   */\n      0x00\n        /* \"#utility.yul\":12540:12541   */\n      0x00\n        /* \"#utility.yul\":12533:12545   */\n      revert\n        /* \"#utility.yul\":12484:12547   */\n    tag_778:\n        /* \"#utility.yul\":12431:12553   */\n      pop\n      jump\t// out\n        /* \"#utility.yul\":12559:12698   */\n    tag_564:\n        /* \"#utility.yul\":12605:12610   */\n      0x00\n        /* \"#utility.yul\":12643:12649   */\n      dup2\n        /* \"#utility.yul\":12630:12650   */\n      calldataload\n        /* \"#utility.yul\":12621:12650   */\n      swap1\n      pop\n        /* \"#utility.yul\":12659:12692   */\n      tag_780\n        /* \"#utility.yul\":12686:12691   */\n      dup2\n        /* \"#utility.yul\":12659:12692   */\n      tag_563\n      jump\t// in\n    tag_780:\n        /* \"#utility.yul\":12559:12698   */\n      swap3\n      swap2\n      pop\n      pop\n      jump\t// out\n        /* \"#utility.yul\":12704:12810   */\n    tag_565:\n        /* \"#utility.yul\":12784:12785   */\n      0x05\n        /* \"#utility.yul\":12777:12782   */\n      dup2\n        /* \"#utility.yul\":12774:12786   */\n      lt\n        /* \"#utility.yul\":12764:12804   */\n      tag_782\n      jumpi\n        /* \"#utility.yul\":12800:12801   */\n      0x00\n        /* \"#utility.yul\":12797:12798   */\n      0x00\n        /* \"#utility.yul\":12790:12802   */\n      revert\n        /* \"#utility.yul\":12764:12804   */\n    tag_782:\n        /* \"#utility.yul\":12704:12810   */\n      pop\n      jump\t// out\n        /* \"#utility.yul\":12816:12969   */\n    tag_566:\n        /* \"#utility.yul\":12869:12874   */\n      0x00\n        /* \"#utility.yul\":12907:12913   */\n      dup2\n        /* \"#utility.yul\":12894:12914   */\n      calldataload\n        /* \"#utility.yul\":12885:12914   */\n      swap1\n      pop\n        /* \"#utility.yul\":12923:12963   */\n      tag_784\n        /* \"#utility.yul\":12957:12962   */\n      dup2\n        /* \"#utility.yul\":12923:12963   */\n      tag_565\n      jump\t// in\n    tag_784:\n        /* \"#utility.yul\":12816:12969   */\n      swap3\n      swap2\n      pop\n      pop\n      jump\t// out\n        /* \"#utility.yul\":12975:13463   */\n    tag_49:\n        /* \"#utility.yul\":13050:13056   */\n      0x00\n        /* \"#utility.yul\":13058:13064   */\n      0x00\n        /* \"#utility.yul\":13107:13109   */\n      0x40\n        /* \"#utility.yul\":13095:13104   */\n      dup4\n        /* \"#utility.yul\":13086:13093   */\n      dup6\n        /* \"#utility.yul\":13082:13105   */\n      sub\n        /* \"#utility.yul\":13078:13110   */\n      slt\n        /* \"#utility.yul\":13075:13194   */\n      iszero\n      tag_786\n      jumpi\n        /* \"#utility.yul\":13113:13192   */\n      tag_787\n      tag_526\n      jump\t// in\n    tag_787:\n        /* \"#utility.yul\":13075:13194   */\n    tag_786:\n        /* \"#utility.yul\":13233:13234   */\n      0x00\n        /* \"#utility.yul\":13258:13311   */\n      tag_788\n        /* \"#utility.yul\":13303:13310   */\n      dup6\n        /* \"#utility.yul\":13294:13300   */\n      dup3\n        /* \"#utility.yul\":13283:13292   */\n      dup7\n        /* \"#utility.yul\":13279:13301   */\n      add\n        /* \"#utility.yul\":13258:13311   */\n      tag_564\n      jump\t// in\n    tag_788:\n        /* \"#utility.yul\":13248:13311   */\n      swap3\n      pop\n        /* \"#utility.yul\":13204:13321   */\n      pop\n        /* \"#utility.yul\":13360:13362   */\n      0x20\n        /* \"#utility.yul\":13386:13446   */\n      tag_789\n        /* \"#utility.yul\":13438:13445   */\n      dup6\n        /* \"#utility.yul\":13429:13435   */\n      dup3\n        /* \"#utility.yul\":13418:13427   */\n      dup7\n        /* \"#utility.yul\":13414:13436   */\n      add\n        /* \"#utility.yul\":13386:13446   */\n      tag_566\n      jump\t// in\n    tag_789:\n        /* \"#utility.yul\":13376:13446   */\n      swap2\n      pop\n        /* \"#utility.yul\":13331:13456   */\n      pop\n        /* \"#utility.yul\":12975:13463   */\n      swap3\n      pop\n      swap3\n      swap1\n      pop\n      jump\t// out\n        /* \"#utility.yul\":13469:14954   */\n    tag_56:\n        /* \"#utility.yul\":13595:13601   */\n      0x00\n        /* \"#utility.yul\":13603:13609   */\n      0x00\n        /* \"#utility.yul\":13611:13617   */\n      0x00\n        /* \"#utility.yul\":13619:13625   */\n      0x00\n        /* \"#utility.yul\":13668:13671   */\n      0x80\n        /* \"#utility.yul\":13656:13665   */\n      dup6\n        /* \"#utility.yul\":13647:13654   */\n      dup8\n        /* \"#utility.yul\":13643:13666   */\n      sub\n        /* \"#utility.yul\":13639:13672   */\n      slt\n        /* \"#utility.yul\":13636:13756   */\n      iszero\n      tag_791\n      jumpi\n        /* \"#utility.yul\":13675:13754   */\n      tag_792\n      tag_526\n      jump\t// in\n    tag_792:\n        /* \"#utility.yul\":13636:13756   */\n    tag_791:\n        /* \"#utility.yul\":13823:13824   */\n      0x00\n        /* \"#utility.yul\":13812:13821   */\n      dup6\n        /* \"#utility.yul\":13808:13825   */\n      add\n        /* \"#utility.yul\":13795:13826   */\n      calldataload\n        /* \"#utility.yul\":13853:13871   */\n      0xffffffffffffffff\n        /* \"#utility.yul\":13845:13851   */\n      dup2\n        /* \"#utility.yul\":13842:13872   */\n      gt\n        /* \"#utility.yul\":13839:13956   */\n      iszero\n      tag_793\n      jumpi\n        /* \"#utility.yul\":13875:13954   */\n      tag_794\n      tag_527\n      jump\t// in\n    tag_794:\n        /* \"#utility.yul\":13839:13956   */\n    tag_793:\n        /* \"#utility.yul\":13980:14043   */\n      tag_795\n        /* \"#utility.yul\":14035:14042   */\n      dup8\n        /* \"#utility.yul\":14026:14032   */\n      dup3\n        /* \"#utility.yul\":14015:14024   */\n      dup9\n        /* \"#utility.yul\":14011:14033   */\n      add\n        /* \"#utility.yul\":13980:14043   */\n      tag_536\n      jump\t// in\n    tag_795:\n        /* \"#utility.yul\":13970:14043   */\n      swap5\n      pop\n        /* \"#utility.yul\":13766:14053   */\n      pop\n        /* \"#utility.yul\":14120:14122   */\n      0x20\n        /* \"#utility.yul\":14109:14118   */\n      dup6\n        /* \"#utility.yul\":14105:14123   */\n      add\n        /* \"#utility.yul\":14092:14124   */\n      calldataload\n        /* \"#utility.yul\":14151:14169   */\n      0xffffffffffffffff\n        /* \"#utility.yul\":14143:14149   */\n      dup2\n        /* \"#utility.yul\":14140:14170   */\n      gt\n        /* \"#utility.yul\":14137:14254   */\n      iszero\n      tag_796\n      jumpi\n        /* \"#utility.yul\":14173:14252   */\n      tag_797\n      tag_527\n      jump\t// in\n    tag_797:\n        /* \"#utility.yul\":14137:14254   */\n    tag_796:\n        /* \"#utility.yul\":14278:14341   */\n      tag_798\n        /* \"#utility.yul\":14333:14340   */\n      dup8\n        /* \"#utility.yul\":14324:14330   */\n      dup3\n        /* \"#utility.yul\":14313:14322   */\n      dup9\n        /* \"#utility.yul\":14309:14331   */\n      add\n        /* \"#utility.yul\":14278:14341   */\n      tag_536\n      jump\t// in\n    tag_798:\n        /* \"#utility.yul\":14268:14341   */\n      swap4\n      pop\n        /* \"#utility.yul\":14063:14351   */\n      pop\n        /* \"#utility.yul\":14418:14420   */\n      0x40\n        /* \"#utility.yul\":14407:14416   */\n      dup6\n        /* \"#utility.yul\":14403:14421   */\n      add\n        /* \"#utility.yul\":14390:14422   */\n      calldataload\n        /* \"#utility.yul\":14449:14467   */\n      0xffffffffffffffff\n        /* \"#utility.yul\":14441:14447   */\n      dup2\n        /* \"#utility.yul\":14438:14468   */\n      gt\n        /* \"#utility.yul\":14435:14552   */\n      iszero\n      tag_799\n      jumpi\n        /* \"#utility.yul\":14471:14550   */\n      tag_800\n      tag_527\n      jump\t// in\n    tag_800:\n        /* \"#utility.yul\":14435:14552   */\n    tag_799:\n        /* \"#utility.yul\":14576:14639   */\n      tag_801\n        /* \"#utility.yul\":14631:14638   */\n      dup8\n        /* \"#utility.yul\":14622:14628   */\n      dup3\n        /* \"#utility.yul\":14611:14620   */\n      dup9\n        /* \"#utility.yul\":14607:14629   */\n      add\n        /* \"#utility.yul\":14576:14639   */\n      tag_536\n      jump\t// in\n    tag_801:\n        /* \"#utility.yul\":14566:14639   */\n      swap3\n      pop\n        /* \"#utility.yul\":14361:14649   */\n      pop\n        /* \"#utility.yul\":14716:14718   */\n      0x60\n        /* \"#utility.yul\":14705:14714   */\n      dup6\n        /* \"#utility.yul\":14701:14719   */\n      add\n        /* \"#utility.yul\":14688:14720   */\n      calldataload\n        /* \"#utility.yul\":14747:14765   */\n      0xffffffffffffffff\n        /* \"#utility.yul\":14739:14745   */\n      dup2\n        /* \"#utility.yul\":14736:14766   */\n      gt\n        /* \"#utility.yul\":14733:14850   */\n      iszero\n      tag_802\n      jumpi\n        /* \"#utility.yul\":14769:14848   */\n      tag_803\n      tag_527\n      jump\t// in\n    tag_803:\n        /* \"#utility.yul\":14733:14850   */\n    tag_802:\n        /* \"#utility.yul\":14874:14937   */\n      tag_804\n        /* \"#utility.yul\":14929:14936   */\n      dup8\n        /* \"#utility.yul\":14920:14926   */\n      dup3\n        /* \"#utility.yul\":14909:14918   */\n      dup9\n        /* \"#utility.yul\":14905:14927   */\n      add\n        /* \"#utility.yul\":14874:14937   */\n      tag_536\n      jump\t// in\n    tag_804:\n        /* \"#utility.yul\":14864:14937   */\n      swap2\n      pop\n        /* \"#utility.yul\":14659:14947   */\n      pop\n        /* \"#utility.yul\":13469:14954   */\n      swap3\n      swap6\n      swap2\n      swap5\n      pop\n      swap3\n      pop\n      jump\t// out\n        /* \"#utility.yul\":14960:15182   */\n    tag_61:\n        /* \"#utility.yul\":15053:15057   */\n      0x00\n        /* \"#utility.yul\":15091:15093   */\n      0x20\n        /* \"#utility.yul\":15080:15089   */\n      dup3\n        /* \"#utility.yul\":15076:15094   */\n      add\n        /* \"#utility.yul\":15068:15094   */\n      swap1\n      pop\n        /* \"#utility.yul\":15104:15175   */\n      tag_806\n        /* \"#utility.yul\":15172:15173   */\n      0x00\n        /* \"#utility.yul\":15161:15170   */\n      dup4\n        /* \"#utility.yul\":15157:15174   */\n      add\n        /* \"#utility.yul\":15148:15154   */\n      dup5\n        /* \"#utility.yul\":15104:15175   */\n      tag_555\n      jump\t// in\n    tag_806:\n        /* \"#utility.yul\":14960:15182   */\n      swap3\n      swap2\n      pop\n      pop\n      jump\t// out\n        /* \"#utility.yul\":15188:15301   */\n    tag_567:\n        /* \"#utility.yul\":15254:15260   */\n      0x00\n        /* \"#utility.yul\":15288:15293   */\n      dup2\n        /* \"#utility.yul\":15282:15294   */\n      mload\n        /* \"#utility.yul\":15272:15294   */\n      swap1\n      pop\n        /* \"#utility.yul\":15188:15301   */\n      swap2\n      swap1\n      pop\n      jump\t// out\n        /* \"#utility.yul\":15307:15490   */\n    tag_568:\n        /* \"#utility.yul\":15405:15416   */\n      0x00\n        /* \"#utility.yul\":15439:15445   */\n      dup3\n        /* \"#utility.yul\":15434:15437   */\n      dup3\n        /* \"#utility.yul\":15427:15446   */\n      mstore\n        /* \"#utility.yul\":15479:15483   */\n      0x20\n        /* \"#utility.yul\":15474:15477   */\n      dup3\n        /* \"#utility.yul\":15470:15484   */\n      add\n        /* \"#utility.yul\":15455:15484   */\n      swap1\n      pop\n        /* \"#utility.yul\":15307:15490   */\n      swap3\n      swap2\n      pop\n      pop\n      jump\t// out\n        /* \"#utility.yul\":15496:15627   */\n    tag_569:\n        /* \"#utility.yul\":15562:15566   */\n      0x00\n        /* \"#utility.yul\":15585:15588   */\n      dup2\n        /* \"#utility.yul\":15577:15588   */\n      swap1\n      pop\n        /* \"#utility.yul\":15615:15619   */\n      0x20\n        /* \"#utility.yul\":15610:15613   */\n      dup3\n        /* \"#utility.yul\":15606:15620   */\n      add\n        /* \"#utility.yul\":15598:15620   */\n      swap1\n      pop\n        /* \"#utility.yul\":15496:15627   */\n      swap2\n      swap1\n      pop\n      jump\t// out\n        /* \"#utility.yul\":15633:15738   */\n    tag_570:\n        /* \"#utility.yul\":15708:15731   */\n      tag_811\n        /* \"#utility.yul\":15725:15730   */\n      dup2\n        /* \"#utility.yul\":15708:15731   */\n      tag_556\n      jump\t// in\n    tag_811:\n        /* \"#utility.yul\":15703:15706   */\n      dup3\n        /* \"#utility.yul\":15696:15732   */\n      mstore\n        /* \"#utility.yul\":15633:15738   */\n      pop\n      pop\n      jump\t// out\n        /* \"#utility.yul\":15744:15919   */\n    tag_571:\n        /* \"#utility.yul\":15811:15821   */\n      0x00\n        /* \"#utility.yul\":15832:15876   */\n      tag_813\n        /* \"#utility.yul\":15872:15875   */\n      dup4\n        /* \"#utility.yul\":15864:15870   */\n      dup4\n        /* \"#utility.yul\":15832:15876   */\n      tag_570\n      jump\t// in\n    tag_813:\n        /* \"#utility.yul\":15908:15912   */\n      0x20\n        /* \"#utility.yul\":15903:15906   */\n      dup4\n        /* \"#utility.yul\":15899:15913   */\n      add\n        /* \"#utility.yul\":15885:15913   */\n      swap1\n      pop\n        /* \"#utility.yul\":15744:15919   */\n      swap3\n      swap2\n      pop\n      pop\n      jump\t// out\n        /* \"#utility.yul\":15925:16037   */\n    tag_572:\n        /* \"#utility.yul\":15994:15998   */\n      0x00\n        /* \"#utility.yul\":16026:16030   */\n      0x20\n        /* \"#utility.yul\":16021:16024   */\n      dup3\n        /* \"#utility.yul\":16017:16031   */\n      add\n        /* \"#utility.yul\":16009:16031   */\n      swap1\n      pop\n        /* \"#utility.yul\":15925:16037   */\n      swap2\n      swap1\n      pop\n      jump\t// out\n        /* \"#utility.yul\":16071:16795   */\n    tag_573:\n        /* \"#utility.yul\":16188:16191   */\n      0x00\n        /* \"#utility.yul\":16217:16270   */\n      tag_816\n        /* \"#utility.yul\":16264:16269   */\n      dup3\n        /* \"#utility.yul\":16217:16270   */\n      tag_567\n      jump\t// in\n    tag_816:\n        /* \"#utility.yul\":16286:16371   */\n      tag_817\n        /* \"#utility.yul\":16364:16370   */\n      dup2\n        /* \"#utility.yul\":16359:16362   */\n      dup6\n        /* \"#utility.yul\":16286:16371   */\n      tag_568\n      jump\t// in\n    tag_817:\n        /* \"#utility.yul\":16279:16371   */\n      swap4\n      pop\n        /* \"#utility.yul\":16395:16450   */\n      tag_818\n        /* \"#utility.yul\":16444:16449   */\n      dup4\n        /* \"#utility.yul\":16395:16450   */\n      tag_569\n      jump\t// in\n    tag_818:\n        /* \"#utility.yul\":16473:16480   */\n      dup1\n        /* \"#utility.yul\":16504:16505   */\n      0x00\n        /* \"#utility.yul\":16489:16770   */\n    tag_819:\n        /* \"#utility.yul\":16514:16520   */\n      dup4\n        /* \"#utility.yul\":16511:16512   */\n      dup2\n        /* \"#utility.yul\":16508:16521   */\n      lt\n        /* \"#utility.yul\":16489:16770   */\n      iszero\n      tag_821\n      jumpi\n        /* \"#utility.yul\":16590:16596   */\n      dup2\n        /* \"#utility.yul\":16584:16597   */\n      mload\n        /* \"#utility.yul\":16617:16678   */\n      tag_822\n        /* \"#utility.yul\":16674:16677   */\n      dup9\n        /* \"#utility.yul\":16659:16672   */\n      dup3\n        /* \"#utility.yul\":16617:16678   */\n      tag_571\n      jump\t// in\n    tag_822:\n        /* \"#utility.yul\":16610:16678   */\n      swap8\n      pop\n        /* \"#utility.yul\":16701:16760   */\n      tag_823\n        /* \"#utility.yul\":16753:16759   */\n      dup4\n        /* \"#utility.yul\":16701:16760   */\n      tag_572\n      jump\t// in\n    tag_823:\n        /* \"#utility.yul\":16691:16760   */\n      swap3\n      pop\n        /* \"#utility.yul\":16549:16770   */\n      pop\n        /* \"#utility.yul\":16536:16537   */\n      0x01\n        /* \"#utility.yul\":16533:16534   */\n      dup2\n        /* \"#utility.yul\":16529:16538   */\n      add\n        /* \"#utility.yul\":16524:16538   */\n      swap1\n      pop\n        /* \"#utility.yul\":16489:16770   */\n      jump(tag_819)\n    tag_821:\n        /* \"#utility.yul\":16493:16507   */\n      pop\n        /* \"#utility.yul\":16786:16789   */\n      dup6\n        /* \"#utility.yul\":16779:16789   */\n      swap4\n      pop\n        /* \"#utility.yul\":16193:16795   */\n      pop\n      pop\n      pop\n        /* \"#utility.yul\":16071:16795   */\n      swap3\n      swap2\n      pop\n      pop\n      jump\t// out\n        /* \"#utility.yul\":16801:16915   */\n    tag_574:\n        /* \"#utility.yul\":16868:16874   */\n      0x00\n        /* \"#utility.yul\":16902:16907   */\n      dup2\n        /* \"#utility.yul\":16896:16908   */\n      mload\n        /* \"#utility.yul\":16886:16908   */\n      swap1\n      pop\n        /* \"#utility.yul\":16801:16915   */\n      swap2\n      swap1\n      pop\n      jump\t// out\n        /* \"#utility.yul\":16921:17105   */\n    tag_575:\n        /* \"#utility.yul\":17020:17031   */\n      0x00\n        /* \"#utility.yul\":17054:17060   */\n      dup3\n        /* \"#utility.yul\":17049:17052   */\n      dup3\n        /* \"#utility.yul\":17042:17061   */\n      mstore\n        /* \"#utility.yul\":17094:17098   */\n      0x20\n        /* \"#utility.yul\":17089:17092   */\n      dup3\n        /* \"#utility.yul\":17085:17099   */\n      add\n        /* \"#utility.yul\":17070:17099   */\n      swap1\n      pop\n        /* \"#utility.yul\":16921:17105   */\n      swap3\n      swap2\n      pop\n      pop\n      jump\t// out\n        /* \"#utility.yul\":17111:17243   */\n    tag_576:\n        /* \"#utility.yul\":17178:17182   */\n      0x00\n        /* \"#utility.yul\":17201:17204   */\n      dup2\n        /* \"#utility.yul\":17193:17204   */\n      swap1\n      pop\n        /* \"#utility.yul\":17231:17235   */\n      0x20\n        /* \"#utility.yul\":17226:17229   */\n      dup3\n        /* \"#utility.yul\":17222:17236   */\n      add\n        /* \"#utility.yul\":17214:17236   */\n      swap1\n      pop\n        /* \"#utility.yul\":17111:17243   */\n      swap2\n      swap1\n      pop\n      jump\t// out\n        /* \"#utility.yul\":17249:17326   */\n    tag_577:\n        /* \"#utility.yul\":17286:17293   */\n      0x00\n        /* \"#utility.yul\":17315:17320   */\n      dup2\n        /* \"#utility.yul\":17304:17320   */\n      swap1\n      pop\n        /* \"#utility.yul\":17249:17326   */\n      swap2\n      swap1\n      pop\n      jump\t// out\n        /* \"#utility.yul\":17332:17440   */\n    tag_578:\n        /* \"#utility.yul\":17409:17433   */\n      tag_829\n        /* \"#utility.yul\":17427:17432   */\n      dup2\n        /* \"#utility.yul\":17409:17433   */\n      tag_577\n      jump\t// in\n    tag_829:\n        /* \"#utility.yul\":17404:17407   */\n      dup3\n        /* \"#utility.yul\":17397:17434   */\n      mstore\n        /* \"#utility.yul\":17332:17440   */\n      pop\n      pop\n      jump\t// out\n        /* \"#utility.yul\":17446:17625   */\n    tag_579:\n        /* \"#utility.yul\":17515:17525   */\n      0x00\n        /* \"#utility.yul\":17536:17582   */\n      tag_831\n        /* \"#utility.yul\":17578:17581   */\n      dup4\n        /* \"#utility.yul\":17570:17576   */\n      dup4\n        /* \"#utility.yul\":17536:17582   */\n      tag_578\n      jump\t// in\n    tag_831:\n        /* \"#utility.yul\":17614:17618   */\n      0x20\n        /* \"#utility.yul\":17609:17612   */\n      dup4\n        /* \"#utility.yul\":17605:17619   */\n      add\n        /* \"#utility.yul\":17591:17619   */\n      swap1\n      pop\n        /* \"#utility.yul\":17446:17625   */\n      swap3\n      swap2\n      pop\n      pop\n      jump\t// out\n        /* \"#utility.yul\":17631:17744   */\n    tag_580:\n        /* \"#utility.yul\":17701:17705   */\n      0x00\n        /* \"#utility.yul\":17733:17737   */\n      0x20\n        /* \"#utility.yul\":17728:17731   */\n      dup3\n        /* \"#utility.yul\":17724:17738   */\n      add\n        /* \"#utility.yul\":17716:17738   */\n      swap1\n      pop\n        /* \"#utility.yul\":17631:17744   */\n      swap2\n      swap1\n      pop\n      jump\t// out\n        /* \"#utility.yul\":17780:18512   */\n    tag_581:\n        /* \"#utility.yul\":17899:17902   */\n      0x00\n        /* \"#utility.yul\":17928:17982   */\n      tag_834\n        /* \"#utility.yul\":17976:17981   */\n      dup3\n        /* \"#utility.yul\":17928:17982   */\n      tag_574\n      jump\t// in\n    tag_834:\n        /* \"#utility.yul\":17998:18084   */\n      tag_835\n        /* \"#utility.yul\":18077:18083   */\n      dup2\n        /* \"#utility.yul\":18072:18075   */\n      dup6\n        /* \"#utility.yul\":17998:18084   */\n      tag_575\n      jump\t// in\n    tag_835:\n        /* \"#utility.yul\":17991:18084   */\n      swap4\n      pop\n        /* \"#utility.yul\":18108:18164   */\n      tag_836\n        /* \"#utility.yul\":18158:18163   */\n      dup4\n        /* \"#utility.yul\":18108:18164   */\n      tag_576\n      jump\t// in\n    tag_836:\n        /* \"#utility.yul\":18187:18194   */\n      dup1\n        /* \"#utility.yul\":18218:18219   */\n      0x00\n        /* \"#utility.yul\":18203:18487   */\n    tag_837:\n        /* \"#utility.yul\":18228:18234   */\n      dup4\n        /* \"#utility.yul\":18225:18226   */\n      dup2\n        /* \"#utility.yul\":18222:18235   */\n      lt\n        /* \"#utility.yul\":18203:18487   */\n      iszero\n      tag_839\n      jumpi\n        /* \"#utility.yul\":18304:18310   */\n      dup2\n        /* \"#utility.yul\":18298:18311   */\n      mload\n        /* \"#utility.yul\":18331:18394   */\n      tag_840\n        /* \"#utility.yul\":18390:18393   */\n      dup9\n        /* \"#utility.yul\":18375:18388   */\n      dup3\n        /* \"#utility.yul\":18331:18394   */\n      tag_579\n      jump\t// in\n    tag_840:\n        /* \"#utility.yul\":18324:18394   */\n      swap8\n      pop\n        /* \"#utility.yul\":18417:18477   */\n      tag_841\n        /* \"#utility.yul\":18470:18476   */\n      dup4\n        /* \"#utility.yul\":18417:18477   */\n      tag_580\n      jump\t// in\n    tag_841:\n        /* \"#utility.yul\":18407:18477   */\n      swap3\n      pop\n        /* \"#utility.yul\":18263:18487   */\n      pop\n        /* \"#utility.yul\":18250:18251   */\n      0x01\n        /* \"#utility.yul\":18247:18248   */\n      dup2\n        /* \"#utility.yul\":18243:18252   */\n      add\n        /* \"#utility.yul\":18238:18252   */\n      swap1\n      pop\n        /* \"#utility.yul\":18203:18487   */\n      jump(tag_837)\n    tag_839:\n        /* \"#utility.yul\":18207:18221   */\n      pop\n        /* \"#utility.yul\":18503:18506   */\n      dup6\n        /* \"#utility.yul\":18496:18506   */\n      swap4\n      pop\n        /* \"#utility.yul\":17904:18512   */\n      pop\n      pop\n      pop\n        /* \"#utility.yul\":17780:18512   */\n      swap3\n      swap2\n      pop\n      pop\n      jump\t// out\n        /* \"#utility.yul\":18518:19449   */\n    tag_66:\n        /* \"#utility.yul\":18835:18839   */\n      0x00\n        /* \"#utility.yul\":18873:18875   */\n      0x60\n        /* \"#utility.yul\":18862:18871   */\n      dup3\n        /* \"#utility.yul\":18858:18876   */\n      add\n        /* \"#utility.yul\":18850:18876   */\n      swap1\n      pop\n        /* \"#utility.yul\":18922:18931   */\n      dup2\n        /* \"#utility.yul\":18916:18920   */\n      dup2\n        /* \"#utility.yul\":18912:18932   */\n      sub\n        /* \"#utility.yul\":18908:18909   */\n      0x00\n        /* \"#utility.yul\":18897:18906   */\n      dup4\n        /* \"#utility.yul\":18893:18910   */\n      add\n        /* \"#utility.yul\":18886:18933   */\n      mstore\n        /* \"#utility.yul\":18950:19056   */\n      tag_843\n        /* \"#utility.yul\":19051:19055   */\n      dup2\n        /* \"#utility.yul\":19042:19048   */\n      dup7\n        /* \"#utility.yul\":18950:19056   */\n      tag_573\n      jump\t// in\n    tag_843:\n        /* \"#utility.yul\":18942:19056   */\n      swap1\n      pop\n        /* \"#utility.yul\":19103:19112   */\n      dup2\n        /* \"#utility.yul\":19097:19101   */\n      dup2\n        /* \"#utility.yul\":19093:19113   */\n      sub\n        /* \"#utility.yul\":19088:19090   */\n      0x20\n        /* \"#utility.yul\":19077:19086   */\n      dup4\n        /* \"#utility.yul\":19073:19091   */\n      add\n        /* \"#utility.yul\":19066:19114   */\n      mstore\n        /* \"#utility.yul\":19131:19259   */\n      tag_844\n        /* \"#utility.yul\":19254:19258   */\n      dup2\n        /* \"#utility.yul\":19245:19251   */\n      dup6\n        /* \"#utility.yul\":19131:19259   */\n      tag_546\n      jump\t// in\n    tag_844:\n        /* \"#utility.yul\":19123:19259   */\n      swap1\n      pop\n        /* \"#utility.yul\":19306:19315   */\n      dup2\n        /* \"#utility.yul\":19300:19304   */\n      dup2\n        /* \"#utility.yul\":19296:19316   */\n      sub\n        /* \"#utility.yul\":19291:19293   */\n      0x40\n        /* \"#utility.yul\":19280:19289   */\n      dup4\n        /* \"#utility.yul\":19276:19294   */\n      add\n        /* \"#utility.yul\":19269:19317   */\n      mstore\n        /* \"#utility.yul\":19334:19442   */\n      tag_845\n        /* \"#utility.yul\":19437:19441   */\n      dup2\n        /* \"#utility.yul\":19428:19434   */\n      dup5\n        /* \"#utility.yul\":19334:19442   */\n      tag_581\n      jump\t// in\n    tag_845:\n        /* \"#utility.yul\":19326:19442   */\n      swap1\n      pop\n        /* \"#utility.yul\":18518:19449   */\n      swap5\n      swap4\n      pop\n      pop\n      pop\n      pop\n      jump\t// out\n        /* \"#utility.yul\":19455:19784   */\n    tag_69:\n        /* \"#utility.yul\":19514:19520   */\n      0x00\n        /* \"#utility.yul\":19563:19565   */\n      0x20\n        /* \"#utility.yul\":19551:19560   */\n      dup3\n        /* \"#utility.yul\":19542:19549   */\n      dup5\n        /* \"#utility.yul\":19538:19561   */\n      sub\n        /* \"#utility.yul\":19534:19566   */\n      slt\n        /* \"#utility.yul\":19531:19650   */\n      iszero\n      tag_847\n      jumpi\n        /* \"#utility.yul\":19569:19648   */\n      tag_848\n      tag_526\n      jump\t// in\n    tag_848:\n        /* \"#utility.yul\":19531:19650   */\n    tag_847:\n        /* \"#utility.yul\":19689:19690   */\n      0x00\n        /* \"#utility.yul\":19714:19767   */\n      tag_849\n        /* \"#utility.yul\":19759:19766   */\n      dup5\n        /* \"#utility.yul\":19750:19756   */\n      dup3\n        /* \"#utility.yul\":19739:19748   */\n      dup6\n        /* \"#utility.yul\":19735:19757   */\n      add\n        /* \"#utility.yul\":19714:19767   */\n      tag_564\n      jump\t// in\n    tag_849:\n        /* \"#utility.yul\":19704:19767   */\n      swap2\n      pop\n        /* \"#utility.yul\":19660:19777   */\n      pop\n        /* \"#utility.yul\":19455:19784   */\n      swap3\n      swap2\n      pop\n      pop\n      jump\t// out\n        /* \"#utility.yul\":19790:19902   */\n    tag_582:\n        /* \"#utility.yul\":19870:19871   */\n      0x05\n        /* \"#utility.yul\":19863:19868   */\n      dup2\n        /* \"#utility.yul\":19860:19872   */\n      lt\n        /* \"#utility.yul\":19850:19896   */\n      tag_851\n      jumpi\n        /* \"#utility.yul\":19876:19894   */\n      tag_852\n      tag_148\n      jump\t// in\n    tag_852:\n        /* \"#utility.yul\":19850:19896   */\n    tag_851:\n        /* \"#utility.yul\":19790:19902   */\n      pop\n      jump\t// out\n        /* \"#utility.yul\":19908:20033   */\n    tag_583:\n        /* \"#utility.yul\":19952:19959   */\n      0x00\n        /* \"#utility.yul\":19981:19986   */\n      dup2\n        /* \"#utility.yul\":19970:19986   */\n      swap1\n      pop\n        /* \"#utility.yul\":19987:20027   */\n      tag_854\n        /* \"#utility.yul\":20021:20026   */\n      dup3\n        /* \"#utility.yul\":19987:20027   */\n      tag_582\n      jump\t// in\n    tag_854:\n        /* \"#utility.yul\":19908:20033   */\n      swap2\n      swap1\n      pop\n      jump\t// out\n        /* \"#utility.yul\":20039:20164   */\n    tag_584:\n        /* \"#utility.yul\":20094:20103   */\n      0x00\n        /* \"#utility.yul\":20127:20158   */\n      tag_856\n        /* \"#utility.yul\":20152:20157   */\n      dup3\n        /* \"#utility.yul\":20127:20158   */\n      tag_583\n      jump\t// in\n    tag_856:\n        /* \"#utility.yul\":20114:20158   */\n      swap1\n      pop\n        /* \"#utility.yul\":20039:20164   */\n      swap2\n      swap1\n      pop\n      jump\t// out\n        /* \"#utility.yul\":20170:20311   */\n    tag_585:\n        /* \"#utility.yul\":20262:20304   */\n      tag_858\n        /* \"#utility.yul\":20298:20303   */\n      dup2\n        /* \"#utility.yul\":20262:20304   */\n      tag_584\n      jump\t// in\n    tag_858:\n        /* \"#utility.yul\":20257:20260   */\n      dup3\n        /* \"#utility.yul\":20250:20305   */\n      mstore\n        /* \"#utility.yul\":20170:20311   */\n      pop\n      pop\n      jump\t// out\n        /* \"#utility.yul\":20317:20549   */\n    tag_72:\n        /* \"#utility.yul\":20415:20419   */\n      0x00\n        /* \"#utility.yul\":20453:20455   */\n      0x20\n        /* \"#utility.yul\":20442:20451   */\n      dup3\n        /* \"#utility.yul\":20438:20456   */\n      add\n        /* \"#utility.yul\":20430:20456   */\n      swap1\n      pop\n        /* \"#utility.yul\":20466:20542   */\n      tag_860\n        /* \"#utility.yul\":20539:20540   */\n      0x00\n        /* \"#utility.yul\":20528:20537   */\n      dup4\n        /* \"#utility.yul\":20524:20541   */\n      add\n        /* \"#utility.yul\":20515:20521   */\n      dup5\n        /* \"#utility.yul\":20466:20542   */\n      tag_585\n      jump\t// in\n    tag_860:\n        /* \"#utility.yul\":20317:20549   */\n      swap3\n      swap2\n      pop\n      pop\n      jump\t// out\n        /* \"#utility.yul\":20555:20673   */\n    tag_586:\n        /* \"#utility.yul\":20642:20666   */\n      tag_862\n        /* \"#utility.yul\":20660:20665   */\n      dup2\n        /* \"#utility.yul\":20642:20666   */\n      tag_577\n      jump\t// in\n    tag_862:\n        /* \"#utility.yul\":20637:20640   */\n      dup3\n        /* \"#utility.yul\":20630:20667   */\n      mstore\n        /* \"#utility.yul\":20555:20673   */\n      pop\n      pop\n      jump\t// out\n        /* \"#utility.yul\":20679:20794   */\n    tag_587:\n        /* \"#utility.yul\":20764:20787   */\n      tag_864\n        /* \"#utility.yul\":20781:20786   */\n      dup2\n        /* \"#utility.yul\":20764:20787   */\n      tag_556\n      jump\t// in\n    tag_864:\n        /* \"#utility.yul\":20759:20762   */\n      dup3\n        /* \"#utility.yul\":20752:20788   */\n      mstore\n        /* \"#utility.yul\":20679:20794   */\n      pop\n      pop\n      jump\t// out\n        /* \"#utility.yul\":20800:21440   */\n    tag_77:\n        /* \"#utility.yul\":20993:20997   */\n      0x00\n        /* \"#utility.yul\":21031:21034   */\n      0xa0\n        /* \"#utility.yul\":21020:21029   */\n      dup3\n        /* \"#utility.yul\":21016:21035   */\n      add\n        /* \"#utility.yul\":21008:21035   */\n      swap1\n      pop\n        /* \"#utility.yul\":21045:21116   */\n      tag_866\n        /* \"#utility.yul\":21113:21114   */\n      0x00\n        /* \"#utility.yul\":21102:21111   */\n      dup4\n        /* \"#utility.yul\":21098:21115   */\n      add\n        /* \"#utility.yul\":21089:21095   */\n      dup9\n        /* \"#utility.yul\":21045:21116   */\n      tag_586\n      jump\t// in\n    tag_866:\n        /* \"#utility.yul\":21126:21196   */\n      tag_867\n        /* \"#utility.yul\":21192:21194   */\n      0x20\n        /* \"#utility.yul\":21181:21190   */\n      dup4\n        /* \"#utility.yul\":21177:21195   */\n      add\n        /* \"#utility.yul\":21168:21174   */\n      dup8\n        /* \"#utility.yul\":21126:21196   */\n      tag_587\n      jump\t// in\n    tag_867:\n        /* \"#utility.yul\":21206:21276   */\n      tag_868\n        /* \"#utility.yul\":21272:21274   */\n      0x40\n        /* \"#utility.yul\":21261:21270   */\n      dup4\n        /* \"#utility.yul\":21257:21275   */\n      add\n        /* \"#utility.yul\":21248:21254   */\n      dup7\n        /* \"#utility.yul\":21206:21276   */\n      tag_587\n      jump\t// in\n    tag_868:\n        /* \"#utility.yul\":21286:21356   */\n      tag_869\n        /* \"#utility.yul\":21352:21354   */\n      0x60\n        /* \"#utility.yul\":21341:21350   */\n      dup4\n        /* \"#utility.yul\":21337:21355   */\n      add\n        /* \"#utility.yul\":21328:21334   */\n      dup6\n        /* \"#utility.yul\":21286:21356   */\n      tag_587\n      jump\t// in\n    tag_869:\n        /* \"#utility.yul\":21366:21433   */\n      tag_870\n        /* \"#utility.yul\":21428:21431   */\n      0x80\n        /* \"#utility.yul\":21417:21426   */\n      dup4\n        /* \"#utility.yul\":21413:21432   */\n      add\n        /* \"#utility.yul\":21404:21410   */\n      dup5\n        /* \"#utility.yul\":21366:21433   */\n      tag_560\n      jump\t// in\n    tag_870:\n        /* \"#utility.yul\":20800:21440   */\n      swap7\n      swap6\n      pop\n      pop\n      pop\n      pop\n      pop\n      pop\n      jump\t// out\n        /* \"#utility.yul\":21446:21759   */\n    tag_82:\n        /* \"#utility.yul\":21559:21563   */\n      0x00\n        /* \"#utility.yul\":21597:21599   */\n      0x20\n        /* \"#utility.yul\":21586:21595   */\n      dup3\n        /* \"#utility.yul\":21582:21600   */\n      add\n        /* \"#utility.yul\":21574:21600   */\n      swap1\n      pop\n        /* \"#utility.yul\":21646:21655   */\n      dup2\n        /* \"#utility.yul\":21640:21644   */\n      dup2\n        /* \"#utility.yul\":21636:21656   */\n      sub\n        /* \"#utility.yul\":21632:21633   */\n      0x00\n        /* \"#utility.yul\":21621:21630   */\n      dup4\n        /* \"#utility.yul\":21617:21634   */\n      add\n        /* \"#utility.yul\":21610:21657   */\n      mstore\n        /* \"#utility.yul\":21674:21752   */\n      tag_872\n        /* \"#utility.yul\":21747:21751   */\n      dup2\n        /* \"#utility.yul\":21738:21744   */\n      dup5\n        /* \"#utility.yul\":21674:21752   */\n      tag_548\n      jump\t// in\n    tag_872:\n        /* \"#utility.yul\":21666:21752   */\n      swap1\n      pop\n        /* \"#utility.yul\":21446:21759   */\n      swap3\n      swap2\n      pop\n      pop\n      jump\t// out\n        /* \"#utility.yul\":21765:22914   */\n    tag_87:\n        /* \"#utility.yul\":22083:22087   */\n      0x00\n        /* \"#utility.yul\":22121:22124   */\n      0xc0\n        /* \"#utility.yul\":22110:22119   */\n      dup3\n        /* \"#utility.yul\":22106:22125   */\n      add\n        /* \"#utility.yul\":22098:22125   */\n      swap1\n      pop\n        /* \"#utility.yul\":22171:22180   */\n      dup2\n        /* \"#utility.yul\":22165:22169   */\n      dup2\n        /* \"#utility.yul\":22161:22181   */\n      sub\n        /* \"#utility.yul\":22157:22158   */\n      0x00\n        /* \"#utility.yul\":22146:22155   */\n      dup4\n        /* \"#utility.yul\":22142:22159   */\n      add\n        /* \"#utility.yul\":22135:22182   */\n      mstore\n        /* \"#utility.yul\":22199:22277   */\n      tag_874\n        /* \"#utility.yul\":22272:22276   */\n      dup2\n        /* \"#utility.yul\":22263:22269   */\n      dup10\n        /* \"#utility.yul\":22199:22277   */\n      tag_548\n      jump\t// in\n    tag_874:\n        /* \"#utility.yul\":22191:22277   */\n      swap1\n      pop\n        /* \"#utility.yul\":22324:22333   */\n      dup2\n        /* \"#utility.yul\":22318:22322   */\n      dup2\n        /* \"#utility.yul\":22314:22334   */\n      sub\n        /* \"#utility.yul\":22309:22311   */\n      0x20\n        /* \"#utility.yul\":22298:22307   */\n      dup4\n        /* \"#utility.yul\":22294:22312   */\n      add\n        /* \"#utility.yul\":22287:22335   */\n      mstore\n        /* \"#utility.yul\":22352:22430   */\n      tag_875\n        /* \"#utility.yul\":22425:22429   */\n      dup2\n        /* \"#utility.yul\":22416:22422   */\n      dup9\n        /* \"#utility.yul\":22352:22430   */\n      tag_548\n      jump\t// in\n    tag_875:\n        /* \"#utility.yul\":22344:22430   */\n      swap1\n      pop\n        /* \"#utility.yul\":22477:22486   */\n      dup2\n        /* \"#utility.yul\":22471:22475   */\n      dup2\n        /* \"#utility.yul\":22467:22487   */\n      sub\n        /* \"#utility.yul\":22462:22464   */\n      0x40\n        /* \"#utility.yul\":22451:22460   */\n      dup4\n        /* \"#utility.yul\":22447:22465   */\n      add\n        /* \"#utility.yul\":22440:22488   */\n      mstore\n        /* \"#utility.yul\":22505:22583   */\n      tag_876\n        /* \"#utility.yul\":22578:22582   */\n      dup2\n        /* \"#utility.yul\":22569:22575   */\n      dup8\n        /* \"#utility.yul\":22505:22583   */\n      tag_548\n      jump\t// in\n    tag_876:\n        /* \"#utility.yul\":22497:22583   */\n      swap1\n      pop\n        /* \"#utility.yul\":22630:22639   */\n      dup2\n        /* \"#utility.yul\":22624:22628   */\n      dup2\n        /* \"#utility.yul\":22620:22640   */\n      sub\n        /* \"#utility.yul\":22615:22617   */\n      0x60\n        /* \"#utility.yul\":22604:22613   */\n      dup4\n        /* \"#utility.yul\":22600:22618   */\n      add\n        /* \"#utility.yul\":22593:22641   */\n      mstore\n        /* \"#utility.yul\":22658:22736   */\n      tag_877\n        /* \"#utility.yul\":22731:22735   */\n      dup2\n        /* \"#utility.yul\":22722:22728   */\n      dup7\n        /* \"#utility.yul\":22658:22736   */\n      tag_548\n      jump\t// in\n    tag_877:\n        /* \"#utility.yul\":22650:22736   */\n      swap1\n      pop\n        /* \"#utility.yul\":22746:22824   */\n      tag_878\n        /* \"#utility.yul\":22819:22822   */\n      0x80\n        /* \"#utility.yul\":22808:22817   */\n      dup4\n        /* \"#utility.yul\":22804:22823   */\n      add\n        /* \"#utility.yul\":22795:22801   */\n      dup6\n        /* \"#utility.yul\":22746:22824   */\n      tag_552\n      jump\t// in\n    tag_878:\n        /* \"#utility.yul\":22834:22907   */\n      tag_879\n        /* \"#utility.yul\":22902:22905   */\n      0xa0\n        /* \"#utility.yul\":22891:22900   */\n      dup4\n        /* \"#utility.yul\":22887:22906   */\n      add\n        /* \"#utility.yul\":22878:22884   */\n      dup5\n        /* \"#utility.yul\":22834:22907   */\n      tag_555\n      jump\t// in\n    tag_879:\n        /* \"#utility.yul\":21765:22914   */\n      swap8\n      swap7\n      pop\n      pop\n      pop\n      pop\n      pop\n      pop\n      pop\n      jump\t// out\n        /* \"#utility.yul\":22920:23715   */\n    tag_94:\n        /* \"#utility.yul\":23005:23011   */\n      0x00\n        /* \"#utility.yul\":23013:23019   */\n      0x00\n        /* \"#utility.yul\":23021:23027   */\n      0x00\n        /* \"#utility.yul\":23070:23072   */\n      0x60\n        /* \"#utility.yul\":23058:23067   */\n      dup5\n        /* \"#utility.yul\":23049:23056   */\n      dup7\n        /* \"#utility.yul\":23045:23068   */\n      sub\n        /* \"#utility.yul\":23041:23073   */\n      slt\n        /* \"#utility.yul\":23038:23157   */\n      iszero\n      tag_881\n      jumpi\n        /* \"#utility.yul\":23076:23155   */\n      tag_882\n      tag_526\n      jump\t// in\n    tag_882:\n        /* \"#utility.yul\":23038:23157   */\n    tag_881:\n        /* \"#utility.yul\":23224:23225   */\n      0x00\n        /* \"#utility.yul\":23213:23222   */\n      dup5\n        /* \"#utility.yul\":23209:23226   */\n      add\n        /* \"#utility.yul\":23196:23227   */\n      calldataload\n        /* \"#utility.yul\":23254:23272   */\n      0xffffffffffffffff\n        /* \"#utility.yul\":23246:23252   */\n      dup2\n        /* \"#utility.yul\":23243:23273   */\n      gt\n        /* \"#utility.yul\":23240:23357   */\n      iszero\n      tag_883\n      jumpi\n        /* \"#utility.yul\":23276:23355   */\n      tag_884\n      tag_527\n      jump\t// in\n    tag_884:\n        /* \"#utility.yul\":23240:23357   */\n    tag_883:\n        /* \"#utility.yul\":23381:23444   */\n      tag_885\n        /* \"#utility.yul\":23436:23443   */\n      dup7\n        /* \"#utility.yul\":23427:23433   */\n      dup3\n        /* \"#utility.yul\":23416:23425   */\n      dup8\n        /* \"#utility.yul\":23412:23434   */\n      add\n        /* \"#utility.yul\":23381:23444   */\n      tag_536\n      jump\t// in\n    tag_885:\n        /* \"#utility.yul\":23371:23444   */\n      swap4\n      pop\n        /* \"#utility.yul\":23167:23454   */\n      pop\n        /* \"#utility.yul\":23493:23495   */\n      0x20\n        /* \"#utility.yul\":23519:23571   */\n      tag_886\n        /* \"#utility.yul\":23563:23570   */\n      dup7\n        /* \"#utility.yul\":23554:23560   */\n      dup3\n        /* \"#utility.yul\":23543:23552   */\n      dup8\n        /* \"#utility.yul\":23539:23561   */\n      add\n        /* \"#utility.yul\":23519:23571   */\n      tag_558\n      jump\t// in\n    tag_886:\n        /* \"#utility.yul\":23509:23571   */\n      swap3\n      pop\n        /* \"#utility.yul\":23464:23581   */\n      pop\n        /* \"#utility.yul\":23620:23622   */\n      0x40\n        /* \"#utility.yul\":23646:23698   */\n      tag_887\n        /* \"#utility.yul\":23690:23697   */\n      dup7\n        /* \"#utility.yul\":23681:23687   */\n      dup3\n        /* \"#utility.yul\":23670:23679   */\n      dup8\n        /* \"#utility.yul\":23666:23688   */\n      add\n        /* \"#utility.yul\":23646:23698   */\n      tag_558\n      jump\t// in\n    tag_887:\n        /* \"#utility.yul\":23636:23698   */\n      swap2\n      pop\n        /* \"#utility.yul\":23591:23708   */\n      pop\n        /* \"#utility.yul\":22920:23715   */\n      swap3\n      pop\n      swap3\n      pop\n      swap3\n      jump\t// out\n        /* \"#utility.yul\":23721:23869   */\n    tag_588:\n        /* \"#utility.yul\":23823:23834   */\n      0x00\n        /* \"#utility.yul\":23860:23863   */\n      dup2\n        /* \"#utility.yul\":23845:23863   */\n      swap1\n      pop\n        /* \"#utility.yul\":23721:23869   */\n      swap3\n      swap2\n      pop\n      pop\n      jump\t// out\n        /* \"#utility.yul\":23875:24265   */\n    tag_589:\n        /* \"#utility.yul\":23981:23984   */\n      0x00\n        /* \"#utility.yul\":24009:24048   */\n      tag_890\n        /* \"#utility.yul\":24042:24047   */\n      dup3\n        /* \"#utility.yul\":24009:24048   */\n      tag_540\n      jump\t// in\n    tag_890:\n        /* \"#utility.yul\":24064:24153   */\n      tag_891\n        /* \"#utility.yul\":24146:24152   */\n      dup2\n        /* \"#utility.yul\":24141:24144   */\n      dup6\n        /* \"#utility.yul\":24064:24153   */\n      tag_588\n      jump\t// in\n    tag_891:\n        /* \"#utility.yul\":24057:24153   */\n      swap4\n      pop\n        /* \"#utility.yul\":24162:24227   */\n      tag_892\n        /* \"#utility.yul\":24220:24226   */\n      dup2\n        /* \"#utility.yul\":24215:24218   */\n      dup6\n        /* \"#utility.yul\":24208:24212   */\n      0x20\n        /* \"#utility.yul\":24201:24206   */\n      dup7\n        /* \"#utility.yul\":24197:24213   */\n      add\n        /* \"#utility.yul\":24162:24227   */\n      tag_542\n      jump\t// in\n    tag_892:\n        /* \"#utility.yul\":24252:24258   */\n      dup1\n        /* \"#utility.yul\":24247:24250   */\n      dup5\n        /* \"#utility.yul\":24243:24259   */\n      add\n        /* \"#utility.yul\":24236:24259   */\n      swap2\n      pop\n        /* \"#utility.yul\":23985:24265   */\n      pop\n        /* \"#utility.yul\":23875:24265   */\n      swap3\n      swap2\n      pop\n      pop\n      jump\t// out\n        /* \"#utility.yul\":24271:24546   */\n    tag_98:\n        /* \"#utility.yul\":24403:24406   */\n      0x00\n        /* \"#utility.yul\":24425:24520   */\n      tag_894\n        /* \"#utility.yul\":24516:24519   */\n      dup3\n        /* \"#utility.yul\":24507:24513   */\n      dup5\n        /* \"#utility.yul\":24425:24520   */\n      tag_589\n      jump\t// in\n    tag_894:\n        /* \"#utility.yul\":24418:24520   */\n      swap2\n      pop\n        /* \"#utility.yul\":24537:24540   */\n      dup2\n        /* \"#utility.yul\":24530:24540   */\n      swap1\n      pop\n        /* \"#utility.yul\":24271:24546   */\n      swap3\n      swap2\n      pop\n      pop\n      jump\t// out\n        /* \"#utility.yul\":24552:24724   */\n    tag_590:\n        /* \"#utility.yul\":24692:24716   */\n      0x50726f64756374206e6f74207265676973746572656400000000000000000000\n        /* \"#utility.yul\":24688:24689   */\n      0x00\n        /* \"#utility.yul\":24680:24686   */\n      dup3\n        /* \"#utility.yul\":24676:24690   */\n      add\n        /* \"#utility.yul\":24669:24717   */\n      mstore\n        /* \"#utility.yul\":24552:24724   */\n      pop\n      jump\t// out\n        /* \"#utility.yul\":24730:25096   */\n    tag_591:\n        /* \"#utility.yul\":24872:24875   */\n      0x00\n        /* \"#utility.yul\":24893:24960   */\n      tag_897\n        /* \"#utility.yul\":24957:24959   */\n      0x16\n        /* \"#utility.yul\":24952:24955   */\n      dup4\n        /* \"#utility.yul\":24893:24960   */\n      tag_547\n      jump\t// in\n    tag_897:\n        /* \"#utility.yul\":24886:24960   */\n      swap2\n      pop\n        /* \"#utility.yul\":24969:25062   */\n      tag_898\n        /* \"#utility.yul\":25058:25061   */\n      dup3\n        /* \"#utility.yul\":24969:25062   */\n      tag_590\n      jump\t// in\n    tag_898:\n        /* \"#utility.yul\":25087:25089   */\n      0x20\n        /* \"#utility.yul\":25082:25085   */\n      dup3\n        /* \"#utility.yul\":25078:25090   */\n      add\n        /* \"#utility.yul\":25071:25090   */\n      swap1\n      pop\n        /* \"#utility.yul\":24730:25096   */\n      swap2\n      swap1\n      pop\n      jump\t// out\n        /* \"#utility.yul\":25102:25521   */\n    tag_101:\n        /* \"#utility.yul\":25268:25272   */\n      0x00\n        /* \"#utility.yul\":25306:25308   */\n      0x20\n        /* \"#utility.yul\":25295:25304   */\n      dup3\n        /* \"#utility.yul\":25291:25309   */\n      add\n        /* \"#utility.yul\":25283:25309   */\n      swap1\n      pop\n        /* \"#utility.yul\":25355:25364   */\n      dup2\n        /* \"#utility.yul\":25349:25353   */\n      dup2\n        /* \"#utility.yul\":25345:25365   */\n      sub\n        /* \"#utility.yul\":25341:25342   */\n      0x00\n        /* \"#utility.yul\":25330:25339   */\n      dup4\n        /* \"#utility.yul\":25326:25343   */\n      add\n        /* \"#utility.yul\":25319:25366   */\n      mstore\n        /* \"#utility.yul\":25383:25514   */\n      tag_900\n        /* \"#utility.yul\":25509:25513   */\n      dup2\n        /* \"#utility.yul\":25383:25514   */\n      tag_591\n      jump\t// in\n    tag_900:\n        /* \"#utility.yul\":25375:25514   */\n      swap1\n      pop\n        /* \"#utility.yul\":25102:25521   */\n      swap2\n      swap1\n      pop\n      jump\t// out\n        /* \"#utility.yul\":25527:25707   */\n    tag_592:\n        /* \"#utility.yul\":25575:25652   */\n      0x4e487b7100000000000000000000000000000000000000000000000000000000\n        /* \"#utility.yul\":25572:25573   */\n      0x00\n        /* \"#utility.yul\":25565:25653   */\n      mstore\n        /* \"#utility.yul\":25672:25676   */\n      0x22\n        /* \"#utility.yul\":25669:25670   */\n      0x04\n        /* \"#utility.yul\":25662:25677   */\n      mstore\n        /* \"#utility.yul\":25696:25700   */\n      0x24\n        /* \"#utility.yul\":25693:25694   */\n      0x00\n        /* \"#utility.yul\":25686:25701   */\n      revert\n        /* \"#utility.yul\":25713:26033   */\n    tag_108:\n        /* \"#utility.yul\":25757:25763   */\n      0x00\n        /* \"#utility.yul\":25794:25795   */\n      0x02\n        /* \"#utility.yul\":25788:25792   */\n      dup3\n        /* \"#utility.yul\":25784:25796   */\n      div\n        /* \"#utility.yul\":25774:25796   */\n      swap1\n      pop\n        /* \"#utility.yul\":25841:25842   */\n      0x01\n        /* \"#utility.yul\":25835:25839   */\n      dup3\n        /* \"#utility.yul\":25831:25843   */\n      and\n        /* \"#utility.yul\":25862:25880   */\n      dup1\n        /* \"#utility.yul\":25852:25933   */\n      tag_903\n      jumpi\n        /* \"#utility.yul\":25918:25922   */\n      0x7f\n        /* \"#utility.yul\":25910:25916   */\n      dup3\n        /* \"#utility.yul\":25906:25923   */\n      and\n        /* \"#utility.yul\":25896:25923   */\n      swap2\n      pop\n        /* \"#utility.yul\":25852:25933   */\n    tag_903:\n        /* \"#utility.yul\":25980:25982   */\n      0x20\n        /* \"#utility.yul\":25972:25978   */\n      dup3\n        /* \"#utility.yul\":25969:25983   */\n      lt\n        /* \"#utility.yul\":25949:25967   */\n      dup2\n        /* \"#utility.yul\":25946:25984   */\n      sub\n        /* \"#utility.yul\":25943:26027   */\n      tag_904\n      jumpi\n        /* \"#utility.yul\":25999:26017   */\n      tag_905\n      tag_592\n      jump\t// in\n    tag_905:\n        /* \"#utility.yul\":25943:26027   */\n    tag_904:\n        /* \"#utility.yul\":25764:26033   */\n      pop\n        /* \"#utility.yul\":25713:26033   */\n      swap2\n      swap1\n      pop\n      jump\t// out\n        /* \"#utility.yul\":26039:26269   */\n    tag_593:\n        /* \"#utility.yul\":26179:26213   */\n      0x4f6e6c79204c6f67697374696373206f72206f776e65722063616e2075706c6f\n        /* \"#utility.yul\":26175:26176   */\n      0x00\n        /* \"#utility.yul\":26167:26173   */\n      dup3\n        /* \"#utility.yul\":26163:26177   */\n      add\n        /* \"#utility.yul\":26156:26214   */\n      mstore\n        /* \"#utility.yul\":26248:26261   */\n      0x616420496f542064617461000000000000000000000000000000000000000000\n        /* \"#utility.yul\":26243:26245   */\n      0x20\n        /* \"#utility.yul\":26235:26241   */\n      dup3\n        /* \"#utility.yul\":26231:26246   */\n      add\n        /* \"#utility.yul\":26224:26262   */\n      mstore\n        /* \"#utility.yul\":26039:26269   */\n      pop\n      jump\t// out\n        /* \"#utility.yul\":26275:26641   */\n    tag_594:\n        /* \"#utility.yul\":26417:26420   */\n      0x00\n        /* \"#utility.yul\":26438:26505   */\n      tag_908\n        /* \"#utility.yul\":26502:26504   */\n      0x2b\n        /* \"#utility.yul\":26497:26500   */\n      dup4\n        /* \"#utility.yul\":26438:26505   */\n      tag_547\n      jump\t// in\n    tag_908:\n        /* \"#utility.yul\":26431:26505   */\n      swap2\n      pop\n        /* \"#utility.yul\":26514:26607   */\n      tag_909\n        /* \"#utility.yul\":26603:26606   */\n      dup3\n        /* \"#utility.yul\":26514:26607   */\n      tag_593\n      jump\t// in\n    tag_909:\n        /* \"#utility.yul\":26632:26634   */\n      0x40\n        /* \"#utility.yul\":26627:26630   */\n      dup3\n        /* \"#utility.yul\":26623:26635   */\n      add\n        /* \"#utility.yul\":26616:26635   */\n      swap1\n      pop\n        /* \"#utility.yul\":26275:26641   */\n      swap2\n      swap1\n      pop\n      jump\t// out\n        /* \"#utility.yul\":26647:27066   */\n    tag_153:\n        /* \"#utility.yul\":26813:26817   */\n      0x00\n        /* \"#utility.yul\":26851:26853   */\n      0x20\n        /* \"#utility.yul\":26840:26849   */\n      dup3\n        /* \"#utility.yul\":26836:26854   */\n      add\n        /* \"#utility.yul\":26828:26854   */\n      swap1\n      pop\n        /* \"#utility.yul\":26900:26909   */\n      dup2\n        /* \"#utility.yul\":26894:26898   */\n      dup2\n        /* \"#utility.yul\":26890:26910   */\n      sub\n        /* \"#utility.yul\":26886:26887   */\n      0x00\n        /* \"#utility.yul\":26875:26884   */\n      dup4\n        /* \"#utility.yul\":26871:26888   */\n      add\n        /* \"#utility.yul\":26864:26911   */\n      mstore\n        /* \"#utility.yul\":26928:27059   */\n      tag_911\n        /* \"#utility.yul\":27054:27058   */\n      dup2\n        /* \"#utility.yul\":26928:27059   */\n      tag_594\n      jump\t// in\n    tag_911:\n        /* \"#utility.yul\":26920:27059   */\n      swap1\n      pop\n        /* \"#utility.yul\":26647:27066   */\n      swap2\n      swap1\n      pop\n      jump\t// out\n        /* \"#utility.yul\":27072:27213   */\n    tag_595:\n        /* \"#utility.yul\":27121:27125   */\n      0x00\n        /* \"#utility.yul\":27144:27147   */\n      dup2\n        /* \"#utility.yul\":27136:27147   */\n      swap1\n      pop\n        /* \"#utility.yul\":27167:27170   */\n      dup2\n        /* \"#utility.yul\":27164:27165   */\n      0x00\n        /* \"#utility.yul\":27157:27171   */\n      mstore\n        /* \"#utility.yul\":27201:27205   */\n      0x20\n        /* \"#utility.yul\":27198:27199   */\n      0x00\n        /* \"#utility.yul\":27188:27206   */\n      keccak256\n        /* \"#utility.yul\":27180:27206   */\n      swap1\n      pop\n        /* \"#utility.yul\":27072:27213   */\n      swap2\n      swap1\n      pop\n      jump\t// out\n        /* \"#utility.yul\":27219:27312   */\n    tag_596:\n        /* \"#utility.yul\":27256:27262   */\n      0x00\n        /* \"#utility.yul\":27303:27305   */\n      0x20\n        /* \"#utility.yul\":27298:27300   */\n      0x1f\n        /* \"#utility.yul\":27291:27296   */\n      dup4\n        /* \"#utility.yul\":27287:27301   */\n      add\n        /* \"#utility.yul\":27283:27306   */\n      div\n        /* \"#utility.yul\":27273:27306   */\n      swap1\n      pop\n        /* \"#utility.yul\":27219:27312   */\n      swap2\n      swap1\n      pop\n      jump\t// out\n        /* \"#utility.yul\":27318:27425   */\n    tag_597:\n        /* \"#utility.yul\":27362:27370   */\n      0x00\n        /* \"#utility.yul\":27412:27417   */\n      dup3\n        /* \"#utility.yul\":27406:27410   */\n      dup3\n        /* \"#utility.yul\":27402:27418   */\n      shl\n        /* \"#utility.yul\":27381:27418   */\n      swap1\n      pop\n        /* \"#utility.yul\":27318:27425   */\n      swap3\n      swap2\n      pop\n      pop\n      jump\t// out\n        /* \"#utility.yul\":27431:27824   */\n    tag_598:\n        /* \"#utility.yul\":27500:27506   */\n      0x00\n        /* \"#utility.yul\":27550:27551   */\n      0x08\n        /* \"#utility.yul\":27538:27548   */\n      dup4\n        /* \"#utility.yul\":27534:27552   */\n      mul\n        /* \"#utility.yul\":27573:27670   */\n      tag_916\n        /* \"#utility.yul\":27603:27669   */\n      0xffffffffffffffffffffffffffffffffffffffffffffffffffffffffffffffff\n        /* \"#utility.yul\":27592:27601   */\n      dup3\n        /* \"#utility.yul\":27573:27670   */\n      tag_597\n      jump\t// in\n    tag_916:\n        /* \"#utility.yul\":27691:27730   */\n      tag_917\n        /* \"#utility.yul\":27721:27729   */\n      dup7\n        /* \"#utility.yul\":27710:27719   */\n      dup4\n        /* \"#utility.yul\":27691:27730   */\n      tag_597\n      jump\t// in\n    tag_917:\n        /* \"#utility.yul\":27679:27730   */\n      swap6\n      pop\n        /* \"#utility.yul\":27763:27767   */\n      dup1\n        /* \"#utility.yul\":27759:27768   */\n      not\n        /* \"#utility.yul\":27752:27757   */\n      dup5\n        /* \"#utility.yul\":27748:27769   */\n      and\n        /* \"#utility.yul\":27739:27769   */\n      swap4\n      pop\n        /* \"#utility.yul\":27812:27816   */\n      dup1\n        /* \"#utility.yul\":27802:27810   */\n      dup7\n        /* \"#utility.yul\":27798:27817   */\n      and\n        /* \"#utility.yul\":27791:27796   */\n      dup5\n        /* \"#utility.yul\":27788:27818   */\n      or\n        /* \"#utility.yul\":27778:27818   */\n      swap3\n      pop\n        /* \"#utility.yul\":27507:27824   */\n      pop\n      pop\n        /* \"#utility.yul\":27431:27824   */\n      swap4\n      swap3\n      pop\n      pop\n      pop\n      jump\t// out\n        /* \"#utility.yul\":27830:27890   */\n    tag_599:\n        /* \"#utility.yul\":27858:27861   */\n      0x00\n        /* \"#utility.yul\":27879:27884   */\n      dup2\n        /* \"#utility.yul\":27872:27884   */\n      swap1\n      pop\n        /* \"#utility.yul\":27830:27890   */\n      swap2\n      swap1\n      pop\n      jump\t// out\n        /* \"#utility.yul\":27896:28038   */\n    tag_600:\n        /* \"#utility.yul\":27946:27955   */\n      0x00\n        /* \"#utility.yul\":27979:28032   */\n      tag_920\n        /* \"#utility.yul\":27997:28031   */\n      tag_921\n        /* \"#utility.yul\":28006:28030   */\n      tag_922\n        /* \"#utility.yul\":28024:28029   */\n      dup5\n        /* \"#utility.yul\":28006:28030   */\n      tag_577\n      jump\t// in\n    tag_922:\n        /* \"#utility.yul\":27997:28031   */\n      tag_599\n      jump\t// in\n    tag_921:\n        /* \"#utility.yul\":27979:28032   */\n      tag_577\n      jump\t// in\n    tag_920:\n        /* \"#utility.yul\":27966:28032   */\n      swap1\n      pop\n        /* \"#utility.yul\":27896:28038   */\n      swap2\n      swap1\n      pop\n      jump\t// out\n        /* \"#utility.yul\":28044:28119   */\n    tag_601:\n        /* \"#utility.yul\":28087:28090   */\n      0x00\n        /* \"#utility.yul\":28108:28113   */\n      dup2\n        /* \"#utility.yul\":28101:28113   */\n      swap1\n      pop\n        /* \"#utility.yul\":28044:28119   */\n      swap2\n      swap1\n      pop\n      jump\t// out\n        /* \"#utility.yul\":28125:28394   */\n    tag_602:\n        /* \"#utility.yul\":28235:28274   */\n      tag_925\n        /* \"#utility.yul\":28266:28273   */\n      dup4\n        /* \"#utility.yul\":28235:28274   */\n      tag_600\n      jump\t// in\n    tag_925:\n        /* \"#utility.yul\":28296:28387   */\n      tag_926\n        /* \"#utility.yul\":28345:28386   */\n      tag_927\n        /* \"#utility.yul\":28369:28385   */\n      dup3\n        /* \"#utility.yul\":28345:28386   */\n      tag_601\n      jump\t// in\n    tag_927:\n        /* \"#utility.yul\":28337:28343   */\n      dup5\n        /* \"#utility.yul\":28330:28334   */\n      dup5\n        /* \"#utility.yul\":28324:28335   */\n      sload\n        /* \"#utility.yul\":28296:28387   */\n      tag_598\n      jump\t// in\n    tag_926:\n        /* \"#utility.yul\":28290:28294   */\n      dup3\n        /* \"#utility.yul\":28283:28388   */\n      sstore\n        /* \"#utility.yul\":28201:28394   */\n      pop\n        /* \"#utility.yul\":28125:28394   */\n      pop\n      pop\n      pop\n      jump\t// out\n        /* \"#utility.yul\":28400:28473   */\n    tag_603:\n        /* \"#utility.yul\":28445:28448   */\n      0x00\n        /* \"#utility.yul\":28466:28467   */\n      0x00\n        /* \"#utility.yul\":28459:28467   */\n      swap1\n      pop\n        /* \"#utility.yul\":28400:28473   */\n      swap1\n      jump\t// out\n        /* \"#utility.yul\":28479:28668   */\n    tag_604:\n        /* \"#utility.yul\":28556:28588   */\n      tag_930\n      tag_603\n      jump\t// in\n    tag_930:\n        /* \"#utility.yul\":28597:28662   */\n      tag_931\n        /* \"#utility.yul\":28655:28661   */\n      dup2\n        /* \"#utility.yul\":28647:28653   */\n      dup5\n        /* \"#utility.yul\":28641:28645   */\n      dup5\n        /* \"#utility.yul\":28597:28662   */\n      tag_602\n      jump\t// in\n    tag_931:\n        /* \"#utility.yul\":28532:28668   */\n      pop\n        /* \"#utility.yul\":28479:28668   */\n      pop\n      pop\n      jump\t// out\n        /* \"#utility.yul\":28674:28860   */\n    tag_605:\n        /* \"#utility.yul\":28734:28854   */\n    tag_933:\n        /* \"#utility.yul\":28751:28754   */\n      dup2\n        /* \"#utility.yul\":28744:28749   */\n      dup2\n        /* \"#utility.yul\":28741:28755   */\n      lt\n        /* \"#utility.yul\":28734:28854   */\n      iszero\n      tag_935\n      jumpi\n        /* \"#utility.yul\":28805:28844   */\n      tag_936\n        /* \"#utility.yul\":28842:28843   */\n      0x00\n        /* \"#utility.yul\":28835:28840   */\n      dup3\n        /* \"#utility.yul\":28805:28844   */\n      tag_604\n      jump\t// in\n    tag_936:\n        /* \"#utility.yul\":28778:28779   */\n      0x01\n        /* \"#utility.yul\":28771:28776   */\n      dup2\n        /* \"#utility.yul\":28767:28780   */\n      add\n        /* \"#utility.yul\":28758:28780   */\n      swap1\n      pop\n        /* \"#utility.yul\":28734:28854   */\n      jump(tag_933)\n    tag_935:\n        /* \"#utility.yul\":28674:28860   */\n      pop\n      pop\n      jump\t// out\n        /* \"#utility.yul\":28866:29409   */\n    tag_606:\n        /* \"#utility.yul\":28967:28969   */\n      0x1f\n        /* \"#utility.yul\":28962:28965   */\n      dup3\n        /* \"#utility.yul\":28959:28970   */\n      gt\n        /* \"#utility.yul\":28956:29402   */\n      iszero\n      tag_938\n      jumpi\n        /* \"#utility.yul\":29001:29039   */\n      tag_939\n        /* \"#utility.yul\":29033:29038   */\n      dup2\n        /* \"#utility.yul\":29001:29039   */\n      tag_595\n      jump\t// in\n    tag_939:\n        /* \"#utility.yul\":29085:29114   */\n      tag_940\n        /* \"#utility.yul\":29103:29113   */\n      dup5\n        /* \"#utility.yul\":29085:29114   */\n      tag_596\n      jump\t// in\n    tag_940:\n        /* \"#utility.yul\":29075:29083   */\n      dup2\n        /* \"#utility.yul\":29071:29115   */\n      add\n        /* \"#utility.yul\":29268:29270   */\n      0x20\n        /* \"#utility.yul\":29256:29266   */\n      dup6\n        /* \"#utility.yul\":29253:29271   */\n      lt\n        /* \"#utility.yul\":29250:29299   */\n      iszero\n      tag_941\n      jumpi\n        /* \"#utility.yul\":29289:29297   */\n      dup2\n        /* \"#utility.yul\":29274:29297   */\n      swap1\n      pop\n        /* \"#utility.yul\":29250:29299   */\n    tag_941:\n        /* \"#utility.yul\":29312:29392   */\n      tag_942\n        /* \"#utility.yul\":29368:29390   */\n      tag_943\n        /* \"#utility.yul\":29386:29389   */\n      dup6\n        /* \"#utility.yul\":29368:29390   */\n      tag_596\n      jump\t// in\n    tag_943:\n        /* \"#utility.yul\":29358:29366   */\n      dup4\n        /* \"#utility.yul\":29354:29391   */\n      add\n        /* \"#utility.yul\":29341:29352   */\n      dup3\n        /* \"#utility.yul\":29312:29392   */\n      tag_605\n      jump\t// in\n    tag_942:\n        /* \"#utility.yul\":28971:29402   */\n      pop\n      pop\n        /* \"#utility.yul\":28956:29402   */\n    tag_938:\n        /* \"#utility.yul\":28866:29409   */\n      pop\n      pop\n      pop\n      jump\t// out\n        /* \"#utility.yul\":29415:29532   */\n    tag_607:\n        /* \"#utility.yul\":29469:29477   */\n      0x00\n        /* \"#utility.yul\":29519:29524   */\n      dup3\n        /* \"#utility.yul\":29513:29517   */\n      dup3\n        /* \"#utility.yul\":29509:29525   */\n      shr\n        /* \"#utility.yul\":29488:29525   */\n      swap1\n      pop\n        /* \"#utility.yul\":29415:29532   */\n      swap3\n      swap2\n      pop\n      pop\n      jump\t// out\n        /* \"#utility.yul\":29538:29707   */\n    tag_608:\n        /* \"#utility.yul\":29582:29588   */\n      0x00\n        /* \"#utility.yul\":29615:29666   */\n      tag_946\n        /* \"#utility.yul\":29663:29664   */\n      0x00\n        /* \"#utility.yul\":29659:29665   */\n      not\n        /* \"#utility.yul\":29651:29656   */\n      dup5\n        /* \"#utility.yul\":29648:29649   */\n      0x08\n        /* \"#utility.yul\":29644:29657   */\n      mul\n        /* \"#utility.yul\":29615:29666   */\n      tag_607\n      jump\t// in\n    tag_946:\n        /* \"#utility.yul\":29611:29667   */\n      not\n        /* \"#utility.yul\":29696:29700   */\n      dup1\n        /* \"#utility.yul\":29690:29694   */\n      dup4\n        /* \"#utility.yul\":29686:29701   */\n      and\n        /* \"#utility.yul\":29676:29701   */\n      swap2\n      pop\n        /* \"#utility.yul\":29589:29707   */\n      pop\n        /* \"#utility.yul\":29538:29707   */\n      swap3\n      swap2\n      pop\n      pop\n      jump\t// out\n        /* \"#utility.yul\":29712:30007   */\n    tag_609:\n        /* \"#utility.yul\":29788:29792   */\n      0x00\n        /* \"#utility.yul\":29934:29963   */\n      tag_948\n        /* \"#utility.yul\":29959:29962   */\n      dup4\n        /* \"#utility.yul\":29953:29957   */\n      dup4\n        /* \"#utility.yul\":29934:29963   */\n      tag_608\n      jump\t// in\n    tag_948:\n        /* \"#utility.yul\":29926:29963   */\n      swap2\n      pop\n        /* \"#utility.yul\":29996:29999   */\n      dup3\n        /* \"#utility.yul\":29993:29994   */\n      0x02\n        /* \"#utility.yul\":29989:30000   */\n      mul\n        /* \"#utility.yul\":29983:29987   */\n      dup3\n        /* \"#utility.yul\":29980:30001   */\n      or\n        /* \"#utility.yul\":29972:30001   */\n      swap1\n      pop\n        /* \"#utility.yul\":29712:30007   */\n      swap3\n      swap2\n      pop\n      pop\n      jump\t// out\n        /* \"#utility.yul\":30012:31407   */\n    tag_157:\n        /* \"#utility.yul\":30129:30166   */\n      tag_950\n        /* \"#utility.yul\":30162:30165   */\n      dup3\n        /* \"#utility.yul\":30129:30166   */\n      tag_540\n      jump\t// in\n    tag_950:\n        /* \"#utility.yul\":30231:30249   */\n      0xffffffffffffffff\n        /* \"#utility.yul\":30223:30229   */\n      dup2\n        /* \"#utility.yul\":30220:30250   */\n      gt\n        /* \"#utility.yul\":30217:30273   */\n      iszero\n      tag_951\n      jumpi\n        /* \"#utility.yul\":30253:30271   */\n      tag_952\n      tag_319\n      jump\t// in\n    tag_952:\n        /* \"#utility.yul\":30217:30273   */\n    tag_951:\n        /* \"#utility.yul\":30297:30335   */\n      tag_953\n        /* \"#utility.yul\":30329:30333   */\n      dup3\n        /* \"#utility.yul\":30323:30334   */\n      sload\n        /* \"#utility.yul\":30297:30335   */\n      tag_108\n      jump\t// in\n    tag_953:\n        /* \"#utility.yul\":30382:30449   */\n      tag_954\n        /* \"#utility.yul\":30442:30448   */\n      dup3\n        /* \"#utility.yul\":30434:30440   */\n      dup3\n        /* \"#utility.yul\":30428:30432   */\n      dup6\n        /* \"#utility.yul\":30382:30449   */\n      tag_606\n      jump\t// in\n    tag_954:\n        /* \"#utility.yul\":30476:30477   */\n      0x00\n        /* \"#utility.yul\":30500:30504   */\n      0x20\n        /* \"#utility.yul\":30487:30504   */\n      swap1\n      pop\n        /* \"#utility.yul\":30532:30534   */\n      0x1f\n        /* \"#utility.yul\":30524:30530   */\n      dup4\n        /* \"#utility.yul\":30521:30535   */\n      gt\n        /* \"#utility.yul\":30549:30550   */\n      0x01\n        /* \"#utility.yul\":30544:31162   */\n      dup2\n      eq\n      tag_956\n      jumpi\n        /* \"#utility.yul\":31206:31207   */\n      0x00\n        /* \"#utility.yul\":31223:31229   */\n      dup5\n        /* \"#utility.yul\":31220:31297   */\n      iszero\n      tag_957\n      jumpi\n        /* \"#utility.yul\":31272:31281   */\n      dup3\n        /* \"#utility.yul\":31267:31270   */\n      dup8\n        /* \"#utility.yul\":31263:31282   */\n      add\n        /* \"#utility.yul\":31257:31283   */\n      mload\n        /* \"#utility.yul\":31248:31283   */\n      swap1\n      pop\n        /* \"#utility.yul\":31220:31297   */\n    tag_957:\n        /* \"#utility.yul\":31323:31390   */\n      tag_958\n        /* \"#utility.yul\":31383:31389   */\n      dup6\n        /* \"#utility.yul\":31376:31381   */\n      dup3\n        /* \"#utility.yul\":31323:31390   */\n      tag_609\n      jump\t// in\n    tag_958:\n        /* \"#utility.yul\":31317:31321   */\n      dup7\n        /* \"#utility.yul\":31310:31391   */\n      sstore\n        /* \"#utility.yul\":31179:31401   */\n      pop\n        /* \"#utility.yul\":30514:31401   */\n      jump(tag_955)\n        /* \"#utility.yul\":30544:31162   */\n    tag_956:\n        /* \"#utility.yul\":30596:30600   */\n      0x1f\n        /* \"#utility.yul\":30592:30601   */\n      not\n        /* \"#utility.yul\":30584:30590   */\n      dup5\n        /* \"#utility.yul\":30580:30602   */\n      and\n        /* \"#utility.yul\":30630:30667   */\n      tag_959\n        /* \"#utility.yul\":30662:30666   */\n      dup7\n        /* \"#utility.yul\":30630:30667   */\n      tag_595\n      jump\t// in\n    tag_959:\n        /* \"#utility.yul\":30689:30690   */\n      0x00\n        /* \"#utility.yul\":30703:30911   */\n    tag_960:\n        /* \"#utility.yul\":30717:30724   */\n      dup3\n        /* \"#utility.yul\":30714:30715   */\n      dup2\n        /* \"#utility.yul\":30711:30725   */\n      lt\n        /* \"#utility.yul\":30703:30911   */\n      iszero\n      tag_962\n      jumpi\n        /* \"#utility.yul\":30796:30805   */\n      dup5\n        /* \"#utility.yul\":30791:30794   */\n      dup10\n        /* \"#utility.yul\":30787:30806   */\n      add\n        /* \"#utility.yul\":30781:30807   */\n      mload\n        /* \"#utility.yul\":30773:30779   */\n      dup3\n        /* \"#utility.yul\":30766:30808   */\n      sstore\n        /* \"#utility.yul\":30847:30848   */\n      0x01\n        /* \"#utility.yul\":30839:30845   */\n      dup3\n        /* \"#utility.yul\":30835:30849   */\n      add\n        /* \"#utility.yul\":30825:30849   */\n      swap2\n      pop\n        /* \"#utility.yul\":30894:30896   */\n      0x20\n        /* \"#utility.yul\":30883:30892   */\n      dup6\n        /* \"#utility.yul\":30879:30897   */\n      add\n        /* \"#utility.yul\":30866:30897   */\n      swap5\n      pop\n        /* \"#utility.yul\":30740:30744   */\n      0x20\n        /* \"#utility.yul\":30737:30738   */\n      dup2\n        /* \"#utility.yul\":30733:30745   */\n      add\n        /* \"#utility.yul\":30728:30745   */\n      swap1\n      pop\n        /* \"#utility.yul\":30703:30911   */\n      jump(tag_960)\n    tag_962:\n        /* \"#utility.yul\":30939:30945   */\n      dup7\n        /* \"#utility.yul\":30930:30937   */\n      dup4\n        /* \"#utility.yul\":30927:30946   */\n      lt\n        /* \"#utility.yul\":30924:31103   */\n      iszero\n      tag_963\n      jumpi\n        /* \"#utility.yul\":30997:31006   */\n      dup5\n        /* \"#utility.yul\":30992:30995   */\n      dup10\n        /* \"#utility.yul\":30988:31007   */\n      add\n        /* \"#utility.yul\":30982:31008   */\n      mload\n        /* \"#utility.yul\":31040:31088   */\n      tag_964\n        /* \"#utility.yul\":31082:31086   */\n      0x1f\n        /* \"#utility.yul\":31074:31080   */\n      dup10\n        /* \"#utility.yul\":31070:31087   */\n      and\n        /* \"#utility.yul\":31059:31068   */\n      dup3\n        /* \"#utility.yul\":31040:31088   */\n      tag_608\n      jump\t// in\n    tag_964:\n        /* \"#utility.yul\":31032:31038   */\n      dup4\n        /* \"#utility.yul\":31025:31089   */\n      sstore\n        /* \"#utility.yul\":30947:31103   */\n      pop\n        /* \"#utility.yul\":30924:31103   */\n    tag_963:\n        /* \"#utility.yul\":31149:31150   */\n      0x01\n        /* \"#utility.yul\":31145:31146   */\n      0x02\n        /* \"#utility.yul\":31137:31143   */\n      dup9\n        /* \"#utility.yul\":31133:31147   */\n      mul\n        /* \"#utility.yul\":31129:31151   */\n      add\n        /* \"#utility.yul\":31123:31127   */\n      dup9\n        /* \"#utility.yul\":31116:31152   */\n      sstore\n        /* \"#utility.yul\":30551:31162   */\n      pop\n      pop\n      pop\n        /* \"#utility.yul\":30514:31401   */\n    tag_955:\n      pop\n        /* \"#utility.yul\":30104:31407   */\n      pop\n      pop\n      pop\n        /* \"#utility.yul\":30012:31407   */\n      pop\n      pop\n      jump\t// out\n        /* \"#utility.yul\":31413:31832   */\n    tag_160:\n        /* \"#utility.yul\":31552:31556   */\n      0x00\n        /* \"#utility.yul\":31590:31592   */\n      0x40\n        /* \"#utility.yul\":31579:31588   */\n      dup3\n        /* \"#utility.yul\":31575:31593   */\n      add\n        /* \"#utility.yul\":31567:31593   */\n      swap1\n      pop\n        /* \"#utility.yul\":31603:31672   */\n      tag_966\n        /* \"#utility.yul\":31669:31670   */\n      0x00\n        /* \"#utility.yul\":31658:31667   */\n      dup4\n        /* \"#utility.yul\":31654:31671   */\n      add\n        /* \"#utility.yul\":31645:31651   */\n      dup6\n        /* \"#utility.yul\":31603:31672   */\n      tag_587\n      jump\t// in\n    tag_966:\n        /* \"#utility.yul\":31719:31728   */\n      dup2\n        /* \"#utility.yul\":31713:31717   */\n      dup2\n        /* \"#utility.yul\":31709:31729   */\n      sub\n        /* \"#utility.yul\":31704:31706   */\n      0x20\n        /* \"#utility.yul\":31693:31702   */\n      dup4\n        /* \"#utility.yul\":31689:31707   */\n      add\n        /* \"#utility.yul\":31682:31730   */\n      mstore\n        /* \"#utility.yul\":31747:31825   */\n      tag_967\n        /* \"#utility.yul\":31820:31824   */\n      dup2\n        /* \"#utility.yul\":31811:31817   */\n      dup5\n        /* \"#utility.yul\":31747:31825   */\n      tag_548\n      jump\t// in\n    tag_967:\n        /* \"#utility.yul\":31739:31825   */\n      swap1\n      pop\n        /* \"#utility.yul\":31413:31832   */\n      swap4\n      swap3\n      pop\n      pop\n      pop\n      jump\t// out\n        /* \"#utility.yul\":31838:32073   */\n    tag_610:\n        /* \"#utility.yul\":31978:32012   */\n      0x496e76616c6964207374616765207472616e736974696f6e20286d7573742070\n        /* \"#utility.yul\":31974:31975   */\n      0x00\n        /* \"#utility.yul\":31966:31972   */\n      dup3\n        /* \"#utility.yul\":31962:31976   */\n      add\n        /* \"#utility.yul\":31955:32013   */\n      mstore\n        /* \"#utility.yul\":32047:32065   */\n      0x726f677265737320666f72776172642900000000000000000000000000000000\n        /* \"#utility.yul\":32042:32044   */\n      0x20\n        /* \"#utility.yul\":32034:32040   */\n      dup3\n        /* \"#utility.yul\":32030:32045   */\n      add\n        /* \"#utility.yul\":32023:32066   */\n      mstore\n        /* \"#utility.yul\":31838:32073   */\n      pop\n      jump\t// out\n        /* \"#utility.yul\":32079:32445   */\n    tag_611:\n        /* \"#utility.yul\":32221:32224   */\n      0x00\n        /* \"#utility.yul\":32242:32309   */\n      tag_970\n        /* \"#utility.yul\":32306:32308   */\n      0x30\n        /* \"#utility.yul\":32301:32304   */\n      dup4\n        /* \"#utility.yul\":32242:32309   */\n      tag_547\n      jump\t// in\n    tag_970:\n        /* \"#utility.yul\":32235:32309   */\n      swap2\n      pop\n        /* \"#utility.yul\":32318:32411   */\n      tag_971\n        /* \"#utility.yul\":32407:32410   */\n      dup3\n        /* \"#utility.yul\":32318:32411   */\n      tag_610\n      jump\t// in\n    tag_971:\n        /* \"#utility.yul\":32436:32438   */\n      0x40\n        /* \"#utility.yul\":32431:32434   */\n      dup3\n        /* \"#utility.yul\":32427:32439   */\n      add\n        /* \"#utility.yul\":32420:32439   */\n      swap1\n      pop\n        /* \"#utility.yul\":32079:32445   */\n      swap2\n      swap1\n      pop\n      jump\t// out\n        /* \"#utility.yul\":32451:32870   */\n    tag_180:\n        /* \"#utility.yul\":32617:32621   */\n      0x00\n        /* \"#utility.yul\":32655:32657   */\n      0x20\n        /* \"#utility.yul\":32644:32653   */\n      dup3\n        /* \"#utility.yul\":32640:32658   */\n      add\n        /* \"#utility.yul\":32632:32658   */\n      swap1\n      pop\n        /* \"#utility.yul\":32704:32713   */\n      dup2\n        /* \"#utility.yul\":32698:32702   */\n      dup2\n        /* \"#utility.yul\":32694:32714   */\n      sub\n        /* \"#utility.yul\":32690:32691   */\n      0x00\n        /* \"#utility.yul\":32679:32688   */\n      dup4\n        /* \"#utility.yul\":32675:32692   */\n      add\n        /* \"#utility.yul\":32668:32715   */\n      mstore\n        /* \"#utility.yul\":32732:32863   */\n      tag_973\n        /* \"#utility.yul\":32858:32862   */\n      dup2\n        /* \"#utility.yul\":32732:32863   */\n      tag_611\n      jump\t// in\n    tag_973:\n        /* \"#utility.yul\":32724:32863   */\n      swap1\n      pop\n        /* \"#utility.yul\":32451:32870   */\n      swap2\n      swap1\n      pop\n      jump\t// out\n        /* \"#utility.yul\":32876:33040   */\n    tag_612:\n        /* \"#utility.yul\":33016:33032   */\n      0x4d7573742062652056656e646f72000000000000000000000000000000000000\n        /* \"#utility.yul\":33012:33013   */\n      0x00\n        /* \"#utility.yul\":33004:33010   */\n      dup3\n        /* \"#utility.yul\":33000:33014   */\n      add\n        /* \"#utility.yul\":32993:33033   */\n      mstore\n        /* \"#utility.yul\":32876:33040   */\n      pop\n      jump\t// out\n        /* \"#utility.yul\":33046:33412   */\n    tag_613:\n        /* \"#utility.yul\":33188:33191   */\n      0x00\n        /* \"#utility.yul\":33209:33276   */\n      tag_976\n        /* \"#utility.yul\":33273:33275   */\n      0x0e\n        /* \"#utility.yul\":33268:33271   */\n      dup4\n        /* \"#utility.yul\":33209:33276   */\n      tag_547\n      jump\t// in\n    tag_976:\n        /* \"#utility.yul\":33202:33276   */\n      swap2\n      pop\n        /* \"#utility.yul\":33285:33378   */\n      tag_977\n        /* \"#utility.yul\":33374:33377   */\n      dup3\n        /* \"#utility.yul\":33285:33378   */\n      tag_612\n      jump\t// in\n    tag_977:\n        /* \"#utility.yul\":33403:33405   */\n      0x20\n        /* \"#utility.yul\":33398:33401   */\n      dup3\n        /* \"#utility.yul\":33394:33406   */\n      add\n        /* \"#utility.yul\":33387:33406   */\n      swap1\n      pop\n        /* \"#utility.yul\":33046:33412   */\n      swap2\n      swap1\n      pop\n      jump\t// out\n        /* \"#utility.yul\":33418:33837   */\n    tag_192:\n        /* \"#utility.yul\":33584:33588   */\n      0x00\n        /* \"#utility.yul\":33622:33624   */\n      0x20\n        /* \"#utility.yul\":33611:33620   */\n      dup3\n        /* \"#utility.yul\":33607:33625   */\n      add\n        /* \"#utility.yul\":33599:33625   */\n      swap1\n      pop\n        /* \"#utility.yul\":33671:33680   */\n      dup2\n        /* \"#utility.yul\":33665:33669   */\n      dup2\n        /* \"#utility.yul\":33661:33681   */\n      sub\n        /* \"#utility.yul\":33657:33658   */\n      0x00\n        /* \"#utility.yul\":33646:33655   */\n      dup4\n        /* \"#utility.yul\":33642:33659   */\n      add\n        /* \"#utility.yul\":33635:33682   */\n      mstore\n        /* \"#utility.yul\":33699:33830   */\n      tag_979\n        /* \"#utility.yul\":33825:33829   */\n      dup2\n        /* \"#utility.yul\":33699:33830   */\n      tag_613\n      jump\t// in\n    tag_979:\n        /* \"#utility.yul\":33691:33830   */\n      swap1\n      pop\n        /* \"#utility.yul\":33418:33837   */\n      swap2\n      swap1\n      pop\n      jump\t// out\n        /* \"#utility.yul\":33843:34013   */\n    tag_614:\n        /* \"#utility.yul\":33983:34005   */\n      0x4d757374206265204d616e756661637475726572000000000000000000000000\n        /* \"#utility.yul\":33979:33980   */\n      0x00\n        /* \"#utility.yul\":33971:33977   */\n      dup3\n        /* \"#utility.yul\":33967:33981   */\n      add\n        /* \"#utility.yul\":33960:34006   */\n      mstore\n        /* \"#utility.yul\":33843:34013   */\n      pop\n      jump\t// out\n        /* \"#utility.yul\":34019:34385   */\n    tag_615:\n        /* \"#utility.yul\":34161:34164   */\n      0x00\n        /* \"#utility.yul\":34182:34249   */\n      tag_982\n        /* \"#utility.yul\":34246:34248   */\n      0x14\n        /* \"#utility.yul\":34241:34244   */\n      dup4\n        /* \"#utility.yul\":34182:34249   */\n      tag_547\n      jump\t// in\n    tag_982:\n        /* \"#utility.yul\":34175:34249   */\n      swap2\n      pop\n        /* \"#utility.yul\":34258:34351   */\n      tag_983\n        /* \"#utility.yul\":34347:34350   */\n      dup3\n        /* \"#utility.yul\":34258:34351   */\n      tag_614\n      jump\t// in\n    tag_983:\n        /* \"#utility.yul\":34376:34378   */\n      0x20\n        /* \"#utility.yul\":34371:34374   */\n      dup3\n        /* \"#utility.yul\":34367:34379   */\n      add\n        /* \"#utility.yul\":34360:34379   */\n      swap1\n      pop\n        /* \"#utility.yul\":34019:34385   */\n      swap2\n      swap1\n      pop\n      jump\t// out\n        /* \"#utility.yul\":34391:34810   */\n    tag_205:\n        /* \"#utility.yul\":34557:34561   */\n      0x00\n        /* \"#utility.yul\":34595:34597   */\n      0x20\n        /* \"#utility.yul\":34584:34593   */\n      dup3\n        /* \"#utility.yul\":34580:34598   */\n      add\n        /* \"#utility.yul\":34572:34598   */\n      swap1\n      pop\n        /* \"#utility.yul\":34644:34653   */\n      dup2\n        /* \"#utility.yul\":34638:34642   */\n      dup2\n        /* \"#utility.yul\":34634:34654   */\n      sub\n        /* \"#utility.yul\":34630:34631   */\n      0x00\n        /* \"#utility.yul\":34619:34628   */\n      dup4\n        /* \"#utility.yul\":34615:34632   */\n      add\n        /* \"#utility.yul\":34608:34655   */\n      mstore\n        /* \"#utility.yul\":34672:34803   */\n      tag_985\n        /* \"#utility.yul\":34798:34802   */\n      dup2\n        /* \"#utility.yul\":34672:34803   */\n      tag_615\n      jump\t// in\n    tag_985:\n        /* \"#utility.yul\":34664:34803   */\n      swap1\n      pop\n        /* \"#utility.yul\":34391:34810   */\n      swap2\n      swap1\n      pop\n      jump\t// out\n        /* \"#utility.yul\":34816:34983   */\n    tag_616:\n        /* \"#utility.yul\":34956:34975   */\n      0x4d757374206265204c6f67697374696373000000000000000000000000000000\n        /* \"#utility.yul\":34952:34953   */\n      0x00\n        /* \"#utility.yul\":34944:34950   */\n      dup3\n        /* \"#utility.yul\":34940:34954   */\n      add\n        /* \"#utility.yul\":34933:34976   */\n      mstore\n        /* \"#utility.yul\":34816:34983   */\n      pop\n      jump\t// out\n        /* \"#utility.yul\":34989:35355   */\n    tag_617:\n        /* \"#utility.yul\":35131:35134   */\n      0x00\n        /* \"#utility.yul\":35152:35219   */\n      tag_988\n        /* \"#utility.yul\":35216:35218   */\n      0x11\n        /* \"#utility.yul\":35211:35214   */\n      dup4\n        /* \"#utility.yul\":35152:35219   */\n      tag_547\n      jump\t// in\n    tag_988:\n        /* \"#utility.yul\":35145:35219   */\n      swap2\n      pop\n        /* \"#utility.yul\":35228:35321   */\n      tag_989\n        /* \"#utility.yul\":35317:35320   */\n      dup3\n        /* \"#utility.yul\":35228:35321   */\n      tag_616\n      jump\t// in\n    tag_989:\n        /* \"#utility.yul\":35346:35348   */\n      0x20\n        /* \"#utility.yul\":35341:35344   */\n      dup3\n        /* \"#utility.yul\":35337:35349   */\n      add\n        /* \"#utility.yul\":35330:35349   */\n      swap1\n      pop\n        /* \"#utility.yul\":34989:35355   */\n      swap2\n      swap1\n      pop\n      jump\t// out\n        /* \"#utility.yul\":35361:35780   */\n    tag_218:\n        /* \"#utility.yul\":35527:35531   */\n      0x00\n        /* \"#utility.yul\":35565:35567   */\n      0x20\n        /* \"#utility.yul\":35554:35563   */\n      dup3\n        /* \"#utility.yul\":35550:35568   */\n      add\n        /* \"#utility.yul\":35542:35568   */\n      swap1\n      pop\n        /* \"#utility.yul\":35614:35623   */\n      dup2\n        /* \"#utility.yul\":35608:35612   */\n      dup2\n        /* \"#utility.yul\":35604:35624   */\n      sub\n        /* \"#utility.yul\":35600:35601   */\n      0x00\n        /* \"#utility.yul\":35589:35598   */\n      dup4\n        /* \"#utility.yul\":35585:35602   */\n      add\n        /* \"#utility.yul\":35578:35625   */\n      mstore\n        /* \"#utility.yul\":35642:35773   */\n      tag_991\n        /* \"#utility.yul\":35768:35772   */\n      dup2\n        /* \"#utility.yul\":35642:35773   */\n      tag_617\n      jump\t// in\n    tag_991:\n        /* \"#utility.yul\":35634:35773   */\n      swap1\n      pop\n        /* \"#utility.yul\":35361:35780   */\n      swap2\n      swap1\n      pop\n      jump\t// out\n        /* \"#utility.yul\":35786:35952   */\n    tag_618:\n        /* \"#utility.yul\":35926:35944   */\n      0x4d7573742062652052657461696c657200000000000000000000000000000000\n        /* \"#utility.yul\":35922:35923   */\n      0x00\n        /* \"#utility.yul\":35914:35920   */\n      dup3\n        /* \"#utility.yul\":35910:35924   */\n      add\n        /* \"#utility.yul\":35903:35945   */\n      mstore\n        /* \"#utility.yul\":35786:35952   */\n      pop\n      jump\t// out\n        /* \"#utility.yul\":35958:36324   */\n    tag_619:\n        /* \"#utility.yul\":36100:36103   */\n      0x00\n        /* \"#utility.yul\":36121:36188   */\n      tag_994\n        /* \"#utility.yul\":36185:36187   */\n      0x10\n        /* \"#utility.yul\":36180:36183   */\n      dup4\n        /* \"#utility.yul\":36121:36188   */\n      tag_547\n      jump\t// in\n    tag_994:\n        /* \"#utility.yul\":36114:36188   */\n      swap2\n      pop\n        /* \"#utility.yul\":36197:36290   */\n      tag_995\n        /* \"#utility.yul\":36286:36289   */\n      dup3\n        /* \"#utility.yul\":36197:36290   */\n      tag_618\n      jump\t// in\n    tag_995:\n        /* \"#utility.yul\":36315:36317   */\n      0x20\n        /* \"#utility.yul\":36310:36313   */\n      dup3\n        /* \"#utility.yul\":36306:36318   */\n      add\n        /* \"#utility.yul\":36299:36318   */\n      swap1\n      pop\n        /* \"#utility.yul\":35958:36324   */\n      swap2\n      swap1\n      pop\n      jump\t// out\n        /* \"#utility.yul\":36330:36749   */\n    tag_231:\n        /* \"#utility.yul\":36496:36500   */\n      0x00\n        /* \"#utility.yul\":36534:36536   */\n      0x20\n        /* \"#utility.yul\":36523:36532   */\n      dup3\n        /* \"#utility.yul\":36519:36537   */\n      add\n        /* \"#utility.yul\":36511:36537   */\n      swap1\n      pop\n        /* \"#utility.yul\":36583:36592   */\n      dup2\n        /* \"#utility.yul\":36577:36581   */\n      dup2\n        /* \"#utility.yul\":36573:36593   */\n      sub\n        /* \"#utility.yul\":36569:36570   */\n      0x00\n        /* \"#utility.yul\":36558:36567   */\n      dup4\n        /* \"#utility.yul\":36554:36571   */\n      add\n        /* \"#utility.yul\":36547:36594   */\n      mstore\n        /* \"#utility.yul\":36611:36742   */\n      tag_997\n        /* \"#utility.yul\":36737:36741   */\n      dup2\n        /* \"#utility.yul\":36611:36742   */\n      tag_619\n      jump\t// in\n    tag_997:\n        /* \"#utility.yul\":36603:36742   */\n      swap1\n      pop\n        /* \"#utility.yul\":36330:36749   */\n      swap2\n      swap1\n      pop\n      jump\t// out\n        /* \"#utility.yul\":36755:36979   */\n    tag_620:\n        /* \"#utility.yul\":36895:36929   */\n      0x4d757374206265206f776e6572206f722072657461696c657220746f20636f6d\n        /* \"#utility.yul\":36891:36892   */\n      0x00\n        /* \"#utility.yul\":36883:36889   */\n      dup3\n        /* \"#utility.yul\":36879:36893   */\n      add\n        /* \"#utility.yul\":36872:36930   */\n      mstore\n        /* \"#utility.yul\":36964:36971   */\n      0x706c657465000000000000000000000000000000000000000000000000000000\n        /* \"#utility.yul\":36959:36961   */\n      0x20\n        /* \"#utility.yul\":36951:36957   */\n      dup3\n        /* \"#utility.yul\":36947:36962   */\n      add\n        /* \"#utility.yul\":36940:36972   */\n      mstore\n        /* \"#utility.yul\":36755:36979   */\n      pop\n      jump\t// out\n        /* \"#utility.yul\":36985:37351   */\n    tag_621:\n        /* \"#utility.yul\":37127:37130   */\n      0x00\n        /* \"#utility.yul\":37148:37215   */\n      tag_1000\n        /* \"#utility.yul\":37212:37214   */\n      0x25\n        /* \"#utility.yul\":37207:37210   */\n      dup4\n        /* \"#utility.yul\":37148:37215   */\n      tag_547\n      jump\t// in\n    tag_1000:\n        /* \"#utility.yul\":37141:37215   */\n      swap2\n      pop\n        /* \"#utility.yul\":37224:37317   */\n      tag_1001\n        /* \"#utility.yul\":37313:37316   */\n      dup3\n        /* \"#utility.yul\":37224:37317   */\n      tag_620\n      jump\t// in\n    tag_1001:\n        /* \"#utility.yul\":37342:37344   */\n      0x40\n        /* \"#utility.yul\":37337:37340   */\n      dup3\n        /* \"#utility.yul\":37333:37345   */\n      add\n        /* \"#utility.yul\":37326:37345   */\n      swap1\n      pop\n        /* \"#utility.yul\":36985:37351   */\n      swap2\n      swap1\n      pop\n      jump\t// out\n        /* \"#utility.yul\":37357:37776   */\n    tag_245:\n        /* \"#utility.yul\":37523:37527   */\n      0x00\n        /* \"#utility.yul\":37561:37563   */\n      0x20\n        /* \"#utility.yul\":37550:37559   */\n      dup3\n        /* \"#utility.yul\":37546:37564   */\n      add\n        /* \"#utility.yul\":37538:37564   */\n      swap1\n      pop\n        /* \"#utility.yul\":37610:37619   */\n      dup2\n        /* \"#utility.yul\":37604:37608   */\n      dup2\n        /* \"#utility.yul\":37600:37620   */\n      sub\n        /* \"#utility.yul\":37596:37597   */\n      0x00\n        /* \"#utility.yul\":37585:37594   */\n      dup4\n        /* \"#utility.yul\":37581:37598   */\n      add\n        /* \"#utility.yul\":37574:37621   */\n      mstore\n        /* \"#utility.yul\":37638:37769   */\n      tag_1003\n        /* \"#utility.yul\":37764:37768   */\n      dup2\n        /* \"#utility.yul\":37638:37769   */\n      tag_621\n      jump\t// in\n    tag_1003:\n        /* \"#utility.yul\":37630:37769   */\n      swap1\n      pop\n        /* \"#utility.yul\":37357:37776   */\n      swap2\n      swap1\n      pop\n      jump\t// out\n        /* \"#utility.yul\":37782:37949   */\n    tag_622:\n        /* \"#utility.yul\":37922:37941   */\n      0x556e737570706f72746564207374616765000000000000000000000000000000\n        /* \"#utility.yul\":37918:37919   */\n      0x00\n        /* \"#utility.yul\":37910:37916   */\n      dup3\n        /* \"#utility.yul\":37906:37920   */\n      add\n        /* \"#utility.yul\":37899:37942   */\n      mstore\n        /* \"#utility.yul\":37782:37949   */\n      pop\n      jump\t// out\n        /* \"#utility.yul\":37955:38321   */\n    tag_623:\n        /* \"#utility.yul\":38097:38100   */\n      0x00\n        /* \"#utility.yul\":38118:38185   */\n      tag_1006\n        /* \"#utility.yul\":38182:38184   */\n      0x11\n        /* \"#utility.yul\":38177:38180   */\n      dup4\n        /* \"#utility.yul\":38118:38185   */\n      tag_547\n      jump\t// in\n    tag_1006:\n        /* \"#utility.yul\":38111:38185   */\n      swap2\n      pop\n        /* \"#utility.yul\":38194:38287   */\n      tag_1007\n        /* \"#utility.yul\":38283:38286   */\n      dup3\n        /* \"#utility.yul\":38194:38287   */\n      tag_622\n      jump\t// in\n    tag_1007:\n        /* \"#utility.yul\":38312:38314   */\n      0x20\n        /* \"#utility.yul\":38307:38310   */\n      dup3\n        /* \"#utility.yul\":38303:38315   */\n      add\n        /* \"#utility.yul\":38296:38315   */\n      swap1\n      pop\n        /* \"#utility.yul\":37955:38321   */\n      swap2\n      swap1\n      pop\n      jump\t// out\n        /* \"#utility.yul\":38327:38746   */\n    tag_248:\n        /* \"#utility.yul\":38493:38497   */\n      0x00\n        /* \"#utility.yul\":38531:38533   */\n      0x20\n        /* \"#utility.yul\":38520:38529   */\n      dup3\n        /* \"#utility.yul\":38516:38534   */\n      add\n        /* \"#utility.yul\":38508:38534   */\n      swap1\n      pop\n        /* \"#utility.yul\":38580:38589   */\n      dup2\n        /* \"#utility.yul\":38574:38578   */\n      dup2\n        /* \"#utility.yul\":38570:38590   */\n      sub\n        /* \"#utility.yul\":38566:38567   */\n      0x00\n        /* \"#utility.yul\":38555:38564   */\n      dup4\n        /* \"#utility.yul\":38551:38568   */\n      add\n        /* \"#utility.yul\":38544:38591   */\n      mstore\n        /* \"#utility.yul\":38608:38739   */\n      tag_1009\n        /* \"#utility.yul\":38734:38738   */\n      dup2\n        /* \"#utility.yul\":38608:38739   */\n      tag_623\n      jump\t// in\n    tag_1009:\n        /* \"#utility.yul\":38600:38739   */\n      swap1\n      pop\n        /* \"#utility.yul\":38327:38746   */\n      swap2\n      swap1\n      pop\n      jump\t// out\n        /* \"#utility.yul\":38752:39094   */\n    tag_253:\n        /* \"#utility.yul\":38878:38882   */\n      0x00\n        /* \"#utility.yul\":38916:38918   */\n      0x40\n        /* \"#utility.yul\":38905:38914   */\n      dup3\n        /* \"#utility.yul\":38901:38919   */\n      add\n        /* \"#utility.yul\":38893:38919   */\n      swap1\n      pop\n        /* \"#utility.yul\":38929:39005   */\n      tag_1011\n        /* \"#utility.yul\":39002:39003   */\n      0x00\n        /* \"#utility.yul\":38991:39000   */\n      dup4\n        /* \"#utility.yul\":38987:39004   */\n      add\n        /* \"#utility.yul\":38978:38984   */\n      dup6\n        /* \"#utility.yul\":38929:39005   */\n      tag_552\n      jump\t// in\n    tag_1011:\n        /* \"#utility.yul\":39015:39087   */\n      tag_1012\n        /* \"#utility.yul\":39083:39085   */\n      0x20\n        /* \"#utility.yul\":39072:39081   */\n      dup4\n        /* \"#utility.yul\":39068:39086   */\n      add\n        /* \"#utility.yul\":39059:39065   */\n      dup5\n        /* \"#utility.yul\":39015:39087   */\n      tag_555\n      jump\t// in\n    tag_1012:\n        /* \"#utility.yul\":38752:39094   */\n      swap4\n      swap3\n      pop\n      pop\n      pop\n      jump\t// out\n        /* \"#utility.yul\":39100:39260   */\n    tag_624:\n        /* \"#utility.yul\":39240:39252   */\n      0x4f6e6c79206f776e657200000000000000000000000000000000000000000000\n        /* \"#utility.yul\":39236:39237   */\n      0x00\n        /* \"#utility.yul\":39228:39234   */\n      dup3\n        /* \"#utility.yul\":39224:39238   */\n      add\n        /* \"#utility.yul\":39217:39253   */\n      mstore\n        /* \"#utility.yul\":39100:39260   */\n      pop\n      jump\t// out\n        /* \"#utility.yul\":39266:39632   */\n    tag_625:\n        /* \"#utility.yul\":39408:39411   */\n      0x00\n        /* \"#utility.yul\":39429:39496   */\n      tag_1015\n        /* \"#utility.yul\":39493:39495   */\n      0x0a\n        /* \"#utility.yul\":39488:39491   */\n      dup4\n        /* \"#utility.yul\":39429:39496   */\n      tag_547\n      jump\t// in\n    tag_1015:\n        /* \"#utility.yul\":39422:39496   */\n      swap2\n      pop\n        /* \"#utility.yul\":39505:39598   */\n      tag_1016\n        /* \"#utility.yul\":39594:39597   */\n      dup3\n        /* \"#utility.yul\":39505:39598   */\n      tag_624\n      jump\t// in\n    tag_1016:\n        /* \"#utility.yul\":39623:39625   */\n      0x20\n        /* \"#utility.yul\":39618:39621   */\n      dup3\n        /* \"#utility.yul\":39614:39626   */\n      add\n        /* \"#utility.yul\":39607:39626   */\n      swap1\n      pop\n        /* \"#utility.yul\":39266:39632   */\n      swap2\n      swap1\n      pop\n      jump\t// out\n        /* \"#utility.yul\":39638:40057   */\n    tag_275:\n        /* \"#utility.yul\":39804:39808   */\n      0x00\n        /* \"#utility.yul\":39842:39844   */\n      0x20\n        /* \"#utility.yul\":39831:39840   */\n      dup3\n        /* \"#utility.yul\":39827:39845   */\n      add\n        /* \"#utility.yul\":39819:39845   */\n      swap1\n      pop\n        /* \"#utility.yul\":39891:39900   */\n      dup2\n        /* \"#utility.yul\":39885:39889   */\n      dup2\n        /* \"#utility.yul\":39881:39901   */\n      sub\n        /* \"#utility.yul\":39877:39878   */\n      0x00\n        /* \"#utility.yul\":39866:39875   */\n      dup4\n        /* \"#utility.yul\":39862:39879   */\n      add\n        /* \"#utility.yul\":39855:39902   */\n      mstore\n        /* \"#utility.yul\":39919:40050   */\n      tag_1018\n        /* \"#utility.yul\":40045:40049   */\n      dup2\n        /* \"#utility.yul\":39919:40050   */\n      tag_625\n      jump\t// in\n    tag_1018:\n        /* \"#utility.yul\":39911:40050   */\n      swap1\n      pop\n        /* \"#utility.yul\":39638:40057   */\n      swap2\n      swap1\n      pop\n      jump\t// out\n        /* \"#utility.yul\":40063:40234   */\n    tag_626:\n        /* \"#utility.yul\":40203:40226   */\n      0x4f6e6c79206f776e6572206f722068616e646c65720000000000000000000000\n        /* \"#utility.yul\":40199:40200   */\n      0x00\n        /* \"#utility.yul\":40191:40197   */\n      dup3\n        /* \"#utility.yul\":40187:40201   */\n      add\n        /* \"#utility.yul\":40180:40227   */\n      mstore\n        /* \"#utility.yul\":40063:40234   */\n      pop\n      jump\t// out\n        /* \"#utility.yul\":40240:40606   */\n    tag_627:\n        /* \"#utility.yul\":40382:40385   */\n      0x00\n        /* \"#utility.yul\":40403:40470   */\n      tag_1021\n        /* \"#utility.yul\":40467:40469   */\n      0x15\n        /* \"#utility.yul\":40462:40465   */\n      dup4\n        /* \"#utility.yul\":40403:40470   */\n      tag_547\n      jump\t// in\n    tag_1021:\n        /* \"#utility.yul\":40396:40470   */\n      swap2\n      pop\n        /* \"#utility.yul\":40479:40572   */\n      tag_1022\n        /* \"#utility.yul\":40568:40571   */\n      dup3\n        /* \"#utility.yul\":40479:40572   */\n      tag_626\n      jump\t// in\n    tag_1022:\n        /* \"#utility.yul\":40597:40599   */\n      0x20\n        /* \"#utility.yul\":40592:40595   */\n      dup3\n        /* \"#utility.yul\":40588:40600   */\n      add\n        /* \"#utility.yul\":40581:40600   */\n      swap1\n      pop\n        /* \"#utility.yul\":40240:40606   */\n      swap2\n      swap1\n      pop\n      jump\t// out\n        /* \"#utility.yul\":40612:41031   */\n    tag_289:\n        /* \"#utility.yul\":40778:40782   */\n      0x00\n        /* \"#utility.yul\":40816:40818   */\n      0x20\n        /* \"#utility.yul\":40805:40814   */\n      dup3\n        /* \"#utility.yul\":40801:40819   */\n      add\n        /* \"#utility.yul\":40793:40819   */\n      swap1\n      pop\n        /* \"#utility.yul\":40865:40874   */\n      dup2\n        /* \"#utility.yul\":40859:40863   */\n      dup2\n        /* \"#utility.yul\":40855:40875   */\n      sub\n        /* \"#utility.yul\":40851:40852   */\n      0x00\n        /* \"#utility.yul\":40840:40849   */\n      dup4\n        /* \"#utility.yul\":40836:40853   */\n      add\n        /* \"#utility.yul\":40829:40876   */\n      mstore\n        /* \"#utility.yul\":40893:41024   */\n      tag_1024\n        /* \"#utility.yul\":41019:41023   */\n      dup2\n        /* \"#utility.yul\":40893:41024   */\n      tag_627\n      jump\t// in\n    tag_1024:\n        /* \"#utility.yul\":40885:41024   */\n      swap1\n      pop\n        /* \"#utility.yul\":40612:41031   */\n      swap2\n      swap1\n      pop\n      jump\t// out\n        /* \"#utility.yul\":41037:41208   */\n    tag_628:\n        /* \"#utility.yul\":41177:41200   */\n      0x426164676520616c726561647920617761726465640000000000000000000000\n        /* \"#utility.yul\":41173:41174   */\n      0x00\n        /* \"#utility.yul\":41165:41171   */\n      dup3\n        /* \"#utility.yul\":41161:41175   */\n      add\n        /* \"#utility.yul\":41154:41201   */\n      mstore\n        /* \"#utility.yul\":41037:41208   */\n      pop\n      jump\t// out\n        /* \"#utility.yul\":41214:41580   */\n    tag_629:\n        /* \"#utility.yul\":41356:41359   */\n      0x00\n        /* \"#utility.yul\":41377:41444   */\n      tag_1027\n        /* \"#utility.yul\":41441:41443   */\n      0x15\n        /* \"#utility.yul\":41436:41439   */\n      dup4\n        /* \"#utility.yul\":41377:41444   */\n      tag_547\n      jump\t// in\n    tag_1027:\n        /* \"#utility.yul\":41370:41444   */\n      swap2\n      pop\n        /* \"#utility.yul\":41453:41546   */\n      tag_1028\n        /* \"#utility.yul\":41542:41545   */\n      dup3\n        /* \"#utility.yul\":41453:41546   */\n      tag_628\n      jump\t// in\n    tag_1028:\n        /* \"#utility.yul\":41571:41573   */\n      0x20\n        /* \"#utility.yul\":41566:41569   */\n      dup3\n        /* \"#utility.yul\":41562:41574   */\n      add\n        /* \"#utility.yul\":41555:41574   */\n      swap1\n      pop\n        /* \"#utility.yul\":41214:41580   */\n      swap2\n      swap1\n      pop\n      jump\t// out\n        /* \"#utility.yul\":41586:42005   */\n    tag_293:\n        /* \"#utility.yul\":41752:41756   */\n      0x00\n        /* \"#utility.yul\":41790:41792   */\n      0x20\n        /* \"#utility.yul\":41779:41788   */\n      dup3\n        /* \"#utility.yul\":41775:41793   */\n      add\n        /* \"#utility.yul\":41767:41793   */\n      swap1\n      pop\n        /* \"#utility.yul\":41839:41848   */\n      dup2\n        /* \"#utility.yul\":41833:41837   */\n      dup2\n        /* \"#utility.yul\":41829:41849   */\n      sub\n        /* \"#utility.yul\":41825:41826   */\n      0x00\n        /* \"#utility.yul\":41814:41823   */\n      dup4\n        /* \"#utility.yul\":41810:41827   */\n      add\n        /* \"#utility.yul\":41803:41850   */\n      mstore\n        /* \"#utility.yul\":41867:41998   */\n      tag_1030\n        /* \"#utility.yul\":41993:41997   */\n      dup2\n        /* \"#utility.yul\":41867:41998   */\n      tag_629\n      jump\t// in\n    tag_1030:\n        /* \"#utility.yul\":41859:41998   */\n      swap1\n      pop\n        /* \"#utility.yul\":41586:42005   */\n      swap2\n      swap1\n      pop\n      jump\t// out\n        /* \"#utility.yul\":42011:42183   */\n    tag_630:\n        /* \"#utility.yul\":42151:42175   */\n      0x4c6f7420616c7265616479207265676973746572656400000000000000000000\n        /* \"#utility.yul\":42147:42148   */\n      0x00\n        /* \"#utility.yul\":42139:42145   */\n      dup3\n        /* \"#utility.yul\":42135:42149   */\n      add\n        /* \"#utility.yul\":42128:42176   */\n      mstore\n        /* \"#utility.yul\":42011:42183   */\n      pop\n      jump\t// out\n        /* \"#utility.yul\":42189:42555   */\n    tag_631:\n        /* \"#utility.yul\":42331:42334   */\n      0x00\n        /* \"#utility.yul\":42352:42419   */\n      tag_1033\n        /* \"#utility.yul\":42416:42418   */\n      0x16\n        /* \"#utility.yul\":42411:42414   */\n      dup4\n        /* \"#utility.yul\":42352:42419   */\n      tag_547\n      jump\t// in\n    tag_1033:\n        /* \"#utility.yul\":42345:42419   */\n      swap2\n      pop\n        /* \"#utility.yul\":42428:42521   */\n      tag_1034\n        /* \"#utility.yul\":42517:42520   */\n      dup3\n        /* \"#utility.yul\":42428:42521   */\n      tag_630\n      jump\t// in\n    tag_1034:\n        /* \"#utility.yul\":42546:42548   */\n      0x20\n        /* \"#utility.yul\":42541:42544   */\n      dup3\n        /* \"#utility.yul\":42537:42549   */\n      add\n        /* \"#utility.yul\":42530:42549   */\n      swap1\n      pop\n        /* \"#utility.yul\":42189:42555   */\n      swap2\n      swap1\n      pop\n      jump\t// out\n        /* \"#utility.yul\":42561:42980   */\n    tag_299:\n        /* \"#utility.yul\":42727:42731   */\n      0x00\n        /* \"#utility.yul\":42765:42767   */\n      0x20\n        /* \"#utility.yul\":42754:42763   */\n      dup3\n        /* \"#utility.yul\":42750:42768   */\n      add\n        /* \"#utility.yul\":42742:42768   */\n      swap1\n      pop\n        /* \"#utility.yul\":42814:42823   */\n      dup2\n        /* \"#utility.yul\":42808:42812   */\n      dup2\n        /* \"#utility.yul\":42804:42824   */\n      sub\n        /* \"#utility.yul\":42800:42801   */\n      0x00\n        /* \"#utility.yul\":42789:42798   */\n      dup4\n        /* \"#utility.yul\":42785:42802   */\n      add\n        /* \"#utility.yul\":42778:42825   */\n      mstore\n        /* \"#utility.yul\":42842:42973   */\n      tag_1036\n        /* \"#utility.yul\":42968:42972   */\n      dup2\n        /* \"#utility.yul\":42842:42973   */\n      tag_631\n      jump\t// in\n    tag_1036:\n        /* \"#utility.yul\":42834:42973   */\n      swap1\n      pop\n        /* \"#utility.yul\":42561:42980   */\n      swap2\n      swap1\n      pop\n      jump\t// out\n        /* \"#utility.yul\":42986:43500   */\n    tag_310:\n        /* \"#utility.yul\":43147:43151   */\n      0x00\n        /* \"#utility.yul\":43185:43187   */\n      0x40\n        /* \"#utility.yul\":43174:43183   */\n      dup3\n        /* \"#utility.yul\":43170:43188   */\n      add\n        /* \"#utility.yul\":43162:43188   */\n      swap1\n      pop\n        /* \"#utility.yul\":43234:43243   */\n      dup2\n        /* \"#utility.yul\":43228:43232   */\n      dup2\n        /* \"#utility.yul\":43224:43244   */\n      sub\n        /* \"#utility.yul\":43220:43221   */\n      0x00\n        /* \"#utility.yul\":43209:43218   */\n      dup4\n        /* \"#utility.yul\":43205:43222   */\n      add\n        /* \"#utility.yul\":43198:43245   */\n      mstore\n        /* \"#utility.yul\":43262:43340   */\n      tag_1038\n        /* \"#utility.yul\":43335:43339   */\n      dup2\n        /* \"#utility.yul\":43326:43332   */\n      dup6\n        /* \"#utility.yul\":43262:43340   */\n      tag_548\n      jump\t// in\n    tag_1038:\n        /* \"#utility.yul\":43254:43340   */\n      swap1\n      pop\n        /* \"#utility.yul\":43387:43396   */\n      dup2\n        /* \"#utility.yul\":43381:43385   */\n      dup2\n        /* \"#utility.yul\":43377:43397   */\n      sub\n        /* \"#utility.yul\":43372:43374   */\n      0x20\n        /* \"#utility.yul\":43361:43370   */\n      dup4\n        /* \"#utility.yul\":43357:43375   */\n      add\n        /* \"#utility.yul\":43350:43398   */\n      mstore\n        /* \"#utility.yul\":43415:43493   */\n      tag_1039\n        /* \"#utility.yul\":43488:43492   */\n      dup2\n        /* \"#utility.yul\":43479:43485   */\n      dup5\n        /* \"#utility.yul\":43415:43493   */\n      tag_548\n      jump\t// in\n    tag_1039:\n        /* \"#utility.yul\":43407:43493   */\n      swap1\n      pop\n        /* \"#utility.yul\":42986:43500   */\n      swap4\n      swap3\n      pop\n      pop\n      pop\n      jump\t// out\n        /* \"#utility.yul\":43506:43686   */\n    tag_333:\n        /* \"#utility.yul\":43554:43631   */\n      0x4e487b7100000000000000000000000000000000000000000000000000000000\n        /* \"#utility.yul\":43551:43552   */\n      0x00\n        /* \"#utility.yul\":43544:43632   */\n      mstore\n        /* \"#utility.yul\":43651:43655   */\n      0x32\n        /* \"#utility.yul\":43648:43649   */\n      0x04\n        /* \"#utility.yul\":43641:43656   */\n      mstore\n        /* \"#utility.yul\":43675:43679   */\n      0x24\n        /* \"#utility.yul\":43672:43673   */\n      0x00\n        /* \"#utility.yul\":43665:43680   */\n      revert\n        /* \"#utility.yul\":43692:43872   */\n    tag_632:\n        /* \"#utility.yul\":43740:43817   */\n      0x4e487b7100000000000000000000000000000000000000000000000000000000\n        /* \"#utility.yul\":43737:43738   */\n      0x00\n        /* \"#utility.yul\":43730:43818   */\n      mstore\n        /* \"#utility.yul\":43837:43841   */\n      0x11\n        /* \"#utility.yul\":43834:43835   */\n      0x04\n        /* \"#utility.yul\":43827:43842   */\n      mstore\n        /* \"#utility.yul\":43861:43865   */\n      0x24\n        /* \"#utility.yul\":43858:43859   */\n      0x00\n        /* \"#utility.yul\":43851:43866   */\n      revert\n        /* \"#utility.yul\":43878:44253   */\n    tag_373:\n        /* \"#utility.yul\":43917:43920   */\n      0x00\n        /* \"#utility.yul\":43936:43955   */\n      tag_1043\n        /* \"#utility.yul\":43953:43954   */\n      dup3\n        /* \"#utility.yul\":43936:43955   */\n      tag_556\n      jump\t// in\n    tag_1043:\n        /* \"#utility.yul\":43931:43955   */\n      swap2\n      pop\n        /* \"#utility.yul\":43969:43988   */\n      tag_1044\n        /* \"#utility.yul\":43986:43987   */\n      dup4\n        /* \"#utility.yul\":43969:43988   */\n      tag_556\n      jump\t// in\n    tag_1044:\n        /* \"#utility.yul\":43964:43988   */\n      swap3\n      pop\n        /* \"#utility.yul\":44011:44012   */\n      dup3\n        /* \"#utility.yul\":44008:44009   */\n      dup3\n        /* \"#utility.yul\":44004:44013   */\n      add\n        /* \"#utility.yul\":43997:44013   */\n      swap1\n      pop\n        /* \"#utility.yul\":44209:44210   */\n      dup3\n        /* \"#utility.yul\":44204:44207   */\n      dup2\n        /* \"#utility.yul\":44200:44211   */\n      slt\n        /* \"#utility.yul\":44193:44212   */\n      iszero\n        /* \"#utility.yul\":44189:44190   */\n      0x00\n        /* \"#utility.yul\":44186:44187   */\n      dup4\n        /* \"#utility.yul\":44182:44191   */\n      slt\n        /* \"#utility.yul\":44178:44213   */\n      and\n        /* \"#utility.yul\":44161:44162   */\n      dup4\n        /* \"#utility.yul\":44156:44159   */\n      dup3\n        /* \"#utility.yul\":44152:44163   */\n      slt\n        /* \"#utility.yul\":44147:44148   */\n      0x00\n        /* \"#utility.yul\":44144:44145   */\n      dup5\n        /* \"#utility.yul\":44140:44149   */\n      slt\n        /* \"#utility.yul\":44133:44150   */\n      iszero\n        /* \"#utility.yul\":44129:44164   */\n      and\n        /* \"#utility.yul\":44113:44223   */\n      or\n        /* \"#utility.yul\":44110:44246   */\n      iszero\n      tag_1045\n      jumpi\n        /* \"#utility.yul\":44226:44244   */\n      tag_1046\n      tag_632\n      jump\t// in\n    tag_1046:\n        /* \"#utility.yul\":44110:44246   */\n    tag_1045:\n        /* \"#utility.yul\":43878:44253   */\n      swap3\n      swap2\n      pop\n      pop\n      jump\t// out\n        /* \"#utility.yul\":44259:44439   */\n    tag_633:\n        /* \"#utility.yul\":44307:44384   */\n      0x4e487b7100000000000000000000000000000000000000000000000000000000\n        /* \"#utility.yul\":44304:44305   */\n      0x00\n        /* \"#utility.yul\":44297:44385   */\n      mstore\n        /* \"#utility.yul\":44404:44408   */\n      0x12\n        /* \"#utility.yul\":44401:44402   */\n      0x04\n        /* \"#utility.yul\":44394:44409   */\n      mstore\n        /* \"#utility.yul\":44428:44432   */\n      0x24\n        /* \"#utility.yul\":44425:44426   */\n      0x00\n        /* \"#utility.yul\":44418:44433   */\n      revert\n        /* \"#utility.yul\":44445:44830   */\n    tag_377:\n        /* \"#utility.yul\":44484:44485   */\n      0x00\n        /* \"#utility.yul\":44501:44520   */\n      tag_1049\n        /* \"#utility.yul\":44518:44519   */\n      dup3\n        /* \"#utility.yul\":44501:44520   */\n      tag_556\n      jump\t// in\n    tag_1049:\n        /* \"#utility.yul\":44496:44520   */\n      swap2\n      pop\n        /* \"#utility.yul\":44534:44553   */\n      tag_1050\n        /* \"#utility.yul\":44551:44552   */\n      dup4\n        /* \"#utility.yul\":44534:44553   */\n      tag_556\n      jump\t// in\n    tag_1050:\n        /* \"#utility.yul\":44529:44553   */\n      swap3\n      pop\n        /* \"#utility.yul\":44572:44573   */\n      dup3\n        /* \"#utility.yul\":44562:44597   */\n      tag_1051\n      jumpi\n        /* \"#utility.yul\":44577:44595   */\n      tag_1052\n      tag_633\n      jump\t// in\n    tag_1052:\n        /* \"#utility.yul\":44562:44597   */\n    tag_1051:\n        /* \"#utility.yul\":44763:44764   */\n      0x01\n        /* \"#utility.yul\":44760:44761   */\n      0x00\n        /* \"#utility.yul\":44756:44765   */\n      sub\n        /* \"#utility.yul\":44753:44754   */\n      dup4\n        /* \"#utility.yul\":44750:44766   */\n      eq\n        /* \"#utility.yul\":44669:44735   */\n      0x8000000000000000000000000000000000000000000000000000000000000000\n        /* \"#utility.yul\":44666:44667   */\n      dup4\n        /* \"#utility.yul\":44663:44736   */\n      eq\n        /* \"#utility.yul\":44646:44776   */\n      and\n        /* \"#utility.yul\":44643:44799   */\n      iszero\n      tag_1053\n      jumpi\n        /* \"#utility.yul\":44779:44797   */\n      tag_1054\n      tag_632\n      jump\t// in\n    tag_1054:\n        /* \"#utility.yul\":44643:44799   */\n    tag_1053:\n        /* \"#utility.yul\":44822:44823   */\n      dup3\n        /* \"#utility.yul\":44819:44820   */\n      dup3\n        /* \"#utility.yul\":44814:44824   */\n      sdiv\n        /* \"#utility.yul\":44809:44824   */\n      swap1\n      pop\n        /* \"#utility.yul\":44445:44830   */\n      swap3\n      swap2\n      pop\n      pop\n      jump\t// out\n        /* \"#utility.yul\":44836:45015   */\n    tag_634:\n        /* \"#utility.yul\":44976:45007   */\n      0x4f6e6c79206f776e6572206f722063757272656e742068616e646c6572000000\n        /* \"#utility.yul\":44972:44973   */\n      0x00\n        /* \"#utility.yul\":44964:44970   */\n      dup3\n        /* \"#utility.yul\":44960:44974   */\n      add\n        /* \"#utility.yul\":44953:45008   */\n      mstore\n        /* \"#utility.yul\":44836:45015   */\n      pop\n      jump\t// out\n        /* \"#utility.yul\":45021:45387   */\n    tag_635:\n        /* \"#utility.yul\":45163:45166   */\n      0x00\n        /* \"#utility.yul\":45184:45251   */\n      tag_1057\n        /* \"#utility.yul\":45248:45250   */\n      0x1d\n        /* \"#utility.yul\":45243:45246   */\n      dup4\n        /* \"#utility.yul\":45184:45251   */\n      tag_547\n      jump\t// in\n    tag_1057:\n        /* \"#utility.yul\":45177:45251   */\n      swap2\n      pop\n        /* \"#utility.yul\":45260:45353   */\n      tag_1058\n        /* \"#utility.yul\":45349:45352   */\n      dup3\n        /* \"#utility.yul\":45260:45353   */\n      tag_634\n      jump\t// in\n    tag_1058:\n        /* \"#utility.yul\":45378:45380   */\n      0x20\n        /* \"#utility.yul\":45373:45376   */\n      dup3\n        /* \"#utility.yul\":45369:45381   */\n      add\n        /* \"#utility.yul\":45362:45381   */\n      swap1\n      pop\n        /* \"#utility.yul\":45021:45387   */\n      swap2\n      swap1\n      pop\n      jump\t// out\n        /* \"#utility.yul\":45393:45812   */\n    tag_388:\n        /* \"#utility.yul\":45559:45563   */\n      0x00\n        /* \"#utility.yul\":45597:45599   */\n      0x20\n        /* \"#utility.yul\":45586:45595   */\n      dup3\n        /* \"#utility.yul\":45582:45600   */\n      add\n        /* \"#utility.yul\":45574:45600   */\n      swap1\n      pop\n        /* \"#utility.yul\":45646:45655   */\n      dup2\n        /* \"#utility.yul\":45640:45644   */\n      dup2\n        /* \"#utility.yul\":45636:45656   */\n      sub\n        /* \"#utility.yul\":45632:45633   */\n      0x00\n        /* \"#utility.yul\":45621:45630   */\n      dup4\n        /* \"#utility.yul\":45617:45634   */\n      add\n        /* \"#utility.yul\":45610:45657   */\n      mstore\n        /* \"#utility.yul\":45674:45805   */\n      tag_1060\n        /* \"#utility.yul\":45800:45804   */\n      dup2\n        /* \"#utility.yul\":45674:45805   */\n      tag_635\n      jump\t// in\n    tag_1060:\n        /* \"#utility.yul\":45666:45805   */\n      swap1\n      pop\n        /* \"#utility.yul\":45393:45812   */\n      swap2\n      swap1\n      pop\n      jump\t// out\n        /* \"#utility.yul\":45818:45912   */\n    tag_636:\n        /* \"#utility.yul\":45851:45859   */\n      0x00\n        /* \"#utility.yul\":45899:45904   */\n      dup2\n        /* \"#utility.yul\":45895:45897   */\n      0x60\n        /* \"#utility.yul\":45891:45905   */\n      shl\n        /* \"#utility.yul\":45870:45905   */\n      swap1\n      pop\n        /* \"#utility.yul\":45818:45912   */\n      swap2\n      swap1\n      pop\n      jump\t// out\n        /* \"#utility.yul\":45918:46012   */\n    tag_637:\n        /* \"#utility.yul\":45957:45964   */\n      0x00\n        /* \"#utility.yul\":45986:46006   */\n      tag_1063\n        /* \"#utility.yul\":46000:46005   */\n      dup3\n        /* \"#utility.yul\":45986:46006   */\n      tag_636\n      jump\t// in\n    tag_1063:\n        /* \"#utility.yul\":45975:46006   */\n      swap1\n      pop\n        /* \"#utility.yul\":45918:46012   */\n      swap2\n      swap1\n      pop\n      jump\t// out\n        /* \"#utility.yul\":46018:46118   */\n    tag_638:\n        /* \"#utility.yul\":46057:46064   */\n      0x00\n        /* \"#utility.yul\":46086:46112   */\n      tag_1065\n        /* \"#utility.yul\":46106:46111   */\n      dup3\n        /* \"#utility.yul\":46086:46112   */\n      tag_637\n      jump\t// in\n    tag_1065:\n        /* \"#utility.yul\":46075:46112   */\n      swap1\n      pop\n        /* \"#utility.yul\":46018:46118   */\n      swap2\n      swap1\n      pop\n      jump\t// out\n        /* \"#utility.yul\":46124:46281   */\n    tag_639:\n        /* \"#utility.yul\":46229:46274   */\n      tag_1067\n        /* \"#utility.yul\":46249:46273   */\n      tag_1068\n        /* \"#utility.yul\":46267:46272   */\n      dup3\n        /* \"#utility.yul\":46249:46273   */\n      tag_554\n      jump\t// in\n    tag_1068:\n        /* \"#utility.yul\":46229:46274   */\n      tag_638\n      jump\t// in\n    tag_1067:\n        /* \"#utility.yul\":46224:46227   */\n      dup3\n        /* \"#utility.yul\":46217:46275   */\n      mstore\n        /* \"#utility.yul\":46124:46281   */\n      pop\n      pop\n      jump\t// out\n        /* \"#utility.yul\":46287:46366   */\n    tag_640:\n        /* \"#utility.yul\":46326:46333   */\n      0x00\n        /* \"#utility.yul\":46355:46360   */\n      dup2\n        /* \"#utility.yul\":46344:46360   */\n      swap1\n      pop\n        /* \"#utility.yul\":46287:46366   */\n      swap2\n      swap1\n      pop\n      jump\t// out\n        /* \"#utility.yul\":46372:46529   */\n    tag_641:\n        /* \"#utility.yul\":46477:46522   */\n      tag_1071\n        /* \"#utility.yul\":46497:46521   */\n      tag_1072\n        /* \"#utility.yul\":46515:46520   */\n      dup3\n        /* \"#utility.yul\":46497:46521   */\n      tag_577\n      jump\t// in\n    tag_1072:\n        /* \"#utility.yul\":46477:46522   */\n      tag_640\n      jump\t// in\n    tag_1071:\n        /* \"#utility.yul\":46472:46475   */\n      dup3\n        /* \"#utility.yul\":46465:46523   */\n      mstore\n        /* \"#utility.yul\":46372:46529   */\n      pop\n      pop\n      jump\t// out\n        /* \"#utility.yul\":46535:47092   */\n    tag_390:\n        /* \"#utility.yul\":46723:46726   */\n      0x00\n        /* \"#utility.yul\":46745:46840   */\n      tag_1074\n        /* \"#utility.yul\":46836:46839   */\n      dup3\n        /* \"#utility.yul\":46827:46833   */\n      dup7\n        /* \"#utility.yul\":46745:46840   */\n      tag_589\n      jump\t// in\n    tag_1074:\n        /* \"#utility.yul\":46738:46840   */\n      swap2\n      pop\n        /* \"#utility.yul\":46850:46925   */\n      tag_1075\n        /* \"#utility.yul\":46921:46924   */\n      dup3\n        /* \"#utility.yul\":46912:46918   */\n      dup6\n        /* \"#utility.yul\":46850:46925   */\n      tag_639\n      jump\t// in\n    tag_1075:\n        /* \"#utility.yul\":46950:46952   */\n      0x14\n        /* \"#utility.yul\":46945:46948   */\n      dup3\n        /* \"#utility.yul\":46941:46953   */\n      add\n        /* \"#utility.yul\":46934:46953   */\n      swap2\n      pop\n        /* \"#utility.yul\":46963:47038   */\n      tag_1076\n        /* \"#utility.yul\":47034:47037   */\n      dup3\n        /* \"#utility.yul\":47025:47031   */\n      dup5\n        /* \"#utility.yul\":46963:47038   */\n      tag_641\n      jump\t// in\n    tag_1076:\n        /* \"#utility.yul\":47063:47065   */\n      0x20\n        /* \"#utility.yul\":47058:47061   */\n      dup3\n        /* \"#utility.yul\":47054:47066   */\n      add\n        /* \"#utility.yul\":47047:47066   */\n      swap2\n      pop\n        /* \"#utility.yul\":47083:47086   */\n      dup2\n        /* \"#utility.yul\":47076:47086   */\n      swap1\n      pop\n        /* \"#utility.yul\":46535:47092   */\n      swap5\n      swap4\n      pop\n      pop\n      pop\n      pop\n      jump\t// out\n        /* \"#utility.yul\":47098:47264   */\n    tag_642:\n        /* \"#utility.yul\":47238:47256   */\n      0x496e76616c696420515220746f6b656e00000000000000000000000000000000\n        /* \"#utility.yul\":47234:47235   */\n      0x00\n        /* \"#utility.yul\":47226:47232   */\n      dup3\n        /* \"#utility.yul\":47222:47236   */\n      add\n        /* \"#utility.yul\":47215:47257   */\n      mstore\n        /* \"#utility.yul\":47098:47264   */\n      pop\n      jump\t// out\n        /* \"#utility.yul\":47270:47636   */\n    tag_643:\n        /* \"#utility.yul\":47412:47415   */\n      0x00\n        /* \"#utility.yul\":47433:47500   */\n      tag_1079\n        /* \"#utility.yul\":47497:47499   */\n      0x10\n        /* \"#utility.yul\":47492:47495   */\n      dup4\n        /* \"#utility.yul\":47433:47500   */\n      tag_547\n      jump\t// in\n    tag_1079:\n        /* \"#utility.yul\":47426:47500   */\n      swap2\n      pop\n        /* \"#utility.yul\":47509:47602   */\n      tag_1080\n        /* \"#utility.yul\":47598:47601   */\n      dup3\n        /* \"#utility.yul\":47509:47602   */\n      tag_642\n      jump\t// in\n    tag_1080:\n        /* \"#utility.yul\":47627:47629   */\n      0x20\n        /* \"#utility.yul\":47622:47625   */\n      dup3\n        /* \"#utility.yul\":47618:47630   */\n      add\n        /* \"#utility.yul\":47611:47630   */\n      swap1\n      pop\n        /* \"#utility.yul\":47270:47636   */\n      swap2\n      swap1\n      pop\n      jump\t// out\n        /* \"#utility.yul\":47642:48061   */\n    tag_408:\n        /* \"#utility.yul\":47808:47812   */\n      0x00\n        /* \"#utility.yul\":47846:47848   */\n      0x20\n        /* \"#utility.yul\":47835:47844   */\n      dup3\n        /* \"#utility.yul\":47831:47849   */\n      add\n        /* \"#utility.yul\":47823:47849   */\n      swap1\n      pop\n        /* \"#utility.yul\":47895:47904   */\n      dup2\n        /* \"#utility.yul\":47889:47893   */\n      dup2\n        /* \"#utility.yul\":47885:47905   */\n      sub\n        /* \"#utility.yul\":47881:47882   */\n      0x00\n        /* \"#utility.yul\":47870:47879   */\n      dup4\n        /* \"#utility.yul\":47866:47883   */\n      add\n        /* \"#utility.yul\":47859:47906   */\n      mstore\n        /* \"#utility.yul\":47923:48054   */\n      tag_1082\n        /* \"#utility.yul\":48049:48053   */\n      dup2\n        /* \"#utility.yul\":47923:48054   */\n      tag_643\n      jump\t// in\n    tag_1082:\n        /* \"#utility.yul\":47915:48054   */\n      swap1\n      pop\n        /* \"#utility.yul\":47642:48061   */\n      swap2\n      swap1\n      pop\n      jump\t// out\n        /* \"#utility.yul\":48067:48235   */\n    tag_644:\n        /* \"#utility.yul\":48207:48227   */\n      0x4f6e6c79206f776e6572206f7220726f6c650000000000000000000000000000\n        /* \"#utility.yul\":48203:48204   */\n      0x00\n        /* \"#utility.yul\":48195:48201   */\n      dup3\n        /* \"#utility.yul\":48191:48205   */\n      add\n        /* \"#utility.yul\":48184:48228   */\n      mstore\n        /* \"#utility.yul\":48067:48235   */\n      pop\n      jump\t// out\n        /* \"#utility.yul\":48241:48607   */\n    tag_645:\n        /* \"#utility.yul\":48383:48386   */\n      0x00\n        /* \"#utility.yul\":48404:48471   */\n      tag_1085\n        /* \"#utility.yul\":48468:48470   */\n      0x12\n        /* \"#utility.yul\":48463:48466   */\n      dup4\n        /* \"#utility.yul\":48404:48471   */\n      tag_547\n      jump\t// in\n    tag_1085:\n        /* \"#utility.yul\":48397:48471   */\n      swap2\n      pop\n        /* \"#utility.yul\":48480:48573   */\n      tag_1086\n        /* \"#utility.yul\":48569:48572   */\n      dup3\n        /* \"#utility.yul\":48480:48573   */\n      tag_644\n      jump\t// in\n    tag_1086:\n        /* \"#utility.yul\":48598:48600   */\n      0x20\n        /* \"#utility.yul\":48593:48596   */\n      dup3\n        /* \"#utility.yul\":48589:48601   */\n      add\n        /* \"#utility.yul\":48582:48601   */\n      swap1\n      pop\n        /* \"#utility.yul\":48241:48607   */\n      swap2\n      swap1\n      pop\n      jump\t// out\n        /* \"#utility.yul\":48613:49032   */\n    tag_460:\n        /* \"#utility.yul\":48779:48783   */\n      0x00\n        /* \"#utility.yul\":48817:48819   */\n      0x20\n        /* \"#utility.yul\":48806:48815   */\n      dup3\n        /* \"#utility.yul\":48802:48820   */\n      add\n        /* \"#utility.yul\":48794:48820   */\n      swap1\n      pop\n        /* \"#utility.yul\":48866:48875   */\n      dup2\n        /* \"#utility.yul\":48860:48864   */\n      dup2\n        /* \"#utility.yul\":48856:48876   */\n      sub\n        /* \"#utility.yul\":48852:48853   */\n      0x00\n        /* \"#utility.yul\":48841:48850   */\n      dup4\n        /* \"#utility.yul\":48837:48854   */\n      add\n        /* \"#utility.yul\":48830:48877   */\n      mstore\n        /* \"#utility.yul\":48894:49025   */\n      tag_1088\n        /* \"#utility.yul\":49020:49024   */\n      dup2\n        /* \"#utility.yul\":48894:49025   */\n      tag_645\n      jump\t// in\n    tag_1088:\n        /* \"#utility.yul\":48886:49025   */\n      swap1\n      pop\n        /* \"#utility.yul\":48613:49032   */\n      swap2\n      swap1\n      pop\n      jump\t// out\n        /* \"#utility.yul\":49038:49362   */\n    tag_464:\n        /* \"#utility.yul\":49155:49159   */\n      0x00\n        /* \"#utility.yul\":49193:49195   */\n      0x40\n        /* \"#utility.yul\":49182:49191   */\n      dup3\n        /* \"#utility.yul\":49178:49196   */\n      add\n        /* \"#utility.yul\":49170:49196   */\n      swap1\n      pop\n        /* \"#utility.yul\":49206:49275   */\n      tag_1090\n        /* \"#utility.yul\":49272:49273   */\n      0x00\n        /* \"#utility.yul\":49261:49270   */\n      dup4\n        /* \"#utility.yul\":49257:49274   */\n      add\n        /* \"#utility.yul\":49248:49254   */\n      dup6\n        /* \"#utility.yul\":49206:49275   */\n      tag_587\n      jump\t// in\n    tag_1090:\n        /* \"#utility.yul\":49285:49355   */\n      tag_1091\n        /* \"#utility.yul\":49351:49353   */\n      0x20\n        /* \"#utility.yul\":49340:49349   */\n      dup4\n        /* \"#utility.yul\":49336:49354   */\n      add\n        /* \"#utility.yul\":49327:49333   */\n      dup5\n        /* \"#utility.yul\":49285:49355   */\n      tag_587\n      jump\t// in\n    tag_1091:\n        /* \"#utility.yul\":49038:49362   */\n      swap4\n      swap3\n      pop\n      pop\n      pop\n      jump\t// out\n        /* \"#utility.yul\":49368:49562   */\n    tag_471:\n        /* \"#utility.yul\":49408:49412   */\n      0x00\n        /* \"#utility.yul\":49428:49448   */\n      tag_1093\n        /* \"#utility.yul\":49446:49447   */\n      dup3\n        /* \"#utility.yul\":49428:49448   */\n      tag_577\n      jump\t// in\n    tag_1093:\n        /* \"#utility.yul\":49423:49448   */\n      swap2\n      pop\n        /* \"#utility.yul\":49462:49482   */\n      tag_1094\n        /* \"#utility.yul\":49480:49481   */\n      dup4\n        /* \"#utility.yul\":49462:49482   */\n      tag_577\n      jump\t// in\n    tag_1094:\n        /* \"#utility.yul\":49457:49482   */\n      swap3\n      pop\n        /* \"#utility.yul\":49506:49507   */\n      dup3\n        /* \"#utility.yul\":49503:49504   */\n      dup3\n        /* \"#utility.yul\":49499:49508   */\n      sub\n        /* \"#utility.yul\":49491:49508   */\n      swap1\n      pop\n        /* \"#utility.yul\":49530:49531   */\n      dup2\n        /* \"#utility.yul\":49524:49528   */\n      dup2\n        /* \"#utility.yul\":49521:49532   */\n      gt\n        /* \"#utility.yul\":49518:49555   */\n      iszero\n      tag_1095\n      jumpi\n        /* \"#utility.yul\":49535:49553   */\n      tag_1096\n      tag_632\n      jump\t// in\n    tag_1096:\n        /* \"#utility.yul\":49518:49555   */\n    tag_1095:\n        /* \"#utility.yul\":49368:49562   */\n      swap3\n      swap2\n      pop\n      pop\n      jump\t// out\n        /* \"#utility.yul\":49568:49759   */\n    tag_478:\n        /* \"#utility.yul\":49608:49611   */\n      0x00\n        /* \"#utility.yul\":49627:49647   */\n      tag_1098\n        /* \"#utility.yul\":49645:49646   */\n      dup3\n        /* \"#utility.yul\":49627:49647   */\n      tag_577\n      jump\t// in\n    tag_1098:\n        /* \"#utility.yul\":49622:49647   */\n      swap2\n      pop\n        /* \"#utility.yul\":49661:49681   */\n      tag_1099\n        /* \"#utility.yul\":49679:49680   */\n      dup4\n        /* \"#utility.yul\":49661:49681   */\n      tag_577\n      jump\t// in\n    tag_1099:\n        /* \"#utility.yul\":49656:49681   */\n      swap3\n      pop\n        /* \"#utility.yul\":49704:49705   */\n      dup3\n        /* \"#utility.yul\":49701:49702   */\n      dup3\n        /* \"#utility.yul\":49697:49706   */\n      add\n        /* \"#utility.yul\":49690:49706   */\n      swap1\n      pop\n        /* \"#utility.yul\":49725:49728   */\n      dup1\n        /* \"#utility.yul\":49722:49723   */\n      dup3\n        /* \"#utility.yul\":49719:49729   */\n      gt\n        /* \"#utility.yul\":49716:49752   */\n      iszero\n      tag_1100\n      jumpi\n        /* \"#utility.yul\":49732:49750   */\n      tag_1101\n      tag_632\n      jump\t// in\n    tag_1101:\n        /* \"#utility.yul\":49716:49752   */\n    tag_1100:\n        /* \"#utility.yul\":49568:49759   */\n      swap3\n      swap2\n      pop\n      pop\n      jump\t// out\n        /* \"#utility.yul\":49765:49998   */\n    tag_484:\n        /* \"#utility.yul\":49804:49807   */\n      0x00\n        /* \"#utility.yul\":49827:49851   */\n      tag_1103\n        /* \"#utility.yul\":49845:49850   */\n      dup3\n        /* \"#utility.yul\":49827:49851   */\n      tag_577\n      jump\t// in\n    tag_1103:\n        /* \"#utility.yul\":49818:49851   */\n      swap2\n      pop\n        /* \"#utility.yul\":49873:49939   */\n      0xffffffffffffffffffffffffffffffffffffffffffffffffffffffffffffffff\n        /* \"#utility.yul\":49866:49871   */\n      dup3\n        /* \"#utility.yul\":49863:49940   */\n      sub\n        /* \"#utility.yul\":49860:49963   */\n      tag_1104\n      jumpi\n        /* \"#utility.yul\":49943:49961   */\n      tag_1105\n      tag_632\n      jump\t// in\n    tag_1105:\n        /* \"#utility.yul\":49860:49963   */\n    tag_1104:\n        /* \"#utility.yul\":49990:49991   */\n      0x01\n        /* \"#utility.yul\":49983:49988   */\n      dup3\n        /* \"#utility.yul\":49979:49992   */\n      add\n        /* \"#utility.yul\":49972:49992   */\n      swap1\n      pop\n        /* \"#utility.yul\":49765:49998   */\n      swap2\n      swap1\n      pop\n      jump\t// out\n        /* \"#utility.yul\":50004:50414   */\n    tag_512:\n        /* \"#utility.yul\":50044:50051   */\n      0x00\n        /* \"#utility.yul\":50067:50087   */\n      tag_1107\n        /* \"#utility.yul\":50085:50086   */\n      dup3\n        /* \"#utility.yul\":50067:50087   */\n      tag_577\n      jump\t// in\n    tag_1107:\n        /* \"#utility.yul\":50062:50087   */\n      swap2\n      pop\n        /* \"#utility.yul\":50101:50121   */\n      tag_1108\n        /* \"#utility.yul\":50119:50120   */\n      dup4\n        /* \"#utility.yul\":50101:50121   */\n      tag_577\n      jump\t// in\n    tag_1108:\n        /* \"#utility.yul\":50096:50121   */\n      swap3\n      pop\n        /* \"#utility.yul\":50156:50157   */\n      dup3\n        /* \"#utility.yul\":50153:50154   */\n      dup3\n        /* \"#utility.yul\":50149:50158   */\n      mul\n        /* \"#utility.yul\":50178:50208   */\n      tag_1109\n        /* \"#utility.yul\":50196:50207   */\n      dup2\n        /* \"#utility.yul\":50178:50208   */\n      tag_577\n      jump\t// in\n    tag_1109:\n        /* \"#utility.yul\":50167:50208   */\n      swap2\n      pop\n        /* \"#utility.yul\":50357:50358   */\n      dup3\n        /* \"#utility.yul\":50348:50355   */\n      dup3\n        /* \"#utility.yul\":50344:50359   */\n      div\n        /* \"#utility.yul\":50341:50342   */\n      dup5\n        /* \"#utility.yul\":50338:50360   */\n      eq\n        /* \"#utility.yul\":50318:50319   */\n      dup4\n        /* \"#utility.yul\":50311:50320   */\n      iszero\n        /* \"#utility.yul\":50291:50374   */\n      or\n        /* \"#utility.yul\":50268:50407   */\n      tag_1110\n      jumpi\n        /* \"#utility.yul\":50387:50405   */\n      tag_1111\n      tag_632\n      jump\t// in\n    tag_1111:\n        /* \"#utility.yul\":50268:50407   */\n    tag_1110:\n        /* \"#utility.yul\":50052:50414   */\n      pop\n        /* \"#utility.yul\":50004:50414   */\n      swap3\n      swap2\n      pop\n      pop\n      jump\t// out\n\n    auxdata: 0xa26469706673582212204095c541f3b8881eed6ffd0079159baddd1c71e831d6f8a480ac8858af892bcd64736f6c634300081e0033\n}\n",
				"bytecode": {
					"linkReferences": {},
					"object": "6080604052348015600e575f5ffd5b50335f5f6101000a81548173ffffffffffffffffffffffffffffffffffffffff021916908373ffffffffffffffffffffffffffffffffffffffff1602179055505f60035f3373ffffffffffffffffffffffffffffffffffffffff1673ffffffffffffffffffffffffffffffffffffffff1681526020019081526020015f205f6101000a81548160ff0219169083600481111560aa5760a960b3565b5b021790555060e0565b7f4e487b71000000000000000000000000000000000000000000000000000000005f52602160045260245ffd5b614507806100ed5f395ff3fe608060405234801561000f575f5ffd5b50600436106100fe575f3560e01c80638da5cb5b11610095578063b6017c6711610064578063b6017c67146102d7578063c6b0b83914610307578063d5feb1941461033c578063fbf4a0cd1461036c576100fe565b80638da5cb5b1461022357806390506e02146102415780639937464214610273578063a560b77c146102a3576100fe565b80635cf291dc116100d15780635cf291dc146101b3578063630a195b146101cf5780637ab6cd50146101eb5780638799d6fc14610207576100fe565b806306922f52146101025780631ea32e5c146101325780633567fa7d146101675780634e5ae78b14610183575b5f5ffd5b61011c60048036038101906101179190612d46565b610388565b6040516101299190612ea8565b60405180910390f35b61014c60048036038101906101479190612d46565b6104e6565b60405161015e96959493929190612fc2565b60405180910390f35b610181600480360381019061017c9190613070565b61081a565b005b61019d600480360381019061019891906130f8565b610a6c565b6040516101aa9190613188565b60405180910390f35b6101cd60048036038101906101c891906131c4565b610b28565b005b6101e960048036038101906101e4919061326b565b611367565b005b610205600480360381019061020091906130f8565b6114ab565b005b610221600480360381019061021c91906132a9565b611679565b005b61022b611862565b604051610238919061337d565b60405180910390f35b61025b60048036038101906102569190612d46565b611886565b60405161026a9392919061350d565b60405180910390f35b61028d60048036038101906102889190613557565b611b80565b60405161029a91906135c8565b60405180910390f35b6102bd60048036038101906102b89190612d46565b611b9d565b6040516102ce9594939291906135ff565b60405180910390f35b6102f160048036038101906102ec9190612d46565b611d58565b6040516102fe9190613650565b60405180910390f35b610321600480360381019061031c9190612d46565b611fb9565b60405161033396959493929190613670565b60405180910390f35b61035660048036038101906103519190612d46565b612351565b6040516103639190613188565b60405180910390f35b610386600480360381019061038191906136eb565b6124d2565b005b60608160028160405161039b9190613791565b90815260200160405180910390205f9054906101000a900460ff166103f5576040517f08c379a00000000000000000000000000000000000000000000000000000000081526004016103ec906137f1565b60405180910390fd5b6007836040516104059190613791565b9081526020016040518091039020805480602002602001604051908101604052809291908181526020015f905b828210156104da578382905f5260205f2001805461044f9061383c565b80601f016020809104026020016040519081016040528092919081815260200182805461047b9061383c565b80156104c65780601f1061049d576101008083540402835291602001916104c6565b820191905f5260205f20905b8154815290600101906020018083116104a957829003601f168201915b505050505081526020019060010190610432565b50505050915050919050565b60608060605f5f6060866002816040516105009190613791565b90815260200160405180910390205f9054906101000a900460ff1661055a576040517f08c379a0000000000000000000000000000000000000000000000000000000008152600401610551906137f1565b60405180910390fd5b5f60018960405161056b9190613791565b90815260200160405180910390209050806001018160020182600301836004015f9054906101000a900460ff168460040160019054906101000a900473ffffffffffffffffffffffffffffffffffffffff1660058e6040516105cd9190613791565b90815260200160405180910390208580546105e79061383c565b80601f01602080910402602001604051908101604052809291908181526020018280546106139061383c565b801561065e5780601f106106355761010080835404028352916020019161065e565b820191905f5260205f20905b81548152906001019060200180831161064157829003601f168201915b505050505095508480546106719061383c565b80601f016020809104026020016040519081016040528092919081815260200182805461069d9061383c565b80156106e85780601f106106bf576101008083540402835291602001916106e8565b820191905f5260205f20905b8154815290600101906020018083116106cb57829003601f168201915b505050505094508380546106fb9061383c565b80601f01602080910402602001604051908101604052809291908181526020018280546107279061383c565b80156107725780601f1061074957610100808354040283529160200191610772565b820191905f5260205f20905b81548152906001019060200180831161075557829003601f168201915b505050505093508080546107859061383c565b80601f01602080910402602001604051908101604052809291908181526020018280546107b19061383c565b80156107fc5780601f106107d3576101008083540402835291602001916107fc565b820191905f5260205f20905b8154815290600101906020018083116107df57829003601f168201915b50505050509050975097509750975097509750505091939550919395565b8260028160405161082b9190613791565b90815260200160405180910390205f9054906101000a900460ff16610885576040517f08c379a000000000000000000000000000000000000000000000000000000000815260040161087c906137f1565b60405180910390fd5b5f5f9054906101000a900473ffffffffffffffffffffffffffffffffffffffff1673ffffffffffffffffffffffffffffffffffffffff163373ffffffffffffffffffffffffffffffffffffffff16148061094c5750600360048111156108ee576108ed612f10565b5b60035f3373ffffffffffffffffffffffffffffffffffffffff1673ffffffffffffffffffffffffffffffffffffffff1681526020019081526020015f205f9054906101000a900460ff16600481111561094a57610949612f10565b5b145b61098b576040517f08c379a0000000000000000000000000000000000000000000000000000000008152600401610982906138dc565b60405180910390fd5b60018460405161099b9190613791565b9081526020016040518091039020600501604051806060016040528085815260200184815260200142815250908060018154018082558091505060019003905f5260205f2090600302015f909190919091505f820151815f01556020820151816001019081610a0a9190613a9a565b5060408201518160020155505083604051610a259190613791565b60405180910390207f684479d30f778d7227907b06c6d91844ada06c36ad099d3e79def4dddc42e3108484604051610a5e929190613b69565b60405180910390a250505050565b5f82600281604051610a7e9190613791565b90815260200160405180910390205f9054906101000a900460ff16610ad8576040517f08c379a0000000000000000000000000000000000000000000000000000000008152600401610acf906137f1565b60405180910390fd5b600684604051610ae89190613791565b908152602001604051809103902083604051610b049190613791565b90815260200160405180910390205f9054906101000a900460ff1691505092915050565b81600281604051610b399190613791565b90815260200160405180910390205f9054906101000a900460ff16610b93576040517f08c379a0000000000000000000000000000000000000000000000000000000008152600401610b8a906137f1565b60405180910390fd5b5f600184604051610ba49190613791565b90815260200160405180910390209050806004015f9054906101000a900460ff166005811115610bd757610bd6612f10565b5b836005811115610bea57610be9612f10565b5b11610c2a576040517f08c379a0000000000000000000000000000000000000000000000000000000008152600401610c2190613c07565b60405180910390fd5b60016005811115610c3e57610c3d612f10565b5b836005811115610c5157610c50612f10565b5b03610d0b5760016004811115610c6a57610c69612f10565b5b60035f3373ffffffffffffffffffffffffffffffffffffffff1673ffffffffffffffffffffffffffffffffffffffff1681526020019081526020015f205f9054906101000a900460ff166004811115610cc657610cc5612f10565b5b14610d06576040517f08c379a0000000000000000000000000000000000000000000000000000000008152600401610cfd90613c6f565b60405180910390fd5b611121565b60026005811115610d1f57610d1e612f10565b5b836005811115610d3257610d31612f10565b5b03610dec5760026004811115610d4b57610d4a612f10565b5b60035f3373ffffffffffffffffffffffffffffffffffffffff1673ffffffffffffffffffffffffffffffffffffffff1681526020019081526020015f205f9054906101000a900460ff166004811115610da757610da6612f10565b5b14610de7576040517f08c379a0000000000000000000000000000000000000000000000000000000008152600401610dde90613cd7565b60405180910390fd5b611120565b60036005811115610e0057610dff612f10565b5b836005811115610e1357610e12612f10565b5b03610ecd5760036004811115610e2c57610e2b612f10565b5b60035f3373ffffffffffffffffffffffffffffffffffffffff1673ffffffffffffffffffffffffffffffffffffffff1681526020019081526020015f205f9054906101000a900460ff166004811115610e8857610e87612f10565b5b14610ec8576040517f08c379a0000000000000000000000000000000000000000000000000000000008152600401610ebf90613d3f565b60405180910390fd5b61111f565b60046005811115610ee157610ee0612f10565b5b836005811115610ef457610ef3612f10565b5b03610fad57600480811115610f0c57610f0b612f10565b5b60035f3373ffffffffffffffffffffffffffffffffffffffff1673ffffffffffffffffffffffffffffffffffffffff1681526020019081526020015f205f9054906101000a900460ff166004811115610f6857610f67612f10565b5b14610fa8576040517f08c379a0000000000000000000000000000000000000000000000000000000008152600401610f9f90613da7565b60405180910390fd5b61111e565b600580811115610fc057610fbf612f10565b5b836005811115610fd357610fd2612f10565b5b036110e2575f5f9054906101000a900473ffffffffffffffffffffffffffffffffffffffff1673ffffffffffffffffffffffffffffffffffffffff163373ffffffffffffffffffffffffffffffffffffffff16148061109e57506004808111156110405761103f612f10565b5b60035f3373ffffffffffffffffffffffffffffffffffffffff1673ffffffffffffffffffffffffffffffffffffffff1681526020019081526020015f205f9054906101000a900460ff16600481111561109c5761109b612f10565b5b145b6110dd576040517f08c379a00000000000000000000000000000000000000000000000000000000081526004016110d490613e35565b60405180910390fd5b61111d565b6040517f08c379a000000000000000000000000000000000000000000000000000000000815260040161111490613e9d565b60405180910390fd5b5b5b5b5b82816004015f6101000a81548160ff0219169083600581111561114757611146612f10565b5b0217905550338160040160016101000a81548173ffffffffffffffffffffffffffffffffffffffff021916908373ffffffffffffffffffffffffffffffffffffffff1602179055508360405161119d9190613791565b60405180910390207f9eabd3215b4e6fad51a44eb557fbb8224e77209a699c1e273f0d45e3849c1c2b84336040516111d6929190613ebb565b60405180910390a2600460058111156111f2576111f1612f10565b5b83600581111561120557611204612f10565b5b03611361576112d381600301805461121c9061383c565b80601f01602080910402602001604051908101604052809291908181526020018280546112489061383c565b80156112935780601f1061126a57610100808354040283529160200191611293565b820191905f5260205f20905b81548152906001019060200180831161127657829003601f168201915b50505050506040518060400160405280600b81526020017f5375737461696e61626c65000000000000000000000000000000000000000000815250612705565b801561131b5750611319846040518060400160405280600b81526020017f5375737461696e61626c65000000000000000000000000000000000000000000815250612828565b155b156113605761135f846040518060400160405280600b81526020017f5375737461696e61626c65000000000000000000000000000000000000000000815250612878565b5b5b50505050565b5f5f9054906101000a900473ffffffffffffffffffffffffffffffffffffffff1673ffffffffffffffffffffffffffffffffffffffff163373ffffffffffffffffffffffffffffffffffffffff16146113f5576040517f08c379a00000000000000000000000000000000000000000000000000000000081526004016113ec90613f2c565b60405180910390fd5b8060035f8473ffffffffffffffffffffffffffffffffffffffff1673ffffffffffffffffffffffffffffffffffffffff1681526020019081526020015f205f6101000a81548160ff0219169083600481111561145457611453612f10565b5b02179055508173ffffffffffffffffffffffffffffffffffffffff167f4ac36fa53f167ceb85964be512e01de2a3b8bdb9862f917da079deeeff689b388260405161149f91906135c8565b60405180910390a25050565b816002816040516114bc9190613791565b90815260200160405180910390205f9054906101000a900460ff16611516576040517f08c379a000000000000000000000000000000000000000000000000000000000815260040161150d906137f1565b60405180910390fd5b5f6001846040516115279190613791565b908152602001604051809103902090505f5f9054906101000a900473ffffffffffffffffffffffffffffffffffffffff1673ffffffffffffffffffffffffffffffffffffffff163373ffffffffffffffffffffffffffffffffffffffff1614806115e057508060040160019054906101000a900473ffffffffffffffffffffffffffffffffffffffff1673ffffffffffffffffffffffffffffffffffffffff163373ffffffffffffffffffffffffffffffffffffffff16145b61161f576040517f08c379a000000000000000000000000000000000000000000000000000000000815260040161161690613f94565b60405180910390fd5b6116298484612828565b15611669576040517f08c379a000000000000000000000000000000000000000000000000000000000815260040161166090613ffc565b60405180910390fd5b6116738484612878565b50505050565b6002846040516116899190613791565b90815260200160405180910390205f9054906101000a900460ff16156116e4576040517f08c379a00000000000000000000000000000000000000000000000000000000081526004016116db90614064565b60405180910390fd5b5f6001856040516116f59190613791565b9081526020016040518091039020905084815f0190816117159190613a9a565b50838160010190816117279190613a9a565b50828160020190816117399190613a9a565b508181600301908161174b9190613a9a565b505f816004015f6101000a81548160ff0219169083600581111561177257611771612f10565b5b0217905550338160040160016101000a81548173ffffffffffffffffffffffffffffffffffffffff021916908373ffffffffffffffffffffffffffffffffffffffff1602179055506001816006015f6101000a81548160ff02191690831515021790555060016002866040516117e89190613791565b90815260200160405180910390205f6101000a81548160ff0219169083151502179055508460405161181a9190613791565b60405180910390207f5a304478b5ad812924e60fb3ee7fadbb2269effa0df0ede39b00fc1c606ee0c08585604051611853929190614082565b60405180910390a25050505050565b5f5f9054906101000a900473ffffffffffffffffffffffffffffffffffffffff1681565b60608060608360028160405161189c9190613791565b90815260200160405180910390205f9054906101000a900460ff166118f6576040517f08c379a00000000000000000000000000000000000000000000000000000000081526004016118ed906137f1565b60405180910390fd5b5f6001866040516119079190613791565b908152602001604051809103902090505f816005018054905090508067ffffffffffffffff81111561193c5761193b612c22565b5b60405190808252806020026020018201604052801561196a5781602001602082028036833780820191505090505b5095508067ffffffffffffffff81111561198757611986612c22565b5b6040519080825280602002602001820160405280156119ba57816020015b60608152602001906001900390816119a55790505b5094508067ffffffffffffffff8111156119d7576119d6612c22565b5b604051908082528060200260200182016040528015611a055781602001602082028036833780820191505090505b5093505f5f90505b81811015611b7557826005018181548110611a2b57611a2a6140b7565b5b905f5260205f2090600302015f0154878281518110611a4d57611a4c6140b7565b5b602002602001018181525050826005018181548110611a6f57611a6e6140b7565b5b905f5260205f2090600302016001018054611a899061383c565b80601f0160208091040260200160405190810160405280929190818152602001828054611ab59061383c565b8015611b005780601f10611ad757610100808354040283529160200191611b00565b820191905f5260205f20905b815481529060010190602001808311611ae357829003601f168201915b5050505050868281518110611b1857611b176140b7565b5b6020026020010181905250826005018181548110611b3957611b386140b7565b5b905f5260205f20906003020160020154858281518110611b5c57611b5b6140b7565b5b6020026020010181815250508080600101915050611a0d565b505050509193909250565b6003602052805f5260405f205f915054906101000a900460ff1681565b5f5f5f5f5f85600281604051611bb39190613791565b90815260200160405180910390205f9054906101000a900460ff16611c0d576040517f08c379a0000000000000000000000000000000000000000000000000000000008152600401611c04906137f1565b60405180910390fd5b5f600188604051611c1e9190613791565b908152602001604051809103902090505f816005018054905090505f8103611c5e575f5f5f5f611c4d8d612351565b975097509750975097505050611d4e565b5f5f90505f836005015f81548110611c7957611c786140b7565b5b905f5260205f2090600302015f015490505f846005015f81548110611ca157611ca06140b7565b5b905f5260205f2090600302015f015490505f5f90505b84811015611d1b575f866005018281548110611cd657611cd56140b7565b5b905f5260205f2090600302015f015490508085611cf39190614111565b945083811215611d01578093505b82811315611d0d578092505b508080600101915050611cb7565b505f8484611d29919061417f565b90505f611d358e612351565b905085828585849c509c509c509c509c50505050505050505b5091939590929450565b606081600281604051611d6b9190613791565b90815260200160405180910390205f9054906101000a900460ff16611dc5576040517f08c379a0000000000000000000000000000000000000000000000000000000008152600401611dbc906137f1565b60405180910390fd5b5f600184604051611dd69190613791565b908152602001604051809103902090505f5f9054906101000a900473ffffffffffffffffffffffffffffffffffffffff1673ffffffffffffffffffffffffffffffffffffffff163373ffffffffffffffffffffffffffffffffffffffff161480611e8f57508060040160019054906101000a900473ffffffffffffffffffffffffffffffffffffffff1673ffffffffffffffffffffffffffffffffffffffff163373ffffffffffffffffffffffffffffffffffffffff16145b611ece576040517f08c379a0000000000000000000000000000000000000000000000000000000008152600401611ec590614231565b60405180910390fd5b5f843342604051602001611ee4939291906142b4565b6040516020818303038152906040528051906020012090505f611f0682612969565b905085600482604051611f199190613791565b90815260200160405180910390209081611f339190613a9a565b5080600587604051611f459190613791565b90815260200160405180910390209081611f5f9190613a9a565b5085604051611f6e9190613791565b60405180910390207f5b09ec3fe7870357cbc45ef4e1d69860d921f49908dd748edeeaefc8158864db82604051611fa59190613650565b60405180910390a280945050505050919050565b6060806060805f5f5f600488604051611fd29190613791565b90815260200160405180910390208054611feb9061383c565b80601f01602080910402602001604051908101604052809291908181526020018280546120179061383c565b80156120625780601f1061203957610100808354040283529160200191612062565b820191905f5260205f20905b81548152906001019060200180831161204557829003601f168201915b505050505090505f8151036120ac576040517f08c379a00000000000000000000000000000000000000000000000000000000081526004016120a390614336565b60405180910390fd5b5f6001826040516120bd9190613791565b90815260200160405180910390209050805f01816001018260020183600301846004015f9054906101000a900460ff168560040160019054906101000a900473ffffffffffffffffffffffffffffffffffffffff1685805461211e9061383c565b80601f016020809104026020016040519081016040528092919081815260200182805461214a9061383c565b80156121955780601f1061216c57610100808354040283529160200191612195565b820191905f5260205f20905b81548152906001019060200180831161217857829003601f168201915b505050505095508480546121a89061383c565b80601f01602080910402602001604051908101604052809291908181526020018280546121d49061383c565b801561221f5780601f106121f65761010080835404028352916020019161221f565b820191905f5260205f20905b81548152906001019060200180831161220257829003601f168201915b505050505094508380546122329061383c565b80601f016020809104026020016040519081016040528092919081815260200182805461225e9061383c565b80156122a95780601f10612280576101008083540402835291602001916122a9565b820191905f5260205f20905b81548152906001019060200180831161228c57829003601f168201915b505050505093508280546122bc9061383c565b80601f01602080910402602001604051908101604052809291908181526020018280546122e89061383c565b80156123335780601f1061230a57610100808354040283529160200191612333565b820191905f5260205f20905b81548152906001019060200180831161231657829003601f168201915b50505050509250975097509750975097509750505091939550919395565b5f816002816040516123639190613791565b90815260200160405180910390205f9054906101000a900460ff166123bd576040517f08c379a00000000000000000000000000000000000000000000000000000000081526004016123b4906137f1565b60405180910390fd5b5f6001846040516123ce9190613791565b90815260200160405180910390209050806009015f9054906101000a900460ff1615801561240b57508060090160019054906101000a900460ff16155b1561241a5760019250506124cc565b5f5f90505b81600501805490508110156124c5575f826005018281548110612445576124446140b7565b5b905f5260205f2090600302015f01549050826009015f9054906101000a900460ff1680156124765750826007015481125b15612486575f94505050506124cc565b8260090160019054906101000a900460ff1680156124a75750826008015481135b156124b7575f94505050506124cc565b50808060010191505061241f565b5060019250505b50919050565b826002816040516124e39190613791565b90815260200160405180910390205f9054906101000a900460ff1661253d576040517f08c379a0000000000000000000000000000000000000000000000000000000008152600401612534906137f1565b60405180910390fd5b5f5f9054906101000a900473ffffffffffffffffffffffffffffffffffffffff1673ffffffffffffffffffffffffffffffffffffffff163373ffffffffffffffffffffffffffffffffffffffff16148061260457505f60048111156125a5576125a4612f10565b5b60035f3373ffffffffffffffffffffffffffffffffffffffff1673ffffffffffffffffffffffffffffffffffffffff1681526020019081526020015f205f9054906101000a900460ff16600481111561260157612600612f10565b5b14155b612643576040517f08c379a000000000000000000000000000000000000000000000000000000000815260040161263a9061439e565b60405180910390fd5b5f6001856040516126549190613791565b908152602001604051809103902090508381600701819055508281600801819055506001816009015f6101000a81548160ff02191690831515021790555060018160090160016101000a81548160ff021916908315150217905550846040516126bd9190613791565b60405180910390207f2927e1ce4ffbe3bb1ec8ded8077445fd60eb0de83debbb3a01462a85f82ac59e85856040516126f69291906143bc565b60405180910390a25050505050565b5f5f8390505f839050805182511015612722575f92505050612822565b5f5f90505b8151835161273591906143e3565b811161281b575f600190505f5f90505b83518110156127f357838181518110612761576127606140b7565b5b602001015160f81c60f81b7effffffffffffffffffffffffffffffffffffffffffffffffffffffffffffff191685828561279b9190614416565b815181106127ac576127ab6140b7565b5b602001015160f81c60f81b7effffffffffffffffffffffffffffffffffffffffffffffffffffffffffffff1916146127e6575f91506127f3565b8080600101915050612745565b508015612807576001945050505050612822565b50808061281390614449565b915050612727565b505f925050505b92915050565b5f6006836040516128399190613791565b9081526020016040518091039020826040516128559190613791565b90815260200160405180910390205f9054906101000a900460ff16905092915050565b600160068360405161288a9190613791565b9081526020016040518091039020826040516128a69190613791565b90815260200160405180910390205f6101000a81548160ff0219169083151502179055506007826040516128da9190613791565b908152602001604051809103902081908060018154018082558091505060019003905f5260205f20015f9091909190915090816129179190613a9a565b50816040516129269190613791565b60405180910390207f34fcd4787adb461453a1aabffc2349656feba59e5a3e83c4aad58836db82bec68260405161295d9190613650565b60405180910390a25050565b60605f7f303132333435363738396162636465660000000000000000000000000000000090505f604267ffffffffffffffff8111156129ab576129aa612c22565b5b6040519080825280601f01601f1916602001820160405280156129dd5781602001600182028036833780820191505090505b5090507f3000000000000000000000000000000000000000000000000000000000000000815f81518110612a1457612a136140b7565b5b60200101907effffffffffffffffffffffffffffffffffffffffffffffffffffffffffffff191690815f1a9053507f780000000000000000000000000000000000000000000000000000000000000081600181518110612a7757612a766140b7565b5b60200101907effffffffffffffffffffffffffffffffffffffffffffffffffffffffffffff191690815f1a9053505f5f90505b6020811015612bee57826004868360208110612ac957612ac86140b7565b5b1a60f81b60f81c60ff16901c60ff1660108110612ae957612ae86140b7565b5b1a60f81b82600283612afb9190614490565b6002612b079190614416565b81518110612b1857612b176140b7565b5b60200101907effffffffffffffffffffffffffffffffffffffffffffffffffffffffffffff191690815f1a90535082600f868360208110612b5c57612b5b6140b7565b5b1a60f81b60f81c1660ff1660108110612b7857612b776140b7565b5b1a60f81b826001600284612b8c9190614490565b6002612b989190614416565b612ba29190614416565b81518110612bb357612bb26140b7565b5b60200101907effffffffffffffffffffffffffffffffffffffffffffffffffffffffffffff191690815f1a9053508080600101915050612aaa565b508092505050919050565b5f604051905090565b5f5ffd5b5f5ffd5b5f5ffd5b5f5ffd5b5f601f19601f8301169050919050565b7f4e487b71000000000000000000000000000000000000000000000000000000005f52604160045260245ffd5b612c5882612c12565b810181811067ffffffffffffffff82111715612c7757612c76612c22565b5b80604052505050565b5f612c89612bf9565b9050612c958282612c4f565b919050565b5f67ffffffffffffffff821115612cb457612cb3612c22565b5b612cbd82612c12565b9050602081019050919050565b828183375f83830152505050565b5f612cea612ce584612c9a565b612c80565b905082815260208101848484011115612d0657612d05612c0e565b5b612d11848285612cca565b509392505050565b5f82601f830112612d2d57612d2c612c0a565b5b8135612d3d848260208601612cd8565b91505092915050565b5f60208284031215612d5b57612d5a612c02565b5b5f82013567ffffffffffffffff811115612d7857612d77612c06565b5b612d8484828501612d19565b91505092915050565b5f81519050919050565b5f82825260208201905092915050565b5f819050602082019050919050565b5f81519050919050565b5f82825260208201905092915050565b8281835e5f83830152505050565b5f612de882612db6565b612df28185612dc0565b9350612e02818560208601612dd0565b612e0b81612c12565b840191505092915050565b5f612e218383612dde565b905092915050565b5f602082019050919050565b5f612e3f82612d8d565b612e498185612d97565b935083602082028501612e5b85612da7565b805f5b85811015612e965784840389528151612e778582612e16565b9450612e8283612e29565b925060208a01995050600181019050612e5e565b50829750879550505050505092915050565b5f6020820190508181035f830152612ec08184612e35565b905092915050565b5f82825260208201905092915050565b5f612ee282612db6565b612eec8185612ec8565b9350612efc818560208601612dd0565b612f0581612c12565b840191505092915050565b7f4e487b71000000000000000000000000000000000000000000000000000000005f52602160045260245ffd5b60068110612f4e57612f4d612f10565b5b50565b5f819050612f5e82612f3d565b919050565b5f612f6d82612f51565b9050919050565b612f7d81612f63565b82525050565b5f73ffffffffffffffffffffffffffffffffffffffff82169050919050565b5f612fac82612f83565b9050919050565b612fbc81612fa2565b82525050565b5f60c0820190508181035f830152612fda8189612ed8565b90508181036020830152612fee8188612ed8565b905081810360408301526130028187612ed8565b90506130116060830186612f74565b61301e6080830185612fb3565b81810360a08301526130308184612ed8565b9050979650505050505050565b5f819050919050565b61304f8161303d565b8114613059575f5ffd5b50565b5f8135905061306a81613046565b92915050565b5f5f5f6060848603121561308757613086612c02565b5b5f84013567ffffffffffffffff8111156130a4576130a3612c06565b5b6130b086828701612d19565b93505060206130c18682870161305c565b925050604084013567ffffffffffffffff8111156130e2576130e1612c06565b5b6130ee86828701612d19565b9150509250925092565b5f5f6040838503121561310e5761310d612c02565b5b5f83013567ffffffffffffffff81111561312b5761312a612c06565b5b61313785828601612d19565b925050602083013567ffffffffffffffff81111561315857613157612c06565b5b61316485828601612d19565b9150509250929050565b5f8115159050919050565b6131828161316e565b82525050565b5f60208201905061319b5f830184613179565b92915050565b600681106131ad575f5ffd5b50565b5f813590506131be816131a1565b92915050565b5f5f604083850312156131da576131d9612c02565b5b5f83013567ffffffffffffffff8111156131f7576131f6612c06565b5b61320385828601612d19565b9250506020613214858286016131b0565b9150509250929050565b61322781612fa2565b8114613231575f5ffd5b50565b5f813590506132428161321e565b92915050565b60058110613254575f5ffd5b50565b5f8135905061326581613248565b92915050565b5f5f6040838503121561328157613280612c02565b5b5f61328e85828601613234565b925050602061329f85828601613257565b9150509250929050565b5f5f5f5f608085870312156132c1576132c0612c02565b5b5f85013567ffffffffffffffff8111156132de576132dd612c06565b5b6132ea87828801612d19565b945050602085013567ffffffffffffffff81111561330b5761330a612c06565b5b61331787828801612d19565b935050604085013567ffffffffffffffff81111561333857613337612c06565b5b61334487828801612d19565b925050606085013567ffffffffffffffff81111561336557613364612c06565b5b61337187828801612d19565b91505092959194509250565b5f6020820190506133905f830184612fb3565b92915050565b5f81519050919050565b5f82825260208201905092915050565b5f819050602082019050919050565b6133c88161303d565b82525050565b5f6133d983836133bf565b60208301905092915050565b5f602082019050919050565b5f6133fb82613396565b61340581856133a0565b9350613410836133b0565b805f5b8381101561344057815161342788826133ce565b9750613432836133e5565b925050600181019050613413565b5085935050505092915050565b5f81519050919050565b5f82825260208201905092915050565b5f819050602082019050919050565b5f819050919050565b61348881613476565b82525050565b5f613499838361347f565b60208301905092915050565b5f602082019050919050565b5f6134bb8261344d565b6134c58185613457565b93506134d083613467565b805f5b838110156135005781516134e7888261348e565b97506134f2836134a5565b9250506001810190506134d3565b5085935050505092915050565b5f6060820190508181035f83015261352581866133f1565b905081810360208301526135398185612e35565b9050818103604083015261354d81846134b1565b9050949350505050565b5f6020828403121561356c5761356b612c02565b5b5f61357984828501613234565b91505092915050565b6005811061359357613592612f10565b5b50565b5f8190506135a382613582565b919050565b5f6135b282613596565b9050919050565b6135c2816135a8565b82525050565b5f6020820190506135db5f8301846135b9565b92915050565b6135ea81613476565b82525050565b6135f98161303d565b82525050565b5f60a0820190506136125f8301886135e1565b61361f60208301876135f0565b61362c60408301866135f0565b61363960608301856135f0565b6136466080830184613179565b9695505050505050565b5f6020820190508181035f8301526136688184612ed8565b905092915050565b5f60c0820190508181035f8301526136888189612ed8565b9050818103602083015261369c8188612ed8565b905081810360408301526136b08187612ed8565b905081810360608301526136c48186612ed8565b90506136d36080830185612f74565b6136e060a0830184612fb3565b979650505050505050565b5f5f5f6060848603121561370257613701612c02565b5b5f84013567ffffffffffffffff81111561371f5761371e612c06565b5b61372b86828701612d19565b935050602061373c8682870161305c565b925050604061374d8682870161305c565b9150509250925092565b5f81905092915050565b5f61376b82612db6565b6137758185613757565b9350613785818560208601612dd0565b80840191505092915050565b5f61379c8284613761565b915081905092915050565b7f50726f64756374206e6f742072656769737465726564000000000000000000005f82015250565b5f6137db601683612ec8565b91506137e6826137a7565b602082019050919050565b5f6020820190508181035f830152613808816137cf565b9050919050565b7f4e487b71000000000000000000000000000000000000000000000000000000005f52602260045260245ffd5b5f600282049050600182168061385357607f821691505b6020821081036138665761386561380f565b5b50919050565b7f4f6e6c79204c6f67697374696373206f72206f776e65722063616e2075706c6f5f8201527f616420496f542064617461000000000000000000000000000000000000000000602082015250565b5f6138c6602b83612ec8565b91506138d18261386c565b604082019050919050565b5f6020820190508181035f8301526138f3816138ba565b9050919050565b5f819050815f5260205f209050919050565b5f6020601f8301049050919050565b5f82821b905092915050565b5f600883026139567fffffffffffffffffffffffffffffffffffffffffffffffffffffffffffffffff8261391b565b613960868361391b565b95508019841693508086168417925050509392505050565b5f819050919050565b5f61399b61399661399184613476565b613978565b613476565b9050919050565b5f819050919050565b6139b483613981565b6139c86139c0826139a2565b848454613927565b825550505050565b5f5f905090565b6139df6139d0565b6139ea8184846139ab565b505050565b5b81811015613a0d57613a025f826139d7565b6001810190506139f0565b5050565b601f821115613a5257613a23816138fa565b613a2c8461390c565b81016020851015613a3b578190505b613a4f613a478561390c565b8301826139ef565b50505b505050565b5f82821c905092915050565b5f613a725f1984600802613a57565b1980831691505092915050565b5f613a8a8383613a63565b9150826002028217905092915050565b613aa382612db6565b67ffffffffffffffff811115613abc57613abb612c22565b5b613ac6825461383c565b613ad1828285613a11565b5f60209050601f831160018114613b02575f8415613af0578287015190505b613afa8582613a7f565b865550613b61565b601f198416613b10866138fa565b5f5b82811015613b3757848901518255600182019150602085019450602081019050613b12565b86831015613b545784890151613b50601f891682613a63565b8355505b6001600288020188555050505b505050505050565b5f604082019050613b7c5f8301856135f0565b8181036020830152613b8e8184612ed8565b90509392505050565b7f496e76616c6964207374616765207472616e736974696f6e20286d75737420705f8201527f726f677265737320666f72776172642900000000000000000000000000000000602082015250565b5f613bf1603083612ec8565b9150613bfc82613b97565b604082019050919050565b5f6020820190508181035f830152613c1e81613be5565b9050919050565b7f4d7573742062652056656e646f720000000000000000000000000000000000005f82015250565b5f613c59600e83612ec8565b9150613c6482613c25565b602082019050919050565b5f6020820190508181035f830152613c8681613c4d565b9050919050565b7f4d757374206265204d616e7566616374757265720000000000000000000000005f82015250565b5f613cc1601483612ec8565b9150613ccc82613c8d565b602082019050919050565b5f6020820190508181035f830152613cee81613cb5565b9050919050565b7f4d757374206265204c6f676973746963730000000000000000000000000000005f82015250565b5f613d29601183612ec8565b9150613d3482613cf5565b602082019050919050565b5f6020820190508181035f830152613d5681613d1d565b9050919050565b7f4d7573742062652052657461696c6572000000000000000000000000000000005f82015250565b5f613d91601083612ec8565b9150613d9c82613d5d565b602082019050919050565b5f6020820190508181035f830152613dbe81613d85565b9050919050565b7f4d757374206265206f776e6572206f722072657461696c657220746f20636f6d5f8201527f706c657465000000000000000000000000000000000000000000000000000000602082015250565b5f613e1f602583612ec8565b9150613e2a82613dc5565b604082019050919050565b5f6020820190508181035f830152613e4c81613e13565b9050919050565b7f556e737570706f727465642073746167650000000000000000000000000000005f82015250565b5f613e87601183612ec8565b9150613e9282613e53565b602082019050919050565b5f6020820190508181035f830152613eb481613e7b565b9050919050565b5f604082019050613ece5f830185612f74565b613edb6020830184612fb3565b9392505050565b7f4f6e6c79206f776e6572000000000000000000000000000000000000000000005f82015250565b5f613f16600a83612ec8565b9150613f2182613ee2565b602082019050919050565b5f6020820190508181035f830152613f4381613f0a565b9050919050565b7f4f6e6c79206f776e6572206f722068616e646c657200000000000000000000005f82015250565b5f613f7e601583612ec8565b9150613f8982613f4a565b602082019050919050565b5f6020820190508181035f830152613fab81613f72565b9050919050565b7f426164676520616c7265616479206177617264656400000000000000000000005f82015250565b5f613fe6601583612ec8565b9150613ff182613fb2565b602082019050919050565b5f6020820190508181035f83015261401381613fda565b9050919050565b7f4c6f7420616c72656164792072656769737465726564000000000000000000005f82015250565b5f61404e601683612ec8565b91506140598261401a565b602082019050919050565b5f6020820190508181035f83015261407b81614042565b9050919050565b5f6040820190508181035f83015261409a8185612ed8565b905081810360208301526140ae8184612ed8565b90509392505050565b7f4e487b71000000000000000000000000000000000000000000000000000000005f52603260045260245ffd5b7f4e487b71000000000000000000000000000000000000000000000000000000005f52601160045260245ffd5b5f61411b8261303d565b91506141268361303d565b92508282019050828112155f8312168382125f84121516171561414c5761414b6140e4565b5b92915050565b7f4e487b71000000000000000000000000000000000000000000000000000000005f52601260045260245ffd5b5f6141898261303d565b91506141948361303d565b9250826141a4576141a3614152565b5b60015f0383147f8000000000000000000000000000000000000000000000000000000000000000831416156141dc576141db6140e4565b5b828205905092915050565b7f4f6e6c79206f776e6572206f722063757272656e742068616e646c65720000005f82015250565b5f61421b601d83612ec8565b9150614226826141e7565b602082019050919050565b5f6020820190508181035f8301526142488161420f565b9050919050565b5f8160601b9050919050565b5f6142658261424f565b9050919050565b5f6142768261425b565b9050919050565b61428e61428982612fa2565b61426c565b82525050565b5f819050919050565b6142ae6142a982613476565b614294565b82525050565b5f6142bf8286613761565b91506142cb828561427d565b6014820191506142db828461429d565b602082019150819050949350505050565b7f496e76616c696420515220746f6b656e000000000000000000000000000000005f82015250565b5f614320601083612ec8565b915061432b826142ec565b602082019050919050565b5f6020820190508181035f83015261434d81614314565b9050919050565b7f4f6e6c79206f776e6572206f7220726f6c6500000000000000000000000000005f82015250565b5f614388601283612ec8565b915061439382614354565b602082019050919050565b5f6020820190508181035f8301526143b58161437c565b9050919050565b5f6040820190506143cf5f8301856135f0565b6143dc60208301846135f0565b9392505050565b5f6143ed82613476565b91506143f883613476565b92508282039050818111156144105761440f6140e4565b5b92915050565b5f61442082613476565b915061442b83613476565b9250828201905080821115614443576144426140e4565b5b92915050565b5f61445382613476565b91507fffffffffffffffffffffffffffffffffffffffffffffffffffffffffffffffff8203614485576144846140e4565b5b600182019050919050565b5f61449a82613476565b91506144a583613476565b92508282026144b381613476565b915082820484148315176144ca576144c96140e4565b5b509291505056fea26469706673582212204095c541f3b8881eed6ffd0079159baddd1c71e831d6f8a480ac8858af892bcd64736f6c634300081e0033",
					"opcodes": "PUSH1 0x80 PUSH1 0x40 MSTORE CALLVALUE DUP1 ISZERO PUSH1 0xE JUMPI PUSH0 PUSH0 REVERT JUMPDEST POP CALLER PUSH0 PUSH0 PUSH2 0x100 EXP DUP2 SLOAD DUP2 PUSH20 0xFFFFFFFFFFFFFFFFFFFFFFFFFFFFFFFFFFFFFFFF MUL NOT AND SWAP1 DUP4 PUSH20 0xFFFFFFFFFFFFFFFFFFFFFFFFFFFFFFFFFFFFFFFF AND MUL OR SWAP1 SSTORE POP PUSH0 PUSH1 0x3 PUSH0 CALLER PUSH20 0xFFFFFFFFFFFFFFFFFFFFFFFFFFFFFFFFFFFFFFFF AND PUSH20 0xFFFFFFFFFFFFFFFFFFFFFFFFFFFFFFFFFFFFFFFF AND DUP2 MSTORE PUSH1 0x20 ADD SWAP1 DUP2 MSTORE PUSH1 0x20 ADD PUSH0 KECCAK256 PUSH0 PUSH2 0x100 EXP DUP2 SLOAD DUP2 PUSH1 0xFF MUL NOT AND SWAP1 DUP4 PUSH1 0x4 DUP2 GT ISZERO PUSH1 0xAA JUMPI PUSH1 0xA9 PUSH1 0xB3 JUMP JUMPDEST JUMPDEST MUL OR SWAP1 SSTORE POP PUSH1 0xE0 JUMP JUMPDEST PUSH32 0x4E487B7100000000000000000000000000000000000000000000000000000000 PUSH0 MSTORE PUSH1 0x21 PUSH1 0x4 MSTORE PUSH1 0x24 PUSH0 REVERT JUMPDEST PUSH2 0x4507 DUP1 PUSH2 0xED PUSH0 CODECOPY PUSH0 RETURN INVALID PUSH1 0x80 PUSH1 0x40 MSTORE CALLVALUE DUP1 ISZERO PUSH2 0xF JUMPI PUSH0 PUSH0 REVERT JUMPDEST POP PUSH1 0x4 CALLDATASIZE LT PUSH2 0xFE JUMPI PUSH0 CALLDATALOAD PUSH1 0xE0 SHR DUP1 PUSH4 0x8DA5CB5B GT PUSH2 0x95 JUMPI DUP1 PUSH4 0xB6017C67 GT PUSH2 0x64 JUMPI DUP1 PUSH4 0xB6017C67 EQ PUSH2 0x2D7 JUMPI DUP1 PUSH4 0xC6B0B839 EQ PUSH2 0x307 JUMPI DUP1 PUSH4 0xD5FEB194 EQ PUSH2 0x33C JUMPI DUP1 PUSH4 0xFBF4A0CD EQ PUSH2 0x36C JUMPI PUSH2 0xFE JUMP JUMPDEST DUP1 PUSH4 0x8DA5CB5B EQ PUSH2 0x223 JUMPI DUP1 PUSH4 0x90506E02 EQ PUSH2 0x241 JUMPI DUP1 PUSH4 0x99374642 EQ PUSH2 0x273 JUMPI DUP1 PUSH4 0xA560B77C EQ PUSH2 0x2A3 JUMPI PUSH2 0xFE JUMP JUMPDEST DUP1 PUSH4 0x5CF291DC GT PUSH2 0xD1 JUMPI DUP1 PUSH4 0x5CF291DC EQ PUSH2 0x1B3 JUMPI DUP1 PUSH4 0x630A195B EQ PUSH2 0x1CF JUMPI DUP1 PUSH4 0x7AB6CD50 EQ PUSH2 0x1EB JUMPI DUP1 PUSH4 0x8799D6FC EQ PUSH2 0x207 JUMPI PUSH2 0xFE JUMP JUMPDEST DUP1 PUSH4 0x6922F52 EQ PUSH2 0x102 JUMPI DUP1 PUSH4 0x1EA32E5C EQ PUSH2 0x132 JUMPI DUP1 PUSH4 0x3567FA7D EQ PUSH2 0x167 JUMPI DUP1 PUSH4 0x4E5AE78B EQ PUSH2 0x183 JUMPI JUMPDEST PUSH0 PUSH0 REVERT JUMPDEST PUSH2 0x11C PUSH1 0x4 DUP1 CALLDATASIZE SUB DUP2 ADD SWAP1 PUSH2 0x117 SWAP2 SWAP1 PUSH2 0x2D46 JUMP JUMPDEST PUSH2 0x388 JUMP JUMPDEST PUSH1 0x40 MLOAD PUSH2 0x129 SWAP2 SWAP1 PUSH2 0x2EA8 JUMP JUMPDEST PUSH1 0x40 MLOAD DUP1 SWAP2 SUB SWAP1 RETURN JUMPDEST PUSH2 0x14C PUSH1 0x4 DUP1 CALLDATASIZE SUB DUP2 ADD SWAP1 PUSH2 0x147 SWAP2 SWAP1 PUSH2 0x2D46 JUMP JUMPDEST PUSH2 0x4E6 JUMP JUMPDEST PUSH1 0x40 MLOAD PUSH2 0x15E SWAP7 SWAP6 SWAP5 SWAP4 SWAP3 SWAP2 SWAP1 PUSH2 0x2FC2 JUMP JUMPDEST PUSH1 0x40 MLOAD DUP1 SWAP2 SUB SWAP1 RETURN JUMPDEST PUSH2 0x181 PUSH1 0x4 DUP1 CALLDATASIZE SUB DUP2 ADD SWAP1 PUSH2 0x17C SWAP2 SWAP1 PUSH2 0x3070 JUMP JUMPDEST PUSH2 0x81A JUMP JUMPDEST STOP JUMPDEST PUSH2 0x19D PUSH1 0x4 DUP1 CALLDATASIZE SUB DUP2 ADD SWAP1 PUSH2 0x198 SWAP2 SWAP1 PUSH2 0x30F8 JUMP JUMPDEST PUSH2 0xA6C JUMP JUMPDEST PUSH1 0x40 MLOAD PUSH2 0x1AA SWAP2 SWAP1 PUSH2 0x3188 JUMP JUMPDEST PUSH1 0x40 MLOAD DUP1 SWAP2 SUB SWAP1 RETURN JUMPDEST PUSH2 0x1CD PUSH1 0x4 DUP1 CALLDATASIZE SUB DUP2 ADD SWAP1 PUSH2 0x1C8 SWAP2 SWAP1 PUSH2 0x31C4 JUMP JUMPDEST PUSH2 0xB28 JUMP JUMPDEST STOP JUMPDEST PUSH2 0x1E9 PUSH1 0x4 DUP1 CALLDATASIZE SUB DUP2 ADD SWAP1 PUSH2 0x1E4 SWAP2 SWAP1 PUSH2 0x326B JUMP JUMPDEST PUSH2 0x1367 JUMP JUMPDEST STOP JUMPDEST PUSH2 0x205 PUSH1 0x4 DUP1 CALLDATASIZE SUB DUP2 ADD SWAP1 PUSH2 0x200 SWAP2 SWAP1 PUSH2 0x30F8 JUMP JUMPDEST PUSH2 0x14AB JUMP JUMPDEST STOP JUMPDEST PUSH2 0x221 PUSH1 0x4 DUP1 CALLDATASIZE SUB DUP2 ADD SWAP1 PUSH2 0x21C SWAP2 SWAP1 PUSH2 0x32A9 JUMP JUMPDEST PUSH2 0x1679 JUMP JUMPDEST STOP JUMPDEST PUSH2 0x22B PUSH2 0x1862 JUMP JUMPDEST PUSH1 0x40 MLOAD PUSH2 0x238 SWAP2 SWAP1 PUSH2 0x337D JUMP JUMPDEST PUSH1 0x40 MLOAD DUP1 SWAP2 SUB SWAP1 RETURN JUMPDEST PUSH2 0x25B PUSH1 0x4 DUP1 CALLDATASIZE SUB DUP2 ADD SWAP1 PUSH2 0x256 SWAP2 SWAP1 PUSH2 0x2D46 JUMP JUMPDEST PUSH2 0x1886 JUMP JUMPDEST PUSH1 0x40 MLOAD PUSH2 0x26A SWAP4 SWAP3 SWAP2 SWAP1 PUSH2 0x350D JUMP JUMPDEST PUSH1 0x40 MLOAD DUP1 SWAP2 SUB SWAP1 RETURN JUMPDEST PUSH2 0x28D PUSH1 0x4 DUP1 CALLDATASIZE SUB DUP2 ADD SWAP1 PUSH2 0x288 SWAP2 SWAP1 PUSH2 0x3557 JUMP JUMPDEST PUSH2 0x1B80 JUMP JUMPDEST PUSH1 0x40 MLOAD PUSH2 0x29A SWAP2 SWAP1 PUSH2 0x35C8 JUMP JUMPDEST PUSH1 0x40 MLOAD DUP1 SWAP2 SUB SWAP1 RETURN JUMPDEST PUSH2 0x2BD PUSH1 0x4 DUP1 CALLDATASIZE SUB DUP2 ADD SWAP1 PUSH2 0x2B8 SWAP2 SWAP1 PUSH2 0x2D46 JUMP JUMPDEST PUSH2 0x1B9D JUMP JUMPDEST PUSH1 0x40 MLOAD PUSH2 0x2CE SWAP6 SWAP5 SWAP4 SWAP3 SWAP2 SWAP1 PUSH2 0x35FF JUMP JUMPDEST PUSH1 0x40 MLOAD DUP1 SWAP2 SUB SWAP1 RETURN JUMPDEST PUSH2 0x2F1 PUSH1 0x4 DUP1 CALLDATASIZE SUB DUP2 ADD SWAP1 PUSH2 0x2EC SWAP2 SWAP1 PUSH2 0x2D46 JUMP JUMPDEST PUSH2 0x1D58 JUMP JUMPDEST PUSH1 0x40 MLOAD PUSH2 0x2FE SWAP2 SWAP1 PUSH2 0x3650 JUMP JUMPDEST PUSH1 0x40 MLOAD DUP1 SWAP2 SUB SWAP1 RETURN JUMPDEST PUSH2 0x321 PUSH1 0x4 DUP1 CALLDATASIZE SUB DUP2 ADD SWAP1 PUSH2 0x31C SWAP2 SWAP1 PUSH2 0x2D46 JUMP JUMPDEST PUSH2 0x1FB9 JUMP JUMPDEST PUSH1 0x40 MLOAD PUSH2 0x333 SWAP7 SWAP6 SWAP5 SWAP4 SWAP3 SWAP2 SWAP1 PUSH2 0x3670 JUMP JUMPDEST PUSH1 0x40 MLOAD DUP1 SWAP2 SUB SWAP1 RETURN JUMPDEST PUSH2 0x356 PUSH1 0x4 DUP1 CALLDATASIZE SUB DUP2 ADD SWAP1 PUSH2 0x351 SWAP2 SWAP1 PUSH2 0x2D46 JUMP JUMPDEST PUSH2 0x2351 JUMP JUMPDEST PUSH1 0x40 MLOAD PUSH2 0x363 SWAP2 SWAP1 PUSH2 0x3188 JUMP JUMPDEST PUSH1 0x40 MLOAD DUP1 SWAP2 SUB SWAP1 RETURN JUMPDEST PUSH2 0x386 PUSH1 0x4 DUP1 CALLDATASIZE SUB DUP2 ADD SWAP1 PUSH2 0x381 SWAP2 SWAP1 PUSH2 0x36EB JUMP JUMPDEST PUSH2 0x24D2 JUMP JUMPDEST STOP JUMPDEST PUSH1 0x60 DUP2 PUSH1 0x2 DUP2 PUSH1 0x40 MLOAD PUSH2 0x39B SWAP2 SWAP1 PUSH2 0x3791 JUMP JUMPDEST SWAP1 DUP2 MSTORE PUSH1 0x20 ADD PUSH1 0x40 MLOAD DUP1 SWAP2 SUB SWAP1 KECCAK256 PUSH0 SWAP1 SLOAD SWAP1 PUSH2 0x100 EXP SWAP1 DIV PUSH1 0xFF AND PUSH2 0x3F5 JUMPI PUSH1 0x40 MLOAD PUSH32 0x8C379A000000000000000000000000000000000000000000000000000000000 DUP2 MSTORE PUSH1 0x4 ADD PUSH2 0x3EC SWAP1 PUSH2 0x37F1 JUMP JUMPDEST PUSH1 0x40 MLOAD DUP1 SWAP2 SUB SWAP1 REVERT JUMPDEST PUSH1 0x7 DUP4 PUSH1 0x40 MLOAD PUSH2 0x405 SWAP2 SWAP1 PUSH2 0x3791 JUMP JUMPDEST SWAP1 DUP2 MSTORE PUSH1 0x20 ADD PUSH1 0x40 MLOAD DUP1 SWAP2 SUB SWAP1 KECCAK256 DUP1 SLOAD DUP1 PUSH1 0x20 MUL PUSH1 0x20 ADD PUSH1 0x40 MLOAD SWAP1 DUP2 ADD PUSH1 0x40 MSTORE DUP1 SWAP3 SWAP2 SWAP1 DUP2 DUP2 MSTORE PUSH1 0x20 ADD PUSH0 SWAP1 JUMPDEST DUP3 DUP3 LT ISZERO PUSH2 0x4DA JUMPI DUP4 DUP3 SWAP1 PUSH0 MSTORE PUSH1 0x20 PUSH0 KECCAK256 ADD DUP1 SLOAD PUSH2 0x44F SWAP1 PUSH2 0x383C JUMP JUMPDEST DUP1 PUSH1 0x1F ADD PUSH1 0x20 DUP1 SWAP2 DIV MUL PUSH1 0x20 ADD PUSH1 0x40 MLOAD SWAP1 DUP2 ADD PUSH1 0x40 MSTORE DUP1 SWAP3 SWAP2 SWAP1 DUP2 DUP2 MSTORE PUSH1 0x20 ADD DUP3 DUP1 SLOAD PUSH2 0x47B SWAP1 PUSH2 0x383C JUMP JUMPDEST DUP1 ISZERO PUSH2 0x4C6 JUMPI DUP1 PUSH1 0x1F LT PUSH2 0x49D JUMPI PUSH2 0x100 DUP1 DUP4 SLOAD DIV MUL DUP4 MSTORE SWAP2 PUSH1 0x20 ADD SWAP2 PUSH2 0x4C6 JUMP JUMPDEST DUP3 ADD SWAP2 SWAP1 PUSH0 MSTORE PUSH1 0x20 PUSH0 KECCAK256 SWAP1 JUMPDEST DUP2 SLOAD DUP2 MSTORE SWAP1 PUSH1 0x1 ADD SWAP1 PUSH1 0x20 ADD DUP1 DUP4 GT PUSH2 0x4A9 JUMPI DUP3 SWAP1 SUB PUSH1 0x1F AND DUP3 ADD SWAP2 JUMPDEST POP POP POP POP POP DUP2 MSTORE PUSH1 0x20 ADD SWAP1 PUSH1 0x1 ADD SWAP1 PUSH2 0x432 JUMP JUMPDEST POP POP POP POP SWAP2 POP POP SWAP2 SWAP1 POP JUMP JUMPDEST PUSH1 0x60 DUP1 PUSH1 0x60 PUSH0 PUSH0 PUSH1 0x60 DUP7 PUSH1 0x2 DUP2 PUSH1 0x40 MLOAD PUSH2 0x500 SWAP2 SWAP1 PUSH2 0x3791 JUMP JUMPDEST SWAP1 DUP2 MSTORE PUSH1 0x20 ADD PUSH1 0x40 MLOAD DUP1 SWAP2 SUB SWAP1 KECCAK256 PUSH0 SWAP1 SLOAD SWAP1 PUSH2 0x100 EXP SWAP1 DIV PUSH1 0xFF AND PUSH2 0x55A JUMPI PUSH1 0x40 MLOAD PUSH32 0x8C379A000000000000000000000000000000000000000000000000000000000 DUP2 MSTORE PUSH1 0x4 ADD PUSH2 0x551 SWAP1 PUSH2 0x37F1 JUMP JUMPDEST PUSH1 0x40 MLOAD DUP1 SWAP2 SUB SWAP1 REVERT JUMPDEST PUSH0 PUSH1 0x1 DUP10 PUSH1 0x40 MLOAD PUSH2 0x56B SWAP2 SWAP1 PUSH2 0x3791 JUMP JUMPDEST SWAP1 DUP2 MSTORE PUSH1 0x20 ADD PUSH1 0x40 MLOAD DUP1 SWAP2 SUB SWAP1 KECCAK256 SWAP1 POP DUP1 PUSH1 0x1 ADD DUP2 PUSH1 0x2 ADD DUP3 PUSH1 0x3 ADD DUP4 PUSH1 0x4 ADD PUSH0 SWAP1 SLOAD SWAP1 PUSH2 0x100 EXP SWAP1 DIV PUSH1 0xFF AND DUP5 PUSH1 0x4 ADD PUSH1 0x1 SWAP1 SLOAD SWAP1 PUSH2 0x100 EXP SWAP1 DIV PUSH20 0xFFFFFFFFFFFFFFFFFFFFFFFFFFFFFFFFFFFFFFFF AND PUSH1 0x5 DUP15 PUSH1 0x40 MLOAD PUSH2 0x5CD SWAP2 SWAP1 PUSH2 0x3791 JUMP JUMPDEST SWAP1 DUP2 MSTORE PUSH1 0x20 ADD PUSH1 0x40 MLOAD DUP1 SWAP2 SUB SWAP1 KECCAK256 DUP6 DUP1 SLOAD PUSH2 0x5E7 SWAP1 PUSH2 0x383C JUMP JUMPDEST DUP1 PUSH1 0x1F ADD PUSH1 0x20 DUP1 SWAP2 DIV MUL PUSH1 0x20 ADD PUSH1 0x40 MLOAD SWAP1 DUP2 ADD PUSH1 0x40 MSTORE DUP1 SWAP3 SWAP2 SWAP1 DUP2 DUP2 MSTORE PUSH1 0x20 ADD DUP3 DUP1 SLOAD PUSH2 0x613 SWAP1 PUSH2 0x383C JUMP JUMPDEST DUP1 ISZERO PUSH2 0x65E JUMPI DUP1 PUSH1 0x1F LT PUSH2 0x635 JUMPI PUSH2 0x100 DUP1 DUP4 SLOAD DIV MUL DUP4 MSTORE SWAP2 PUSH1 0x20 ADD SWAP2 PUSH2 0x65E JUMP JUMPDEST DUP3 ADD SWAP2 SWAP1 PUSH0 MSTORE PUSH1 0x20 PUSH0 KECCAK256 SWAP1 JUMPDEST DUP2 SLOAD DUP2 MSTORE SWAP1 PUSH1 0x1 ADD SWAP1 PUSH1 0x20 ADD DUP1 DUP4 GT PUSH2 0x641 JUMPI DUP3 SWAP1 SUB PUSH1 0x1F AND DUP3 ADD SWAP2 JUMPDEST POP POP POP POP POP SWAP6 POP DUP5 DUP1 SLOAD PUSH2 0x671 SWAP1 PUSH2 0x383C JUMP JUMPDEST DUP1 PUSH1 0x1F ADD PUSH1 0x20 DUP1 SWAP2 DIV MUL PUSH1 0x20 ADD PUSH1 0x40 MLOAD SWAP1 DUP2 ADD PUSH1 0x40 MSTORE DUP1 SWAP3 SWAP2 SWAP1 DUP2 DUP2 MSTORE PUSH1 0x20 ADD DUP3 DUP1 SLOAD PUSH2 0x69D SWAP1 PUSH2 0x383C JUMP JUMPDEST DUP1 ISZERO PUSH2 0x6E8 JUMPI DUP1 PUSH1 0x1F LT PUSH2 0x6BF JUMPI PUSH2 0x100 DUP1 DUP4 SLOAD DIV MUL DUP4 MSTORE SWAP2 PUSH1 0x20 ADD SWAP2 PUSH2 0x6E8 JUMP JUMPDEST DUP3 ADD SWAP2 SWAP1 PUSH0 MSTORE PUSH1 0x20 PUSH0 KECCAK256 SWAP1 JUMPDEST DUP2 SLOAD DUP2 MSTORE SWAP1 PUSH1 0x1 ADD SWAP1 PUSH1 0x20 ADD DUP1 DUP4 GT PUSH2 0x6CB JUMPI DUP3 SWAP1 SUB PUSH1 0x1F AND DUP3 ADD SWAP2 JUMPDEST POP POP POP POP POP SWAP5 POP DUP4 DUP1 SLOAD PUSH2 0x6FB SWAP1 PUSH2 0x383C JUMP JUMPDEST DUP1 PUSH1 0x1F ADD PUSH1 0x20 DUP1 SWAP2 DIV MUL PUSH1 0x20 ADD PUSH1 0x40 MLOAD SWAP1 DUP2 ADD PUSH1 0x40 MSTORE DUP1 SWAP3 SWAP2 SWAP1 DUP2 DUP2 MSTORE PUSH1 0x20 ADD DUP3 DUP1 SLOAD PUSH2 0x727 SWAP1 PUSH2 0x383C JUMP JUMPDEST DUP1 ISZERO PUSH2 0x772 JUMPI DUP1 PUSH1 0x1F LT PUSH2 0x749 JUMPI PUSH2 0x100 DUP1 DUP4 SLOAD DIV MUL DUP4 MSTORE SWAP2 PUSH1 0x20 ADD SWAP2 PUSH2 0x772 JUMP JUMPDEST DUP3 ADD SWAP2 SWAP1 PUSH0 MSTORE PUSH1 0x20 PUSH0 KECCAK256 SWAP1 JUMPDEST DUP2 SLOAD DUP2 MSTORE SWAP1 PUSH1 0x1 ADD SWAP1 PUSH1 0x20 ADD DUP1 DUP4 GT PUSH2 0x755 JUMPI DUP3 SWAP1 SUB PUSH1 0x1F AND DUP3 ADD SWAP2 JUMPDEST POP POP POP POP POP SWAP4 POP DUP1 DUP1 SLOAD PUSH2 0x785 SWAP1 PUSH2 0x383C JUMP JUMPDEST DUP1 PUSH1 0x1F ADD PUSH1 0x20 DUP1 SWAP2 DIV MUL PUSH1 0x20 ADD PUSH1 0x40 MLOAD SWAP1 DUP2 ADD PUSH1 0x40 MSTORE DUP1 SWAP3 SWAP2 SWAP1 DUP2 DUP2 MSTORE PUSH1 0x20 ADD DUP3 DUP1 SLOAD PUSH2 0x7B1 SWAP1 PUSH2 0x383C JUMP JUMPDEST DUP1 ISZERO PUSH2 0x7FC JUMPI DUP1 PUSH1 0x1F LT PUSH2 0x7D3 JUMPI PUSH2 0x100 DUP1 DUP4 SLOAD DIV MUL DUP4 MSTORE SWAP2 PUSH1 0x20 ADD SWAP2 PUSH2 0x7FC JUMP JUMPDEST DUP3 ADD SWAP2 SWAP1 PUSH0 MSTORE PUSH1 0x20 PUSH0 KECCAK256 SWAP1 JUMPDEST DUP2 SLOAD DUP2 MSTORE SWAP1 PUSH1 0x1 ADD SWAP1 PUSH1 0x20 ADD DUP1 DUP4 GT PUSH2 0x7DF JUMPI DUP3 SWAP1 SUB PUSH1 0x1F AND DUP3 ADD SWAP2 JUMPDEST POP POP POP POP POP SWAP1 POP SWAP8 POP SWAP8 POP SWAP8 POP SWAP8 POP SWAP8 POP SWAP8 POP POP POP SWAP2 SWAP4 SWAP6 POP SWAP2 SWAP4 SWAP6 JUMP JUMPDEST DUP3 PUSH1 0x2 DUP2 PUSH1 0x40 MLOAD PUSH2 0x82B SWAP2 SWAP1 PUSH2 0x3791 JUMP JUMPDEST SWAP1 DUP2 MSTORE PUSH1 0x20 ADD PUSH1 0x40 MLOAD DUP1 SWAP2 SUB SWAP1 KECCAK256 PUSH0 SWAP1 SLOAD SWAP1 PUSH2 0x100 EXP SWAP1 DIV PUSH1 0xFF AND PUSH2 0x885 JUMPI PUSH1 0x40 MLOAD PUSH32 0x8C379A000000000000000000000000000000000000000000000000000000000 DUP2 MSTORE PUSH1 0x4 ADD PUSH2 0x87C SWAP1 PUSH2 0x37F1 JUMP JUMPDEST PUSH1 0x40 MLOAD DUP1 SWAP2 SUB SWAP1 REVERT JUMPDEST PUSH0 PUSH0 SWAP1 SLOAD SWAP1 PUSH2 0x100 EXP SWAP1 DIV PUSH20 0xFFFFFFFFFFFFFFFFFFFFFFFFFFFFFFFFFFFFFFFF AND PUSH20 0xFFFFFFFFFFFFFFFFFFFFFFFFFFFFFFFFFFFFFFFF AND CALLER PUSH20 0xFFFFFFFFFFFFFFFFFFFFFFFFFFFFFFFFFFFFFFFF AND EQ DUP1 PUSH2 0x94C JUMPI POP PUSH1 0x3 PUSH1 0x4 DUP2 GT ISZERO PUSH2 0x8EE JUMPI PUSH2 0x8ED PUSH2 0x2F10 JUMP JUMPDEST JUMPDEST PUSH1 0x3 PUSH0 CALLER PUSH20 0xFFFFFFFFFFFFFFFFFFFFFFFFFFFFFFFFFFFFFFFF AND PUSH20 0xFFFFFFFFFFFFFFFFFFFFFFFFFFFFFFFFFFFFFFFF AND DUP2 MSTORE PUSH1 0x20 ADD SWAP1 DUP2 MSTORE PUSH1 0x20 ADD PUSH0 KECCAK256 PUSH0 SWAP1 SLOAD SWAP1 PUSH2 0x100 EXP SWAP1 DIV PUSH1 0xFF AND PUSH1 0x4 DUP2 GT ISZERO PUSH2 0x94A JUMPI PUSH2 0x949 PUSH2 0x2F10 JUMP JUMPDEST JUMPDEST EQ JUMPDEST PUSH2 0x98B JUMPI PUSH1 0x40 MLOAD PUSH32 0x8C379A000000000000000000000000000000000000000000000000000000000 DUP2 MSTORE PUSH1 0x4 ADD PUSH2 0x982 SWAP1 PUSH2 0x38DC JUMP JUMPDEST PUSH1 0x40 MLOAD DUP1 SWAP2 SUB SWAP1 REVERT JUMPDEST PUSH1 0x1 DUP5 PUSH1 0x40 MLOAD PUSH2 0x99B SWAP2 SWAP1 PUSH2 0x3791 JUMP JUMPDEST SWAP1 DUP2 MSTORE PUSH1 0x20 ADD PUSH1 0x40 MLOAD DUP1 SWAP2 SUB SWAP1 KECCAK256 PUSH1 0x5 ADD PUSH1 0x40 MLOAD DUP1 PUSH1 0x60 ADD PUSH1 0x40 MSTORE DUP1 DUP6 DUP2 MSTORE PUSH1 0x20 ADD DUP5 DUP2 MSTORE PUSH1 0x20 ADD TIMESTAMP DUP2 MSTORE POP SWAP1 DUP1 PUSH1 0x1 DUP2 SLOAD ADD DUP1 DUP3 SSTORE DUP1 SWAP2 POP POP PUSH1 0x1 SWAP1 SUB SWAP1 PUSH0 MSTORE PUSH1 0x20 PUSH0 KECCAK256 SWAP1 PUSH1 0x3 MUL ADD PUSH0 SWAP1 SWAP2 SWAP1 SWAP2 SWAP1 SWAP2 POP PUSH0 DUP3 ADD MLOAD DUP2 PUSH0 ADD SSTORE PUSH1 0x20 DUP3 ADD MLOAD DUP2 PUSH1 0x1 ADD SWAP1 DUP2 PUSH2 0xA0A SWAP2 SWAP1 PUSH2 0x3A9A JUMP JUMPDEST POP PUSH1 0x40 DUP3 ADD MLOAD DUP2 PUSH1 0x2 ADD SSTORE POP POP DUP4 PUSH1 0x40 MLOAD PUSH2 0xA25 SWAP2 SWAP1 PUSH2 0x3791 JUMP JUMPDEST PUSH1 0x40 MLOAD DUP1 SWAP2 SUB SWAP1 KECCAK256 PUSH32 0x684479D30F778D7227907B06C6D91844ADA06C36AD099D3E79DEF4DDDC42E310 DUP5 DUP5 PUSH1 0x40 MLOAD PUSH2 0xA5E SWAP3 SWAP2 SWAP1 PUSH2 0x3B69 JUMP JUMPDEST PUSH1 0x40 MLOAD DUP1 SWAP2 SUB SWAP1 LOG2 POP POP POP POP JUMP JUMPDEST PUSH0 DUP3 PUSH1 0x2 DUP2 PUSH1 0x40 MLOAD PUSH2 0xA7E SWAP2 SWAP1 PUSH2 0x3791 JUMP JUMPDEST SWAP1 DUP2 MSTORE PUSH1 0x20 ADD PUSH1 0x40 MLOAD DUP1 SWAP2 SUB SWAP1 KECCAK256 PUSH0 SWAP1 SLOAD SWAP1 PUSH2 0x100 EXP SWAP1 DIV PUSH1 0xFF AND PUSH2 0xAD8 JUMPI PUSH1 0x40 MLOAD PUSH32 0x8C379A000000000000000000000000000000000000000000000000000000000 DUP2 MSTORE PUSH1 0x4 ADD PUSH2 0xACF SWAP1 PUSH2 0x37F1 JUMP JUMPDEST PUSH1 0x40 MLOAD DUP1 SWAP2 SUB SWAP1 REVERT JUMPDEST PUSH1 0x6 DUP5 PUSH1 0x40 MLOAD PUSH2 0xAE8 SWAP2 SWAP1 PUSH2 0x3791 JUMP JUMPDEST SWAP1 DUP2 MSTORE PUSH1 0x20 ADD PUSH1 0x40 MLOAD DUP1 SWAP2 SUB SWAP1 KECCAK256 DUP4 PUSH1 0x40 MLOAD PUSH2 0xB04 SWAP2 SWAP1 PUSH2 0x3791 JUMP JUMPDEST SWAP1 DUP2 MSTORE PUSH1 0x20 ADD PUSH1 0x40 MLOAD DUP1 SWAP2 SUB SWAP1 KECCAK256 PUSH0 SWAP1 SLOAD SWAP1 PUSH2 0x100 EXP SWAP1 DIV PUSH1 0xFF AND SWAP2 POP POP SWAP3 SWAP2 POP POP JUMP JUMPDEST DUP2 PUSH1 0x2 DUP2 PUSH1 0x40 MLOAD PUSH2 0xB39 SWAP2 SWAP1 PUSH2 0x3791 JUMP JUMPDEST SWAP1 DUP2 MSTORE PUSH1 0x20 ADD PUSH1 0x40 MLOAD DUP1 SWAP2 SUB SWAP1 KECCAK256 PUSH0 SWAP1 SLOAD SWAP1 PUSH2 0x100 EXP SWAP1 DIV PUSH1 0xFF AND PUSH2 0xB93 JUMPI PUSH1 0x40 MLOAD PUSH32 0x8C379A000000000000000000000000000000000000000000000000000000000 DUP2 MSTORE PUSH1 0x4 ADD PUSH2 0xB8A SWAP1 PUSH2 0x37F1 JUMP JUMPDEST PUSH1 0x40 MLOAD DUP1 SWAP2 SUB SWAP1 REVERT JUMPDEST PUSH0 PUSH1 0x1 DUP5 PUSH1 0x40 MLOAD PUSH2 0xBA4 SWAP2 SWAP1 PUSH2 0x3791 JUMP JUMPDEST SWAP1 DUP2 MSTORE PUSH1 0x20 ADD PUSH1 0x40 MLOAD DUP1 SWAP2 SUB SWAP1 KECCAK256 SWAP1 POP DUP1 PUSH1 0x4 ADD PUSH0 SWAP1 SLOAD SWAP1 PUSH2 0x100 EXP SWAP1 DIV PUSH1 0xFF AND PUSH1 0x5 DUP2 GT ISZERO PUSH2 0xBD7 JUMPI PUSH2 0xBD6 PUSH2 0x2F10 JUMP JUMPDEST JUMPDEST DUP4 PUSH1 0x5 DUP2 GT ISZERO PUSH2 0xBEA JUMPI PUSH2 0xBE9 PUSH2 0x2F10 JUMP JUMPDEST JUMPDEST GT PUSH2 0xC2A JUMPI PUSH1 0x40 MLOAD PUSH32 0x8C379A000000000000000000000000000000000000000000000000000000000 DUP2 MSTORE PUSH1 0x4 ADD PUSH2 0xC21 SWAP1 PUSH2 0x3C07 JUMP JUMPDEST PUSH1 0x40 MLOAD DUP1 SWAP2 SUB SWAP1 REVERT JUMPDEST PUSH1 0x1 PUSH1 0x5 DUP2 GT ISZERO PUSH2 0xC3E JUMPI PUSH2 0xC3D PUSH2 0x2F10 JUMP JUMPDEST JUMPDEST DUP4 PUSH1 0x5 DUP2 GT ISZERO PUSH2 0xC51 JUMPI PUSH2 0xC50 PUSH2 0x2F10 JUMP JUMPDEST JUMPDEST SUB PUSH2 0xD0B JUMPI PUSH1 0x1 PUSH1 0x4 DUP2 GT ISZERO PUSH2 0xC6A JUMPI PUSH2 0xC69 PUSH2 0x2F10 JUMP JUMPDEST JUMPDEST PUSH1 0x3 PUSH0 CALLER PUSH20 0xFFFFFFFFFFFFFFFFFFFFFFFFFFFFFFFFFFFFFFFF AND PUSH20 0xFFFFFFFFFFFFFFFFFFFFFFFFFFFFFFFFFFFFFFFF AND DUP2 MSTORE PUSH1 0x20 ADD SWAP1 DUP2 MSTORE PUSH1 0x20 ADD PUSH0 KECCAK256 PUSH0 SWAP1 SLOAD SWAP1 PUSH2 0x100 EXP SWAP1 DIV PUSH1 0xFF AND PUSH1 0x4 DUP2 GT ISZERO PUSH2 0xCC6 JUMPI PUSH2 0xCC5 PUSH2 0x2F10 JUMP JUMPDEST JUMPDEST EQ PUSH2 0xD06 JUMPI PUSH1 0x40 MLOAD PUSH32 0x8C379A000000000000000000000000000000000000000000000000000000000 DUP2 MSTORE PUSH1 0x4 ADD PUSH2 0xCFD SWAP1 PUSH2 0x3C6F JUMP JUMPDEST PUSH1 0x40 MLOAD DUP1 SWAP2 SUB SWAP1 REVERT JUMPDEST PUSH2 0x1121 JUMP JUMPDEST PUSH1 0x2 PUSH1 0x5 DUP2 GT ISZERO PUSH2 0xD1F JUMPI PUSH2 0xD1E PUSH2 0x2F10 JUMP JUMPDEST JUMPDEST DUP4 PUSH1 0x5 DUP2 GT ISZERO PUSH2 0xD32 JUMPI PUSH2 0xD31 PUSH2 0x2F10 JUMP JUMPDEST JUMPDEST SUB PUSH2 0xDEC JUMPI PUSH1 0x2 PUSH1 0x4 DUP2 GT ISZERO PUSH2 0xD4B JUMPI PUSH2 0xD4A PUSH2 0x2F10 JUMP JUMPDEST JUMPDEST PUSH1 0x3 PUSH0 CALLER PUSH20 0xFFFFFFFFFFFFFFFFFFFFFFFFFFFFFFFFFFFFFFFF AND PUSH20 0xFFFFFFFFFFFFFFFFFFFFFFFFFFFFFFFFFFFFFFFF AND DUP2 MSTORE PUSH1 0x20 ADD SWAP1 DUP2 MSTORE PUSH1 0x20 ADD PUSH0 KECCAK256 PUSH0 SWAP1 SLOAD SWAP1 PUSH2 0x100 EXP SWAP1 DIV PUSH1 0xFF AND PUSH1 0x4 DUP2 GT ISZERO PUSH2 0xDA7 JUMPI PUSH2 0xDA6 PUSH2 0x2F10 JUMP JUMPDEST JUMPDEST EQ PUSH2 0xDE7 JUMPI PUSH1 0x40 MLOAD PUSH32 0x8C379A000000000000000000000000000000000000000000000000000000000 DUP2 MSTORE PUSH1 0x4 ADD PUSH2 0xDDE SWAP1 PUSH2 0x3CD7 JUMP JUMPDEST PUSH1 0x40 MLOAD DUP1 SWAP2 SUB SWAP1 REVERT JUMPDEST PUSH2 0x1120 JUMP JUMPDEST PUSH1 0x3 PUSH1 0x5 DUP2 GT ISZERO PUSH2 0xE00 JUMPI PUSH2 0xDFF PUSH2 0x2F10 JUMP JUMPDEST JUMPDEST DUP4 PUSH1 0x5 DUP2 GT ISZERO PUSH2 0xE13 JUMPI PUSH2 0xE12 PUSH2 0x2F10 JUMP JUMPDEST JUMPDEST SUB PUSH2 0xECD JUMPI PUSH1 0x3 PUSH1 0x4 DUP2 GT ISZERO PUSH2 0xE2C JUMPI PUSH2 0xE2B PUSH2 0x2F10 JUMP JUMPDEST JUMPDEST PUSH1 0x3 PUSH0 CALLER PUSH20 0xFFFFFFFFFFFFFFFFFFFFFFFFFFFFFFFFFFFFFFFF AND PUSH20 0xFFFFFFFFFFFFFFFFFFFFFFFFFFFFFFFFFFFFFFFF AND DUP2 MSTORE PUSH1 0x20 ADD SWAP1 DUP2 MSTORE PUSH1 0x20 ADD PUSH0 KECCAK256 PUSH0 SWAP1 SLOAD SWAP1 PUSH2 0x100 EXP SWAP1 DIV PUSH1 0xFF AND PUSH1 0x4 DUP2 GT ISZERO PUSH2 0xE88 JUMPI PUSH2 0xE87 PUSH2 0x2F10 JUMP JUMPDEST JUMPDEST EQ PUSH2 0xEC8 JUMPI PUSH1 0x40 MLOAD PUSH32 0x8C379A000000000000000000000000000000000000000000000000000000000 DUP2 MSTORE PUSH1 0x4 ADD PUSH2 0xEBF SWAP1 PUSH2 0x3D3F JUMP JUMPDEST PUSH1 0x40 MLOAD DUP1 SWAP2 SUB SWAP1 REVERT JUMPDEST PUSH2 0x111F JUMP JUMPDEST PUSH1 0x4 PUSH1 0x5 DUP2 GT ISZERO PUSH2 0xEE1 JUMPI PUSH2 0xEE0 PUSH2 0x2F10 JUMP JUMPDEST JUMPDEST DUP4 PUSH1 0x5 DUP2 GT ISZERO PUSH2 0xEF4 JUMPI PUSH2 0xEF3 PUSH2 0x2F10 JUMP JUMPDEST JUMPDEST SUB PUSH2 0xFAD JUMPI PUSH1 0x4 DUP1 DUP2 GT ISZERO PUSH2 0xF0C JUMPI PUSH2 0xF0B PUSH2 0x2F10 JUMP JUMPDEST JUMPDEST PUSH1 0x3 PUSH0 CALLER PUSH20 0xFFFFFFFFFFFFFFFFFFFFFFFFFFFFFFFFFFFFFFFF AND PUSH20 0xFFFFFFFFFFFFFFFFFFFFFFFFFFFFFFFFFFFFFFFF AND DUP2 MSTORE PUSH1 0x20 ADD SWAP1 DUP2 MSTORE PUSH1 0x20 ADD PUSH0 KECCAK256 PUSH0 SWAP1 SLOAD SWAP1 PUSH2 0x100 EXP SWAP1 DIV PUSH1 0xFF AND PUSH1 0x4 DUP2 GT ISZERO PUSH2 0xF68 JUMPI PUSH2 0xF67 PUSH2 0x2F10 JUMP JUMPDEST JUMPDEST EQ PUSH2 0xFA8 JUMPI PUSH1 0x40 MLOAD PUSH32 0x8C379A000000000000000000000000000000000000000000000000000000000 DUP2 MSTORE PUSH1 0x4 ADD PUSH2 0xF9F SWAP1 PUSH2 0x3DA7 JUMP JUMPDEST PUSH1 0x40 MLOAD DUP1 SWAP2 SUB SWAP1 REVERT JUMPDEST PUSH2 0x111E JUMP JUMPDEST PUSH1 0x5 DUP1 DUP2 GT ISZERO PUSH2 0xFC0 JUMPI PUSH2 0xFBF PUSH2 0x2F10 JUMP JUMPDEST JUMPDEST DUP4 PUSH1 0x5 DUP2 GT ISZERO PUSH2 0xFD3 JUMPI PUSH2 0xFD2 PUSH2 0x2F10 JUMP JUMPDEST JUMPDEST SUB PUSH2 0x10E2 JUMPI PUSH0 PUSH0 SWAP1 SLOAD SWAP1 PUSH2 0x100 EXP SWAP1 DIV PUSH20 0xFFFFFFFFFFFFFFFFFFFFFFFFFFFFFFFFFFFFFFFF AND PUSH20 0xFFFFFFFFFFFFFFFFFFFFFFFFFFFFFFFFFFFFFFFF AND CALLER PUSH20 0xFFFFFFFFFFFFFFFFFFFFFFFFFFFFFFFFFFFFFFFF AND EQ DUP1 PUSH2 0x109E JUMPI POP PUSH1 0x4 DUP1 DUP2 GT ISZERO PUSH2 0x1040 JUMPI PUSH2 0x103F PUSH2 0x2F10 JUMP JUMPDEST JUMPDEST PUSH1 0x3 PUSH0 CALLER PUSH20 0xFFFFFFFFFFFFFFFFFFFFFFFFFFFFFFFFFFFFFFFF AND PUSH20 0xFFFFFFFFFFFFFFFFFFFFFFFFFFFFFFFFFFFFFFFF AND DUP2 MSTORE PUSH1 0x20 ADD SWAP1 DUP2 MSTORE PUSH1 0x20 ADD PUSH0 KECCAK256 PUSH0 SWAP1 SLOAD SWAP1 PUSH2 0x100 EXP SWAP1 DIV PUSH1 0xFF AND PUSH1 0x4 DUP2 GT ISZERO PUSH2 0x109C JUMPI PUSH2 0x109B PUSH2 0x2F10 JUMP JUMPDEST JUMPDEST EQ JUMPDEST PUSH2 0x10DD JUMPI PUSH1 0x40 MLOAD PUSH32 0x8C379A000000000000000000000000000000000000000000000000000000000 DUP2 MSTORE PUSH1 0x4 ADD PUSH2 0x10D4 SWAP1 PUSH2 0x3E35 JUMP JUMPDEST PUSH1 0x40 MLOAD DUP1 SWAP2 SUB SWAP1 REVERT JUMPDEST PUSH2 0x111D JUMP JUMPDEST PUSH1 0x40 MLOAD PUSH32 0x8C379A000000000000000000000000000000000000000000000000000000000 DUP2 MSTORE PUSH1 0x4 ADD PUSH2 0x1114 SWAP1 PUSH2 0x3E9D JUMP JUMPDEST PUSH1 0x40 MLOAD DUP1 SWAP2 SUB SWAP1 REVERT JUMPDEST JUMPDEST JUMPDEST JUMPDEST JUMPDEST DUP3 DUP2 PUSH1 0x4 ADD PUSH0 PUSH2 0x100 EXP DUP2 SLOAD DUP2 PUSH1 0xFF MUL NOT AND SWAP1 DUP4 PUSH1 0x5 DUP2 GT ISZERO PUSH2 0x1147 JUMPI PUSH2 0x1146 PUSH2 0x2F10 JUMP JUMPDEST JUMPDEST MUL OR SWAP1 SSTORE POP CALLER DUP2 PUSH1 0x4 ADD PUSH1 0x1 PUSH2 0x100 EXP DUP2 SLOAD DUP2 PUSH20 0xFFFFFFFFFFFFFFFFFFFFFFFFFFFFFFFFFFFFFFFF MUL NOT AND SWAP1 DUP4 PUSH20 0xFFFFFFFFFFFFFFFFFFFFFFFFFFFFFFFFFFFFFFFF AND MUL OR SWAP1 SSTORE POP DUP4 PUSH1 0x40 MLOAD PUSH2 0x119D SWAP2 SWAP1 PUSH2 0x3791 JUMP JUMPDEST PUSH1 0x40 MLOAD DUP1 SWAP2 SUB SWAP1 KECCAK256 PUSH32 0x9EABD3215B4E6FAD51A44EB557FBB8224E77209A699C1E273F0D45E3849C1C2B DUP5 CALLER PUSH1 0x40 MLOAD PUSH2 0x11D6 SWAP3 SWAP2 SWAP1 PUSH2 0x3EBB JUMP JUMPDEST PUSH1 0x40 MLOAD DUP1 SWAP2 SUB SWAP1 LOG2 PUSH1 0x4 PUSH1 0x5 DUP2 GT ISZERO PUSH2 0x11F2 JUMPI PUSH2 0x11F1 PUSH2 0x2F10 JUMP JUMPDEST JUMPDEST DUP4 PUSH1 0x5 DUP2 GT ISZERO PUSH2 0x1205 JUMPI PUSH2 0x1204 PUSH2 0x2F10 JUMP JUMPDEST JUMPDEST SUB PUSH2 0x1361 JUMPI PUSH2 0x12D3 DUP2 PUSH1 0x3 ADD DUP1 SLOAD PUSH2 0x121C SWAP1 PUSH2 0x383C JUMP JUMPDEST DUP1 PUSH1 0x1F ADD PUSH1 0x20 DUP1 SWAP2 DIV MUL PUSH1 0x20 ADD PUSH1 0x40 MLOAD SWAP1 DUP2 ADD PUSH1 0x40 MSTORE DUP1 SWAP3 SWAP2 SWAP1 DUP2 DUP2 MSTORE PUSH1 0x20 ADD DUP3 DUP1 SLOAD PUSH2 0x1248 SWAP1 PUSH2 0x383C JUMP JUMPDEST DUP1 ISZERO PUSH2 0x1293 JUMPI DUP1 PUSH1 0x1F LT PUSH2 0x126A JUMPI PUSH2 0x100 DUP1 DUP4 SLOAD DIV MUL DUP4 MSTORE SWAP2 PUSH1 0x20 ADD SWAP2 PUSH2 0x1293 JUMP JUMPDEST DUP3 ADD SWAP2 SWAP1 PUSH0 MSTORE PUSH1 0x20 PUSH0 KECCAK256 SWAP1 JUMPDEST DUP2 SLOAD DUP2 MSTORE SWAP1 PUSH1 0x1 ADD SWAP1 PUSH1 0x20 ADD DUP1 DUP4 GT PUSH2 0x1276 JUMPI DUP3 SWAP1 SUB PUSH1 0x1F AND DUP3 ADD SWAP2 JUMPDEST POP POP POP POP POP PUSH1 0x40 MLOAD DUP1 PUSH1 0x40 ADD PUSH1 0x40 MSTORE DUP1 PUSH1 0xB DUP2 MSTORE PUSH1 0x20 ADD PUSH32 0x5375737461696E61626C65000000000000000000000000000000000000000000 DUP2 MSTORE POP PUSH2 0x2705 JUMP JUMPDEST DUP1 ISZERO PUSH2 0x131B JUMPI POP PUSH2 0x1319 DUP5 PUSH1 0x40 MLOAD DUP1 PUSH1 0x40 ADD PUSH1 0x40 MSTORE DUP1 PUSH1 0xB DUP2 MSTORE PUSH1 0x20 ADD PUSH32 0x5375737461696E61626C65000000000000000000000000000000000000000000 DUP2 MSTORE POP PUSH2 0x2828 JUMP JUMPDEST ISZERO JUMPDEST ISZERO PUSH2 0x1360 JUMPI PUSH2 0x135F DUP5 PUSH1 0x40 MLOAD DUP1 PUSH1 0x40 ADD PUSH1 0x40 MSTORE DUP1 PUSH1 0xB DUP2 MSTORE PUSH1 0x20 ADD PUSH32 0x5375737461696E61626C65000000000000000000000000000000000000000000 DUP2 MSTORE POP PUSH2 0x2878 JUMP JUMPDEST JUMPDEST JUMPDEST POP POP POP POP JUMP JUMPDEST PUSH0 PUSH0 SWAP1 SLOAD SWAP1 PUSH2 0x100 EXP SWAP1 DIV PUSH20 0xFFFFFFFFFFFFFFFFFFFFFFFFFFFFFFFFFFFFFFFF AND PUSH20 0xFFFFFFFFFFFFFFFFFFFFFFFFFFFFFFFFFFFFFFFF AND CALLER PUSH20 0xFFFFFFFFFFFFFFFFFFFFFFFFFFFFFFFFFFFFFFFF AND EQ PUSH2 0x13F5 JUMPI PUSH1 0x40 MLOAD PUSH32 0x8C379A000000000000000000000000000000000000000000000000000000000 DUP2 MSTORE PUSH1 0x4 ADD PUSH2 0x13EC SWAP1 PUSH2 0x3F2C JUMP JUMPDEST PUSH1 0x40 MLOAD DUP1 SWAP2 SUB SWAP1 REVERT JUMPDEST DUP1 PUSH1 0x3 PUSH0 DUP5 PUSH20 0xFFFFFFFFFFFFFFFFFFFFFFFFFFFFFFFFFFFFFFFF AND PUSH20 0xFFFFFFFFFFFFFFFFFFFFFFFFFFFFFFFFFFFFFFFF AND DUP2 MSTORE PUSH1 0x20 ADD SWAP1 DUP2 MSTORE PUSH1 0x20 ADD PUSH0 KECCAK256 PUSH0 PUSH2 0x100 EXP DUP2 SLOAD DUP2 PUSH1 0xFF MUL NOT AND SWAP1 DUP4 PUSH1 0x4 DUP2 GT ISZERO PUSH2 0x1454 JUMPI PUSH2 0x1453 PUSH2 0x2F10 JUMP JUMPDEST JUMPDEST MUL OR SWAP1 SSTORE POP DUP2 PUSH20 0xFFFFFFFFFFFFFFFFFFFFFFFFFFFFFFFFFFFFFFFF AND PUSH32 0x4AC36FA53F167CEB85964BE512E01DE2A3B8BDB9862F917DA079DEEEFF689B38 DUP3 PUSH1 0x40 MLOAD PUSH2 0x149F SWAP2 SWAP1 PUSH2 0x35C8 JUMP JUMPDEST PUSH1 0x40 MLOAD DUP1 SWAP2 SUB SWAP1 LOG2 POP POP JUMP JUMPDEST DUP2 PUSH1 0x2 DUP2 PUSH1 0x40 MLOAD PUSH2 0x14BC SWAP2 SWAP1 PUSH2 0x3791 JUMP JUMPDEST SWAP1 DUP2 MSTORE PUSH1 0x20 ADD PUSH1 0x40 MLOAD DUP1 SWAP2 SUB SWAP1 KECCAK256 PUSH0 SWAP1 SLOAD SWAP1 PUSH2 0x100 EXP SWAP1 DIV PUSH1 0xFF AND PUSH2 0x1516 JUMPI PUSH1 0x40 MLOAD PUSH32 0x8C379A000000000000000000000000000000000000000000000000000000000 DUP2 MSTORE PUSH1 0x4 ADD PUSH2 0x150D SWAP1 PUSH2 0x37F1 JUMP JUMPDEST PUSH1 0x40 MLOAD DUP1 SWAP2 SUB SWAP1 REVERT JUMPDEST PUSH0 PUSH1 0x1 DUP5 PUSH1 0x40 MLOAD PUSH2 0x1527 SWAP2 SWAP1 PUSH2 0x3791 JUMP JUMPDEST SWAP1 DUP2 MSTORE PUSH1 0x20 ADD PUSH1 0x40 MLOAD DUP1 SWAP2 SUB SWAP1 KECCAK256 SWAP1 POP PUSH0 PUSH0 SWAP1 SLOAD SWAP1 PUSH2 0x100 EXP SWAP1 DIV PUSH20 0xFFFFFFFFFFFFFFFFFFFFFFFFFFFFFFFFFFFFFFFF AND PUSH20 0xFFFFFFFFFFFFFFFFFFFFFFFFFFFFFFFFFFFFFFFF AND CALLER PUSH20 0xFFFFFFFFFFFFFFFFFFFFFFFFFFFFFFFFFFFFFFFF AND EQ DUP1 PUSH2 0x15E0 JUMPI POP DUP1 PUSH1 0x4 ADD PUSH1 0x1 SWAP1 SLOAD SWAP1 PUSH2 0x100 EXP SWAP1 DIV PUSH20 0xFFFFFFFFFFFFFFFFFFFFFFFFFFFFFFFFFFFFFFFF AND PUSH20 0xFFFFFFFFFFFFFFFFFFFFFFFFFFFFFFFFFFFFFFFF AND CALLER PUSH20 0xFFFFFFFFFFFFFFFFFFFFFFFFFFFFFFFFFFFFFFFF AND EQ JUMPDEST PUSH2 0x161F JUMPI PUSH1 0x40 MLOAD PUSH32 0x8C379A000000000000000000000000000000000000000000000000000000000 DUP2 MSTORE PUSH1 0x4 ADD PUSH2 0x1616 SWAP1 PUSH2 0x3F94 JUMP JUMPDEST PUSH1 0x40 MLOAD DUP1 SWAP2 SUB SWAP1 REVERT JUMPDEST PUSH2 0x1629 DUP5 DUP5 PUSH2 0x2828 JUMP JUMPDEST ISZERO PUSH2 0x1669 JUMPI PUSH1 0x40 MLOAD PUSH32 0x8C379A000000000000000000000000000000000000000000000000000000000 DUP2 MSTORE PUSH1 0x4 ADD PUSH2 0x1660 SWAP1 PUSH2 0x3FFC JUMP JUMPDEST PUSH1 0x40 MLOAD DUP1 SWAP2 SUB SWAP1 REVERT JUMPDEST PUSH2 0x1673 DUP5 DUP5 PUSH2 0x2878 JUMP JUMPDEST POP POP POP POP JUMP JUMPDEST PUSH1 0x2 DUP5 PUSH1 0x40 MLOAD PUSH2 0x1689 SWAP2 SWAP1 PUSH2 0x3791 JUMP JUMPDEST SWAP1 DUP2 MSTORE PUSH1 0x20 ADD PUSH1 0x40 MLOAD DUP1 SWAP2 SUB SWAP1 KECCAK256 PUSH0 SWAP1 SLOAD SWAP1 PUSH2 0x100 EXP SWAP1 DIV PUSH1 0xFF AND ISZERO PUSH2 0x16E4 JUMPI PUSH1 0x40 MLOAD PUSH32 0x8C379A000000000000000000000000000000000000000000000000000000000 DUP2 MSTORE PUSH1 0x4 ADD PUSH2 0x16DB SWAP1 PUSH2 0x4064 JUMP JUMPDEST PUSH1 0x40 MLOAD DUP1 SWAP2 SUB SWAP1 REVERT JUMPDEST PUSH0 PUSH1 0x1 DUP6 PUSH1 0x40 MLOAD PUSH2 0x16F5 SWAP2 SWAP1 PUSH2 0x3791 JUMP JUMPDEST SWAP1 DUP2 MSTORE PUSH1 0x20 ADD PUSH1 0x40 MLOAD DUP1 SWAP2 SUB SWAP1 KECCAK256 SWAP1 POP DUP5 DUP2 PUSH0 ADD SWAP1 DUP2 PUSH2 0x1715 SWAP2 SWAP1 PUSH2 0x3A9A JUMP JUMPDEST POP DUP4 DUP2 PUSH1 0x1 ADD SWAP1 DUP2 PUSH2 0x1727 SWAP2 SWAP1 PUSH2 0x3A9A JUMP JUMPDEST POP DUP3 DUP2 PUSH1 0x2 ADD SWAP1 DUP2 PUSH2 0x1739 SWAP2 SWAP1 PUSH2 0x3A9A JUMP JUMPDEST POP DUP2 DUP2 PUSH1 0x3 ADD SWAP1 DUP2 PUSH2 0x174B SWAP2 SWAP1 PUSH2 0x3A9A JUMP JUMPDEST POP PUSH0 DUP2 PUSH1 0x4 ADD PUSH0 PUSH2 0x100 EXP DUP2 SLOAD DUP2 PUSH1 0xFF MUL NOT AND SWAP1 DUP4 PUSH1 0x5 DUP2 GT ISZERO PUSH2 0x1772 JUMPI PUSH2 0x1771 PUSH2 0x2F10 JUMP JUMPDEST JUMPDEST MUL OR SWAP1 SSTORE POP CALLER DUP2 PUSH1 0x4 ADD PUSH1 0x1 PUSH2 0x100 EXP DUP2 SLOAD DUP2 PUSH20 0xFFFFFFFFFFFFFFFFFFFFFFFFFFFFFFFFFFFFFFFF MUL NOT AND SWAP1 DUP4 PUSH20 0xFFFFFFFFFFFFFFFFFFFFFFFFFFFFFFFFFFFFFFFF AND MUL OR SWAP1 SSTORE POP PUSH1 0x1 DUP2 PUSH1 0x6 ADD PUSH0 PUSH2 0x100 EXP DUP2 SLOAD DUP2 PUSH1 0xFF MUL NOT AND SWAP1 DUP4 ISZERO ISZERO MUL OR SWAP1 SSTORE POP PUSH1 0x1 PUSH1 0x2 DUP7 PUSH1 0x40 MLOAD PUSH2 0x17E8 SWAP2 SWAP1 PUSH2 0x3791 JUMP JUMPDEST SWAP1 DUP2 MSTORE PUSH1 0x20 ADD PUSH1 0x40 MLOAD DUP1 SWAP2 SUB SWAP1 KECCAK256 PUSH0 PUSH2 0x100 EXP DUP2 SLOAD DUP2 PUSH1 0xFF MUL NOT AND SWAP1 DUP4 ISZERO ISZERO MUL OR SWAP1 SSTORE POP DUP5 PUSH1 0x40 MLOAD PUSH2 0x181A SWAP2 SWAP1 PUSH2 0x3791 JUMP JUMPDEST PUSH1 0x40 MLOAD DUP1 SWAP2 SUB SWAP1 KECCAK256 PUSH32 0x5A304478B5AD812924E60FB3EE7FADBB2269EFFA0DF0EDE39B00FC1C606EE0C0 DUP6 DUP6 PUSH1 0x40 MLOAD PUSH2 0x1853 SWAP3 SWAP2 SWAP1 PUSH2 0x4082 JUMP JUMPDEST PUSH1 0x40 MLOAD DUP1 SWAP2 SUB SWAP1 LOG2 POP POP POP POP POP JUMP JUMPDEST PUSH0 PUSH0 SWAP1 SLOAD SWAP1 PUSH2 0x100 EXP SWAP1 DIV PUSH20 0xFFFFFFFFFFFFFFFFFFFFFFFFFFFFFFFFFFFFFFFF AND DUP2 JUMP JUMPDEST PUSH1 0x60 DUP1 PUSH1 0x60 DUP4 PUSH1 0x2 DUP2 PUSH1 0x40 MLOAD PUSH2 0x189C SWAP2 SWAP1 PUSH2 0x3791 JUMP JUMPDEST SWAP1 DUP2 MSTORE PUSH1 0x20 ADD PUSH1 0x40 MLOAD DUP1 SWAP2 SUB SWAP1 KECCAK256 PUSH0 SWAP1 SLOAD SWAP1 PUSH2 0x100 EXP SWAP1 DIV PUSH1 0xFF AND PUSH2 0x18F6 JUMPI PUSH1 0x40 MLOAD PUSH32 0x8C379A000000000000000000000000000000000000000000000000000000000 DUP2 MSTORE PUSH1 0x4 ADD PUSH2 0x18ED SWAP1 PUSH2 0x37F1 JUMP JUMPDEST PUSH1 0x40 MLOAD DUP1 SWAP2 SUB SWAP1 REVERT JUMPDEST PUSH0 PUSH1 0x1 DUP7 PUSH1 0x40 MLOAD PUSH2 0x1907 SWAP2 SWAP1 PUSH2 0x3791 JUMP JUMPDEST SWAP1 DUP2 MSTORE PUSH1 0x20 ADD PUSH1 0x40 MLOAD DUP1 SWAP2 SUB SWAP1 KECCAK256 SWAP1 POP PUSH0 DUP2 PUSH1 0x5 ADD DUP1 SLOAD SWAP1 POP SWAP1 POP DUP1 PUSH8 0xFFFFFFFFFFFFFFFF DUP2 GT ISZERO PUSH2 0x193C JUMPI PUSH2 0x193B PUSH2 0x2C22 JUMP JUMPDEST JUMPDEST PUSH1 0x40 MLOAD SWAP1 DUP1 DUP3 MSTORE DUP1 PUSH1 0x20 MUL PUSH1 0x20 ADD DUP3 ADD PUSH1 0x40 MSTORE DUP1 ISZERO PUSH2 0x196A JUMPI DUP2 PUSH1 0x20 ADD PUSH1 0x20 DUP3 MUL DUP1 CALLDATASIZE DUP4 CALLDATACOPY DUP1 DUP3 ADD SWAP2 POP POP SWAP1 POP JUMPDEST POP SWAP6 POP DUP1 PUSH8 0xFFFFFFFFFFFFFFFF DUP2 GT ISZERO PUSH2 0x1987 JUMPI PUSH2 0x1986 PUSH2 0x2C22 JUMP JUMPDEST JUMPDEST PUSH1 0x40 MLOAD SWAP1 DUP1 DUP3 MSTORE DUP1 PUSH1 0x20 MUL PUSH1 0x20 ADD DUP3 ADD PUSH1 0x40 MSTORE DUP1 ISZERO PUSH2 0x19BA JUMPI DUP2 PUSH1 0x20 ADD JUMPDEST PUSH1 0x60 DUP2 MSTORE PUSH1 0x20 ADD SWAP1 PUSH1 0x1 SWAP1 SUB SWAP1 DUP2 PUSH2 0x19A5 JUMPI SWAP1 POP JUMPDEST POP SWAP5 POP DUP1 PUSH8 0xFFFFFFFFFFFFFFFF DUP2 GT ISZERO PUSH2 0x19D7 JUMPI PUSH2 0x19D6 PUSH2 0x2C22 JUMP JUMPDEST JUMPDEST PUSH1 0x40 MLOAD SWAP1 DUP1 DUP3 MSTORE DUP1 PUSH1 0x20 MUL PUSH1 0x20 ADD DUP3 ADD PUSH1 0x40 MSTORE DUP1 ISZERO PUSH2 0x1A05 JUMPI DUP2 PUSH1 0x20 ADD PUSH1 0x20 DUP3 MUL DUP1 CALLDATASIZE DUP4 CALLDATACOPY DUP1 DUP3 ADD SWAP2 POP POP SWAP1 POP JUMPDEST POP SWAP4 POP PUSH0 PUSH0 SWAP1 POP JUMPDEST DUP2 DUP2 LT ISZERO PUSH2 0x1B75 JUMPI DUP3 PUSH1 0x5 ADD DUP2 DUP2 SLOAD DUP2 LT PUSH2 0x1A2B JUMPI PUSH2 0x1A2A PUSH2 0x40B7 JUMP JUMPDEST JUMPDEST SWAP1 PUSH0 MSTORE PUSH1 0x20 PUSH0 KECCAK256 SWAP1 PUSH1 0x3 MUL ADD PUSH0 ADD SLOAD DUP8 DUP3 DUP2 MLOAD DUP2 LT PUSH2 0x1A4D JUMPI PUSH2 0x1A4C PUSH2 0x40B7 JUMP JUMPDEST JUMPDEST PUSH1 0x20 MUL PUSH1 0x20 ADD ADD DUP2 DUP2 MSTORE POP POP DUP3 PUSH1 0x5 ADD DUP2 DUP2 SLOAD DUP2 LT PUSH2 0x1A6F JUMPI PUSH2 0x1A6E PUSH2 0x40B7 JUMP JUMPDEST JUMPDEST SWAP1 PUSH0 MSTORE PUSH1 0x20 PUSH0 KECCAK256 SWAP1 PUSH1 0x3 MUL ADD PUSH1 0x1 ADD DUP1 SLOAD PUSH2 0x1A89 SWAP1 PUSH2 0x383C JUMP JUMPDEST DUP1 PUSH1 0x1F ADD PUSH1 0x20 DUP1 SWAP2 DIV MUL PUSH1 0x20 ADD PUSH1 0x40 MLOAD SWAP1 DUP2 ADD PUSH1 0x40 MSTORE DUP1 SWAP3 SWAP2 SWAP1 DUP2 DUP2 MSTORE PUSH1 0x20 ADD DUP3 DUP1 SLOAD PUSH2 0x1AB5 SWAP1 PUSH2 0x383C JUMP JUMPDEST DUP1 ISZERO PUSH2 0x1B00 JUMPI DUP1 PUSH1 0x1F LT PUSH2 0x1AD7 JUMPI PUSH2 0x100 DUP1 DUP4 SLOAD DIV MUL DUP4 MSTORE SWAP2 PUSH1 0x20 ADD SWAP2 PUSH2 0x1B00 JUMP JUMPDEST DUP3 ADD SWAP2 SWAP1 PUSH0 MSTORE PUSH1 0x20 PUSH0 KECCAK256 SWAP1 JUMPDEST DUP2 SLOAD DUP2 MSTORE SWAP1 PUSH1 0x1 ADD SWAP1 PUSH1 0x20 ADD DUP1 DUP4 GT PUSH2 0x1AE3 JUMPI DUP3 SWAP1 SUB PUSH1 0x1F AND DUP3 ADD SWAP2 JUMPDEST POP POP POP POP POP DUP7 DUP3 DUP2 MLOAD DUP2 LT PUSH2 0x1B18 JUMPI PUSH2 0x1B17 PUSH2 0x40B7 JUMP JUMPDEST JUMPDEST PUSH1 0x20 MUL PUSH1 0x20 ADD ADD DUP2 SWAP1 MSTORE POP DUP3 PUSH1 0x5 ADD DUP2 DUP2 SLOAD DUP2 LT PUSH2 0x1B39 JUMPI PUSH2 0x1B38 PUSH2 0x40B7 JUMP JUMPDEST JUMPDEST SWAP1 PUSH0 MSTORE PUSH1 0x20 PUSH0 KECCAK256 SWAP1 PUSH1 0x3 MUL ADD PUSH1 0x2 ADD SLOAD DUP6 DUP3 DUP2 MLOAD DUP2 LT PUSH2 0x1B5C JUMPI PUSH2 0x1B5B PUSH2 0x40B7 JUMP JUMPDEST JUMPDEST PUSH1 0x20 MUL PUSH1 0x20 ADD ADD DUP2 DUP2 MSTORE POP POP DUP1 DUP1 PUSH1 0x1 ADD SWAP2 POP POP PUSH2 0x1A0D JUMP JUMPDEST POP POP POP POP SWAP2 SWAP4 SWAP1 SWAP3 POP JUMP JUMPDEST PUSH1 0x3 PUSH1 0x20 MSTORE DUP1 PUSH0 MSTORE PUSH1 0x40 PUSH0 KECCAK256 PUSH0 SWAP2 POP SLOAD SWAP1 PUSH2 0x100 EXP SWAP1 DIV PUSH1 0xFF AND DUP2 JUMP JUMPDEST PUSH0 PUSH0 PUSH0 PUSH0 PUSH0 DUP6 PUSH1 0x2 DUP2 PUSH1 0x40 MLOAD PUSH2 0x1BB3 SWAP2 SWAP1 PUSH2 0x3791 JUMP JUMPDEST SWAP1 DUP2 MSTORE PUSH1 0x20 ADD PUSH1 0x40 MLOAD DUP1 SWAP2 SUB SWAP1 KECCAK256 PUSH0 SWAP1 SLOAD SWAP1 PUSH2 0x100 EXP SWAP1 DIV PUSH1 0xFF AND PUSH2 0x1C0D JUMPI PUSH1 0x40 MLOAD PUSH32 0x8C379A000000000000000000000000000000000000000000000000000000000 DUP2 MSTORE PUSH1 0x4 ADD PUSH2 0x1C04 SWAP1 PUSH2 0x37F1 JUMP JUMPDEST PUSH1 0x40 MLOAD DUP1 SWAP2 SUB SWAP1 REVERT JUMPDEST PUSH0 PUSH1 0x1 DUP9 PUSH1 0x40 MLOAD PUSH2 0x1C1E SWAP2 SWAP1 PUSH2 0x3791 JUMP JUMPDEST SWAP1 DUP2 MSTORE PUSH1 0x20 ADD PUSH1 0x40 MLOAD DUP1 SWAP2 SUB SWAP1 KECCAK256 SWAP1 POP PUSH0 DUP2 PUSH1 0x5 ADD DUP1 SLOAD SWAP1 POP SWAP1 POP PUSH0 DUP2 SUB PUSH2 0x1C5E JUMPI PUSH0 PUSH0 PUSH0 PUSH0 PUSH2 0x1C4D DUP14 PUSH2 0x2351 JUMP JUMPDEST SWAP8 POP SWAP8 POP SWAP8 POP SWAP8 POP SWAP8 POP POP POP PUSH2 0x1D4E JUMP JUMPDEST PUSH0 PUSH0 SWAP1 POP PUSH0 DUP4 PUSH1 0x5 ADD PUSH0 DUP2 SLOAD DUP2 LT PUSH2 0x1C79 JUMPI PUSH2 0x1C78 PUSH2 0x40B7 JUMP JUMPDEST JUMPDEST SWAP1 PUSH0 MSTORE PUSH1 0x20 PUSH0 KECCAK256 SWAP1 PUSH1 0x3 MUL ADD PUSH0 ADD SLOAD SWAP1 POP PUSH0 DUP5 PUSH1 0x5 ADD PUSH0 DUP2 SLOAD DUP2 LT PUSH2 0x1CA1 JUMPI PUSH2 0x1CA0 PUSH2 0x40B7 JUMP JUMPDEST JUMPDEST SWAP1 PUSH0 MSTORE PUSH1 0x20 PUSH0 KECCAK256 SWAP1 PUSH1 0x3 MUL ADD PUSH0 ADD SLOAD SWAP1 POP PUSH0 PUSH0 SWAP1 POP JUMPDEST DUP5 DUP2 LT ISZERO PUSH2 0x1D1B JUMPI PUSH0 DUP7 PUSH1 0x5 ADD DUP3 DUP2 SLOAD DUP2 LT PUSH2 0x1CD6 JUMPI PUSH2 0x1CD5 PUSH2 0x40B7 JUMP JUMPDEST JUMPDEST SWAP1 PUSH0 MSTORE PUSH1 0x20 PUSH0 KECCAK256 SWAP1 PUSH1 0x3 MUL ADD PUSH0 ADD SLOAD SWAP1 POP DUP1 DUP6 PUSH2 0x1CF3 SWAP2 SWAP1 PUSH2 0x4111 JUMP JUMPDEST SWAP5 POP DUP4 DUP2 SLT ISZERO PUSH2 0x1D01 JUMPI DUP1 SWAP4 POP JUMPDEST DUP3 DUP2 SGT ISZERO PUSH2 0x1D0D JUMPI DUP1 SWAP3 POP JUMPDEST POP DUP1 DUP1 PUSH1 0x1 ADD SWAP2 POP POP PUSH2 0x1CB7 JUMP JUMPDEST POP PUSH0 DUP5 DUP5 PUSH2 0x1D29 SWAP2 SWAP1 PUSH2 0x417F JUMP JUMPDEST SWAP1 POP PUSH0 PUSH2 0x1D35 DUP15 PUSH2 0x2351 JUMP JUMPDEST SWAP1 POP DUP6 DUP3 DUP6 DUP6 DUP5 SWAP13 POP SWAP13 POP SWAP13 POP SWAP13 POP SWAP13 POP POP POP POP POP POP POP POP JUMPDEST POP SWAP2 SWAP4 SWAP6 SWAP1 SWAP3 SWAP5 POP JUMP JUMPDEST PUSH1 0x60 DUP2 PUSH1 0x2 DUP2 PUSH1 0x40 MLOAD PUSH2 0x1D6B SWAP2 SWAP1 PUSH2 0x3791 JUMP JUMPDEST SWAP1 DUP2 MSTORE PUSH1 0x20 ADD PUSH1 0x40 MLOAD DUP1 SWAP2 SUB SWAP1 KECCAK256 PUSH0 SWAP1 SLOAD SWAP1 PUSH2 0x100 EXP SWAP1 DIV PUSH1 0xFF AND PUSH2 0x1DC5 JUMPI PUSH1 0x40 MLOAD PUSH32 0x8C379A000000000000000000000000000000000000000000000000000000000 DUP2 MSTORE PUSH1 0x4 ADD PUSH2 0x1DBC SWAP1 PUSH2 0x37F1 JUMP JUMPDEST PUSH1 0x40 MLOAD DUP1 SWAP2 SUB SWAP1 REVERT JUMPDEST PUSH0 PUSH1 0x1 DUP5 PUSH1 0x40 MLOAD PUSH2 0x1DD6 SWAP2 SWAP1 PUSH2 0x3791 JUMP JUMPDEST SWAP1 DUP2 MSTORE PUSH1 0x20 ADD PUSH1 0x40 MLOAD DUP1 SWAP2 SUB SWAP1 KECCAK256 SWAP1 POP PUSH0 PUSH0 SWAP1 SLOAD SWAP1 PUSH2 0x100 EXP SWAP1 DIV PUSH20 0xFFFFFFFFFFFFFFFFFFFFFFFFFFFFFFFFFFFFFFFF AND PUSH20 0xFFFFFFFFFFFFFFFFFFFFFFFFFFFFFFFFFFFFFFFF AND CALLER PUSH20 0xFFFFFFFFFFFFFFFFFFFFFFFFFFFFFFFFFFFFFFFF AND EQ DUP1 PUSH2 0x1E8F JUMPI POP DUP1 PUSH1 0x4 ADD PUSH1 0x1 SWAP1 SLOAD SWAP1 PUSH2 0x100 EXP SWAP1 DIV PUSH20 0xFFFFFFFFFFFFFFFFFFFFFFFFFFFFFFFFFFFFFFFF AND PUSH20 0xFFFFFFFFFFFFFFFFFFFFFFFFFFFFFFFFFFFFFFFF AND CALLER PUSH20 0xFFFFFFFFFFFFFFFFFFFFFFFFFFFFFFFFFFFFFFFF AND EQ JUMPDEST PUSH2 0x1ECE JUMPI PUSH1 0x40 MLOAD PUSH32 0x8C379A000000000000000000000000000000000000000000000000000000000 DUP2 MSTORE PUSH1 0x4 ADD PUSH2 0x1EC5 SWAP1 PUSH2 0x4231 JUMP JUMPDEST PUSH1 0x40 MLOAD DUP1 SWAP2 SUB SWAP1 REVERT JUMPDEST PUSH0 DUP5 CALLER TIMESTAMP PUSH1 0x40 MLOAD PUSH1 0x20 ADD PUSH2 0x1EE4 SWAP4 SWAP3 SWAP2 SWAP1 PUSH2 0x42B4 JUMP JUMPDEST PUSH1 0x40 MLOAD PUSH1 0x20 DUP2 DUP4 SUB SUB DUP2 MSTORE SWAP1 PUSH1 0x40 MSTORE DUP1 MLOAD SWAP1 PUSH1 0x20 ADD KECCAK256 SWAP1 POP PUSH0 PUSH2 0x1F06 DUP3 PUSH2 0x2969 JUMP JUMPDEST SWAP1 POP DUP6 PUSH1 0x4 DUP3 PUSH1 0x40 MLOAD PUSH2 0x1F19 SWAP2 SWAP1 PUSH2 0x3791 JUMP JUMPDEST SWAP1 DUP2 MSTORE PUSH1 0x20 ADD PUSH1 0x40 MLOAD DUP1 SWAP2 SUB SWAP1 KECCAK256 SWAP1 DUP2 PUSH2 0x1F33 SWAP2 SWAP1 PUSH2 0x3A9A JUMP JUMPDEST POP DUP1 PUSH1 0x5 DUP8 PUSH1 0x40 MLOAD PUSH2 0x1F45 SWAP2 SWAP1 PUSH2 0x3791 JUMP JUMPDEST SWAP1 DUP2 MSTORE PUSH1 0x20 ADD PUSH1 0x40 MLOAD DUP1 SWAP2 SUB SWAP1 KECCAK256 SWAP1 DUP2 PUSH2 0x1F5F SWAP2 SWAP1 PUSH2 0x3A9A JUMP JUMPDEST POP DUP6 PUSH1 0x40 MLOAD PUSH2 0x1F6E SWAP2 SWAP1 PUSH2 0x3791 JUMP JUMPDEST PUSH1 0x40 MLOAD DUP1 SWAP2 SUB SWAP1 KECCAK256 PUSH32 0x5B09EC3FE7870357CBC45EF4E1D69860D921F49908DD748EDEEAEFC8158864DB DUP3 PUSH1 0x40 MLOAD PUSH2 0x1FA5 SWAP2 SWAP1 PUSH2 0x3650 JUMP JUMPDEST PUSH1 0x40 MLOAD DUP1 SWAP2 SUB SWAP1 LOG2 DUP1 SWAP5 POP POP POP POP POP SWAP2 SWAP1 POP JUMP JUMPDEST PUSH1 0x60 DUP1 PUSH1 0x60 DUP1 PUSH0 PUSH0 PUSH0 PUSH1 0x4 DUP9 PUSH1 0x40 MLOAD PUSH2 0x1FD2 SWAP2 SWAP1 PUSH2 0x3791 JUMP JUMPDEST SWAP1 DUP2 MSTORE PUSH1 0x20 ADD PUSH1 0x40 MLOAD DUP1 SWAP2 SUB SWAP1 KECCAK256 DUP1 SLOAD PUSH2 0x1FEB SWAP1 PUSH2 0x383C JUMP JUMPDEST DUP1 PUSH1 0x1F ADD PUSH1 0x20 DUP1 SWAP2 DIV MUL PUSH1 0x20 ADD PUSH1 0x40 MLOAD SWAP1 DUP2 ADD PUSH1 0x40 MSTORE DUP1 SWAP3 SWAP2 SWAP1 DUP2 DUP2 MSTORE PUSH1 0x20 ADD DUP3 DUP1 SLOAD PUSH2 0x2017 SWAP1 PUSH2 0x383C JUMP JUMPDEST DUP1 ISZERO PUSH2 0x2062 JUMPI DUP1 PUSH1 0x1F LT PUSH2 0x2039 JUMPI PUSH2 0x100 DUP1 DUP4 SLOAD DIV MUL DUP4 MSTORE SWAP2 PUSH1 0x20 ADD SWAP2 PUSH2 0x2062 JUMP JUMPDEST DUP3 ADD SWAP2 SWAP1 PUSH0 MSTORE PUSH1 0x20 PUSH0 KECCAK256 SWAP1 JUMPDEST DUP2 SLOAD DUP2 MSTORE SWAP1 PUSH1 0x1 ADD SWAP1 PUSH1 0x20 ADD DUP1 DUP4 GT PUSH2 0x2045 JUMPI DUP3 SWAP1 SUB PUSH1 0x1F AND DUP3 ADD SWAP2 JUMPDEST POP POP POP POP POP SWAP1 POP PUSH0 DUP2 MLOAD SUB PUSH2 0x20AC JUMPI PUSH1 0x40 MLOAD PUSH32 0x8C379A000000000000000000000000000000000000000000000000000000000 DUP2 MSTORE PUSH1 0x4 ADD PUSH2 0x20A3 SWAP1 PUSH2 0x4336 JUMP JUMPDEST PUSH1 0x40 MLOAD DUP1 SWAP2 SUB SWAP1 REVERT JUMPDEST PUSH0 PUSH1 0x1 DUP3 PUSH1 0x40 MLOAD PUSH2 0x20BD SWAP2 SWAP1 PUSH2 0x3791 JUMP JUMPDEST SWAP1 DUP2 MSTORE PUSH1 0x20 ADD PUSH1 0x40 MLOAD DUP1 SWAP2 SUB SWAP1 KECCAK256 SWAP1 POP DUP1 PUSH0 ADD DUP2 PUSH1 0x1 ADD DUP3 PUSH1 0x2 ADD DUP4 PUSH1 0x3 ADD DUP5 PUSH1 0x4 ADD PUSH0 SWAP1 SLOAD SWAP1 PUSH2 0x100 EXP SWAP1 DIV PUSH1 0xFF AND DUP6 PUSH1 0x4 ADD PUSH1 0x1 SWAP1 SLOAD SWAP1 PUSH2 0x100 EXP SWAP1 DIV PUSH20 0xFFFFFFFFFFFFFFFFFFFFFFFFFFFFFFFFFFFFFFFF AND DUP6 DUP1 SLOAD PUSH2 0x211E SWAP1 PUSH2 0x383C JUMP JUMPDEST DUP1 PUSH1 0x1F ADD PUSH1 0x20 DUP1 SWAP2 DIV MUL PUSH1 0x20 ADD PUSH1 0x40 MLOAD SWAP1 DUP2 ADD PUSH1 0x40 MSTORE DUP1 SWAP3 SWAP2 SWAP1 DUP2 DUP2 MSTORE PUSH1 0x20 ADD DUP3 DUP1 SLOAD PUSH2 0x214A SWAP1 PUSH2 0x383C JUMP JUMPDEST DUP1 ISZERO PUSH2 0x2195 JUMPI DUP1 PUSH1 0x1F LT PUSH2 0x216C JUMPI PUSH2 0x100 DUP1 DUP4 SLOAD DIV MUL DUP4 MSTORE SWAP2 PUSH1 0x20 ADD SWAP2 PUSH2 0x2195 JUMP JUMPDEST DUP3 ADD SWAP2 SWAP1 PUSH0 MSTORE PUSH1 0x20 PUSH0 KECCAK256 SWAP1 JUMPDEST DUP2 SLOAD DUP2 MSTORE SWAP1 PUSH1 0x1 ADD SWAP1 PUSH1 0x20 ADD DUP1 DUP4 GT PUSH2 0x2178 JUMPI DUP3 SWAP1 SUB PUSH1 0x1F AND DUP3 ADD SWAP2 JUMPDEST POP POP POP POP POP SWAP6 POP DUP5 DUP1 SLOAD PUSH2 0x21A8 SWAP1 PUSH2 0x383C JUMP JUMPDEST DUP1 PUSH1 0x1F ADD PUSH1 0x20 DUP1 SWAP2 DIV MUL PUSH1 0x20 ADD PUSH1 0x40 MLOAD SWAP1 DUP2 ADD PUSH1 0x40 MSTORE DUP1 SWAP3 SWAP2 SWAP1 DUP2 DUP2 MSTORE PUSH1 0x20 ADD DUP3 DUP1 SLOAD PUSH2 0x21D4 SWAP1 PUSH2 0x383C JUMP JUMPDEST DUP1 ISZERO PUSH2 0x221F JUMPI DUP1 PUSH1 0x1F LT PUSH2 0x21F6 JUMPI PUSH2 0x100 DUP1 DUP4 SLOAD DIV MUL DUP4 MSTORE SWAP2 PUSH1 0x20 ADD SWAP2 PUSH2 0x221F JUMP JUMPDEST DUP3 ADD SWAP2 SWAP1 PUSH0 MSTORE PUSH1 0x20 PUSH0 KECCAK256 SWAP1 JUMPDEST DUP2 SLOAD DUP2 MSTORE SWAP1 PUSH1 0x1 ADD SWAP1 PUSH1 0x20 ADD DUP1 DUP4 GT PUSH2 0x2202 JUMPI DUP3 SWAP1 SUB PUSH1 0x1F AND DUP3 ADD SWAP2 JUMPDEST POP POP POP POP POP SWAP5 POP DUP4 DUP1 SLOAD PUSH2 0x2232 SWAP1 PUSH2 0x383C JUMP JUMPDEST DUP1 PUSH1 0x1F ADD PUSH1 0x20 DUP1 SWAP2 DIV MUL PUSH1 0x20 ADD PUSH1 0x40 MLOAD SWAP1 DUP2 ADD PUSH1 0x40 MSTORE DUP1 SWAP3 SWAP2 SWAP1 DUP2 DUP2 MSTORE PUSH1 0x20 ADD DUP3 DUP1 SLOAD PUSH2 0x225E SWAP1 PUSH2 0x383C JUMP JUMPDEST DUP1 ISZERO PUSH2 0x22A9 JUMPI DUP1 PUSH1 0x1F LT PUSH2 0x2280 JUMPI PUSH2 0x100 DUP1 DUP4 SLOAD DIV MUL DUP4 MSTORE SWAP2 PUSH1 0x20 ADD SWAP2 PUSH2 0x22A9 JUMP JUMPDEST DUP3 ADD SWAP2 SWAP1 PUSH0 MSTORE PUSH1 0x20 PUSH0 KECCAK256 SWAP1 JUMPDEST DUP2 SLOAD DUP2 MSTORE SWAP1 PUSH1 0x1 ADD SWAP1 PUSH1 0x20 ADD DUP1 DUP4 GT PUSH2 0x228C JUMPI DUP3 SWAP1 SUB PUSH1 0x1F AND DUP3 ADD SWAP2 JUMPDEST POP POP POP POP POP SWAP4 POP DUP3 DUP1 SLOAD PUSH2 0x22BC SWAP1 PUSH2 0x383C JUMP JUMPDEST DUP1 PUSH1 0x1F ADD PUSH1 0x20 DUP1 SWAP2 DIV MUL PUSH1 0x20 ADD PUSH1 0x40 MLOAD SWAP1 DUP2 ADD PUSH1 0x40 MSTORE DUP1 SWAP3 SWAP2 SWAP1 DUP2 DUP2 MSTORE PUSH1 0x20 ADD DUP3 DUP1 SLOAD PUSH2 0x22E8 SWAP1 PUSH2 0x383C JUMP JUMPDEST DUP1 ISZERO PUSH2 0x2333 JUMPI DUP1 PUSH1 0x1F LT PUSH2 0x230A JUMPI PUSH2 0x100 DUP1 DUP4 SLOAD DIV MUL DUP4 MSTORE SWAP2 PUSH1 0x20 ADD SWAP2 PUSH2 0x2333 JUMP JUMPDEST DUP3 ADD SWAP2 SWAP1 PUSH0 MSTORE PUSH1 0x20 PUSH0 KECCAK256 SWAP1 JUMPDEST DUP2 SLOAD DUP2 MSTORE SWAP1 PUSH1 0x1 ADD SWAP1 PUSH1 0x20 ADD DUP1 DUP4 GT PUSH2 0x2316 JUMPI DUP3 SWAP1 SUB PUSH1 0x1F AND DUP3 ADD SWAP2 JUMPDEST POP POP POP POP POP SWAP3 POP SWAP8 POP SWAP8 POP SWAP8 POP SWAP8 POP SWAP8 POP SWAP8 POP POP POP SWAP2 SWAP4 SWAP6 POP SWAP2 SWAP4 SWAP6 JUMP JUMPDEST PUSH0 DUP2 PUSH1 0x2 DUP2 PUSH1 0x40 MLOAD PUSH2 0x2363 SWAP2 SWAP1 PUSH2 0x3791 JUMP JUMPDEST SWAP1 DUP2 MSTORE PUSH1 0x20 ADD PUSH1 0x40 MLOAD DUP1 SWAP2 SUB SWAP1 KECCAK256 PUSH0 SWAP1 SLOAD SWAP1 PUSH2 0x100 EXP SWAP1 DIV PUSH1 0xFF AND PUSH2 0x23BD JUMPI PUSH1 0x40 MLOAD PUSH32 0x8C379A000000000000000000000000000000000000000000000000000000000 DUP2 MSTORE PUSH1 0x4 ADD PUSH2 0x23B4 SWAP1 PUSH2 0x37F1 JUMP JUMPDEST PUSH1 0x40 MLOAD DUP1 SWAP2 SUB SWAP1 REVERT JUMPDEST PUSH0 PUSH1 0x1 DUP5 PUSH1 0x40 MLOAD PUSH2 0x23CE SWAP2 SWAP1 PUSH2 0x3791 JUMP JUMPDEST SWAP1 DUP2 MSTORE PUSH1 0x20 ADD PUSH1 0x40 MLOAD DUP1 SWAP2 SUB SWAP1 KECCAK256 SWAP1 POP DUP1 PUSH1 0x9 ADD PUSH0 SWAP1 SLOAD SWAP1 PUSH2 0x100 EXP SWAP1 DIV PUSH1 0xFF AND ISZERO DUP1 ISZERO PUSH2 0x240B JUMPI POP DUP1 PUSH1 0x9 ADD PUSH1 0x1 SWAP1 SLOAD SWAP1 PUSH2 0x100 EXP SWAP1 DIV PUSH1 0xFF AND ISZERO JUMPDEST ISZERO PUSH2 0x241A JUMPI PUSH1 0x1 SWAP3 POP POP PUSH2 0x24CC JUMP JUMPDEST PUSH0 PUSH0 SWAP1 POP JUMPDEST DUP2 PUSH1 0x5 ADD DUP1 SLOAD SWAP1 POP DUP2 LT ISZERO PUSH2 0x24C5 JUMPI PUSH0 DUP3 PUSH1 0x5 ADD DUP3 DUP2 SLOAD DUP2 LT PUSH2 0x2445 JUMPI PUSH2 0x2444 PUSH2 0x40B7 JUMP JUMPDEST JUMPDEST SWAP1 PUSH0 MSTORE PUSH1 0x20 PUSH0 KECCAK256 SWAP1 PUSH1 0x3 MUL ADD PUSH0 ADD SLOAD SWAP1 POP DUP3 PUSH1 0x9 ADD PUSH0 SWAP1 SLOAD SWAP1 PUSH2 0x100 EXP SWAP1 DIV PUSH1 0xFF AND DUP1 ISZERO PUSH2 0x2476 JUMPI POP DUP3 PUSH1 0x7 ADD SLOAD DUP2 SLT JUMPDEST ISZERO PUSH2 0x2486 JUMPI PUSH0 SWAP5 POP POP POP POP PUSH2 0x24CC JUMP JUMPDEST DUP3 PUSH1 0x9 ADD PUSH1 0x1 SWAP1 SLOAD SWAP1 PUSH2 0x100 EXP SWAP1 DIV PUSH1 0xFF AND DUP1 ISZERO PUSH2 0x24A7 JUMPI POP DUP3 PUSH1 0x8 ADD SLOAD DUP2 SGT JUMPDEST ISZERO PUSH2 0x24B7 JUMPI PUSH0 SWAP5 POP POP POP POP PUSH2 0x24CC JUMP JUMPDEST POP DUP1 DUP1 PUSH1 0x1 ADD SWAP2 POP POP PUSH2 0x241F JUMP JUMPDEST POP PUSH1 0x1 SWAP3 POP POP JUMPDEST POP SWAP2 SWAP1 POP JUMP JUMPDEST DUP3 PUSH1 0x2 DUP2 PUSH1 0x40 MLOAD PUSH2 0x24E3 SWAP2 SWAP1 PUSH2 0x3791 JUMP JUMPDEST SWAP1 DUP2 MSTORE PUSH1 0x20 ADD PUSH1 0x40 MLOAD DUP1 SWAP2 SUB SWAP1 KECCAK256 PUSH0 SWAP1 SLOAD SWAP1 PUSH2 0x100 EXP SWAP1 DIV PUSH1 0xFF AND PUSH2 0x253D JUMPI PUSH1 0x40 MLOAD PUSH32 0x8C379A000000000000000000000000000000000000000000000000000000000 DUP2 MSTORE PUSH1 0x4 ADD PUSH2 0x2534 SWAP1 PUSH2 0x37F1 JUMP JUMPDEST PUSH1 0x40 MLOAD DUP1 SWAP2 SUB SWAP1 REVERT JUMPDEST PUSH0 PUSH0 SWAP1 SLOAD SWAP1 PUSH2 0x100 EXP SWAP1 DIV PUSH20 0xFFFFFFFFFFFFFFFFFFFFFFFFFFFFFFFFFFFFFFFF AND PUSH20 0xFFFFFFFFFFFFFFFFFFFFFFFFFFFFFFFFFFFFFFFF AND CALLER PUSH20 0xFFFFFFFFFFFFFFFFFFFFFFFFFFFFFFFFFFFFFFFF AND EQ DUP1 PUSH2 0x2604 JUMPI POP PUSH0 PUSH1 0x4 DUP2 GT ISZERO PUSH2 0x25A5 JUMPI PUSH2 0x25A4 PUSH2 0x2F10 JUMP JUMPDEST JUMPDEST PUSH1 0x3 PUSH0 CALLER PUSH20 0xFFFFFFFFFFFFFFFFFFFFFFFFFFFFFFFFFFFFFFFF AND PUSH20 0xFFFFFFFFFFFFFFFFFFFFFFFFFFFFFFFFFFFFFFFF AND DUP2 MSTORE PUSH1 0x20 ADD SWAP1 DUP2 MSTORE PUSH1 0x20 ADD PUSH0 KECCAK256 PUSH0 SWAP1 SLOAD SWAP1 PUSH2 0x100 EXP SWAP1 DIV PUSH1 0xFF AND PUSH1 0x4 DUP2 GT ISZERO PUSH2 0x2601 JUMPI PUSH2 0x2600 PUSH2 0x2F10 JUMP JUMPDEST JUMPDEST EQ ISZERO JUMPDEST PUSH2 0x2643 JUMPI PUSH1 0x40 MLOAD PUSH32 0x8C379A000000000000000000000000000000000000000000000000000000000 DUP2 MSTORE PUSH1 0x4 ADD PUSH2 0x263A SWAP1 PUSH2 0x439E JUMP JUMPDEST PUSH1 0x40 MLOAD DUP1 SWAP2 SUB SWAP1 REVERT JUMPDEST PUSH0 PUSH1 0x1 DUP6 PUSH1 0x40 MLOAD PUSH2 0x2654 SWAP2 SWAP1 PUSH2 0x3791 JUMP JUMPDEST SWAP1 DUP2 MSTORE PUSH1 0x20 ADD PUSH1 0x40 MLOAD DUP1 SWAP2 SUB SWAP1 KECCAK256 SWAP1 POP DUP4 DUP2 PUSH1 0x7 ADD DUP2 SWAP1 SSTORE POP DUP3 DUP2 PUSH1 0x8 ADD DUP2 SWAP1 SSTORE POP PUSH1 0x1 DUP2 PUSH1 0x9 ADD PUSH0 PUSH2 0x100 EXP DUP2 SLOAD DUP2 PUSH1 0xFF MUL NOT AND SWAP1 DUP4 ISZERO ISZERO MUL OR SWAP1 SSTORE POP PUSH1 0x1 DUP2 PUSH1 0x9 ADD PUSH1 0x1 PUSH2 0x100 EXP DUP2 SLOAD DUP2 PUSH1 0xFF MUL NOT AND SWAP1 DUP4 ISZERO ISZERO MUL OR SWAP1 SSTORE POP DUP5 PUSH1 0x40 MLOAD PUSH2 0x26BD SWAP2 SWAP1 PUSH2 0x3791 JUMP JUMPDEST PUSH1 0x40 MLOAD DUP1 SWAP2 SUB SWAP1 KECCAK256 PUSH32 0x2927E1CE4FFBE3BB1EC8DED8077445FD60EB0DE83DEBBB3A01462A85F82AC59E DUP6 DUP6 PUSH1 0x40 MLOAD PUSH2 0x26F6 SWAP3 SWAP2 SWAP1 PUSH2 0x43BC JUMP JUMPDEST PUSH1 0x40 MLOAD DUP1 SWAP2 SUB SWAP1 LOG2 POP POP POP POP POP JUMP JUMPDEST PUSH0 PUSH0 DUP4 SWAP1 POP PUSH0 DUP4 SWAP1 POP DUP1 MLOAD DUP3 MLOAD LT ISZERO PUSH2 0x2722 JUMPI PUSH0 SWAP3 POP POP POP PUSH2 0x2822 JUMP JUMPDEST PUSH0 PUSH0 SWAP1 POP JUMPDEST DUP2 MLOAD DUP4 MLOAD PUSH2 0x2735 SWAP2 SWAP1 PUSH2 0x43E3 JUMP JUMPDEST DUP2 GT PUSH2 0x281B JUMPI PUSH0 PUSH1 0x1 SWAP1 POP PUSH0 PUSH0 SWAP1 POP JUMPDEST DUP4 MLOAD DUP2 LT ISZERO PUSH2 0x27F3 JUMPI DUP4 DUP2 DUP2 MLOAD DUP2 LT PUSH2 0x2761 JUMPI PUSH2 0x2760 PUSH2 0x40B7 JUMP JUMPDEST JUMPDEST PUSH1 0x20 ADD ADD MLOAD PUSH1 0xF8 SHR PUSH1 0xF8 SHL PUSH31 0xFFFFFFFFFFFFFFFFFFFFFFFFFFFFFFFFFFFFFFFFFFFFFFFFFFFFFFFFFFFFFF NOT AND DUP6 DUP3 DUP6 PUSH2 0x279B SWAP2 SWAP1 PUSH2 0x4416 JUMP JUMPDEST DUP2 MLOAD DUP2 LT PUSH2 0x27AC JUMPI PUSH2 0x27AB PUSH2 0x40B7 JUMP JUMPDEST JUMPDEST PUSH1 0x20 ADD ADD MLOAD PUSH1 0xF8 SHR PUSH1 0xF8 SHL PUSH31 0xFFFFFFFFFFFFFFFFFFFFFFFFFFFFFFFFFFFFFFFFFFFFFFFFFFFFFFFFFFFFFF NOT AND EQ PUSH2 0x27E6 JUMPI PUSH0 SWAP2 POP PUSH2 0x27F3 JUMP JUMPDEST DUP1 DUP1 PUSH1 0x1 ADD SWAP2 POP POP PUSH2 0x2745 JUMP JUMPDEST POP DUP1 ISZERO PUSH2 0x2807 JUMPI PUSH1 0x1 SWAP5 POP POP POP POP POP PUSH2 0x2822 JUMP JUMPDEST POP DUP1 DUP1 PUSH2 0x2813 SWAP1 PUSH2 0x4449 JUMP JUMPDEST SWAP2 POP POP PUSH2 0x2727 JUMP JUMPDEST POP PUSH0 SWAP3 POP POP POP JUMPDEST SWAP3 SWAP2 POP POP JUMP JUMPDEST PUSH0 PUSH1 0x6 DUP4 PUSH1 0x40 MLOAD PUSH2 0x2839 SWAP2 SWAP1 PUSH2 0x3791 JUMP JUMPDEST SWAP1 DUP2 MSTORE PUSH1 0x20 ADD PUSH1 0x40 MLOAD DUP1 SWAP2 SUB SWAP1 KECCAK256 DUP3 PUSH1 0x40 MLOAD PUSH2 0x2855 SWAP2 SWAP1 PUSH2 0x3791 JUMP JUMPDEST SWAP1 DUP2 MSTORE PUSH1 0x20 ADD PUSH1 0x40 MLOAD DUP1 SWAP2 SUB SWAP1 KECCAK256 PUSH0 SWAP1 SLOAD SWAP1 PUSH2 0x100 EXP SWAP1 DIV PUSH1 0xFF AND SWAP1 POP SWAP3 SWAP2 POP POP JUMP JUMPDEST PUSH1 0x1 PUSH1 0x6 DUP4 PUSH1 0x40 MLOAD PUSH2 0x288A SWAP2 SWAP1 PUSH2 0x3791 JUMP JUMPDEST SWAP1 DUP2 MSTORE PUSH1 0x20 ADD PUSH1 0x40 MLOAD DUP1 SWAP2 SUB SWAP1 KECCAK256 DUP3 PUSH1 0x40 MLOAD PUSH2 0x28A6 SWAP2 SWAP1 PUSH2 0x3791 JUMP JUMPDEST SWAP1 DUP2 MSTORE PUSH1 0x20 ADD PUSH1 0x40 MLOAD DUP1 SWAP2 SUB SWAP1 KECCAK256 PUSH0 PUSH2 0x100 EXP DUP2 SLOAD DUP2 PUSH1 0xFF MUL NOT AND SWAP1 DUP4 ISZERO ISZERO MUL OR SWAP1 SSTORE POP PUSH1 0x7 DUP3 PUSH1 0x40 MLOAD PUSH2 0x28DA SWAP2 SWAP1 PUSH2 0x3791 JUMP JUMPDEST SWAP1 DUP2 MSTORE PUSH1 0x20 ADD PUSH1 0x40 MLOAD DUP1 SWAP2 SUB SWAP1 KECCAK256 DUP2 SWAP1 DUP1 PUSH1 0x1 DUP2 SLOAD ADD DUP1 DUP3 SSTORE DUP1 SWAP2 POP POP PUSH1 0x1 SWAP1 SUB SWAP1 PUSH0 MSTORE PUSH1 0x20 PUSH0 KECCAK256 ADD PUSH0 SWAP1 SWAP2 SWAP1 SWAP2 SWAP1 SWAP2 POP SWAP1 DUP2 PUSH2 0x2917 SWAP2 SWAP1 PUSH2 0x3A9A JUMP JUMPDEST POP DUP2 PUSH1 0x40 MLOAD PUSH2 0x2926 SWAP2 SWAP1 PUSH2 0x3791 JUMP JUMPDEST PUSH1 0x40 MLOAD DUP1 SWAP2 SUB SWAP1 KECCAK256 PUSH32 0x34FCD4787ADB461453A1AABFFC2349656FEBA59E5A3E83C4AAD58836DB82BEC6 DUP3 PUSH1 0x40 MLOAD PUSH2 0x295D SWAP2 SWAP1 PUSH2 0x3650 JUMP JUMPDEST PUSH1 0x40 MLOAD DUP1 SWAP2 SUB SWAP1 LOG2 POP POP JUMP JUMPDEST PUSH1 0x60 PUSH0 PUSH32 0x3031323334353637383961626364656600000000000000000000000000000000 SWAP1 POP PUSH0 PUSH1 0x42 PUSH8 0xFFFFFFFFFFFFFFFF DUP2 GT ISZERO PUSH2 0x29AB JUMPI PUSH2 0x29AA PUSH2 0x2C22 JUMP JUMPDEST JUMPDEST PUSH1 0x40 MLOAD SWAP1 DUP1 DUP3 MSTORE DUP1 PUSH1 0x1F ADD PUSH1 0x1F NOT AND PUSH1 0x20 ADD DUP3 ADD PUSH1 0x40 MSTORE DUP1 ISZERO PUSH2 0x29DD JUMPI DUP2 PUSH1 0x20 ADD PUSH1 0x1 DUP3 MUL DUP1 CALLDATASIZE DUP4 CALLDATACOPY DUP1 DUP3 ADD SWAP2 POP POP SWAP1 POP JUMPDEST POP SWAP1 POP PUSH32 0x3000000000000000000000000000000000000000000000000000000000000000 DUP2 PUSH0 DUP2 MLOAD DUP2 LT PUSH2 0x2A14 JUMPI PUSH2 0x2A13 PUSH2 0x40B7 JUMP JUMPDEST JUMPDEST PUSH1 0x20 ADD ADD SWAP1 PUSH31 0xFFFFFFFFFFFFFFFFFFFFFFFFFFFFFFFFFFFFFFFFFFFFFFFFFFFFFFFFFFFFFF NOT AND SWAP1 DUP2 PUSH0 BYTE SWAP1 MSTORE8 POP PUSH32 0x7800000000000000000000000000000000000000000000000000000000000000 DUP2 PUSH1 0x1 DUP2 MLOAD DUP2 LT PUSH2 0x2A77 JUMPI PUSH2 0x2A76 PUSH2 0x40B7 JUMP JUMPDEST JUMPDEST PUSH1 0x20 ADD ADD SWAP1 PUSH31 0xFFFFFFFFFFFFFFFFFFFFFFFFFFFFFFFFFFFFFFFFFFFFFFFFFFFFFFFFFFFFFF NOT AND SWAP1 DUP2 PUSH0 BYTE SWAP1 MSTORE8 POP PUSH0 PUSH0 SWAP1 POP JUMPDEST PUSH1 0x20 DUP2 LT ISZERO PUSH2 0x2BEE JUMPI DUP3 PUSH1 0x4 DUP7 DUP4 PUSH1 0x20 DUP2 LT PUSH2 0x2AC9 JUMPI PUSH2 0x2AC8 PUSH2 0x40B7 JUMP JUMPDEST JUMPDEST BYTE PUSH1 0xF8 SHL PUSH1 0xF8 SHR PUSH1 0xFF AND SWAP1 SHR PUSH1 0xFF AND PUSH1 0x10 DUP2 LT PUSH2 0x2AE9 JUMPI PUSH2 0x2AE8 PUSH2 0x40B7 JUMP JUMPDEST JUMPDEST BYTE PUSH1 0xF8 SHL DUP3 PUSH1 0x2 DUP4 PUSH2 0x2AFB SWAP2 SWAP1 PUSH2 0x4490 JUMP JUMPDEST PUSH1 0x2 PUSH2 0x2B07 SWAP2 SWAP1 PUSH2 0x4416 JUMP JUMPDEST DUP2 MLOAD DUP2 LT PUSH2 0x2B18 JUMPI PUSH2 0x2B17 PUSH2 0x40B7 JUMP JUMPDEST JUMPDEST PUSH1 0x20 ADD ADD SWAP1 PUSH31 0xFFFFFFFFFFFFFFFFFFFFFFFFFFFFFFFFFFFFFFFFFFFFFFFFFFFFFFFFFFFFFF NOT AND SWAP1 DUP2 PUSH0 BYTE SWAP1 MSTORE8 POP DUP3 PUSH1 0xF DUP7 DUP4 PUSH1 0x20 DUP2 LT PUSH2 0x2B5C JUMPI PUSH2 0x2B5B PUSH2 0x40B7 JUMP JUMPDEST JUMPDEST BYTE PUSH1 0xF8 SHL PUSH1 0xF8 SHR AND PUSH1 0xFF AND PUSH1 0x10 DUP2 LT PUSH2 0x2B78 JUMPI PUSH2 0x2B77 PUSH2 0x40B7 JUMP JUMPDEST JUMPDEST BYTE PUSH1 0xF8 SHL DUP3 PUSH1 0x1 PUSH1 0x2 DUP5 PUSH2 0x2B8C SWAP2 SWAP1 PUSH2 0x4490 JUMP JUMPDEST PUSH1 0x2 PUSH2 0x2B98 SWAP2 SWAP1 PUSH2 0x4416 JUMP JUMPDEST PUSH2 0x2BA2 SWAP2 SWAP1 PUSH2 0x4416 JUMP JUMPDEST DUP2 MLOAD DUP2 LT PUSH2 0x2BB3 JUMPI PUSH2 0x2BB2 PUSH2 0x40B7 JUMP JUMPDEST JUMPDEST PUSH1 0x20 ADD ADD SWAP1 PUSH31 0xFFFFFFFFFFFFFFFFFFFFFFFFFFFFFFFFFFFFFFFFFFFFFFFFFFFFFFFFFFFFFF NOT AND SWAP1 DUP2 PUSH0 BYTE SWAP1 MSTORE8 POP DUP1 DUP1 PUSH1 0x1 ADD SWAP2 POP POP PUSH2 0x2AAA JUMP JUMPDEST POP DUP1 SWAP3 POP POP POP SWAP2 SWAP1 POP JUMP JUMPDEST PUSH0 PUSH1 0x40 MLOAD SWAP1 POP SWAP1 JUMP JUMPDEST PUSH0 PUSH0 REVERT JUMPDEST PUSH0 PUSH0 REVERT JUMPDEST PUSH0 PUSH0 REVERT JUMPDEST PUSH0 PUSH0 REVERT JUMPDEST PUSH0 PUSH1 0x1F NOT PUSH1 0x1F DUP4 ADD AND SWAP1 POP SWAP2 SWAP1 POP JUMP JUMPDEST PUSH32 0x4E487B7100000000000000000000000000000000000000000000000000000000 PUSH0 MSTORE PUSH1 0x41 PUSH1 0x4 MSTORE PUSH1 0x24 PUSH0 REVERT JUMPDEST PUSH2 0x2C58 DUP3 PUSH2 0x2C12 JUMP JUMPDEST DUP2 ADD DUP2 DUP2 LT PUSH8 0xFFFFFFFFFFFFFFFF DUP3 GT OR ISZERO PUSH2 0x2C77 JUMPI PUSH2 0x2C76 PUSH2 0x2C22 JUMP JUMPDEST JUMPDEST DUP1 PUSH1 0x40 MSTORE POP POP POP JUMP JUMPDEST PUSH0 PUSH2 0x2C89 PUSH2 0x2BF9 JUMP JUMPDEST SWAP1 POP PUSH2 0x2C95 DUP3 DUP3 PUSH2 0x2C4F JUMP JUMPDEST SWAP2 SWAP1 POP JUMP JUMPDEST PUSH0 PUSH8 0xFFFFFFFFFFFFFFFF DUP3 GT ISZERO PUSH2 0x2CB4 JUMPI PUSH2 0x2CB3 PUSH2 0x2C22 JUMP JUMPDEST JUMPDEST PUSH2 0x2CBD DUP3 PUSH2 0x2C12 JUMP JUMPDEST SWAP1 POP PUSH1 0x20 DUP2 ADD SWAP1 POP SWAP2 SWAP1 POP JUMP JUMPDEST DUP3 DUP2 DUP4 CALLDATACOPY PUSH0 DUP4 DUP4 ADD MSTORE POP POP POP JUMP JUMPDEST PUSH0 PUSH2 0x2CEA PUSH2 0x2CE5 DUP5 PUSH2 0x2C9A JUMP JUMPDEST PUSH2 0x2C80 JUMP JUMPDEST SWAP1 POP DUP3 DUP2 MSTORE PUSH1 0x20 DUP2 ADD DUP5 DUP5 DUP5 ADD GT ISZERO PUSH2 0x2D06 JUMPI PUSH2 0x2D05 PUSH2 0x2C0E JUMP JUMPDEST JUMPDEST PUSH2 0x2D11 DUP5 DUP3 DUP6 PUSH2 0x2CCA JUMP JUMPDEST POP SWAP4 SWAP3 POP POP POP JUMP JUMPDEST PUSH0 DUP3 PUSH1 0x1F DUP4 ADD SLT PUSH2 0x2D2D JUMPI PUSH2 0x2D2C PUSH2 0x2C0A JUMP JUMPDEST JUMPDEST DUP2 CALLDATALOAD PUSH2 0x2D3D DUP5 DUP3 PUSH1 0x20 DUP7 ADD PUSH2 0x2CD8 JUMP JUMPDEST SWAP2 POP POP SWAP3 SWAP2 POP POP JUMP JUMPDEST PUSH0 PUSH1 0x20 DUP3 DUP5 SUB SLT ISZERO PUSH2 0x2D5B JUMPI PUSH2 0x2D5A PUSH2 0x2C02 JUMP JUMPDEST JUMPDEST PUSH0 DUP3 ADD CALLDATALOAD PUSH8 0xFFFFFFFFFFFFFFFF DUP2 GT ISZERO PUSH2 0x2D78 JUMPI PUSH2 0x2D77 PUSH2 0x2C06 JUMP JUMPDEST JUMPDEST PUSH2 0x2D84 DUP5 DUP3 DUP6 ADD PUSH2 0x2D19 JUMP JUMPDEST SWAP2 POP POP SWAP3 SWAP2 POP POP JUMP JUMPDEST PUSH0 DUP2 MLOAD SWAP1 POP SWAP2 SWAP1 POP JUMP JUMPDEST PUSH0 DUP3 DUP3 MSTORE PUSH1 0x20 DUP3 ADD SWAP1 POP SWAP3 SWAP2 POP POP JUMP JUMPDEST PUSH0 DUP2 SWAP1 POP PUSH1 0x20 DUP3 ADD SWAP1 POP SWAP2 SWAP1 POP JUMP JUMPDEST PUSH0 DUP2 MLOAD SWAP1 POP SWAP2 SWAP1 POP JUMP JUMPDEST PUSH0 DUP3 DUP3 MSTORE PUSH1 0x20 DUP3 ADD SWAP1 POP SWAP3 SWAP2 POP POP JUMP JUMPDEST DUP3 DUP2 DUP4 MCOPY PUSH0 DUP4 DUP4 ADD MSTORE POP POP POP JUMP JUMPDEST PUSH0 PUSH2 0x2DE8 DUP3 PUSH2 0x2DB6 JUMP JUMPDEST PUSH2 0x2DF2 DUP2 DUP6 PUSH2 0x2DC0 JUMP JUMPDEST SWAP4 POP PUSH2 0x2E02 DUP2 DUP6 PUSH1 0x20 DUP7 ADD PUSH2 0x2DD0 JUMP JUMPDEST PUSH2 0x2E0B DUP2 PUSH2 0x2C12 JUMP JUMPDEST DUP5 ADD SWAP2 POP POP SWAP3 SWAP2 POP POP JUMP JUMPDEST PUSH0 PUSH2 0x2E21 DUP4 DUP4 PUSH2 0x2DDE JUMP JUMPDEST SWAP1 POP SWAP3 SWAP2 POP POP JUMP JUMPDEST PUSH0 PUSH1 0x20 DUP3 ADD SWAP1 POP SWAP2 SWAP1 POP JUMP JUMPDEST PUSH0 PUSH2 0x2E3F DUP3 PUSH2 0x2D8D JUMP JUMPDEST PUSH2 0x2E49 DUP2 DUP6 PUSH2 0x2D97 JUMP JUMPDEST SWAP4 POP DUP4 PUSH1 0x20 DUP3 MUL DUP6 ADD PUSH2 0x2E5B DUP6 PUSH2 0x2DA7 JUMP JUMPDEST DUP1 PUSH0 JUMPDEST DUP6 DUP2 LT ISZERO PUSH2 0x2E96 JUMPI DUP5 DUP5 SUB DUP10 MSTORE DUP2 MLOAD PUSH2 0x2E77 DUP6 DUP3 PUSH2 0x2E16 JUMP JUMPDEST SWAP5 POP PUSH2 0x2E82 DUP4 PUSH2 0x2E29 JUMP JUMPDEST SWAP3 POP PUSH1 0x20 DUP11 ADD SWAP10 POP POP PUSH1 0x1 DUP2 ADD SWAP1 POP PUSH2 0x2E5E JUMP JUMPDEST POP DUP3 SWAP8 POP DUP8 SWAP6 POP POP POP POP POP POP SWAP3 SWAP2 POP POP JUMP JUMPDEST PUSH0 PUSH1 0x20 DUP3 ADD SWAP1 POP DUP2 DUP2 SUB PUSH0 DUP4 ADD MSTORE PUSH2 0x2EC0 DUP2 DUP5 PUSH2 0x2E35 JUMP JUMPDEST SWAP1 POP SWAP3 SWAP2 POP POP JUMP JUMPDEST PUSH0 DUP3 DUP3 MSTORE PUSH1 0x20 DUP3 ADD SWAP1 POP SWAP3 SWAP2 POP POP JUMP JUMPDEST PUSH0 PUSH2 0x2EE2 DUP3 PUSH2 0x2DB6 JUMP JUMPDEST PUSH2 0x2EEC DUP2 DUP6 PUSH2 0x2EC8 JUMP JUMPDEST SWAP4 POP PUSH2 0x2EFC DUP2 DUP6 PUSH1 0x20 DUP7 ADD PUSH2 0x2DD0 JUMP JUMPDEST PUSH2 0x2F05 DUP2 PUSH2 0x2C12 JUMP JUMPDEST DUP5 ADD SWAP2 POP POP SWAP3 SWAP2 POP POP JUMP JUMPDEST PUSH32 0x4E487B7100000000000000000000000000000000000000000000000000000000 PUSH0 MSTORE PUSH1 0x21 PUSH1 0x4 MSTORE PUSH1 0x24 PUSH0 REVERT JUMPDEST PUSH1 0x6 DUP2 LT PUSH2 0x2F4E JUMPI PUSH2 0x2F4D PUSH2 0x2F10 JUMP JUMPDEST JUMPDEST POP JUMP JUMPDEST PUSH0 DUP2 SWAP1 POP PUSH2 0x2F5E DUP3 PUSH2 0x2F3D JUMP JUMPDEST SWAP2 SWAP1 POP JUMP JUMPDEST PUSH0 PUSH2 0x2F6D DUP3 PUSH2 0x2F51 JUMP JUMPDEST SWAP1 POP SWAP2 SWAP1 POP JUMP JUMPDEST PUSH2 0x2F7D DUP2 PUSH2 0x2F63 JUMP JUMPDEST DUP3 MSTORE POP POP JUMP JUMPDEST PUSH0 PUSH20 0xFFFFFFFFFFFFFFFFFFFFFFFFFFFFFFFFFFFFFFFF DUP3 AND SWAP1 POP SWAP2 SWAP1 POP JUMP JUMPDEST PUSH0 PUSH2 0x2FAC DUP3 PUSH2 0x2F83 JUMP JUMPDEST SWAP1 POP SWAP2 SWAP1 POP JUMP JUMPDEST PUSH2 0x2FBC DUP2 PUSH2 0x2FA2 JUMP JUMPDEST DUP3 MSTORE POP POP JUMP JUMPDEST PUSH0 PUSH1 0xC0 DUP3 ADD SWAP1 POP DUP2 DUP2 SUB PUSH0 DUP4 ADD MSTORE PUSH2 0x2FDA DUP2 DUP10 PUSH2 0x2ED8 JUMP JUMPDEST SWAP1 POP DUP2 DUP2 SUB PUSH1 0x20 DUP4 ADD MSTORE PUSH2 0x2FEE DUP2 DUP9 PUSH2 0x2ED8 JUMP JUMPDEST SWAP1 POP DUP2 DUP2 SUB PUSH1 0x40 DUP4 ADD MSTORE PUSH2 0x3002 DUP2 DUP8 PUSH2 0x2ED8 JUMP JUMPDEST SWAP1 POP PUSH2 0x3011 PUSH1 0x60 DUP4 ADD DUP7 PUSH2 0x2F74 JUMP JUMPDEST PUSH2 0x301E PUSH1 0x80 DUP4 ADD DUP6 PUSH2 0x2FB3 JUMP JUMPDEST DUP2 DUP2 SUB PUSH1 0xA0 DUP4 ADD MSTORE PUSH2 0x3030 DUP2 DUP5 PUSH2 0x2ED8 JUMP JUMPDEST SWAP1 POP SWAP8 SWAP7 POP POP POP POP POP POP POP JUMP JUMPDEST PUSH0 DUP2 SWAP1 POP SWAP2 SWAP1 POP JUMP JUMPDEST PUSH2 0x304F DUP2 PUSH2 0x303D JUMP JUMPDEST DUP2 EQ PUSH2 0x3059 JUMPI PUSH0 PUSH0 REVERT JUMPDEST POP JUMP JUMPDEST PUSH0 DUP2 CALLDATALOAD SWAP1 POP PUSH2 0x306A DUP2 PUSH2 0x3046 JUMP JUMPDEST SWAP3 SWAP2 POP POP JUMP JUMPDEST PUSH0 PUSH0 PUSH0 PUSH1 0x60 DUP5 DUP7 SUB SLT ISZERO PUSH2 0x3087 JUMPI PUSH2 0x3086 PUSH2 0x2C02 JUMP JUMPDEST JUMPDEST PUSH0 DUP5 ADD CALLDATALOAD PUSH8 0xFFFFFFFFFFFFFFFF DUP2 GT ISZERO PUSH2 0x30A4 JUMPI PUSH2 0x30A3 PUSH2 0x2C06 JUMP JUMPDEST JUMPDEST PUSH2 0x30B0 DUP7 DUP3 DUP8 ADD PUSH2 0x2D19 JUMP JUMPDEST SWAP4 POP POP PUSH1 0x20 PUSH2 0x30C1 DUP7 DUP3 DUP8 ADD PUSH2 0x305C JUMP JUMPDEST SWAP3 POP POP PUSH1 0x40 DUP5 ADD CALLDATALOAD PUSH8 0xFFFFFFFFFFFFFFFF DUP2 GT ISZERO PUSH2 0x30E2 JUMPI PUSH2 0x30E1 PUSH2 0x2C06 JUMP JUMPDEST JUMPDEST PUSH2 0x30EE DUP7 DUP3 DUP8 ADD PUSH2 0x2D19 JUMP JUMPDEST SWAP2 POP POP SWAP3 POP SWAP3 POP SWAP3 JUMP JUMPDEST PUSH0 PUSH0 PUSH1 0x40 DUP4 DUP6 SUB SLT ISZERO PUSH2 0x310E JUMPI PUSH2 0x310D PUSH2 0x2C02 JUMP JUMPDEST JUMPDEST PUSH0 DUP4 ADD CALLDATALOAD PUSH8 0xFFFFFFFFFFFFFFFF DUP2 GT ISZERO PUSH2 0x312B JUMPI PUSH2 0x312A PUSH2 0x2C06 JUMP JUMPDEST JUMPDEST PUSH2 0x3137 DUP6 DUP3 DUP7 ADD PUSH2 0x2D19 JUMP JUMPDEST SWAP3 POP POP PUSH1 0x20 DUP4 ADD CALLDATALOAD PUSH8 0xFFFFFFFFFFFFFFFF DUP2 GT ISZERO PUSH2 0x3158 JUMPI PUSH2 0x3157 PUSH2 0x2C06 JUMP JUMPDEST JUMPDEST PUSH2 0x3164 DUP6 DUP3 DUP7 ADD PUSH2 0x2D19 JUMP JUMPDEST SWAP2 POP POP SWAP3 POP SWAP3 SWAP1 POP JUMP JUMPDEST PUSH0 DUP2 ISZERO ISZERO SWAP1 POP SWAP2 SWAP1 POP JUMP JUMPDEST PUSH2 0x3182 DUP2 PUSH2 0x316E JUMP JUMPDEST DUP3 MSTORE POP POP JUMP JUMPDEST PUSH0 PUSH1 0x20 DUP3 ADD SWAP1 POP PUSH2 0x319B PUSH0 DUP4 ADD DUP5 PUSH2 0x3179 JUMP JUMPDEST SWAP3 SWAP2 POP POP JUMP JUMPDEST PUSH1 0x6 DUP2 LT PUSH2 0x31AD JUMPI PUSH0 PUSH0 REVERT JUMPDEST POP JUMP JUMPDEST PUSH0 DUP2 CALLDATALOAD SWAP1 POP PUSH2 0x31BE DUP2 PUSH2 0x31A1 JUMP JUMPDEST SWAP3 SWAP2 POP POP JUMP JUMPDEST PUSH0 PUSH0 PUSH1 0x40 DUP4 DUP6 SUB SLT ISZERO PUSH2 0x31DA JUMPI PUSH2 0x31D9 PUSH2 0x2C02 JUMP JUMPDEST JUMPDEST PUSH0 DUP4 ADD CALLDATALOAD PUSH8 0xFFFFFFFFFFFFFFFF DUP2 GT ISZERO PUSH2 0x31F7 JUMPI PUSH2 0x31F6 PUSH2 0x2C06 JUMP JUMPDEST JUMPDEST PUSH2 0x3203 DUP6 DUP3 DUP7 ADD PUSH2 0x2D19 JUMP JUMPDEST SWAP3 POP POP PUSH1 0x20 PUSH2 0x3214 DUP6 DUP3 DUP7 ADD PUSH2 0x31B0 JUMP JUMPDEST SWAP2 POP POP SWAP3 POP SWAP3 SWAP1 POP JUMP JUMPDEST PUSH2 0x3227 DUP2 PUSH2 0x2FA2 JUMP JUMPDEST DUP2 EQ PUSH2 0x3231 JUMPI PUSH0 PUSH0 REVERT JUMPDEST POP JUMP JUMPDEST PUSH0 DUP2 CALLDATALOAD SWAP1 POP PUSH2 0x3242 DUP2 PUSH2 0x321E JUMP JUMPDEST SWAP3 SWAP2 POP POP JUMP JUMPDEST PUSH1 0x5 DUP2 LT PUSH2 0x3254 JUMPI PUSH0 PUSH0 REVERT JUMPDEST POP JUMP JUMPDEST PUSH0 DUP2 CALLDATALOAD SWAP1 POP PUSH2 0x3265 DUP2 PUSH2 0x3248 JUMP JUMPDEST SWAP3 SWAP2 POP POP JUMP JUMPDEST PUSH0 PUSH0 PUSH1 0x40 DUP4 DUP6 SUB SLT ISZERO PUSH2 0x3281 JUMPI PUSH2 0x3280 PUSH2 0x2C02 JUMP JUMPDEST JUMPDEST PUSH0 PUSH2 0x328E DUP6 DUP3 DUP7 ADD PUSH2 0x3234 JUMP JUMPDEST SWAP3 POP POP PUSH1 0x20 PUSH2 0x329F DUP6 DUP3 DUP7 ADD PUSH2 0x3257 JUMP JUMPDEST SWAP2 POP POP SWAP3 POP SWAP3 SWAP1 POP JUMP JUMPDEST PUSH0 PUSH0 PUSH0 PUSH0 PUSH1 0x80 DUP6 DUP8 SUB SLT ISZERO PUSH2 0x32C1 JUMPI PUSH2 0x32C0 PUSH2 0x2C02 JUMP JUMPDEST JUMPDEST PUSH0 DUP6 ADD CALLDATALOAD PUSH8 0xFFFFFFFFFFFFFFFF DUP2 GT ISZERO PUSH2 0x32DE JUMPI PUSH2 0x32DD PUSH2 0x2C06 JUMP JUMPDEST JUMPDEST PUSH2 0x32EA DUP8 DUP3 DUP9 ADD PUSH2 0x2D19 JUMP JUMPDEST SWAP5 POP POP PUSH1 0x20 DUP6 ADD CALLDATALOAD PUSH8 0xFFFFFFFFFFFFFFFF DUP2 GT ISZERO PUSH2 0x330B JUMPI PUSH2 0x330A PUSH2 0x2C06 JUMP JUMPDEST JUMPDEST PUSH2 0x3317 DUP8 DUP3 DUP9 ADD PUSH2 0x2D19 JUMP JUMPDEST SWAP4 POP POP PUSH1 0x40 DUP6 ADD CALLDATALOAD PUSH8 0xFFFFFFFFFFFFFFFF DUP2 GT ISZERO PUSH2 0x3338 JUMPI PUSH2 0x3337 PUSH2 0x2C06 JUMP JUMPDEST JUMPDEST PUSH2 0x3344 DUP8 DUP3 DUP9 ADD PUSH2 0x2D19 JUMP JUMPDEST SWAP3 POP POP PUSH1 0x60 DUP6 ADD CALLDATALOAD PUSH8 0xFFFFFFFFFFFFFFFF DUP2 GT ISZERO PUSH2 0x3365 JUMPI PUSH2 0x3364 PUSH2 0x2C06 JUMP JUMPDEST JUMPDEST PUSH2 0x3371 DUP8 DUP3 DUP9 ADD PUSH2 0x2D19 JUMP JUMPDEST SWAP2 POP POP SWAP3 SWAP6 SWAP2 SWAP5 POP SWAP3 POP JUMP JUMPDEST PUSH0 PUSH1 0x20 DUP3 ADD SWAP1 POP PUSH2 0x3390 PUSH0 DUP4 ADD DUP5 PUSH2 0x2FB3 JUMP JUMPDEST SWAP3 SWAP2 POP POP JUMP JUMPDEST PUSH0 DUP2 MLOAD SWAP1 POP SWAP2 SWAP1 POP JUMP JUMPDEST PUSH0 DUP3 DUP3 MSTORE PUSH1 0x20 DUP3 ADD SWAP1 POP SWAP3 SWAP2 POP POP JUMP JUMPDEST PUSH0 DUP2 SWAP1 POP PUSH1 0x20 DUP3 ADD SWAP1 POP SWAP2 SWAP1 POP JUMP JUMPDEST PUSH2 0x33C8 DUP2 PUSH2 0x303D JUMP JUMPDEST DUP3 MSTORE POP POP JUMP JUMPDEST PUSH0 PUSH2 0x33D9 DUP4 DUP4 PUSH2 0x33BF JUMP JUMPDEST PUSH1 0x20 DUP4 ADD SWAP1 POP SWAP3 SWAP2 POP POP JUMP JUMPDEST PUSH0 PUSH1 0x20 DUP3 ADD SWAP1 POP SWAP2 SWAP1 POP JUMP JUMPDEST PUSH0 PUSH2 0x33FB DUP3 PUSH2 0x3396 JUMP JUMPDEST PUSH2 0x3405 DUP2 DUP6 PUSH2 0x33A0 JUMP JUMPDEST SWAP4 POP PUSH2 0x3410 DUP4 PUSH2 0x33B0 JUMP JUMPDEST DUP1 PUSH0 JUMPDEST DUP4 DUP2 LT ISZERO PUSH2 0x3440 JUMPI DUP2 MLOAD PUSH2 0x3427 DUP9 DUP3 PUSH2 0x33CE JUMP JUMPDEST SWAP8 POP PUSH2 0x3432 DUP4 PUSH2 0x33E5 JUMP JUMPDEST SWAP3 POP POP PUSH1 0x1 DUP2 ADD SWAP1 POP PUSH2 0x3413 JUMP JUMPDEST POP DUP6 SWAP4 POP POP POP POP SWAP3 SWAP2 POP POP JUMP JUMPDEST PUSH0 DUP2 MLOAD SWAP1 POP SWAP2 SWAP1 POP JUMP JUMPDEST PUSH0 DUP3 DUP3 MSTORE PUSH1 0x20 DUP3 ADD SWAP1 POP SWAP3 SWAP2 POP POP JUMP JUMPDEST PUSH0 DUP2 SWAP1 POP PUSH1 0x20 DUP3 ADD SWAP1 POP SWAP2 SWAP1 POP JUMP JUMPDEST PUSH0 DUP2 SWAP1 POP SWAP2 SWAP1 POP JUMP JUMPDEST PUSH2 0x3488 DUP2 PUSH2 0x3476 JUMP JUMPDEST DUP3 MSTORE POP POP JUMP JUMPDEST PUSH0 PUSH2 0x3499 DUP4 DUP4 PUSH2 0x347F JUMP JUMPDEST PUSH1 0x20 DUP4 ADD SWAP1 POP SWAP3 SWAP2 POP POP JUMP JUMPDEST PUSH0 PUSH1 0x20 DUP3 ADD SWAP1 POP SWAP2 SWAP1 POP JUMP JUMPDEST PUSH0 PUSH2 0x34BB DUP3 PUSH2 0x344D JUMP JUMPDEST PUSH2 0x34C5 DUP2 DUP6 PUSH2 0x3457 JUMP JUMPDEST SWAP4 POP PUSH2 0x34D0 DUP4 PUSH2 0x3467 JUMP JUMPDEST DUP1 PUSH0 JUMPDEST DUP4 DUP2 LT ISZERO PUSH2 0x3500 JUMPI DUP2 MLOAD PUSH2 0x34E7 DUP9 DUP3 PUSH2 0x348E JUMP JUMPDEST SWAP8 POP PUSH2 0x34F2 DUP4 PUSH2 0x34A5 JUMP JUMPDEST SWAP3 POP POP PUSH1 0x1 DUP2 ADD SWAP1 POP PUSH2 0x34D3 JUMP JUMPDEST POP DUP6 SWAP4 POP POP POP POP SWAP3 SWAP2 POP POP JUMP JUMPDEST PUSH0 PUSH1 0x60 DUP3 ADD SWAP1 POP DUP2 DUP2 SUB PUSH0 DUP4 ADD MSTORE PUSH2 0x3525 DUP2 DUP7 PUSH2 0x33F1 JUMP JUMPDEST SWAP1 POP DUP2 DUP2 SUB PUSH1 0x20 DUP4 ADD MSTORE PUSH2 0x3539 DUP2 DUP6 PUSH2 0x2E35 JUMP JUMPDEST SWAP1 POP DUP2 DUP2 SUB PUSH1 0x40 DUP4 ADD MSTORE PUSH2 0x354D DUP2 DUP5 PUSH2 0x34B1 JUMP JUMPDEST SWAP1 POP SWAP5 SWAP4 POP POP POP POP JUMP JUMPDEST PUSH0 PUSH1 0x20 DUP3 DUP5 SUB SLT ISZERO PUSH2 0x356C JUMPI PUSH2 0x356B PUSH2 0x2C02 JUMP JUMPDEST JUMPDEST PUSH0 PUSH2 0x3579 DUP5 DUP3 DUP6 ADD PUSH2 0x3234 JUMP JUMPDEST SWAP2 POP POP SWAP3 SWAP2 POP POP JUMP JUMPDEST PUSH1 0x5 DUP2 LT PUSH2 0x3593 JUMPI PUSH2 0x3592 PUSH2 0x2F10 JUMP JUMPDEST JUMPDEST POP JUMP JUMPDEST PUSH0 DUP2 SWAP1 POP PUSH2 0x35A3 DUP3 PUSH2 0x3582 JUMP JUMPDEST SWAP2 SWAP1 POP JUMP JUMPDEST PUSH0 PUSH2 0x35B2 DUP3 PUSH2 0x3596 JUMP JUMPDEST SWAP1 POP SWAP2 SWAP1 POP JUMP JUMPDEST PUSH2 0x35C2 DUP2 PUSH2 0x35A8 JUMP JUMPDEST DUP3 MSTORE POP POP JUMP JUMPDEST PUSH0 PUSH1 0x20 DUP3 ADD SWAP1 POP PUSH2 0x35DB PUSH0 DUP4 ADD DUP5 PUSH2 0x35B9 JUMP JUMPDEST SWAP3 SWAP2 POP POP JUMP JUMPDEST PUSH2 0x35EA DUP2 PUSH2 0x3476 JUMP JUMPDEST DUP3 MSTORE POP POP JUMP JUMPDEST PUSH2 0x35F9 DUP2 PUSH2 0x303D JUMP JUMPDEST DUP3 MSTORE POP POP JUMP JUMPDEST PUSH0 PUSH1 0xA0 DUP3 ADD SWAP1 POP PUSH2 0x3612 PUSH0 DUP4 ADD DUP9 PUSH2 0x35E1 JUMP JUMPDEST PUSH2 0x361F PUSH1 0x20 DUP4 ADD DUP8 PUSH2 0x35F0 JUMP JUMPDEST PUSH2 0x362C PUSH1 0x40 DUP4 ADD DUP7 PUSH2 0x35F0 JUMP JUMPDEST PUSH2 0x3639 PUSH1 0x60 DUP4 ADD DUP6 PUSH2 0x35F0 JUMP JUMPDEST PUSH2 0x3646 PUSH1 0x80 DUP4 ADD DUP5 PUSH2 0x3179 JUMP JUMPDEST SWAP7 SWAP6 POP POP POP POP POP POP JUMP JUMPDEST PUSH0 PUSH1 0x20 DUP3 ADD SWAP1 POP DUP2 DUP2 SUB PUSH0 DUP4 ADD MSTORE PUSH2 0x3668 DUP2 DUP5 PUSH2 0x2ED8 JUMP JUMPDEST SWAP1 POP SWAP3 SWAP2 POP POP JUMP JUMPDEST PUSH0 PUSH1 0xC0 DUP3 ADD SWAP1 POP DUP2 DUP2 SUB PUSH0 DUP4 ADD MSTORE PUSH2 0x3688 DUP2 DUP10 PUSH2 0x2ED8 JUMP JUMPDEST SWAP1 POP DUP2 DUP2 SUB PUSH1 0x20 DUP4 ADD MSTORE PUSH2 0x369C DUP2 DUP9 PUSH2 0x2ED8 JUMP JUMPDEST SWAP1 POP DUP2 DUP2 SUB PUSH1 0x40 DUP4 ADD MSTORE PUSH2 0x36B0 DUP2 DUP8 PUSH2 0x2ED8 JUMP JUMPDEST SWAP1 POP DUP2 DUP2 SUB PUSH1 0x60 DUP4 ADD MSTORE PUSH2 0x36C4 DUP2 DUP7 PUSH2 0x2ED8 JUMP JUMPDEST SWAP1 POP PUSH2 0x36D3 PUSH1 0x80 DUP4 ADD DUP6 PUSH2 0x2F74 JUMP JUMPDEST PUSH2 0x36E0 PUSH1 0xA0 DUP4 ADD DUP5 PUSH2 0x2FB3 JUMP JUMPDEST SWAP8 SWAP7 POP POP POP POP POP POP POP JUMP JUMPDEST PUSH0 PUSH0 PUSH0 PUSH1 0x60 DUP5 DUP7 SUB SLT ISZERO PUSH2 0x3702 JUMPI PUSH2 0x3701 PUSH2 0x2C02 JUMP JUMPDEST JUMPDEST PUSH0 DUP5 ADD CALLDATALOAD PUSH8 0xFFFFFFFFFFFFFFFF DUP2 GT ISZERO PUSH2 0x371F JUMPI PUSH2 0x371E PUSH2 0x2C06 JUMP JUMPDEST JUMPDEST PUSH2 0x372B DUP7 DUP3 DUP8 ADD PUSH2 0x2D19 JUMP JUMPDEST SWAP4 POP POP PUSH1 0x20 PUSH2 0x373C DUP7 DUP3 DUP8 ADD PUSH2 0x305C JUMP JUMPDEST SWAP3 POP POP PUSH1 0x40 PUSH2 0x374D DUP7 DUP3 DUP8 ADD PUSH2 0x305C JUMP JUMPDEST SWAP2 POP POP SWAP3 POP SWAP3 POP SWAP3 JUMP JUMPDEST PUSH0 DUP2 SWAP1 POP SWAP3 SWAP2 POP POP JUMP JUMPDEST PUSH0 PUSH2 0x376B DUP3 PUSH2 0x2DB6 JUMP JUMPDEST PUSH2 0x3775 DUP2 DUP6 PUSH2 0x3757 JUMP JUMPDEST SWAP4 POP PUSH2 0x3785 DUP2 DUP6 PUSH1 0x20 DUP7 ADD PUSH2 0x2DD0 JUMP JUMPDEST DUP1 DUP5 ADD SWAP2 POP POP SWAP3 SWAP2 POP POP JUMP JUMPDEST PUSH0 PUSH2 0x379C DUP3 DUP5 PUSH2 0x3761 JUMP JUMPDEST SWAP2 POP DUP2 SWAP1 POP SWAP3 SWAP2 POP POP JUMP JUMPDEST PUSH32 0x50726F64756374206E6F74207265676973746572656400000000000000000000 PUSH0 DUP3 ADD MSTORE POP JUMP JUMPDEST PUSH0 PUSH2 0x37DB PUSH1 0x16 DUP4 PUSH2 0x2EC8 JUMP JUMPDEST SWAP2 POP PUSH2 0x37E6 DUP3 PUSH2 0x37A7 JUMP JUMPDEST PUSH1 0x20 DUP3 ADD SWAP1 POP SWAP2 SWAP1 POP JUMP JUMPDEST PUSH0 PUSH1 0x20 DUP3 ADD SWAP1 POP DUP2 DUP2 SUB PUSH0 DUP4 ADD MSTORE PUSH2 0x3808 DUP2 PUSH2 0x37CF JUMP JUMPDEST SWAP1 POP SWAP2 SWAP1 POP JUMP JUMPDEST PUSH32 0x4E487B7100000000000000000000000000000000000000000000000000000000 PUSH0 MSTORE PUSH1 0x22 PUSH1 0x4 MSTORE PUSH1 0x24 PUSH0 REVERT JUMPDEST PUSH0 PUSH1 0x2 DUP3 DIV SWAP1 POP PUSH1 0x1 DUP3 AND DUP1 PUSH2 0x3853 JUMPI PUSH1 0x7F DUP3 AND SWAP2 POP JUMPDEST PUSH1 0x20 DUP3 LT DUP2 SUB PUSH2 0x3866 JUMPI PUSH2 0x3865 PUSH2 0x380F JUMP JUMPDEST JUMPDEST POP SWAP2 SWAP1 POP JUMP JUMPDEST PUSH32 0x4F6E6C79204C6F67697374696373206F72206F776E65722063616E2075706C6F PUSH0 DUP3 ADD MSTORE PUSH32 0x616420496F542064617461000000000000000000000000000000000000000000 PUSH1 0x20 DUP3 ADD MSTORE POP JUMP JUMPDEST PUSH0 PUSH2 0x38C6 PUSH1 0x2B DUP4 PUSH2 0x2EC8 JUMP JUMPDEST SWAP2 POP PUSH2 0x38D1 DUP3 PUSH2 0x386C JUMP JUMPDEST PUSH1 0x40 DUP3 ADD SWAP1 POP SWAP2 SWAP1 POP JUMP JUMPDEST PUSH0 PUSH1 0x20 DUP3 ADD SWAP1 POP DUP2 DUP2 SUB PUSH0 DUP4 ADD MSTORE PUSH2 0x38F3 DUP2 PUSH2 0x38BA JUMP JUMPDEST SWAP1 POP SWAP2 SWAP1 POP JUMP JUMPDEST PUSH0 DUP2 SWAP1 POP DUP2 PUSH0 MSTORE PUSH1 0x20 PUSH0 KECCAK256 SWAP1 POP SWAP2 SWAP1 POP JUMP JUMPDEST PUSH0 PUSH1 0x20 PUSH1 0x1F DUP4 ADD DIV SWAP1 POP SWAP2 SWAP1 POP JUMP JUMPDEST PUSH0 DUP3 DUP3 SHL SWAP1 POP SWAP3 SWAP2 POP POP JUMP JUMPDEST PUSH0 PUSH1 0x8 DUP4 MUL PUSH2 0x3956 PUSH32 0xFFFFFFFFFFFFFFFFFFFFFFFFFFFFFFFFFFFFFFFFFFFFFFFFFFFFFFFFFFFFFFFF DUP3 PUSH2 0x391B JUMP JUMPDEST PUSH2 0x3960 DUP7 DUP4 PUSH2 0x391B JUMP JUMPDEST SWAP6 POP DUP1 NOT DUP5 AND SWAP4 POP DUP1 DUP7 AND DUP5 OR SWAP3 POP POP POP SWAP4 SWAP3 POP POP POP JUMP JUMPDEST PUSH0 DUP2 SWAP1 POP SWAP2 SWAP1 POP JUMP JUMPDEST PUSH0 PUSH2 0x399B PUSH2 0x3996 PUSH2 0x3991 DUP5 PUSH2 0x3476 JUMP JUMPDEST PUSH2 0x3978 JUMP JUMPDEST PUSH2 0x3476 JUMP JUMPDEST SWAP1 POP SWAP2 SWAP1 POP JUMP JUMPDEST PUSH0 DUP2 SWAP1 POP SWAP2 SWAP1 POP JUMP JUMPDEST PUSH2 0x39B4 DUP4 PUSH2 0x3981 JUMP JUMPDEST PUSH2 0x39C8 PUSH2 0x39C0 DUP3 PUSH2 0x39A2 JUMP JUMPDEST DUP5 DUP5 SLOAD PUSH2 0x3927 JUMP JUMPDEST DUP3 SSTORE POP POP POP POP JUMP JUMPDEST PUSH0 PUSH0 SWAP1 POP SWAP1 JUMP JUMPDEST PUSH2 0x39DF PUSH2 0x39D0 JUMP JUMPDEST PUSH2 0x39EA DUP2 DUP5 DUP5 PUSH2 0x39AB JUMP JUMPDEST POP POP POP JUMP JUMPDEST JUMPDEST DUP2 DUP2 LT ISZERO PUSH2 0x3A0D JUMPI PUSH2 0x3A02 PUSH0 DUP3 PUSH2 0x39D7 JUMP JUMPDEST PUSH1 0x1 DUP2 ADD SWAP1 POP PUSH2 0x39F0 JUMP JUMPDEST POP POP JUMP JUMPDEST PUSH1 0x1F DUP3 GT ISZERO PUSH2 0x3A52 JUMPI PUSH2 0x3A23 DUP2 PUSH2 0x38FA JUMP JUMPDEST PUSH2 0x3A2C DUP5 PUSH2 0x390C JUMP JUMPDEST DUP2 ADD PUSH1 0x20 DUP6 LT ISZERO PUSH2 0x3A3B JUMPI DUP2 SWAP1 POP JUMPDEST PUSH2 0x3A4F PUSH2 0x3A47 DUP6 PUSH2 0x390C JUMP JUMPDEST DUP4 ADD DUP3 PUSH2 0x39EF JUMP JUMPDEST POP POP JUMPDEST POP POP POP JUMP JUMPDEST PUSH0 DUP3 DUP3 SHR SWAP1 POP SWAP3 SWAP2 POP POP JUMP JUMPDEST PUSH0 PUSH2 0x3A72 PUSH0 NOT DUP5 PUSH1 0x8 MUL PUSH2 0x3A57 JUMP JUMPDEST NOT DUP1 DUP4 AND SWAP2 POP POP SWAP3 SWAP2 POP POP JUMP JUMPDEST PUSH0 PUSH2 0x3A8A DUP4 DUP4 PUSH2 0x3A63 JUMP JUMPDEST SWAP2 POP DUP3 PUSH1 0x2 MUL DUP3 OR SWAP1 POP SWAP3 SWAP2 POP POP JUMP JUMPDEST PUSH2 0x3AA3 DUP3 PUSH2 0x2DB6 JUMP JUMPDEST PUSH8 0xFFFFFFFFFFFFFFFF DUP2 GT ISZERO PUSH2 0x3ABC JUMPI PUSH2 0x3ABB PUSH2 0x2C22 JUMP JUMPDEST JUMPDEST PUSH2 0x3AC6 DUP3 SLOAD PUSH2 0x383C JUMP JUMPDEST PUSH2 0x3AD1 DUP3 DUP3 DUP6 PUSH2 0x3A11 JUMP JUMPDEST PUSH0 PUSH1 0x20 SWAP1 POP PUSH1 0x1F DUP4 GT PUSH1 0x1 DUP2 EQ PUSH2 0x3B02 JUMPI PUSH0 DUP5 ISZERO PUSH2 0x3AF0 JUMPI DUP3 DUP8 ADD MLOAD SWAP1 POP JUMPDEST PUSH2 0x3AFA DUP6 DUP3 PUSH2 0x3A7F JUMP JUMPDEST DUP7 SSTORE POP PUSH2 0x3B61 JUMP JUMPDEST PUSH1 0x1F NOT DUP5 AND PUSH2 0x3B10 DUP7 PUSH2 0x38FA JUMP JUMPDEST PUSH0 JUMPDEST DUP3 DUP2 LT ISZERO PUSH2 0x3B37 JUMPI DUP5 DUP10 ADD MLOAD DUP3 SSTORE PUSH1 0x1 DUP3 ADD SWAP2 POP PUSH1 0x20 DUP6 ADD SWAP5 POP PUSH1 0x20 DUP2 ADD SWAP1 POP PUSH2 0x3B12 JUMP JUMPDEST DUP7 DUP4 LT ISZERO PUSH2 0x3B54 JUMPI DUP5 DUP10 ADD MLOAD PUSH2 0x3B50 PUSH1 0x1F DUP10 AND DUP3 PUSH2 0x3A63 JUMP JUMPDEST DUP4 SSTORE POP JUMPDEST PUSH1 0x1 PUSH1 0x2 DUP9 MUL ADD DUP9 SSTORE POP POP POP JUMPDEST POP POP POP POP POP POP JUMP JUMPDEST PUSH0 PUSH1 0x40 DUP3 ADD SWAP1 POP PUSH2 0x3B7C PUSH0 DUP4 ADD DUP6 PUSH2 0x35F0 JUMP JUMPDEST DUP2 DUP2 SUB PUSH1 0x20 DUP4 ADD MSTORE PUSH2 0x3B8E DUP2 DUP5 PUSH2 0x2ED8 JUMP JUMPDEST SWAP1 POP SWAP4 SWAP3 POP POP POP JUMP JUMPDEST PUSH32 0x496E76616C6964207374616765207472616E736974696F6E20286D7573742070 PUSH0 DUP3 ADD MSTORE PUSH32 0x726F677265737320666F72776172642900000000000000000000000000000000 PUSH1 0x20 DUP3 ADD MSTORE POP JUMP JUMPDEST PUSH0 PUSH2 0x3BF1 PUSH1 0x30 DUP4 PUSH2 0x2EC8 JUMP JUMPDEST SWAP2 POP PUSH2 0x3BFC DUP3 PUSH2 0x3B97 JUMP JUMPDEST PUSH1 0x40 DUP3 ADD SWAP1 POP SWAP2 SWAP1 POP JUMP JUMPDEST PUSH0 PUSH1 0x20 DUP3 ADD SWAP1 POP DUP2 DUP2 SUB PUSH0 DUP4 ADD MSTORE PUSH2 0x3C1E DUP2 PUSH2 0x3BE5 JUMP JUMPDEST SWAP1 POP SWAP2 SWAP1 POP JUMP JUMPDEST PUSH32 0x4D7573742062652056656E646F72000000000000000000000000000000000000 PUSH0 DUP3 ADD MSTORE POP JUMP JUMPDEST PUSH0 PUSH2 0x3C59 PUSH1 0xE DUP4 PUSH2 0x2EC8 JUMP JUMPDEST SWAP2 POP PUSH2 0x3C64 DUP3 PUSH2 0x3C25 JUMP JUMPDEST PUSH1 0x20 DUP3 ADD SWAP1 POP SWAP2 SWAP1 POP JUMP JUMPDEST PUSH0 PUSH1 0x20 DUP3 ADD SWAP1 POP DUP2 DUP2 SUB PUSH0 DUP4 ADD MSTORE PUSH2 0x3C86 DUP2 PUSH2 0x3C4D JUMP JUMPDEST SWAP1 POP SWAP2 SWAP1 POP JUMP JUMPDEST PUSH32 0x4D757374206265204D616E756661637475726572000000000000000000000000 PUSH0 DUP3 ADD MSTORE POP JUMP JUMPDEST PUSH0 PUSH2 0x3CC1 PUSH1 0x14 DUP4 PUSH2 0x2EC8 JUMP JUMPDEST SWAP2 POP PUSH2 0x3CCC DUP3 PUSH2 0x3C8D JUMP JUMPDEST PUSH1 0x20 DUP3 ADD SWAP1 POP SWAP2 SWAP1 POP JUMP JUMPDEST PUSH0 PUSH1 0x20 DUP3 ADD SWAP1 POP DUP2 DUP2 SUB PUSH0 DUP4 ADD MSTORE PUSH2 0x3CEE DUP2 PUSH2 0x3CB5 JUMP JUMPDEST SWAP1 POP SWAP2 SWAP1 POP JUMP JUMPDEST PUSH32 0x4D757374206265204C6F67697374696373000000000000000000000000000000 PUSH0 DUP3 ADD MSTORE POP JUMP JUMPDEST PUSH0 PUSH2 0x3D29 PUSH1 0x11 DUP4 PUSH2 0x2EC8 JUMP JUMPDEST SWAP2 POP PUSH2 0x3D34 DUP3 PUSH2 0x3CF5 JUMP JUMPDEST PUSH1 0x20 DUP3 ADD SWAP1 POP SWAP2 SWAP1 POP JUMP JUMPDEST PUSH0 PUSH1 0x20 DUP3 ADD SWAP1 POP DUP2 DUP2 SUB PUSH0 DUP4 ADD MSTORE PUSH2 0x3D56 DUP2 PUSH2 0x3D1D JUMP JUMPDEST SWAP1 POP SWAP2 SWAP1 POP JUMP JUMPDEST PUSH32 0x4D7573742062652052657461696C657200000000000000000000000000000000 PUSH0 DUP3 ADD MSTORE POP JUMP JUMPDEST PUSH0 PUSH2 0x3D91 PUSH1 0x10 DUP4 PUSH2 0x2EC8 JUMP JUMPDEST SWAP2 POP PUSH2 0x3D9C DUP3 PUSH2 0x3D5D JUMP JUMPDEST PUSH1 0x20 DUP3 ADD SWAP1 POP SWAP2 SWAP1 POP JUMP JUMPDEST PUSH0 PUSH1 0x20 DUP3 ADD SWAP1 POP DUP2 DUP2 SUB PUSH0 DUP4 ADD MSTORE PUSH2 0x3DBE DUP2 PUSH2 0x3D85 JUMP JUMPDEST SWAP1 POP SWAP2 SWAP1 POP JUMP JUMPDEST PUSH32 0x4D757374206265206F776E6572206F722072657461696C657220746F20636F6D PUSH0 DUP3 ADD MSTORE PUSH32 0x706C657465000000000000000000000000000000000000000000000000000000 PUSH1 0x20 DUP3 ADD MSTORE POP JUMP JUMPDEST PUSH0 PUSH2 0x3E1F PUSH1 0x25 DUP4 PUSH2 0x2EC8 JUMP JUMPDEST SWAP2 POP PUSH2 0x3E2A DUP3 PUSH2 0x3DC5 JUMP JUMPDEST PUSH1 0x40 DUP3 ADD SWAP1 POP SWAP2 SWAP1 POP JUMP JUMPDEST PUSH0 PUSH1 0x20 DUP3 ADD SWAP1 POP DUP2 DUP2 SUB PUSH0 DUP4 ADD MSTORE PUSH2 0x3E4C DUP2 PUSH2 0x3E13 JUMP JUMPDEST SWAP1 POP SWAP2 SWAP1 POP JUMP JUMPDEST PUSH32 0x556E737570706F72746564207374616765000000000000000000000000000000 PUSH0 DUP3 ADD MSTORE POP JUMP JUMPDEST PUSH0 PUSH2 0x3E87 PUSH1 0x11 DUP4 PUSH2 0x2EC8 JUMP JUMPDEST SWAP2 POP PUSH2 0x3E92 DUP3 PUSH2 0x3E53 JUMP JUMPDEST PUSH1 0x20 DUP3 ADD SWAP1 POP SWAP2 SWAP1 POP JUMP JUMPDEST PUSH0 PUSH1 0x20 DUP3 ADD SWAP1 POP DUP2 DUP2 SUB PUSH0 DUP4 ADD MSTORE PUSH2 0x3EB4 DUP2 PUSH2 0x3E7B JUMP JUMPDEST SWAP1 POP SWAP2 SWAP1 POP JUMP JUMPDEST PUSH0 PUSH1 0x40 DUP3 ADD SWAP1 POP PUSH2 0x3ECE PUSH0 DUP4 ADD DUP6 PUSH2 0x2F74 JUMP JUMPDEST PUSH2 0x3EDB PUSH1 0x20 DUP4 ADD DUP5 PUSH2 0x2FB3 JUMP JUMPDEST SWAP4 SWAP3 POP POP POP JUMP JUMPDEST PUSH32 0x4F6E6C79206F776E657200000000000000000000000000000000000000000000 PUSH0 DUP3 ADD MSTORE POP JUMP JUMPDEST PUSH0 PUSH2 0x3F16 PUSH1 0xA DUP4 PUSH2 0x2EC8 JUMP JUMPDEST SWAP2 POP PUSH2 0x3F21 DUP3 PUSH2 0x3EE2 JUMP JUMPDEST PUSH1 0x20 DUP3 ADD SWAP1 POP SWAP2 SWAP1 POP JUMP JUMPDEST PUSH0 PUSH1 0x20 DUP3 ADD SWAP1 POP DUP2 DUP2 SUB PUSH0 DUP4 ADD MSTORE PUSH2 0x3F43 DUP2 PUSH2 0x3F0A JUMP JUMPDEST SWAP1 POP SWAP2 SWAP1 POP JUMP JUMPDEST PUSH32 0x4F6E6C79206F776E6572206F722068616E646C65720000000000000000000000 PUSH0 DUP3 ADD MSTORE POP JUMP JUMPDEST PUSH0 PUSH2 0x3F7E PUSH1 0x15 DUP4 PUSH2 0x2EC8 JUMP JUMPDEST SWAP2 POP PUSH2 0x3F89 DUP3 PUSH2 0x3F4A JUMP JUMPDEST PUSH1 0x20 DUP3 ADD SWAP1 POP SWAP2 SWAP1 POP JUMP JUMPDEST PUSH0 PUSH1 0x20 DUP3 ADD SWAP1 POP DUP2 DUP2 SUB PUSH0 DUP4 ADD MSTORE PUSH2 0x3FAB DUP2 PUSH2 0x3F72 JUMP JUMPDEST SWAP1 POP SWAP2 SWAP1 POP JUMP JUMPDEST PUSH32 0x426164676520616C726561647920617761726465640000000000000000000000 PUSH0 DUP3 ADD MSTORE POP JUMP JUMPDEST PUSH0 PUSH2 0x3FE6 PUSH1 0x15 DUP4 PUSH2 0x2EC8 JUMP JUMPDEST SWAP2 POP PUSH2 0x3FF1 DUP3 PUSH2 0x3FB2 JUMP JUMPDEST PUSH1 0x20 DUP3 ADD SWAP1 POP SWAP2 SWAP1 POP JUMP JUMPDEST PUSH0 PUSH1 0x20 DUP3 ADD SWAP1 POP DUP2 DUP2 SUB PUSH0 DUP4 ADD MSTORE PUSH2 0x4013 DUP2 PUSH2 0x3FDA JUMP JUMPDEST SWAP1 POP SWAP2 SWAP1 POP JUMP JUMPDEST PUSH32 0x4C6F7420616C7265616479207265676973746572656400000000000000000000 PUSH0 DUP3 ADD MSTORE POP JUMP JUMPDEST PUSH0 PUSH2 0x404E PUSH1 0x16 DUP4 PUSH2 0x2EC8 JUMP JUMPDEST SWAP2 POP PUSH2 0x4059 DUP3 PUSH2 0x401A JUMP JUMPDEST PUSH1 0x20 DUP3 ADD SWAP1 POP SWAP2 SWAP1 POP JUMP JUMPDEST PUSH0 PUSH1 0x20 DUP3 ADD SWAP1 POP DUP2 DUP2 SUB PUSH0 DUP4 ADD MSTORE PUSH2 0x407B DUP2 PUSH2 0x4042 JUMP JUMPDEST SWAP1 POP SWAP2 SWAP1 POP JUMP JUMPDEST PUSH0 PUSH1 0x40 DUP3 ADD SWAP1 POP DUP2 DUP2 SUB PUSH0 DUP4 ADD MSTORE PUSH2 0x409A DUP2 DUP6 PUSH2 0x2ED8 JUMP JUMPDEST SWAP1 POP DUP2 DUP2 SUB PUSH1 0x20 DUP4 ADD MSTORE PUSH2 0x40AE DUP2 DUP5 PUSH2 0x2ED8 JUMP JUMPDEST SWAP1 POP SWAP4 SWAP3 POP POP POP JUMP JUMPDEST PUSH32 0x4E487B7100000000000000000000000000000000000000000000000000000000 PUSH0 MSTORE PUSH1 0x32 PUSH1 0x4 MSTORE PUSH1 0x24 PUSH0 REVERT JUMPDEST PUSH32 0x4E487B7100000000000000000000000000000000000000000000000000000000 PUSH0 MSTORE PUSH1 0x11 PUSH1 0x4 MSTORE PUSH1 0x24 PUSH0 REVERT JUMPDEST PUSH0 PUSH2 0x411B DUP3 PUSH2 0x303D JUMP JUMPDEST SWAP2 POP PUSH2 0x4126 DUP4 PUSH2 0x303D JUMP JUMPDEST SWAP3 POP DUP3 DUP3 ADD SWAP1 POP DUP3 DUP2 SLT ISZERO PUSH0 DUP4 SLT AND DUP4 DUP3 SLT PUSH0 DUP5 SLT ISZERO AND OR ISZERO PUSH2 0x414C JUMPI PUSH2 0x414B PUSH2 0x40E4 JUMP JUMPDEST JUMPDEST SWAP3 SWAP2 POP POP JUMP JUMPDEST PUSH32 0x4E487B7100000000000000000000000000000000000000000000000000000000 PUSH0 MSTORE PUSH1 0x12 PUSH1 0x4 MSTORE PUSH1 0x24 PUSH0 REVERT JUMPDEST PUSH0 PUSH2 0x4189 DUP3 PUSH2 0x303D JUMP JUMPDEST SWAP2 POP PUSH2 0x4194 DUP4 PUSH2 0x303D JUMP JUMPDEST SWAP3 POP DUP3 PUSH2 0x41A4 JUMPI PUSH2 0x41A3 PUSH2 0x4152 JUMP JUMPDEST JUMPDEST PUSH1 0x1 PUSH0 SUB DUP4 EQ PUSH32 0x8000000000000000000000000000000000000000000000000000000000000000 DUP4 EQ AND ISZERO PUSH2 0x41DC JUMPI PUSH2 0x41DB PUSH2 0x40E4 JUMP JUMPDEST JUMPDEST DUP3 DUP3 SDIV SWAP1 POP SWAP3 SWAP2 POP POP JUMP JUMPDEST PUSH32 0x4F6E6C79206F776E6572206F722063757272656E742068616E646C6572000000 PUSH0 DUP3 ADD MSTORE POP JUMP JUMPDEST PUSH0 PUSH2 0x421B PUSH1 0x1D DUP4 PUSH2 0x2EC8 JUMP JUMPDEST SWAP2 POP PUSH2 0x4226 DUP3 PUSH2 0x41E7 JUMP JUMPDEST PUSH1 0x20 DUP3 ADD SWAP1 POP SWAP2 SWAP1 POP JUMP JUMPDEST PUSH0 PUSH1 0x20 DUP3 ADD SWAP1 POP DUP2 DUP2 SUB PUSH0 DUP4 ADD MSTORE PUSH2 0x4248 DUP2 PUSH2 0x420F JUMP JUMPDEST SWAP1 POP SWAP2 SWAP1 POP JUMP JUMPDEST PUSH0 DUP2 PUSH1 0x60 SHL SWAP1 POP SWAP2 SWAP1 POP JUMP JUMPDEST PUSH0 PUSH2 0x4265 DUP3 PUSH2 0x424F JUMP JUMPDEST SWAP1 POP SWAP2 SWAP1 POP JUMP JUMPDEST PUSH0 PUSH2 0x4276 DUP3 PUSH2 0x425B JUMP JUMPDEST SWAP1 POP SWAP2 SWAP1 POP JUMP JUMPDEST PUSH2 0x428E PUSH2 0x4289 DUP3 PUSH2 0x2FA2 JUMP JUMPDEST PUSH2 0x426C JUMP JUMPDEST DUP3 MSTORE POP POP JUMP JUMPDEST PUSH0 DUP2 SWAP1 POP SWAP2 SWAP1 POP JUMP JUMPDEST PUSH2 0x42AE PUSH2 0x42A9 DUP3 PUSH2 0x3476 JUMP JUMPDEST PUSH2 0x4294 JUMP JUMPDEST DUP3 MSTORE POP POP JUMP JUMPDEST PUSH0 PUSH2 0x42BF DUP3 DUP7 PUSH2 0x3761 JUMP JUMPDEST SWAP2 POP PUSH2 0x42CB DUP3 DUP6 PUSH2 0x427D JUMP JUMPDEST PUSH1 0x14 DUP3 ADD SWAP2 POP PUSH2 0x42DB DUP3 DUP5 PUSH2 0x429D JUMP JUMPDEST PUSH1 0x20 DUP3 ADD SWAP2 POP DUP2 SWAP1 POP SWAP5 SWAP4 POP POP POP POP JUMP JUMPDEST PUSH32 0x496E76616C696420515220746F6B656E00000000000000000000000000000000 PUSH0 DUP3 ADD MSTORE POP JUMP JUMPDEST PUSH0 PUSH2 0x4320 PUSH1 0x10 DUP4 PUSH2 0x2EC8 JUMP JUMPDEST SWAP2 POP PUSH2 0x432B DUP3 PUSH2 0x42EC JUMP JUMPDEST PUSH1 0x20 DUP3 ADD SWAP1 POP SWAP2 SWAP1 POP JUMP JUMPDEST PUSH0 PUSH1 0x20 DUP3 ADD SWAP1 POP DUP2 DUP2 SUB PUSH0 DUP4 ADD MSTORE PUSH2 0x434D DUP2 PUSH2 0x4314 JUMP JUMPDEST SWAP1 POP SWAP2 SWAP1 POP JUMP JUMPDEST PUSH32 0x4F6E6C79206F776E6572206F7220726F6C650000000000000000000000000000 PUSH0 DUP3 ADD MSTORE POP JUMP JUMPDEST PUSH0 PUSH2 0x4388 PUSH1 0x12 DUP4 PUSH2 0x2EC8 JUMP JUMPDEST SWAP2 POP PUSH2 0x4393 DUP3 PUSH2 0x4354 JUMP JUMPDEST PUSH1 0x20 DUP3 ADD SWAP1 POP SWAP2 SWAP1 POP JUMP JUMPDEST PUSH0 PUSH1 0x20 DUP3 ADD SWAP1 POP DUP2 DUP2 SUB PUSH0 DUP4 ADD MSTORE PUSH2 0x43B5 DUP2 PUSH2 0x437C JUMP JUMPDEST SWAP1 POP SWAP2 SWAP1 POP JUMP JUMPDEST PUSH0 PUSH1 0x40 DUP3 ADD SWAP1 POP PUSH2 0x43CF PUSH0 DUP4 ADD DUP6 PUSH2 0x35F0 JUMP JUMPDEST PUSH2 0x43DC PUSH1 0x20 DUP4 ADD DUP5 PUSH2 0x35F0 JUMP JUMPDEST SWAP4 SWAP3 POP POP POP JUMP JUMPDEST PUSH0 PUSH2 0x43ED DUP3 PUSH2 0x3476 JUMP JUMPDEST SWAP2 POP PUSH2 0x43F8 DUP4 PUSH2 0x3476 JUMP JUMPDEST SWAP3 POP DUP3 DUP3 SUB SWAP1 POP DUP2 DUP2 GT ISZERO PUSH2 0x4410 JUMPI PUSH2 0x440F PUSH2 0x40E4 JUMP JUMPDEST JUMPDEST SWAP3 SWAP2 POP POP JUMP JUMPDEST PUSH0 PUSH2 0x4420 DUP3 PUSH2 0x3476 JUMP JUMPDEST SWAP2 POP PUSH2 0x442B DUP4 PUSH2 0x3476 JUMP JUMPDEST SWAP3 POP DUP3 DUP3 ADD SWAP1 POP DUP1 DUP3 GT ISZERO PUSH2 0x4443 JUMPI PUSH2 0x4442 PUSH2 0x40E4 JUMP JUMPDEST JUMPDEST SWAP3 SWAP2 POP POP JUMP JUMPDEST PUSH0 PUSH2 0x4453 DUP3 PUSH2 0x3476 JUMP JUMPDEST SWAP2 POP PUSH32 0xFFFFFFFFFFFFFFFFFFFFFFFFFFFFFFFFFFFFFFFFFFFFFFFFFFFFFFFFFFFFFFFF DUP3 SUB PUSH2 0x4485 JUMPI PUSH2 0x4484 PUSH2 0x40E4 JUMP JUMPDEST JUMPDEST PUSH1 0x1 DUP3 ADD SWAP1 POP SWAP2 SWAP1 POP JUMP JUMPDEST PUSH0 PUSH2 0x449A DUP3 PUSH2 0x3476 JUMP JUMPDEST SWAP2 POP PUSH2 0x44A5 DUP4 PUSH2 0x3476 JUMP JUMPDEST SWAP3 POP DUP3 DUP3 MUL PUSH2 0x44B3 DUP2 PUSH2 0x3476 JUMP JUMPDEST SWAP2 POP DUP3 DUP3 DIV DUP5 EQ DUP4 ISZERO OR PUSH2 0x44CA JUMPI PUSH2 0x44C9 PUSH2 0x40E4 JUMP JUMPDEST JUMPDEST POP SWAP3 SWAP2 POP POP JUMP INVALID LOG2 PUSH5 0x6970667358 0x22 SLT KECCAK256 BLOCKHASH SWAP6 0xC5 COINBASE RETURN 0xB8 DUP9 0x1E 0xED PUSH16 0xFD0079159BADDD1C71E831D6F8A480AC DUP9 PC 0xAF DUP10 0x2B 0xCD PUSH5 0x736F6C6343 STOP ADDMOD 0x1E STOP CALLER "
				},
				"gasEstimates": {
					"creation": {
						"codeDepositCost": "3534200",
						"executionCost": "52612",
						"totalCost": "3586812"
					},
					"external": {
						"assignRole(address,uint8)": "28830",
						"awardBadge(string,string)": "infinite",
						"captureIoTData(string,int256,string)": "infinite",
						"checkTemperatureCompliance(string)": "infinite",
						"consumerLookupByLot(string)": "infinite",
						"consumerLookupByQR(string)": "infinite",
						"generateQRToken(string)": "infinite",
						"getAnalytics(string)": "infinite",
						"getBadges(string)": "infinite",
						"getIoTLogs(string)": "infinite",
						"hasBadge(string,string)": "infinite",
						"owner()": "2530",
						"registerProduct(string,string,string,string)": "infinite",
						"roles(address)": "2988",
						"setTemperatureThresholds(string,int256,int256)": "infinite",
						"updateStage(string,uint8)": "infinite"
					},
					"internal": {
						"_awardBadgeInternal(string memory,string memory)": "infinite",
						"_containsCertification(string memory,string memory)": "infinite",
						"_hasBadge(string memory,string memory)": "infinite",
						"_toHexString(bytes32)": "infinite"
					}
				},
				"methodIdentifiers": {
					"assignRole(address,uint8)": "630a195b",
					"awardBadge(string,string)": "7ab6cd50",
					"captureIoTData(string,int256,string)": "3567fa7d",
					"checkTemperatureCompliance(string)": "d5feb194",
					"consumerLookupByLot(string)": "1ea32e5c",
					"consumerLookupByQR(string)": "c6b0b839",
					"generateQRToken(string)": "b6017c67",
					"getAnalytics(string)": "a560b77c",
					"getBadges(string)": "06922f52",
					"getIoTLogs(string)": "90506e02",
					"hasBadge(string,string)": "4e5ae78b",
					"owner()": "8da5cb5b",
					"registerProduct(string,string,string,string)": "8799d6fc",
					"roles(address)": "99374642",
					"setTemperatureThresholds(string,int256,int256)": "fbf4a0cd",
					"updateStage(string,uint8)": "5cf291dc"
				}
			},
			"storageLayout": {
				"storage": [
					{
						"astId": 52,
						"contract": "FoodTraceability.sol:FoodTraceabilityFull",
						"label": "owner",
						"offset": 0,
						"slot": "0",
						"type": "t_address"
					},
					{
						"astId": 57,
						"contract": "FoodTraceability.sol:FoodTraceabilityFull",
						"label": "products",
						"offset": 0,
						"slot": "1",
						"type": "t_mapping(t_string_memory_ptr,t_struct(Product)50_storage)"
					},
					{
						"astId": 61,
						"contract": "FoodTraceability.sol:FoodTraceabilityFull",
						"label": "registeredLots",
						"offset": 0,
						"slot": "2",
						"type": "t_mapping(t_string_memory_ptr,t_bool)"
					},
					{
						"astId": 66,
						"contract": "FoodTraceability.sol:FoodTraceabilityFull",
						"label": "roles",
						"offset": 0,
						"slot": "3",
						"type": "t_mapping(t_address,t_enum(Role)15)"
					},
					{
						"astId": 70,
						"contract": "FoodTraceability.sol:FoodTraceabilityFull",
						"label": "qrToLot",
						"offset": 0,
						"slot": "4",
						"type": "t_mapping(t_string_memory_ptr,t_string_storage)"
					},
					{
						"astId": 74,
						"contract": "FoodTraceability.sol:FoodTraceabilityFull",
						"label": "lotToQr",
						"offset": 0,
						"slot": "5",
						"type": "t_mapping(t_string_memory_ptr,t_string_storage)"
					},
					{
						"astId": 80,
						"contract": "FoodTraceability.sol:FoodTraceabilityFull",
						"label": "badges",
						"offset": 0,
						"slot": "6",
						"type": "t_mapping(t_string_memory_ptr,t_mapping(t_string_memory_ptr,t_bool))"
					},
					{
						"astId": 85,
						"contract": "FoodTraceability.sol:FoodTraceabilityFull",
						"label": "badgeListByLot",
						"offset": 0,
						"slot": "7",
						"type": "t_mapping(t_string_memory_ptr,t_array(t_string_storage)dyn_storage)"
					}
				],
				"types": {
					"t_address": {
						"encoding": "inplace",
						"label": "address",
						"numberOfBytes": "20"
					},
					"t_array(t_string_storage)dyn_storage": {
						"base": "t_string_storage",
						"encoding": "dynamic_array",
						"label": "string[]",
						"numberOfBytes": "32"
					},
					"t_array(t_struct(IoTData)22_storage)dyn_storage": {
						"base": "t_struct(IoTData)22_storage",
						"encoding": "dynamic_array",
						"label": "struct FoodTraceabilityFull.IoTData[]",
						"numberOfBytes": "32"
					},
					"t_bool": {
						"encoding": "inplace",
						"label": "bool",
						"numberOfBytes": "1"
					},
					"t_enum(Role)15": {
						"encoding": "inplace",
						"label": "enum FoodTraceabilityFull.Role",
						"numberOfBytes": "1"
					},
					"t_enum(Stage)9": {
						"encoding": "inplace",
						"label": "enum FoodTraceabilityFull.Stage",
						"numberOfBytes": "1"
					},
					"t_int256": {
						"encoding": "inplace",
						"label": "int256",
						"numberOfBytes": "32"
					},
					"t_mapping(t_address,t_enum(Role)15)": {
						"encoding": "mapping",
						"key": "t_address",
						"label": "mapping(address => enum FoodTraceabilityFull.Role)",
						"numberOfBytes": "32",
						"value": "t_enum(Role)15"
					},
					"t_mapping(t_string_memory_ptr,t_array(t_string_storage)dyn_storage)": {
						"encoding": "mapping",
						"key": "t_string_memory_ptr",
						"label": "mapping(string => string[])",
						"numberOfBytes": "32",
						"value": "t_array(t_string_storage)dyn_storage"
					},
					"t_mapping(t_string_memory_ptr,t_bool)": {
						"encoding": "mapping",
						"key": "t_string_memory_ptr",
						"label": "mapping(string => bool)",
						"numberOfBytes": "32",
						"value": "t_bool"
					},
					"t_mapping(t_string_memory_ptr,t_mapping(t_string_memory_ptr,t_bool))": {
						"encoding": "mapping",
						"key": "t_string_memory_ptr",
						"label": "mapping(string => mapping(string => bool))",
						"numberOfBytes": "32",
						"value": "t_mapping(t_string_memory_ptr,t_bool)"
					},
					"t_mapping(t_string_memory_ptr,t_string_storage)": {
						"encoding": "mapping",
						"key": "t_string_memory_ptr",
						"label": "mapping(string => string)",
						"numberOfBytes": "32",
						"value": "t_string_storage"
					},
					"t_mapping(t_string_memory_ptr,t_struct(Product)50_storage)": {
						"encoding": "mapping",
						"key": "t_string_memory_ptr",
						"label": "mapping(string => struct FoodTraceabilityFull.Product)",
						"numberOfBytes": "32",
						"value": "t_struct(Product)50_storage"
					},
					"t_string_memory_ptr": {
						"encoding": "bytes",
						"label": "string",
						"numberOfBytes": "32"
					},
					"t_string_storage": {
						"encoding": "bytes",
						"label": "string",
						"numberOfBytes": "32"
					},
					"t_struct(IoTData)22_storage": {
						"encoding": "inplace",
						"label": "struct FoodTraceabilityFull.IoTData",
						"members": [
							{
								"astId": 17,
								"contract": "FoodTraceability.sol:FoodTraceabilityFull",
								"label": "temperature",
								"offset": 0,
								"slot": "0",
								"type": "t_int256"
							},
							{
								"astId": 19,
								"contract": "FoodTraceability.sol:FoodTraceabilityFull",
								"label": "handlingNotes",
								"offset": 0,
								"slot": "1",
								"type": "t_string_storage"
							},
							{
								"astId": 21,
								"contract": "FoodTraceability.sol:FoodTraceabilityFull",
								"label": "timestamp",
								"offset": 0,
								"slot": "2",
								"type": "t_uint256"
							}
						],
						"numberOfBytes": "96"
					},
					"t_struct(Product)50_storage": {
						"encoding": "inplace",
						"label": "struct FoodTraceabilityFull.Product",
						"members": [
							{
								"astId": 24,
								"contract": "FoodTraceability.sol:FoodTraceabilityFull",
								"label": "lotNumber",
								"offset": 0,
								"slot": "0",
								"type": "t_string_storage"
							},
							{
								"astId": 26,
								"contract": "FoodTraceability.sol:FoodTraceabilityFull",
								"label": "name",
								"offset": 0,
								"slot": "1",
								"type": "t_string_storage"
							},
							{
								"astId": 28,
								"contract": "FoodTraceability.sol:FoodTraceabilityFull",
								"label": "origin",
								"offset": 0,
								"slot": "2",
								"type": "t_string_storage"
							},
							{
								"astId": 30,
								"contract": "FoodTraceability.sol:FoodTraceabilityFull",
								"label": "certifications",
								"offset": 0,
								"slot": "3",
								"type": "t_string_storage"
							},
							{
								"astId": 33,
								"contract": "FoodTraceability.sol:FoodTraceabilityFull",
								"label": "stage",
								"offset": 0,
								"slot": "4",
								"type": "t_enum(Stage)9"
							},
							{
								"astId": 35,
								"contract": "FoodTraceability.sol:FoodTraceabilityFull",
								"label": "currentHandler",
								"offset": 1,
								"slot": "4",
								"type": "t_address"
							},
							{
								"astId": 39,
								"contract": "FoodTraceability.sol:FoodTraceabilityFull",
								"label": "transportLogs",
								"offset": 0,
								"slot": "5",
								"type": "t_array(t_struct(IoTData)22_storage)dyn_storage"
							},
							{
								"astId": 41,
								"contract": "FoodTraceability.sol:FoodTraceabilityFull",
								"label": "exists",
								"offset": 0,
								"slot": "6",
								"type": "t_bool"
							},
							{
								"astId": 43,
								"contract": "FoodTraceability.sol:FoodTraceabilityFull",
								"label": "minTemp",
								"offset": 0,
								"slot": "7",
								"type": "t_int256"
							},
							{
								"astId": 45,
								"contract": "FoodTraceability.sol:FoodTraceabilityFull",
								"label": "maxTemp",
								"offset": 0,
								"slot": "8",
								"type": "t_int256"
							},
							{
								"astId": 47,
								"contract": "FoodTraceability.sol:FoodTraceabilityFull",
								"label": "minTempSet",
								"offset": 0,
								"slot": "9",
								"type": "t_bool"
							},
							{
								"astId": 49,
								"contract": "FoodTraceability.sol:FoodTraceabilityFull",
								"label": "maxTempSet",
								"offset": 1,
								"slot": "9",
								"type": "t_bool"
							}
						],
						"numberOfBytes": "320"
					},
					"t_uint256": {
						"encoding": "inplace",
						"label": "uint256",
						"numberOfBytes": "32"
					}
				}
			},
			"userdoc": {
				"kind": "user",
				"methods": {
					"awardBadge(string,string)": {
						"notice": "Owner or product handler can manually award a badge"
					},
					"checkTemperatureCompliance(string)": {
						"notice": "Check if product's transport logs are within thresholds (returns true if compliant or no thresholds set)"
					},
					"consumerLookupByLot(string)": {
						"notice": "Consumer lookup by lotNumber (direct)"
					},
					"consumerLookupByQR(string)": {
						"notice": "Consumer lookup by QR token (simulate scanning)"
					},
					"getAnalytics(string)": {
						"notice": "Analytics summary: totalLogs, avgTemp (scaled), minTemp, maxTemp, compliant Note: avgTemp returned as int256 (floor) using integer division"
					},
					"getBadges(string)": {
						"notice": "View badges for a lot"
					},
					"registerProduct(string,string,string,string)": {
						"notice": "Register a new product (anyone can register in this demo; in production restrict to trusted accounts)"
					},
					"setTemperatureThresholds(string,int256,int256)": {
						"notice": "Owner or designated role can set temperature thresholds for a lot (optional)"
					},
					"updateStage(string,uint8)": {
						"notice": "Update stage — must move forward (Created -> Vendor -> Manufacturing -> Logistics -> Retail -> Completed) Only the address with the appropriate role should call updateStage for that stage (enforced)."
					}
				},
				"notice": "End-to-end frozen food traceability with QR simulation and gamification badges. How to use in Remix: 1. Create `FoodTraceabilityFull.sol` and paste this code. 2. Compile with Solidity 0.8.20. 3. Deploy (account deploying becomes owner). 4. Use owner-only functions to assign roles, register products, and optionally set thresholds. 5. Use role accounts to update stages/capture IoT logs. 6. Use generateQR to create a QR token; consumer can call consumerLookupByQR(token).",
				"version": 1
			}
		}
	}
}