{
	"data": {
		"bytecode": {
			"linkReferences": {},
			"object": "6080604052348015600e575f5ffd5b50335f5f6101000a81548173ffffffffffffffffffffffffffffffffffffffff021916908373ffffffffffffffffffffffffffffffffffffffff1602179055505f60035f3373ffffffffffffffffffffffffffffffffffffffff1673ffffffffffffffffffffffffffffffffffffffff1681526020019081526020015f205f6101000a81548160ff0219169083600481111560aa5760a960b3565b5b021790555060e0565b7f4e487b71000000000000000000000000000000000000000000000000000000005f52602160045260245ffd5b614507806100ed5f395ff3fe608060405234801561000f575f5ffd5b50600436106100fe575f3560e01c80638da5cb5b11610095578063b6017c6711610064578063b6017c67146102d7578063c6b0b83914610307578063d5feb1941461033c578063fbf4a0cd1461036c576100fe565b80638da5cb5b1461022357806390506e02146102415780639937464214610273578063a560b77c146102a3576100fe565b80635cf291dc116100d15780635cf291dc146101b3578063630a195b146101cf5780637ab6cd50146101eb5780638799d6fc14610207576100fe565b806306922f52146101025780631ea32e5c146101325780633567fa7d146101675780634e5ae78b14610183575b5f5ffd5b61011c60048036038101906101179190612d46565b610388565b6040516101299190612ea8565b60405180910390f35b61014c60048036038101906101479190612d46565b6104e6565b60405161015e96959493929190612fc2565b60405180910390f35b610181600480360381019061017c9190613070565b61081a565b005b61019d600480360381019061019891906130f8565b610a6c565b6040516101aa9190613188565b60405180910390f35b6101cd60048036038101906101c891906131c4565b610b28565b005b6101e960048036038101906101e4919061326b565b611367565b005b610205600480360381019061020091906130f8565b6114ab565b005b610221600480360381019061021c91906132a9565b611679565b005b61022b611862565b604051610238919061337d565b60405180910390f35b61025b60048036038101906102569190612d46565b611886565b60405161026a9392919061350d565b60405180910390f35b61028d60048036038101906102889190613557565b611b80565b60405161029a91906135c8565b60405180910390f35b6102bd60048036038101906102b89190612d46565b611b9d565b6040516102ce9594939291906135ff565b60405180910390f35b6102f160048036038101906102ec9190612d46565b611d58565b6040516102fe9190613650565b60405180910390f35b610321600480360381019061031c9190612d46565b611fb9565b60405161033396959493929190613670565b60405180910390f35b61035660048036038101906103519190612d46565b612351565b6040516103639190613188565b60405180910390f35b610386600480360381019061038191906136eb565b6124d2565b005b60608160028160405161039b9190613791565b90815260200160405180910390205f9054906101000a900460ff166103f5576040517f08c379a00000000000000000000000000000000000000000000000000000000081526004016103ec906137f1565b60405180910390fd5b6007836040516104059190613791565b9081526020016040518091039020805480602002602001604051908101604052809291908181526020015f905b828210156104da578382905f5260205f2001805461044f9061383c565b80601f016020809104026020016040519081016040528092919081815260200182805461047b9061383c565b80156104c65780601f1061049d576101008083540402835291602001916104c6565b820191905f5260205f20905b8154815290600101906020018083116104a957829003601f168201915b505050505081526020019060010190610432565b50505050915050919050565b60608060605f5f6060866002816040516105009190613791565b90815260200160405180910390205f9054906101000a900460ff1661055a576040517f08c379a0000000000000000000000000000000000000000000000000000000008152600401610551906137f1565b60405180910390fd5b5f60018960405161056b9190613791565b90815260200160405180910390209050806001018160020182600301836004015f9054906101000a900460ff168460040160019054906101000a900473ffffffffffffffffffffffffffffffffffffffff1660058e6040516105cd9190613791565b90815260200160405180910390208580546105e79061383c565b80601f01602080910402602001604051908101604052809291908181526020018280546106139061383c565b801561065e5780601f106106355761010080835404028352916020019161065e565b820191905f5260205f20905b81548152906001019060200180831161064157829003601f168201915b505050505095508480546106719061383c565b80601f016020809104026020016040519081016040528092919081815260200182805461069d9061383c565b80156106e85780601f106106bf576101008083540402835291602001916106e8565b820191905f5260205f20905b8154815290600101906020018083116106cb57829003601f168201915b505050505094508380546106fb9061383c565b80601f01602080910402602001604051908101604052809291908181526020018280546107279061383c565b80156107725780601f1061074957610100808354040283529160200191610772565b820191905f5260205f20905b81548152906001019060200180831161075557829003601f168201915b505050505093508080546107859061383c565b80601f01602080910402602001604051908101604052809291908181526020018280546107b19061383c565b80156107fc5780601f106107d3576101008083540402835291602001916107fc565b820191905f5260205f20905b8154815290600101906020018083116107df57829003601f168201915b50505050509050975097509750975097509750505091939550919395565b8260028160405161082b9190613791565b90815260200160405180910390205f9054906101000a900460ff16610885576040517f08c379a000000000000000000000000000000000000000000000000000000000815260040161087c906137f1565b60405180910390fd5b5f5f9054906101000a900473ffffffffffffffffffffffffffffffffffffffff1673ffffffffffffffffffffffffffffffffffffffff163373ffffffffffffffffffffffffffffffffffffffff16148061094c5750600360048111156108ee576108ed612f10565b5b60035f3373ffffffffffffffffffffffffffffffffffffffff1673ffffffffffffffffffffffffffffffffffffffff1681526020019081526020015f205f9054906101000a900460ff16600481111561094a57610949612f10565b5b145b61098b576040517f08c379a0000000000000000000000000000000000000000000000000000000008152600401610982906138dc565b60405180910390fd5b60018460405161099b9190613791565b9081526020016040518091039020600501604051806060016040528085815260200184815260200142815250908060018154018082558091505060019003905f5260205f2090600302015f909190919091505f820151815f01556020820151816001019081610a0a9190613a9a565b5060408201518160020155505083604051610a259190613791565b60405180910390207f684479d30f778d7227907b06c6d91844ada06c36ad099d3e79def4dddc42e3108484604051610a5e929190613b69565b60405180910390a250505050565b5f82600281604051610a7e9190613791565b90815260200160405180910390205f9054906101000a900460ff16610ad8576040517f08c379a0000000000000000000000000000000000000000000000000000000008152600401610acf906137f1565b60405180910390fd5b600684604051610ae89190613791565b908152602001604051809103902083604051610b049190613791565b90815260200160405180910390205f9054906101000a900460ff1691505092915050565b81600281604051610b399190613791565b90815260200160405180910390205f9054906101000a900460ff16610b93576040517f08c379a0000000000000000000000000000000000000000000000000000000008152600401610b8a906137f1565b60405180910390fd5b5f600184604051610ba49190613791565b90815260200160405180910390209050806004015f9054906101000a900460ff166005811115610bd757610bd6612f10565b5b836005811115610bea57610be9612f10565b5b11610c2a576040517f08c379a0000000000000000000000000000000000000000000000000000000008152600401610c2190613c07565b60405180910390fd5b60016005811115610c3e57610c3d612f10565b5b836005811115610c5157610c50612f10565b5b03610d0b5760016004811115610c6a57610c69612f10565b5b60035f3373ffffffffffffffffffffffffffffffffffffffff1673ffffffffffffffffffffffffffffffffffffffff1681526020019081526020015f205f9054906101000a900460ff166004811115610cc657610cc5612f10565b5b14610d06576040517f08c379a0000000000000000000000000000000000000000000000000000000008152600401610cfd90613c6f565b60405180910390fd5b611121565b60026005811115610d1f57610d1e612f10565b5b836005811115610d3257610d31612f10565b5b03610dec5760026004811115610d4b57610d4a612f10565b5b60035f3373ffffffffffffffffffffffffffffffffffffffff1673ffffffffffffffffffffffffffffffffffffffff1681526020019081526020015f205f9054906101000a900460ff166004811115610da757610da6612f10565b5b14610de7576040517f08c379a0000000000000000000000000000000000000000000000000000000008152600401610dde90613cd7565b60405180910390fd5b611120565b60036005811115610e0057610dff612f10565b5b836005811115610e1357610e12612f10565b5b03610ecd5760036004811115610e2c57610e2b612f10565b5b60035f3373ffffffffffffffffffffffffffffffffffffffff1673ffffffffffffffffffffffffffffffffffffffff1681526020019081526020015f205f9054906101000a900460ff166004811115610e8857610e87612f10565b5b14610ec8576040517f08c379a0000000000000000000000000000000000000000000000000000000008152600401610ebf90613d3f565b60405180910390fd5b61111f565b60046005811115610ee157610ee0612f10565b5b836005811115610ef457610ef3612f10565b5b03610fad57600480811115610f0c57610f0b612f10565b5b60035f3373ffffffffffffffffffffffffffffffffffffffff1673ffffffffffffffffffffffffffffffffffffffff1681526020019081526020015f205f9054906101000a900460ff166004811115610f6857610f67612f10565b5b14610fa8576040517f08c379a0000000000000000000000000000000000000000000000000000000008152600401610f9f90613da7565b60405180910390fd5b61111e565b600580811115610fc057610fbf612f10565b5b836005811115610fd357610fd2612f10565b5b036110e2575f5f9054906101000a900473ffffffffffffffffffffffffffffffffffffffff1673ffffffffffffffffffffffffffffffffffffffff163373ffffffffffffffffffffffffffffffffffffffff16148061109e57506004808111156110405761103f612f10565b5b60035f3373ffffffffffffffffffffffffffffffffffffffff1673ffffffffffffffffffffffffffffffffffffffff1681526020019081526020015f205f9054906101000a900460ff16600481111561109c5761109b612f10565b5b145b6110dd576040517f08c379a00000000000000000000000000000000000000000000000000000000081526004016110d490613e35565b60405180910390fd5b61111d565b6040517f08c379a000000000000000000000000000000000000000000000000000000000815260040161111490613e9d565b60405180910390fd5b5b5b5b5b82816004015f6101000a81548160ff0219169083600581111561114757611146612f10565b5b0217905550338160040160016101000a81548173ffffffffffffffffffffffffffffffffffffffff021916908373ffffffffffffffffffffffffffffffffffffffff1602179055508360405161119d9190613791565b60405180910390207f9eabd3215b4e6fad51a44eb557fbb8224e77209a699c1e273f0d45e3849c1c2b84336040516111d6929190613ebb565b60405180910390a2600460058111156111f2576111f1612f10565b5b83600581111561120557611204612f10565b5b03611361576112d381600301805461121c9061383c565b80601f01602080910402602001604051908101604052809291908181526020018280546112489061383c565b80156112935780601f1061126a57610100808354040283529160200191611293565b820191905f5260205f20905b81548152906001019060200180831161127657829003601f168201915b50505050506040518060400160405280600b81526020017f5375737461696e61626c65000000000000000000000000000000000000000000815250612705565b801561131b5750611319846040518060400160405280600b81526020017f5375737461696e61626c65000000000000000000000000000000000000000000815250612828565b155b156113605761135f846040518060400160405280600b81526020017f5375737461696e61626c65000000000000000000000000000000000000000000815250612878565b5b5b50505050565b5f5f9054906101000a900473ffffffffffffffffffffffffffffffffffffffff1673ffffffffffffffffffffffffffffffffffffffff163373ffffffffffffffffffffffffffffffffffffffff16146113f5576040517f08c379a00000000000000000000000000000000000000000000000000000000081526004016113ec90613f2c565b60405180910390fd5b8060035f8473ffffffffffffffffffffffffffffffffffffffff1673ffffffffffffffffffffffffffffffffffffffff1681526020019081526020015f205f6101000a81548160ff0219169083600481111561145457611453612f10565b5b02179055508173ffffffffffffffffffffffffffffffffffffffff167f4ac36fa53f167ceb85964be512e01de2a3b8bdb9862f917da079deeeff689b388260405161149f91906135c8565b60405180910390a25050565b816002816040516114bc9190613791565b90815260200160405180910390205f9054906101000a900460ff16611516576040517f08c379a000000000000000000000000000000000000000000000000000000000815260040161150d906137f1565b60405180910390fd5b5f6001846040516115279190613791565b908152602001604051809103902090505f5f9054906101000a900473ffffffffffffffffffffffffffffffffffffffff1673ffffffffffffffffffffffffffffffffffffffff163373ffffffffffffffffffffffffffffffffffffffff1614806115e057508060040160019054906101000a900473ffffffffffffffffffffffffffffffffffffffff1673ffffffffffffffffffffffffffffffffffffffff163373ffffffffffffffffffffffffffffffffffffffff16145b61161f576040517f08c379a000000000000000000000000000000000000000000000000000000000815260040161161690613f94565b60405180910390fd5b6116298484612828565b15611669576040517f08c379a000000000000000000000000000000000000000000000000000000000815260040161166090613ffc565b60405180910390fd5b6116738484612878565b50505050565b6002846040516116899190613791565b90815260200160405180910390205f9054906101000a900460ff16156116e4576040517f08c379a00000000000000000000000000000000000000000000000000000000081526004016116db90614064565b60405180910390fd5b5f6001856040516116f59190613791565b9081526020016040518091039020905084815f0190816117159190613a9a565b50838160010190816117279190613a9a565b50828160020190816117399190613a9a565b508181600301908161174b9190613a9a565b505f816004015f6101000a81548160ff0219169083600581111561177257611771612f10565b5b0217905550338160040160016101000a81548173ffffffffffffffffffffffffffffffffffffffff021916908373ffffffffffffffffffffffffffffffffffffffff1602179055506001816006015f6101000a81548160ff02191690831515021790555060016002866040516117e89190613791565b90815260200160405180910390205f6101000a81548160ff0219169083151502179055508460405161181a9190613791565b60405180910390207f5a304478b5ad812924e60fb3ee7fadbb2269effa0df0ede39b00fc1c606ee0c08585604051611853929190614082565b60405180910390a25050505050565b5f5f9054906101000a900473ffffffffffffffffffffffffffffffffffffffff1681565b60608060608360028160405161189c9190613791565b90815260200160405180910390205f9054906101000a900460ff166118f6576040517f08c379a00000000000000000000000000000000000000000000000000000000081526004016118ed906137f1565b60405180910390fd5b5f6001866040516119079190613791565b908152602001604051809103902090505f816005018054905090508067ffffffffffffffff81111561193c5761193b612c22565b5b60405190808252806020026020018201604052801561196a5781602001602082028036833780820191505090505b5095508067ffffffffffffffff81111561198757611986612c22565b5b6040519080825280602002602001820160405280156119ba57816020015b60608152602001906001900390816119a55790505b5094508067ffffffffffffffff8111156119d7576119d6612c22565b5b604051908082528060200260200182016040528015611a055781602001602082028036833780820191505090505b5093505f5f90505b81811015611b7557826005018181548110611a2b57611a2a6140b7565b5b905f5260205f2090600302015f0154878281518110611a4d57611a4c6140b7565b5b602002602001018181525050826005018181548110611a6f57611a6e6140b7565b5b905f5260205f2090600302016001018054611a899061383c565b80601f0160208091040260200160405190810160405280929190818152602001828054611ab59061383c565b8015611b005780601f10611ad757610100808354040283529160200191611b00565b820191905f5260205f20905b815481529060010190602001808311611ae357829003601f168201915b5050505050868281518110611b1857611b176140b7565b5b6020026020010181905250826005018181548110611b3957611b386140b7565b5b905f5260205f20906003020160020154858281518110611b5c57611b5b6140b7565b5b6020026020010181815250508080600101915050611a0d565b505050509193909250565b6003602052805f5260405f205f915054906101000a900460ff1681565b5f5f5f5f5f85600281604051611bb39190613791565b90815260200160405180910390205f9054906101000a900460ff16611c0d576040517f08c379a0000000000000000000000000000000000000000000000000000000008152600401611c04906137f1565b60405180910390fd5b5f600188604051611c1e9190613791565b908152602001604051809103902090505f816005018054905090505f8103611c5e575f5f5f5f611c4d8d612351565b975097509750975097505050611d4e565b5f5f90505f836005015f81548110611c7957611c786140b7565b5b905f5260205f2090600302015f015490505f846005015f81548110611ca157611ca06140b7565b5b905f5260205f2090600302015f015490505f5f90505b84811015611d1b575f866005018281548110611cd657611cd56140b7565b5b905f5260205f2090600302015f015490508085611cf39190614111565b945083811215611d01578093505b82811315611d0d578092505b508080600101915050611cb7565b505f8484611d29919061417f565b90505f611d358e612351565b905085828585849c509c509c509c509c50505050505050505b5091939590929450565b606081600281604051611d6b9190613791565b90815260200160405180910390205f9054906101000a900460ff16611dc5576040517f08c379a0000000000000000000000000000000000000000000000000000000008152600401611dbc906137f1565b60405180910390fd5b5f600184604051611dd69190613791565b908152602001604051809103902090505f5f9054906101000a900473ffffffffffffffffffffffffffffffffffffffff1673ffffffffffffffffffffffffffffffffffffffff163373ffffffffffffffffffffffffffffffffffffffff161480611e8f57508060040160019054906101000a900473ffffffffffffffffffffffffffffffffffffffff1673ffffffffffffffffffffffffffffffffffffffff163373ffffffffffffffffffffffffffffffffffffffff16145b611ece576040517f08c379a0000000000000000000000000000000000000000000000000000000008152600401611ec590614231565b60405180910390fd5b5f843342604051602001611ee4939291906142b4565b6040516020818303038152906040528051906020012090505f611f0682612969565b905085600482604051611f199190613791565b90815260200160405180910390209081611f339190613a9a565b5080600587604051611f459190613791565b90815260200160405180910390209081611f5f9190613a9a565b5085604051611f6e9190613791565b60405180910390207f5b09ec3fe7870357cbc45ef4e1d69860d921f49908dd748edeeaefc8158864db82604051611fa59190613650565b60405180910390a280945050505050919050565b6060806060805f5f5f600488604051611fd29190613791565b90815260200160405180910390208054611feb9061383c565b80601f01602080910402602001604051908101604052809291908181526020018280546120179061383c565b80156120625780601f1061203957610100808354040283529160200191612062565b820191905f5260205f20905b81548152906001019060200180831161204557829003601f168201915b505050505090505f8151036120ac576040517f08c379a00000000000000000000000000000000000000000000000000000000081526004016120a390614336565b60405180910390fd5b5f6001826040516120bd9190613791565b90815260200160405180910390209050805f01816001018260020183600301846004015f9054906101000a900460ff168560040160019054906101000a900473ffffffffffffffffffffffffffffffffffffffff1685805461211e9061383c565b80601f016020809104026020016040519081016040528092919081815260200182805461214a9061383c565b80156121955780601f1061216c57610100808354040283529160200191612195565b820191905f5260205f20905b81548152906001019060200180831161217857829003601f168201915b505050505095508480546121a89061383c565b80601f01602080910402602001604051908101604052809291908181526020018280546121d49061383c565b801561221f5780601f106121f65761010080835404028352916020019161221f565b820191905f5260205f20905b81548152906001019060200180831161220257829003601f168201915b505050505094508380546122329061383c565b80601f016020809104026020016040519081016040528092919081815260200182805461225e9061383c565b80156122a95780601f10612280576101008083540402835291602001916122a9565b820191905f5260205f20905b81548152906001019060200180831161228c57829003601f168201915b505050505093508280546122bc9061383c565b80601f01602080910402602001604051908101604052809291908181526020018280546122e89061383c565b80156123335780601f1061230a57610100808354040283529160200191612333565b820191905f5260205f20905b81548152906001019060200180831161231657829003601f168201915b50505050509250975097509750975097509750505091939550919395565b5f816002816040516123639190613791565b90815260200160405180910390205f9054906101000a900460ff166123bd576040517f08c379a00000000000000000000000000000000000000000000000000000000081526004016123b4906137f1565b60405180910390fd5b5f6001846040516123ce9190613791565b90815260200160405180910390209050806009015f9054906101000a900460ff1615801561240b57508060090160019054906101000a900460ff16155b1561241a5760019250506124cc565b5f5f90505b81600501805490508110156124c5575f826005018281548110612445576124446140b7565b5b905f5260205f2090600302015f01549050826009015f9054906101000a900460ff1680156124765750826007015481125b15612486575f94505050506124cc565b8260090160019054906101000a900460ff1680156124a75750826008015481135b156124b7575f94505050506124cc565b50808060010191505061241f565b5060019250505b50919050565b826002816040516124e39190613791565b90815260200160405180910390205f9054906101000a900460ff1661253d576040517f08c379a0000000000000000000000000000000000000000000000000000000008152600401612534906137f1565b60405180910390fd5b5f5f9054906101000a900473ffffffffffffffffffffffffffffffffffffffff1673ffffffffffffffffffffffffffffffffffffffff163373ffffffffffffffffffffffffffffffffffffffff16148061260457505f60048111156125a5576125a4612f10565b5b60035f3373ffffffffffffffffffffffffffffffffffffffff1673ffffffffffffffffffffffffffffffffffffffff1681526020019081526020015f205f9054906101000a900460ff16600481111561260157612600612f10565b5b14155b612643576040517f08c379a000000000000000000000000000000000000000000000000000000000815260040161263a9061439e565b60405180910390fd5b5f6001856040516126549190613791565b908152602001604051809103902090508381600701819055508281600801819055506001816009015f6101000a81548160ff02191690831515021790555060018160090160016101000a81548160ff021916908315150217905550846040516126bd9190613791565b60405180910390207f2927e1ce4ffbe3bb1ec8ded8077445fd60eb0de83debbb3a01462a85f82ac59e85856040516126f69291906143bc565b60405180910390a25050505050565b5f5f8390505f839050805182511015612722575f92505050612822565b5f5f90505b8151835161273591906143e3565b811161281b575f600190505f5f90505b83518110156127f357838181518110612761576127606140b7565b5b602001015160f81c60f81b7effffffffffffffffffffffffffffffffffffffffffffffffffffffffffffff191685828561279b9190614416565b815181106127ac576127ab6140b7565b5b602001015160f81c60f81b7effffffffffffffffffffffffffffffffffffffffffffffffffffffffffffff1916146127e6575f91506127f3565b8080600101915050612745565b508015612807576001945050505050612822565b50808061281390614449565b915050612727565b505f925050505b92915050565b5f6006836040516128399190613791565b9081526020016040518091039020826040516128559190613791565b90815260200160405180910390205f9054906101000a900460ff16905092915050565b600160068360405161288a9190613791565b9081526020016040518091039020826040516128a69190613791565b90815260200160405180910390205f6101000a81548160ff0219169083151502179055506007826040516128da9190613791565b908152602001604051809103902081908060018154018082558091505060019003905f5260205f20015f9091909190915090816129179190613a9a565b50816040516129269190613791565b60405180910390207f34fcd4787adb461453a1aabffc2349656feba59e5a3e83c4aad58836db82bec68260405161295d9190613650565b60405180910390a25050565b60605f7f303132333435363738396162636465660000000000000000000000000000000090505f604267ffffffffffffffff8111156129ab576129aa612c22565b5b6040519080825280601f01601f1916602001820160405280156129dd5781602001600182028036833780820191505090505b5090507f3000000000000000000000000000000000000000000000000000000000000000815f81518110612a1457612a136140b7565b5b60200101907effffffffffffffffffffffffffffffffffffffffffffffffffffffffffffff191690815f1a9053507f780000000000000000000000000000000000000000000000000000000000000081600181518110612a7757612a766140b7565b5b60200101907effffffffffffffffffffffffffffffffffffffffffffffffffffffffffffff191690815f1a9053505f5f90505b6020811015612bee57826004868360208110612ac957612ac86140b7565b5b1a60f81b60f81c60ff16901c60ff1660108110612ae957612ae86140b7565b5b1a60f81b82600283612afb9190614490565b6002612b079190614416565b81518110612b1857612b176140b7565b5b60200101907effffffffffffffffffffffffffffffffffffffffffffffffffffffffffffff191690815f1a90535082600f868360208110612b5c57612b5b6140b7565b5b1a60f81b60f81c1660ff1660108110612b7857612b776140b7565b5b1a60f81b826001600284612b8c9190614490565b6002612b989190614416565b612ba29190614416565b81518110612bb357612bb26140b7565b5b60200101907effffffffffffffffffffffffffffffffffffffffffffffffffffffffffffff191690815f1a9053508080600101915050612aaa565b508092505050919050565b5f604051905090565b5f5ffd5b5f5ffd5b5f5ffd5b5f5ffd5b5f601f19601f8301169050919050565b7f4e487b71000000000000000000000000000000000000000000000000000000005f52604160045260245ffd5b612c5882612c12565b810181811067ffffffffffffffff82111715612c7757612c76612c22565b5b80604052505050565b5f612c89612bf9565b9050612c958282612c4f565b919050565b5f67ffffffffffffffff821115612cb457612cb3612c22565b5b612cbd82612c12565b9050602081019050919050565b828183375f83830152505050565b5f612cea612ce584612c9a565b612c80565b905082815260208101848484011115612d0657612d05612c0e565b5b612d11848285612cca565b509392505050565b5f82601f830112612d2d57612d2c612c0a565b5b8135612d3d848260208601612cd8565b91505092915050565b5f60208284031215612d5b57612d5a612c02565b5b5f82013567ffffffffffffffff811115612d7857612d77612c06565b5b612d8484828501612d19565b91505092915050565b5f81519050919050565b5f82825260208201905092915050565b5f819050602082019050919050565b5f81519050919050565b5f82825260208201905092915050565b8281835e5f83830152505050565b5f612de882612db6565b612df28185612dc0565b9350612e02818560208601612dd0565b612e0b81612c12565b840191505092915050565b5f612e218383612dde565b905092915050565b5f602082019050919050565b5f612e3f82612d8d565b612e498185612d97565b935083602082028501612e5b85612da7565b805f5b85811015612e965784840389528151612e778582612e16565b9450612e8283612e29565b925060208a01995050600181019050612e5e565b50829750879550505050505092915050565b5f6020820190508181035f830152612ec08184612e35565b905092915050565b5f82825260208201905092915050565b5f612ee282612db6565b612eec8185612ec8565b9350612efc818560208601612dd0565b612f0581612c12565b840191505092915050565b7f4e487b71000000000000000000000000000000000000000000000000000000005f52602160045260245ffd5b60068110612f4e57612f4d612f10565b5b50565b5f819050612f5e82612f3d565b919050565b5f612f6d82612f51565b9050919050565b612f7d81612f63565b82525050565b5f73ffffffffffffffffffffffffffffffffffffffff82169050919050565b5f612fac82612f83565b9050919050565b612fbc81612fa2565b82525050565b5f60c0820190508181035f830152612fda8189612ed8565b90508181036020830152612fee8188612ed8565b905081810360408301526130028187612ed8565b90506130116060830186612f74565b61301e6080830185612fb3565b81810360a08301526130308184612ed8565b9050979650505050505050565b5f819050919050565b61304f8161303d565b8114613059575f5ffd5b50565b5f8135905061306a81613046565b92915050565b5f5f5f6060848603121561308757613086612c02565b5b5f84013567ffffffffffffffff8111156130a4576130a3612c06565b5b6130b086828701612d19565b93505060206130c18682870161305c565b925050604084013567ffffffffffffffff8111156130e2576130e1612c06565b5b6130ee86828701612d19565b9150509250925092565b5f5f6040838503121561310e5761310d612c02565b5b5f83013567ffffffffffffffff81111561312b5761312a612c06565b5b61313785828601612d19565b925050602083013567ffffffffffffffff81111561315857613157612c06565b5b61316485828601612d19565b9150509250929050565b5f8115159050919050565b6131828161316e565b82525050565b5f60208201905061319b5f830184613179565b92915050565b600681106131ad575f5ffd5b50565b5f813590506131be816131a1565b92915050565b5f5f604083850312156131da576131d9612c02565b5b5f83013567ffffffffffffffff8111156131f7576131f6612c06565b5b61320385828601612d19565b9250506020613214858286016131b0565b9150509250929050565b61322781612fa2565b8114613231575f5ffd5b50565b5f813590506132428161321e565b92915050565b60058110613254575f5ffd5b50565b5f8135905061326581613248565b92915050565b5f5f6040838503121561328157613280612c02565b5b5f61328e85828601613234565b925050602061329f85828601613257565b9150509250929050565b5f5f5f5f608085870312156132c1576132c0612c02565b5b5f85013567ffffffffffffffff8111156132de576132dd612c06565b5b6132ea87828801612d19565b945050602085013567ffffffffffffffff81111561330b5761330a612c06565b5b61331787828801612d19565b935050604085013567ffffffffffffffff81111561333857613337612c06565b5b61334487828801612d19565b925050606085013567ffffffffffffffff81111561336557613364612c06565b5b61337187828801612d19565b91505092959194509250565b5f6020820190506133905f830184612fb3565b92915050565b5f81519050919050565b5f82825260208201905092915050565b5f819050602082019050919050565b6133c88161303d565b82525050565b5f6133d983836133bf565b60208301905092915050565b5f602082019050919050565b5f6133fb82613396565b61340581856133a0565b9350613410836133b0565b805f5b8381101561344057815161342788826133ce565b9750613432836133e5565b925050600181019050613413565b5085935050505092915050565b5f81519050919050565b5f82825260208201905092915050565b5f819050602082019050919050565b5f819050919050565b61348881613476565b82525050565b5f613499838361347f565b60208301905092915050565b5f602082019050919050565b5f6134bb8261344d565b6134c58185613457565b93506134d083613467565b805f5b838110156135005781516134e7888261348e565b97506134f2836134a5565b9250506001810190506134d3565b5085935050505092915050565b5f6060820190508181035f83015261352581866133f1565b905081810360208301526135398185612e35565b9050818103604083015261354d81846134b1565b9050949350505050565b5f6020828403121561356c5761356b612c02565b5b5f61357984828501613234565b91505092915050565b6005811061359357613592612f10565b5b50565b5f8190506135a382613582565b919050565b5f6135b282613596565b9050919050565b6135c2816135a8565b82525050565b5f6020820190506135db5f8301846135b9565b92915050565b6135ea81613476565b82525050565b6135f98161303d565b82525050565b5f60a0820190506136125f8301886135e1565b61361f60208301876135f0565b61362c60408301866135f0565b61363960608301856135f0565b6136466080830184613179565b9695505050505050565b5f6020820190508181035f8301526136688184612ed8565b905092915050565b5f60c0820190508181035f8301526136888189612ed8565b9050818103602083015261369c8188612ed8565b905081810360408301526136b08187612ed8565b905081810360608301526136c48186612ed8565b90506136d36080830185612f74565b6136e060a0830184612fb3565b979650505050505050565b5f5f5f6060848603121561370257613701612c02565b5b5f84013567ffffffffffffffff81111561371f5761371e612c06565b5b61372b86828701612d19565b935050602061373c8682870161305c565b925050604061374d8682870161305c565b9150509250925092565b5f81905092915050565b5f61376b82612db6565b6137758185613757565b9350613785818560208601612dd0565b80840191505092915050565b5f61379c8284613761565b915081905092915050565b7f50726f64756374206e6f742072656769737465726564000000000000000000005f82015250565b5f6137db601683612ec8565b91506137e6826137a7565b602082019050919050565b5f6020820190508181035f830152613808816137cf565b9050919050565b7f4e487b71000000000000000000000000000000000000000000000000000000005f52602260045260245ffd5b5f600282049050600182168061385357607f821691505b6020821081036138665761386561380f565b5b50919050565b7f4f6e6c79204c6f67697374696373206f72206f776e65722063616e2075706c6f5f8201527f616420496f542064617461000000000000000000000000000000000000000000602082015250565b5f6138c6602b83612ec8565b91506138d18261386c565b604082019050919050565b5f6020820190508181035f8301526138f3816138ba565b9050919050565b5f819050815f5260205f209050919050565b5f6020601f8301049050919050565b5f82821b905092915050565b5f600883026139567fffffffffffffffffffffffffffffffffffffffffffffffffffffffffffffffff8261391b565b613960868361391b565b95508019841693508086168417925050509392505050565b5f819050919050565b5f61399b61399661399184613476565b613978565b613476565b9050919050565b5f819050919050565b6139b483613981565b6139c86139c0826139a2565b848454613927565b825550505050565b5f5f905090565b6139df6139d0565b6139ea8184846139ab565b505050565b5b81811015613a0d57613a025f826139d7565b6001810190506139f0565b5050565b601f821115613a5257613a23816138fa565b613a2c8461390c565b81016020851015613a3b578190505b613a4f613a478561390c565b8301826139ef565b50505b505050565b5f82821c905092915050565b5f613a725f1984600802613a57565b1980831691505092915050565b5f613a8a8383613a63565b9150826002028217905092915050565b613aa382612db6565b67ffffffffffffffff811115613abc57613abb612c22565b5b613ac6825461383c565b613ad1828285613a11565b5f60209050601f831160018114613b02575f8415613af0578287015190505b613afa8582613a7f565b865550613b61565b601f198416613b10866138fa565b5f5b82811015613b3757848901518255600182019150602085019450602081019050613b12565b86831015613b545784890151613b50601f891682613a63565b8355505b6001600288020188555050505b505050505050565b5f604082019050613b7c5f8301856135f0565b8181036020830152613b8e8184612ed8565b90509392505050565b7f496e76616c6964207374616765207472616e736974696f6e20286d75737420705f8201527f726f677265737320666f72776172642900000000000000000000000000000000602082015250565b5f613bf1603083612ec8565b9150613bfc82613b97565b604082019050919050565b5f6020820190508181035f830152613c1e81613be5565b9050919050565b7f4d7573742062652056656e646f720000000000000000000000000000000000005f82015250565b5f613c59600e83612ec8565b9150613c6482613c25565b602082019050919050565b5f6020820190508181035f830152613c8681613c4d565b9050919050565b7f4d757374206265204d616e7566616374757265720000000000000000000000005f82015250565b5f613cc1601483612ec8565b9150613ccc82613c8d565b602082019050919050565b5f6020820190508181035f830152613cee81613cb5565b9050919050565b7f4d757374206265204c6f676973746963730000000000000000000000000000005f82015250565b5f613d29601183612ec8565b9150613d3482613cf5565b602082019050919050565b5f6020820190508181035f830152613d5681613d1d565b9050919050565b7f4d7573742062652052657461696c6572000000000000000000000000000000005f82015250565b5f613d91601083612ec8565b9150613d9c82613d5d565b602082019050919050565b5f6020820190508181035f830152613dbe81613d85565b9050919050565b7f4d757374206265206f776e6572206f722072657461696c657220746f20636f6d5f8201527f706c657465000000000000000000000000000000000000000000000000000000602082015250565b5f613e1f602583612ec8565b9150613e2a82613dc5565b604082019050919050565b5f6020820190508181035f830152613e4c81613e13565b9050919050565b7f556e737570706f727465642073746167650000000000000000000000000000005f82015250565b5f613e87601183612ec8565b9150613e9282613e53565b602082019050919050565b5f6020820190508181035f830152613eb481613e7b565b9050919050565b5f604082019050613ece5f830185612f74565b613edb6020830184612fb3565b9392505050565b7f4f6e6c79206f776e6572000000000000000000000000000000000000000000005f82015250565b5f613f16600a83612ec8565b9150613f2182613ee2565b602082019050919050565b5f6020820190508181035f830152613f4381613f0a565b9050919050565b7f4f6e6c79206f776e6572206f722068616e646c657200000000000000000000005f82015250565b5f613f7e601583612ec8565b9150613f8982613f4a565b602082019050919050565b5f6020820190508181035f830152613fab81613f72565b9050919050565b7f426164676520616c7265616479206177617264656400000000000000000000005f82015250565b5f613fe6601583612ec8565b9150613ff182613fb2565b602082019050919050565b5f6020820190508181035f83015261401381613fda565b9050919050565b7f4c6f7420616c72656164792072656769737465726564000000000000000000005f82015250565b5f61404e601683612ec8565b91506140598261401a565b602082019050919050565b5f6020820190508181035f83015261407b81614042565b9050919050565b5f6040820190508181035f83015261409a8185612ed8565b905081810360208301526140ae8184612ed8565b90509392505050565b7f4e487b71000000000000000000000000000000000000000000000000000000005f52603260045260245ffd5b7f4e487b71000000000000000000000000000000000000000000000000000000005f52601160045260245ffd5b5f61411b8261303d565b91506141268361303d565b92508282019050828112155f8312168382125f84121516171561414c5761414b6140e4565b5b92915050565b7f4e487b71000000000000000000000000000000000000000000000000000000005f52601260045260245ffd5b5f6141898261303d565b91506141948361303d565b9250826141a4576141a3614152565b5b60015f0383147f8000000000000000000000000000000000000000000000000000000000000000831416156141dc576141db6140e4565b5b828205905092915050565b7f4f6e6c79206f776e6572206f722063757272656e742068616e646c65720000005f82015250565b5f61421b601d83612ec8565b9150614226826141e7565b602082019050919050565b5f6020820190508181035f8301526142488161420f565b9050919050565b5f8160601b9050919050565b5f6142658261424f565b9050919050565b5f6142768261425b565b9050919050565b61428e61428982612fa2565b61426c565b82525050565b5f819050919050565b6142ae6142a982613476565b614294565b82525050565b5f6142bf8286613761565b91506142cb828561427d565b6014820191506142db828461429d565b602082019150819050949350505050565b7f496e76616c696420515220746f6b656e000000000000000000000000000000005f82015250565b5f614320601083612ec8565b915061432b826142ec565b602082019050919050565b5f6020820190508181035f83015261434d81614314565b9050919050565b7f4f6e6c79206f776e6572206f7220726f6c6500000000000000000000000000005f82015250565b5f614388601283612ec8565b915061439382614354565b602082019050919050565b5f6020820190508181035f8301526143b58161437c565b9050919050565b5f6040820190506143cf5f8301856135f0565b6143dc60208301846135f0565b9392505050565b5f6143ed82613476565b91506143f883613476565b92508282039050818111156144105761440f6140e4565b5b92915050565b5f61442082613476565b915061442b83613476565b9250828201905080821115614443576144426140e4565b5b92915050565b5f61445382613476565b91507fffffffffffffffffffffffffffffffffffffffffffffffffffffffffffffffff8203614485576144846140e4565b5b600182019050919050565b5f61449a82613476565b91506144a583613476565b92508282026144b381613476565b915082820484148315176144ca576144c96140e4565b5b509291505056fea2646970667358221220ae22de4f0a4f16d458f4f36315a1ad91f929cac8adb2f7977a0c91da1912adb264736f6c634300081e0033",
			"opcodes": "PUSH1 0x80 PUSH1 0x40 MSTORE CALLVALUE DUP1 ISZERO PUSH1 0xE JUMPI PUSH0 PUSH0 REVERT JUMPDEST POP CALLER PUSH0 PUSH0 PUSH2 0x100 EXP DUP2 SLOAD DUP2 PUSH20 0xFFFFFFFFFFFFFFFFFFFFFFFFFFFFFFFFFFFFFFFF MUL NOT AND SWAP1 DUP4 PUSH20 0xFFFFFFFFFFFFFFFFFFFFFFFFFFFFFFFFFFFFFFFF AND MUL OR SWAP1 SSTORE POP PUSH0 PUSH1 0x3 PUSH0 CALLER PUSH20 0xFFFFFFFFFFFFFFFFFFFFFFFFFFFFFFFFFFFFFFFF AND PUSH20 0xFFFFFFFFFFFFFFFFFFFFFFFFFFFFFFFFFFFFFFFF AND DUP2 MSTORE PUSH1 0x20 ADD SWAP1 DUP2 MSTORE PUSH1 0x20 ADD PUSH0 KECCAK256 PUSH0 PUSH2 0x100 EXP DUP2 SLOAD DUP2 PUSH1 0xFF MUL NOT AND SWAP1 DUP4 PUSH1 0x4 DUP2 GT ISZERO PUSH1 0xAA JUMPI PUSH1 0xA9 PUSH1 0xB3 JUMP JUMPDEST JUMPDEST MUL OR SWAP1 SSTORE POP PUSH1 0xE0 JUMP JUMPDEST PUSH32 0x4E487B7100000000000000000000000000000000000000000000000000000000 PUSH0 MSTORE PUSH1 0x21 PUSH1 0x4 MSTORE PUSH1 0x24 PUSH0 REVERT JUMPDEST PUSH2 0x4507 DUP1 PUSH2 0xED PUSH0 CODECOPY PUSH0 RETURN INVALID PUSH1 0x80 PUSH1 0x40 MSTORE CALLVALUE DUP1 ISZERO PUSH2 0xF JUMPI PUSH0 PUSH0 REVERT JUMPDEST POP PUSH1 0x4 CALLDATASIZE LT PUSH2 0xFE JUMPI PUSH0 CALLDATALOAD PUSH1 0xE0 SHR DUP1 PUSH4 0x8DA5CB5B GT PUSH2 0x95 JUMPI DUP1 PUSH4 0xB6017C67 GT PUSH2 0x64 JUMPI DUP1 PUSH4 0xB6017C67 EQ PUSH2 0x2D7 JUMPI DUP1 PUSH4 0xC6B0B839 EQ PUSH2 0x307 JUMPI DUP1 PUSH4 0xD5FEB194 EQ PUSH2 0x33C JUMPI DUP1 PUSH4 0xFBF4A0CD EQ PUSH2 0x36C JUMPI PUSH2 0xFE JUMP JUMPDEST DUP1 PUSH4 0x8DA5CB5B EQ PUSH2 0x223 JUMPI DUP1 PUSH4 0x90506E02 EQ PUSH2 0x241 JUMPI DUP1 PUSH4 0x99374642 EQ PUSH2 0x273 JUMPI DUP1 PUSH4 0xA560B77C EQ PUSH2 0x2A3 JUMPI PUSH2 0xFE JUMP JUMPDEST DUP1 PUSH4 0x5CF291DC GT PUSH2 0xD1 JUMPI DUP1 PUSH4 0x5CF291DC EQ PUSH2 0x1B3 JUMPI DUP1 PUSH4 0x630A195B EQ PUSH2 0x1CF JUMPI DUP1 PUSH4 0x7AB6CD50 EQ PUSH2 0x1EB JUMPI DUP1 PUSH4 0x8799D6FC EQ PUSH2 0x207 JUMPI PUSH2 0xFE JUMP JUMPDEST DUP1 PUSH4 0x6922F52 EQ PUSH2 0x102 JUMPI DUP1 PUSH4 0x1EA32E5C EQ PUSH2 0x132 JUMPI DUP1 PUSH4 0x3567FA7D EQ PUSH2 0x167 JUMPI DUP1 PUSH4 0x4E5AE78B EQ PUSH2 0x183 JUMPI JUMPDEST PUSH0 PUSH0 REVERT JUMPDEST PUSH2 0x11C PUSH1 0x4 DUP1 CALLDATASIZE SUB DUP2 ADD SWAP1 PUSH2 0x117 SWAP2 SWAP1 PUSH2 0x2D46 JUMP JUMPDEST PUSH2 0x388 JUMP JUMPDEST PUSH1 0x40 MLOAD PUSH2 0x129 SWAP2 SWAP1 PUSH2 0x2EA8 JUMP JUMPDEST PUSH1 0x40 MLOAD DUP1 SWAP2 SUB SWAP1 RETURN JUMPDEST PUSH2 0x14C PUSH1 0x4 DUP1 CALLDATASIZE SUB DUP2 ADD SWAP1 PUSH2 0x147 SWAP2 SWAP1 PUSH2 0x2D46 JUMP JUMPDEST PUSH2 0x4E6 JUMP JUMPDEST PUSH1 0x40 MLOAD PUSH2 0x15E SWAP7 SWAP6 SWAP5 SWAP4 SWAP3 SWAP2 SWAP1 PUSH2 0x2FC2 JUMP JUMPDEST PUSH1 0x40 MLOAD DUP1 SWAP2 SUB SWAP1 RETURN JUMPDEST PUSH2 0x181 PUSH1 0x4 DUP1 CALLDATASIZE SUB DUP2 ADD SWAP1 PUSH2 0x17C SWAP2 SWAP1 PUSH2 0x3070 JUMP JUMPDEST PUSH2 0x81A JUMP JUMPDEST STOP JUMPDEST PUSH2 0x19D PUSH1 0x4 DUP1 CALLDATASIZE SUB DUP2 ADD SWAP1 PUSH2 0x198 SWAP2 SWAP1 PUSH2 0x30F8 JUMP JUMPDEST PUSH2 0xA6C JUMP JUMPDEST PUSH1 0x40 MLOAD PUSH2 0x1AA SWAP2 SWAP1 PUSH2 0x3188 JUMP JUMPDEST PUSH1 0x40 MLOAD DUP1 SWAP2 SUB SWAP1 RETURN JUMPDEST PUSH2 0x1CD PUSH1 0x4 DUP1 CALLDATASIZE SUB DUP2 ADD SWAP1 PUSH2 0x1C8 SWAP2 SWAP1 PUSH2 0x31C4 JUMP JUMPDEST PUSH2 0xB28 JUMP JUMPDEST STOP JUMPDEST PUSH2 0x1E9 PUSH1 0x4 DUP1 CALLDATASIZE SUB DUP2 ADD SWAP1 PUSH2 0x1E4 SWAP2 SWAP1 PUSH2 0x326B JUMP JUMPDEST PUSH2 0x1367 JUMP JUMPDEST STOP JUMPDEST PUSH2 0x205 PUSH1 0x4 DUP1 CALLDATASIZE SUB DUP2 ADD SWAP1 PUSH2 0x200 SWAP2 SWAP1 PUSH2 0x30F8 JUMP JUMPDEST PUSH2 0x14AB JUMP JUMPDEST STOP JUMPDEST PUSH2 0x221 PUSH1 0x4 DUP1 CALLDATASIZE SUB DUP2 ADD SWAP1 PUSH2 0x21C SWAP2 SWAP1 PUSH2 0x32A9 JUMP JUMPDEST PUSH2 0x1679 JUMP JUMPDEST STOP JUMPDEST PUSH2 0x22B PUSH2 0x1862 JUMP JUMPDEST PUSH1 0x40 MLOAD PUSH2 0x238 SWAP2 SWAP1 PUSH2 0x337D JUMP JUMPDEST PUSH1 0x40 MLOAD DUP1 SWAP2 SUB SWAP1 RETURN JUMPDEST PUSH2 0x25B PUSH1 0x4 DUP1 CALLDATASIZE SUB DUP2 ADD SWAP1 PUSH2 0x256 SWAP2 SWAP1 PUSH2 0x2D46 JUMP JUMPDEST PUSH2 0x1886 JUMP JUMPDEST PUSH1 0x40 MLOAD PUSH2 0x26A SWAP4 SWAP3 SWAP2 SWAP1 PUSH2 0x350D JUMP JUMPDEST PUSH1 0x40 MLOAD DUP1 SWAP2 SUB SWAP1 RETURN JUMPDEST PUSH2 0x28D PUSH1 0x4 DUP1 CALLDATASIZE SUB DUP2 ADD SWAP1 PUSH2 0x288 SWAP2 SWAP1 PUSH2 0x3557 JUMP JUMPDEST PUSH2 0x1B80 JUMP JUMPDEST PUSH1 0x40 MLOAD PUSH2 0x29A SWAP2 SWAP1 PUSH2 0x35C8 JUMP JUMPDEST PUSH1 0x40 MLOAD DUP1 SWAP2 SUB SWAP1 RETURN JUMPDEST PUSH2 0x2BD PUSH1 0x4 DUP1 CALLDATASIZE SUB DUP2 ADD SWAP1 PUSH2 0x2B8 SWAP2 SWAP1 PUSH2 0x2D46 JUMP JUMPDEST PUSH2 0x1B9D JUMP JUMPDEST PUSH1 0x40 MLOAD PUSH2 0x2CE SWAP6 SWAP5 SWAP4 SWAP3 SWAP2 SWAP1 PUSH2 0x35FF JUMP JUMPDEST PUSH1 0x40 MLOAD DUP1 SWAP2 SUB SWAP1 RETURN JUMPDEST PUSH2 0x2F1 PUSH1 0x4 DUP1 CALLDATASIZE SUB DUP2 ADD SWAP1 PUSH2 0x2EC SWAP2 SWAP1 PUSH2 0x2D46 JUMP JUMPDEST PUSH2 0x1D58 JUMP JUMPDEST PUSH1 0x40 MLOAD PUSH2 0x2FE SWAP2 SWAP1 PUSH2 0x3650 JUMP JUMPDEST PUSH1 0x40 MLOAD DUP1 SWAP2 SUB SWAP1 RETURN JUMPDEST PUSH2 0x321 PUSH1 0x4 DUP1 CALLDATASIZE SUB DUP2 ADD SWAP1 PUSH2 0x31C SWAP2 SWAP1 PUSH2 0x2D46 JUMP JUMPDEST PUSH2 0x1FB9 JUMP JUMPDEST PUSH1 0x40 MLOAD PUSH2 0x333 SWAP7 SWAP6 SWAP5 SWAP4 SWAP3 SWAP2 SWAP1 PUSH2 0x3670 JUMP JUMPDEST PUSH1 0x40 MLOAD DUP1 SWAP2 SUB SWAP1 RETURN JUMPDEST PUSH2 0x356 PUSH1 0x4 DUP1 CALLDATASIZE SUB DUP2 ADD SWAP1 PUSH2 0x351 SWAP2 SWAP1 PUSH2 0x2D46 JUMP JUMPDEST PUSH2 0x2351 JUMP JUMPDEST PUSH1 0x40 MLOAD PUSH2 0x363 SWAP2 SWAP1 PUSH2 0x3188 JUMP JUMPDEST PUSH1 0x40 MLOAD DUP1 SWAP2 SUB SWAP1 RETURN JUMPDEST PUSH2 0x386 PUSH1 0x4 DUP1 CALLDATASIZE SUB DUP2 ADD SWAP1 PUSH2 0x381 SWAP2 SWAP1 PUSH2 0x36EB JUMP JUMPDEST PUSH2 0x24D2 JUMP JUMPDEST STOP JUMPDEST PUSH1 0x60 DUP2 PUSH1 0x2 DUP2 PUSH1 0x40 MLOAD PUSH2 0x39B SWAP2 SWAP1 PUSH2 0x3791 JUMP JUMPDEST SWAP1 DUP2 MSTORE PUSH1 0x20 ADD PUSH1 0x40 MLOAD DUP1 SWAP2 SUB SWAP1 KECCAK256 PUSH0 SWAP1 SLOAD SWAP1 PUSH2 0x100 EXP SWAP1 DIV PUSH1 0xFF AND PUSH2 0x3F5 JUMPI PUSH1 0x40 MLOAD PUSH32 0x8C379A000000000000000000000000000000000000000000000000000000000 DUP2 MSTORE PUSH1 0x4 ADD PUSH2 0x3EC SWAP1 PUSH2 0x37F1 JUMP JUMPDEST PUSH1 0x40 MLOAD DUP1 SWAP2 SUB SWAP1 REVERT JUMPDEST PUSH1 0x7 DUP4 PUSH1 0x40 MLOAD PUSH2 0x405 SWAP2 SWAP1 PUSH2 0x3791 JUMP JUMPDEST SWAP1 DUP2 MSTORE PUSH1 0x20 ADD PUSH1 0x40 MLOAD DUP1 SWAP2 SUB SWAP1 KECCAK256 DUP1 SLOAD DUP1 PUSH1 0x20 MUL PUSH1 0x20 ADD PUSH1 0x40 MLOAD SWAP1 DUP2 ADD PUSH1 0x40 MSTORE DUP1 SWAP3 SWAP2 SWAP1 DUP2 DUP2 MSTORE PUSH1 0x20 ADD PUSH0 SWAP1 JUMPDEST DUP3 DUP3 LT ISZERO PUSH2 0x4DA JUMPI DUP4 DUP3 SWAP1 PUSH0 MSTORE PUSH1 0x20 PUSH0 KECCAK256 ADD DUP1 SLOAD PUSH2 0x44F SWAP1 PUSH2 0x383C JUMP JUMPDEST DUP1 PUSH1 0x1F ADD PUSH1 0x20 DUP1 SWAP2 DIV MUL PUSH1 0x20 ADD PUSH1 0x40 MLOAD SWAP1 DUP2 ADD PUSH1 0x40 MSTORE DUP1 SWAP3 SWAP2 SWAP1 DUP2 DUP2 MSTORE PUSH1 0x20 ADD DUP3 DUP1 SLOAD PUSH2 0x47B SWAP1 PUSH2 0x383C JUMP JUMPDEST DUP1 ISZERO PUSH2 0x4C6 JUMPI DUP1 PUSH1 0x1F LT PUSH2 0x49D JUMPI PUSH2 0x100 DUP1 DUP4 SLOAD DIV MUL DUP4 MSTORE SWAP2 PUSH1 0x20 ADD SWAP2 PUSH2 0x4C6 JUMP JUMPDEST DUP3 ADD SWAP2 SWAP1 PUSH0 MSTORE PUSH1 0x20 PUSH0 KECCAK256 SWAP1 JUMPDEST DUP2 SLOAD DUP2 MSTORE SWAP1 PUSH1 0x1 ADD SWAP1 PUSH1 0x20 ADD DUP1 DUP4 GT PUSH2 0x4A9 JUMPI DUP3 SWAP1 SUB PUSH1 0x1F AND DUP3 ADD SWAP2 JUMPDEST POP POP POP POP POP DUP2 MSTORE PUSH1 0x20 ADD SWAP1 PUSH1 0x1 ADD SWAP1 PUSH2 0x432 JUMP JUMPDEST POP POP POP POP SWAP2 POP POP SWAP2 SWAP1 POP JUMP JUMPDEST PUSH1 0x60 DUP1 PUSH1 0x60 PUSH0 PUSH0 PUSH1 0x60 DUP7 PUSH1 0x2 DUP2 PUSH1 0x40 MLOAD PUSH2 0x500 SWAP2 SWAP1 PUSH2 0x3791 JUMP JUMPDEST SWAP1 DUP2 MSTORE PUSH1 0x20 ADD PUSH1 0x40 MLOAD DUP1 SWAP2 SUB SWAP1 KECCAK256 PUSH0 SWAP1 SLOAD SWAP1 PUSH2 0x100 EXP SWAP1 DIV PUSH1 0xFF AND PUSH2 0x55A JUMPI PUSH1 0x40 MLOAD PUSH32 0x8C379A000000000000000000000000000000000000000000000000000000000 DUP2 MSTORE PUSH1 0x4 ADD PUSH2 0x551 SWAP1 PUSH2 0x37F1 JUMP JUMPDEST PUSH1 0x40 MLOAD DUP1 SWAP2 SUB SWAP1 REVERT JUMPDEST PUSH0 PUSH1 0x1 DUP10 PUSH1 0x40 MLOAD PUSH2 0x56B SWAP2 SWAP1 PUSH2 0x3791 JUMP JUMPDEST SWAP1 DUP2 MSTORE PUSH1 0x20 ADD PUSH1 0x40 MLOAD DUP1 SWAP2 SUB SWAP1 KECCAK256 SWAP1 POP DUP1 PUSH1 0x1 ADD DUP2 PUSH1 0x2 ADD DUP3 PUSH1 0x3 ADD DUP4 PUSH1 0x4 ADD PUSH0 SWAP1 SLOAD SWAP1 PUSH2 0x100 EXP SWAP1 DIV PUSH1 0xFF AND DUP5 PUSH1 0x4 ADD PUSH1 0x1 SWAP1 SLOAD SWAP1 PUSH2 0x100 EXP SWAP1 DIV PUSH20 0xFFFFFFFFFFFFFFFFFFFFFFFFFFFFFFFFFFFFFFFF AND PUSH1 0x5 DUP15 PUSH1 0x40 MLOAD PUSH2 0x5CD SWAP2 SWAP1 PUSH2 0x3791 JUMP JUMPDEST SWAP1 DUP2 MSTORE PUSH1 0x20 ADD PUSH1 0x40 MLOAD DUP1 SWAP2 SUB SWAP1 KECCAK256 DUP6 DUP1 SLOAD PUSH2 0x5E7 SWAP1 PUSH2 0x383C JUMP JUMPDEST DUP1 PUSH1 0x1F ADD PUSH1 0x20 DUP1 SWAP2 DIV MUL PUSH1 0x20 ADD PUSH1 0x40 MLOAD SWAP1 DUP2 ADD PUSH1 0x40 MSTORE DUP1 SWAP3 SWAP2 SWAP1 DUP2 DUP2 MSTORE PUSH1 0x20 ADD DUP3 DUP1 SLOAD PUSH2 0x613 SWAP1 PUSH2 0x383C JUMP JUMPDEST DUP1 ISZERO PUSH2 0x65E JUMPI DUP1 PUSH1 0x1F LT PUSH2 0x635 JUMPI PUSH2 0x100 DUP1 DUP4 SLOAD DIV MUL DUP4 MSTORE SWAP2 PUSH1 0x20 ADD SWAP2 PUSH2 0x65E JUMP JUMPDEST DUP3 ADD SWAP2 SWAP1 PUSH0 MSTORE PUSH1 0x20 PUSH0 KECCAK256 SWAP1 JUMPDEST DUP2 SLOAD DUP2 MSTORE SWAP1 PUSH1 0x1 ADD SWAP1 PUSH1 0x20 ADD DUP1 DUP4 GT PUSH2 0x641 JUMPI DUP3 SWAP1 SUB PUSH1 0x1F AND DUP3 ADD SWAP2 JUMPDEST POP POP POP POP POP SWAP6 POP DUP5 DUP1 SLOAD PUSH2 0x671 SWAP1 PUSH2 0x383C JUMP JUMPDEST DUP1 PUSH1 0x1F ADD PUSH1 0x20 DUP1 SWAP2 DIV MUL PUSH1 0x20 ADD PUSH1 0x40 MLOAD SWAP1 DUP2 ADD PUSH1 0x40 MSTORE DUP1 SWAP3 SWAP2 SWAP1 DUP2 DUP2 MSTORE PUSH1 0x20 ADD DUP3 DUP1 SLOAD PUSH2 0x69D SWAP1 PUSH2 0x383C JUMP JUMPDEST DUP1 ISZERO PUSH2 0x6E8 JUMPI DUP1 PUSH1 0x1F LT PUSH2 0x6BF JUMPI PUSH2 0x100 DUP1 DUP4 SLOAD DIV MUL DUP4 MSTORE SWAP2 PUSH1 0x20 ADD SWAP2 PUSH2 0x6E8 JUMP JUMPDEST DUP3 ADD SWAP2 SWAP1 PUSH0 MSTORE PUSH1 0x20 PUSH0 KECCAK256 SWAP1 JUMPDEST DUP2 SLOAD DUP2 MSTORE SWAP1 PUSH1 0x1 ADD SWAP1 PUSH1 0x20 ADD DUP1 DUP4 GT PUSH2 0x6CB JUMPI DUP3 SWAP1 SUB PUSH1 0x1F AND DUP3 ADD SWAP2 JUMPDEST POP POP POP POP POP SWAP5 POP DUP4 DUP1 SLOAD PUSH2 0x6FB SWAP1 PUSH2 0x383C JUMP JUMPDEST DUP1 PUSH1 0x1F ADD PUSH1 0x20 DUP1 SWAP2 DIV MUL PUSH1 0x20 ADD PUSH1 0x40 MLOAD SWAP1 DUP2 ADD PUSH1 0x40 MSTORE DUP1 SWAP3 SWAP2 SWAP1 DUP2 DUP2 MSTORE PUSH1 0x20 ADD DUP3 DUP1 SLOAD PUSH2 0x727 SWAP1 PUSH2 0x383C JUMP JUMPDEST DUP1 ISZERO PUSH2 0x772 JUMPI DUP1 PUSH1 0x1F LT PUSH2 0x749 JUMPI PUSH2 0x100 DUP1 DUP4 SLOAD DIV MUL DUP4 MSTORE SWAP2 PUSH1 0x20 ADD SWAP2 PUSH2 0x772 JUMP JUMPDEST DUP3 ADD SWAP2 SWAP1 PUSH0 MSTORE PUSH1 0x20 PUSH0 KECCAK256 SWAP1 JUMPDEST DUP2 SLOAD DUP2 MSTORE SWAP1 PUSH1 0x1 ADD SWAP1 PUSH1 0x20 ADD DUP1 DUP4 GT PUSH2 0x755 JUMPI DUP3 SWAP1 SUB PUSH1 0x1F AND DUP3 ADD SWAP2 JUMPDEST POP POP POP POP POP SWAP4 POP DUP1 DUP1 SLOAD PUSH2 0x785 SWAP1 PUSH2 0x383C JUMP JUMPDEST DUP1 PUSH1 0x1F ADD PUSH1 0x20 DUP1 SWAP2 DIV MUL PUSH1 0x20 ADD PUSH1 0x40 MLOAD SWAP1 DUP2 ADD PUSH1 0x40 MSTORE DUP1 SWAP3 SWAP2 SWAP1 DUP2 DUP2 MSTORE PUSH1 0x20 ADD DUP3 DUP1 SLOAD PUSH2 0x7B1 SWAP1 PUSH2 0x383C JUMP JUMPDEST DUP1 ISZERO PUSH2 0x7FC JUMPI DUP1 PUSH1 0x1F LT PUSH2 0x7D3 JUMPI PUSH2 0x100 DUP1 DUP4 SLOAD DIV MUL DUP4 MSTORE SWAP2 PUSH1 0x20 ADD SWAP2 PUSH2 0x7FC JUMP JUMPDEST DUP3 ADD SWAP2 SWAP1 PUSH0 MSTORE PUSH1 0x20 PUSH0 KECCAK256 SWAP1 JUMPDEST DUP2 SLOAD DUP2 MSTORE SWAP1 PUSH1 0x1 ADD SWAP1 PUSH1 0x20 ADD DUP1 DUP4 GT PUSH2 0x7DF JUMPI DUP3 SWAP1 SUB PUSH1 0x1F AND DUP3 ADD SWAP2 JUMPDEST POP POP POP POP POP SWAP1 POP SWAP8 POP SWAP8 POP SWAP8 POP SWAP8 POP SWAP8 POP SWAP8 POP POP POP SWAP2 SWAP4 SWAP6 POP SWAP2 SWAP4 SWAP6 JUMP JUMPDEST DUP3 PUSH1 0x2 DUP2 PUSH1 0x40 MLOAD PUSH2 0x82B SWAP2 SWAP1 PUSH2 0x3791 JUMP JUMPDEST SWAP1 DUP2 MSTORE PUSH1 0x20 ADD PUSH1 0x40 MLOAD DUP1 SWAP2 SUB SWAP1 KECCAK256 PUSH0 SWAP1 SLOAD SWAP1 PUSH2 0x100 EXP SWAP1 DIV PUSH1 0xFF AND PUSH2 0x885 JUMPI PUSH1 0x40 MLOAD PUSH32 0x8C379A000000000000000000000000000000000000000000000000000000000 DUP2 MSTORE PUSH1 0x4 ADD PUSH2 0x87C SWAP1 PUSH2 0x37F1 JUMP JUMPDEST PUSH1 0x40 MLOAD DUP1 SWAP2 SUB SWAP1 REVERT JUMPDEST PUSH0 PUSH0 SWAP1 SLOAD SWAP1 PUSH2 0x100 EXP SWAP1 DIV PUSH20 0xFFFFFFFFFFFFFFFFFFFFFFFFFFFFFFFFFFFFFFFF AND PUSH20 0xFFFFFFFFFFFFFFFFFFFFFFFFFFFFFFFFFFFFFFFF AND CALLER PUSH20 0xFFFFFFFFFFFFFFFFFFFFFFFFFFFFFFFFFFFFFFFF AND EQ DUP1 PUSH2 0x94C JUMPI POP PUSH1 0x3 PUSH1 0x4 DUP2 GT ISZERO PUSH2 0x8EE JUMPI PUSH2 0x8ED PUSH2 0x2F10 JUMP JUMPDEST JUMPDEST PUSH1 0x3 PUSH0 CALLER PUSH20 0xFFFFFFFFFFFFFFFFFFFFFFFFFFFFFFFFFFFFFFFF AND PUSH20 0xFFFFFFFFFFFFFFFFFFFFFFFFFFFFFFFFFFFFFFFF AND DUP2 MSTORE PUSH1 0x20 ADD SWAP1 DUP2 MSTORE PUSH1 0x20 ADD PUSH0 KECCAK256 PUSH0 SWAP1 SLOAD SWAP1 PUSH2 0x100 EXP SWAP1 DIV PUSH1 0xFF AND PUSH1 0x4 DUP2 GT ISZERO PUSH2 0x94A JUMPI PUSH2 0x949 PUSH2 0x2F10 JUMP JUMPDEST JUMPDEST EQ JUMPDEST PUSH2 0x98B JUMPI PUSH1 0x40 MLOAD PUSH32 0x8C379A000000000000000000000000000000000000000000000000000000000 DUP2 MSTORE PUSH1 0x4 ADD PUSH2 0x982 SWAP1 PUSH2 0x38DC JUMP JUMPDEST PUSH1 0x40 MLOAD DUP1 SWAP2 SUB SWAP1 REVERT JUMPDEST PUSH1 0x1 DUP5 PUSH1 0x40 MLOAD PUSH2 0x99B SWAP2 SWAP1 PUSH2 0x3791 JUMP JUMPDEST SWAP1 DUP2 MSTORE PUSH1 0x20 ADD PUSH1 0x40 MLOAD DUP1 SWAP2 SUB SWAP1 KECCAK256 PUSH1 0x5 ADD PUSH1 0x40 MLOAD DUP1 PUSH1 0x60 ADD PUSH1 0x40 MSTORE DUP1 DUP6 DUP2 MSTORE PUSH1 0x20 ADD DUP5 DUP2 MSTORE PUSH1 0x20 ADD TIMESTAMP DUP2 MSTORE POP SWAP1 DUP1 PUSH1 0x1 DUP2 SLOAD ADD DUP1 DUP3 SSTORE DUP1 SWAP2 POP POP PUSH1 0x1 SWAP1 SUB SWAP1 PUSH0 MSTORE PUSH1 0x20 PUSH0 KECCAK256 SWAP1 PUSH1 0x3 MUL ADD PUSH0 SWAP1 SWAP2 SWAP1 SWAP2 SWAP1 SWAP2 POP PUSH0 DUP3 ADD MLOAD DUP2 PUSH0 ADD SSTORE PUSH1 0x20 DUP3 ADD MLOAD DUP2 PUSH1 0x1 ADD SWAP1 DUP2 PUSH2 0xA0A SWAP2 SWAP1 PUSH2 0x3A9A JUMP JUMPDEST POP PUSH1 0x40 DUP3 ADD MLOAD DUP2 PUSH1 0x2 ADD SSTORE POP POP DUP4 PUSH1 0x40 MLOAD PUSH2 0xA25 SWAP2 SWAP1 PUSH2 0x3791 JUMP JUMPDEST PUSH1 0x40 MLOAD DUP1 SWAP2 SUB SWAP1 KECCAK256 PUSH32 0x684479D30F778D7227907B06C6D91844ADA06C36AD099D3E79DEF4DDDC42E310 DUP5 DUP5 PUSH1 0x40 MLOAD PUSH2 0xA5E SWAP3 SWAP2 SWAP1 PUSH2 0x3B69 JUMP JUMPDEST PUSH1 0x40 MLOAD DUP1 SWAP2 SUB SWAP1 LOG2 POP POP POP POP JUMP JUMPDEST PUSH0 DUP3 PUSH1 0x2 DUP2 PUSH1 0x40 MLOAD PUSH2 0xA7E SWAP2 SWAP1 PUSH2 0x3791 JUMP JUMPDEST SWAP1 DUP2 MSTORE PUSH1 0x20 ADD PUSH1 0x40 MLOAD DUP1 SWAP2 SUB SWAP1 KECCAK256 PUSH0 SWAP1 SLOAD SWAP1 PUSH2 0x100 EXP SWAP1 DIV PUSH1 0xFF AND PUSH2 0xAD8 JUMPI PUSH1 0x40 MLOAD PUSH32 0x8C379A000000000000000000000000000000000000000000000000000000000 DUP2 MSTORE PUSH1 0x4 ADD PUSH2 0xACF SWAP1 PUSH2 0x37F1 JUMP JUMPDEST PUSH1 0x40 MLOAD DUP1 SWAP2 SUB SWAP1 REVERT JUMPDEST PUSH1 0x6 DUP5 PUSH1 0x40 MLOAD PUSH2 0xAE8 SWAP2 SWAP1 PUSH2 0x3791 JUMP JUMPDEST SWAP1 DUP2 MSTORE PUSH1 0x20 ADD PUSH1 0x40 MLOAD DUP1 SWAP2 SUB SWAP1 KECCAK256 DUP4 PUSH1 0x40 MLOAD PUSH2 0xB04 SWAP2 SWAP1 PUSH2 0x3791 JUMP JUMPDEST SWAP1 DUP2 MSTORE PUSH1 0x20 ADD PUSH1 0x40 MLOAD DUP1 SWAP2 SUB SWAP1 KECCAK256 PUSH0 SWAP1 SLOAD SWAP1 PUSH2 0x100 EXP SWAP1 DIV PUSH1 0xFF AND SWAP2 POP POP SWAP3 SWAP2 POP POP JUMP JUMPDEST DUP2 PUSH1 0x2 DUP2 PUSH1 0x40 MLOAD PUSH2 0xB39 SWAP2 SWAP1 PUSH2 0x3791 JUMP JUMPDEST SWAP1 DUP2 MSTORE PUSH1 0x20 ADD PUSH1 0x40 MLOAD DUP1 SWAP2 SUB SWAP1 KECCAK256 PUSH0 SWAP1 SLOAD SWAP1 PUSH2 0x100 EXP SWAP1 DIV PUSH1 0xFF AND PUSH2 0xB93 JUMPI PUSH1 0x40 MLOAD PUSH32 0x8C379A000000000000000000000000000000000000000000000000000000000 DUP2 MSTORE PUSH1 0x4 ADD PUSH2 0xB8A SWAP1 PUSH2 0x37F1 JUMP JUMPDEST PUSH1 0x40 MLOAD DUP1 SWAP2 SUB SWAP1 REVERT JUMPDEST PUSH0 PUSH1 0x1 DUP5 PUSH1 0x40 MLOAD PUSH2 0xBA4 SWAP2 SWAP1 PUSH2 0x3791 JUMP JUMPDEST SWAP1 DUP2 MSTORE PUSH1 0x20 ADD PUSH1 0x40 MLOAD DUP1 SWAP2 SUB SWAP1 KECCAK256 SWAP1 POP DUP1 PUSH1 0x4 ADD PUSH0 SWAP1 SLOAD SWAP1 PUSH2 0x100 EXP SWAP1 DIV PUSH1 0xFF AND PUSH1 0x5 DUP2 GT ISZERO PUSH2 0xBD7 JUMPI PUSH2 0xBD6 PUSH2 0x2F10 JUMP JUMPDEST JUMPDEST DUP4 PUSH1 0x5 DUP2 GT ISZERO PUSH2 0xBEA JUMPI PUSH2 0xBE9 PUSH2 0x2F10 JUMP JUMPDEST JUMPDEST GT PUSH2 0xC2A JUMPI PUSH1 0x40 MLOAD PUSH32 0x8C379A000000000000000000000000000000000000000000000000000000000 DUP2 MSTORE PUSH1 0x4 ADD PUSH2 0xC21 SWAP1 PUSH2 0x3C07 JUMP JUMPDEST PUSH1 0x40 MLOAD DUP1 SWAP2 SUB SWAP1 REVERT JUMPDEST PUSH1 0x1 PUSH1 0x5 DUP2 GT ISZERO PUSH2 0xC3E JUMPI PUSH2 0xC3D PUSH2 0x2F10 JUMP JUMPDEST JUMPDEST DUP4 PUSH1 0x5 DUP2 GT ISZERO PUSH2 0xC51 JUMPI PUSH2 0xC50 PUSH2 0x2F10 JUMP JUMPDEST JUMPDEST SUB PUSH2 0xD0B JUMPI PUSH1 0x1 PUSH1 0x4 DUP2 GT ISZERO PUSH2 0xC6A JUMPI PUSH2 0xC69 PUSH2 0x2F10 JUMP JUMPDEST JUMPDEST PUSH1 0x3 PUSH0 CALLER PUSH20 0xFFFFFFFFFFFFFFFFFFFFFFFFFFFFFFFFFFFFFFFF AND PUSH20 0xFFFFFFFFFFFFFFFFFFFFFFFFFFFFFFFFFFFFFFFF AND DUP2 MSTORE PUSH1 0x20 ADD SWAP1 DUP2 MSTORE PUSH1 0x20 ADD PUSH0 KECCAK256 PUSH0 SWAP1 SLOAD SWAP1 PUSH2 0x100 EXP SWAP1 DIV PUSH1 0xFF AND PUSH1 0x4 DUP2 GT ISZERO PUSH2 0xCC6 JUMPI PUSH2 0xCC5 PUSH2 0x2F10 JUMP JUMPDEST JUMPDEST EQ PUSH2 0xD06 JUMPI PUSH1 0x40 MLOAD PUSH32 0x8C379A000000000000000000000000000000000000000000000000000000000 DUP2 MSTORE PUSH1 0x4 ADD PUSH2 0xCFD SWAP1 PUSH2 0x3C6F JUMP JUMPDEST PUSH1 0x40 MLOAD DUP1 SWAP2 SUB SWAP1 REVERT JUMPDEST PUSH2 0x1121 JUMP JUMPDEST PUSH1 0x2 PUSH1 0x5 DUP2 GT ISZERO PUSH2 0xD1F JUMPI PUSH2 0xD1E PUSH2 0x2F10 JUMP JUMPDEST JUMPDEST DUP4 PUSH1 0x5 DUP2 GT ISZERO PUSH2 0xD32 JUMPI PUSH2 0xD31 PUSH2 0x2F10 JUMP JUMPDEST JUMPDEST SUB PUSH2 0xDEC JUMPI PUSH1 0x2 PUSH1 0x4 DUP2 GT ISZERO PUSH2 0xD4B JUMPI PUSH2 0xD4A PUSH2 0x2F10 JUMP JUMPDEST JUMPDEST PUSH1 0x3 PUSH0 CALLER PUSH20 0xFFFFFFFFFFFFFFFFFFFFFFFFFFFFFFFFFFFFFFFF AND PUSH20 0xFFFFFFFFFFFFFFFFFFFFFFFFFFFFFFFFFFFFFFFF AND DUP2 MSTORE PUSH1 0x20 ADD SWAP1 DUP2 MSTORE PUSH1 0x20 ADD PUSH0 KECCAK256 PUSH0 SWAP1 SLOAD SWAP1 PUSH2 0x100 EXP SWAP1 DIV PUSH1 0xFF AND PUSH1 0x4 DUP2 GT ISZERO PUSH2 0xDA7 JUMPI PUSH2 0xDA6 PUSH2 0x2F10 JUMP JUMPDEST JUMPDEST EQ PUSH2 0xDE7 JUMPI PUSH1 0x40 MLOAD PUSH32 0x8C379A000000000000000000000000000000000000000000000000000000000 DUP2 MSTORE PUSH1 0x4 ADD PUSH2 0xDDE SWAP1 PUSH2 0x3CD7 JUMP JUMPDEST PUSH1 0x40 MLOAD DUP1 SWAP2 SUB SWAP1 REVERT JUMPDEST PUSH2 0x1120 JUMP JUMPDEST PUSH1 0x3 PUSH1 0x5 DUP2 GT ISZERO PUSH2 0xE00 JUMPI PUSH2 0xDFF PUSH2 0x2F10 JUMP JUMPDEST JUMPDEST DUP4 PUSH1 0x5 DUP2 GT ISZERO PUSH2 0xE13 JUMPI PUSH2 0xE12 PUSH2 0x2F10 JUMP JUMPDEST JUMPDEST SUB PUSH2 0xECD JUMPI PUSH1 0x3 PUSH1 0x4 DUP2 GT ISZERO PUSH2 0xE2C JUMPI PUSH2 0xE2B PUSH2 0x2F10 JUMP JUMPDEST JUMPDEST PUSH1 0x3 PUSH0 CALLER PUSH20 0xFFFFFFFFFFFFFFFFFFFFFFFFFFFFFFFFFFFFFFFF AND PUSH20 0xFFFFFFFFFFFFFFFFFFFFFFFFFFFFFFFFFFFFFFFF AND DUP2 MSTORE PUSH1 0x20 ADD SWAP1 DUP2 MSTORE PUSH1 0x20 ADD PUSH0 KECCAK256 PUSH0 SWAP1 SLOAD SWAP1 PUSH2 0x100 EXP SWAP1 DIV PUSH1 0xFF AND PUSH1 0x4 DUP2 GT ISZERO PUSH2 0xE88 JUMPI PUSH2 0xE87 PUSH2 0x2F10 JUMP JUMPDEST JUMPDEST EQ PUSH2 0xEC8 JUMPI PUSH1 0x40 MLOAD PUSH32 0x8C379A000000000000000000000000000000000000000000000000000000000 DUP2 MSTORE PUSH1 0x4 ADD PUSH2 0xEBF SWAP1 PUSH2 0x3D3F JUMP JUMPDEST PUSH1 0x40 MLOAD DUP1 SWAP2 SUB SWAP1 REVERT JUMPDEST PUSH2 0x111F JUMP JUMPDEST PUSH1 0x4 PUSH1 0x5 DUP2 GT ISZERO PUSH2 0xEE1 JUMPI PUSH2 0xEE0 PUSH2 0x2F10 JUMP JUMPDEST JUMPDEST DUP4 PUSH1 0x5 DUP2 GT ISZERO PUSH2 0xEF4 JUMPI PUSH2 0xEF3 PUSH2 0x2F10 JUMP JUMPDEST JUMPDEST SUB PUSH2 0xFAD JUMPI PUSH1 0x4 DUP1 DUP2 GT ISZERO PUSH2 0xF0C JUMPI PUSH2 0xF0B PUSH2 0x2F10 JUMP JUMPDEST JUMPDEST PUSH1 0x3 PUSH0 CALLER PUSH20 0xFFFFFFFFFFFFFFFFFFFFFFFFFFFFFFFFFFFFFFFF AND PUSH20 0xFFFFFFFFFFFFFFFFFFFFFFFFFFFFFFFFFFFFFFFF AND DUP2 MSTORE PUSH1 0x20 ADD SWAP1 DUP2 MSTORE PUSH1 0x20 ADD PUSH0 KECCAK256 PUSH0 SWAP1 SLOAD SWAP1 PUSH2 0x100 EXP SWAP1 DIV PUSH1 0xFF AND PUSH1 0x4 DUP2 GT ISZERO PUSH2 0xF68 JUMPI PUSH2 0xF67 PUSH2 0x2F10 JUMP JUMPDEST JUMPDEST EQ PUSH2 0xFA8 JUMPI PUSH1 0x40 MLOAD PUSH32 0x8C379A000000000000000000000000000000000000000000000000000000000 DUP2 MSTORE PUSH1 0x4 ADD PUSH2 0xF9F SWAP1 PUSH2 0x3DA7 JUMP JUMPDEST PUSH1 0x40 MLOAD DUP1 SWAP2 SUB SWAP1 REVERT JUMPDEST PUSH2 0x111E JUMP JUMPDEST PUSH1 0x5 DUP1 DUP2 GT ISZERO PUSH2 0xFC0 JUMPI PUSH2 0xFBF PUSH2 0x2F10 JUMP JUMPDEST JUMPDEST DUP4 PUSH1 0x5 DUP2 GT ISZERO PUSH2 0xFD3 JUMPI PUSH2 0xFD2 PUSH2 0x2F10 JUMP JUMPDEST JUMPDEST SUB PUSH2 0x10E2 JUMPI PUSH0 PUSH0 SWAP1 SLOAD SWAP1 PUSH2 0x100 EXP SWAP1 DIV PUSH20 0xFFFFFFFFFFFFFFFFFFFFFFFFFFFFFFFFFFFFFFFF AND PUSH20 0xFFFFFFFFFFFFFFFFFFFFFFFFFFFFFFFFFFFFFFFF AND CALLER PUSH20 0xFFFFFFFFFFFFFFFFFFFFFFFFFFFFFFFFFFFFFFFF AND EQ DUP1 PUSH2 0x109E JUMPI POP PUSH1 0x4 DUP1 DUP2 GT ISZERO PUSH2 0x1040 JUMPI PUSH2 0x103F PUSH2 0x2F10 JUMP JUMPDEST JUMPDEST PUSH1 0x3 PUSH0 CALLER PUSH20 0xFFFFFFFFFFFFFFFFFFFFFFFFFFFFFFFFFFFFFFFF AND PUSH20 0xFFFFFFFFFFFFFFFFFFFFFFFFFFFFFFFFFFFFFFFF AND DUP2 MSTORE PUSH1 0x20 ADD SWAP1 DUP2 MSTORE PUSH1 0x20 ADD PUSH0 KECCAK256 PUSH0 SWAP1 SLOAD SWAP1 PUSH2 0x100 EXP SWAP1 DIV PUSH1 0xFF AND PUSH1 0x4 DUP2 GT ISZERO PUSH2 0x109C JUMPI PUSH2 0x109B PUSH2 0x2F10 JUMP JUMPDEST JUMPDEST EQ JUMPDEST PUSH2 0x10DD JUMPI PUSH1 0x40 MLOAD PUSH32 0x8C379A000000000000000000000000000000000000000000000000000000000 DUP2 MSTORE PUSH1 0x4 ADD PUSH2 0x10D4 SWAP1 PUSH2 0x3E35 JUMP JUMPDEST PUSH1 0x40 MLOAD DUP1 SWAP2 SUB SWAP1 REVERT JUMPDEST PUSH2 0x111D JUMP JUMPDEST PUSH1 0x40 MLOAD PUSH32 0x8C379A000000000000000000000000000000000000000000000000000000000 DUP2 MSTORE PUSH1 0x4 ADD PUSH2 0x1114 SWAP1 PUSH2 0x3E9D JUMP JUMPDEST PUSH1 0x40 MLOAD DUP1 SWAP2 SUB SWAP1 REVERT JUMPDEST JUMPDEST JUMPDEST JUMPDEST JUMPDEST DUP3 DUP2 PUSH1 0x4 ADD PUSH0 PUSH2 0x100 EXP DUP2 SLOAD DUP2 PUSH1 0xFF MUL NOT AND SWAP1 DUP4 PUSH1 0x5 DUP2 GT ISZERO PUSH2 0x1147 JUMPI PUSH2 0x1146 PUSH2 0x2F10 JUMP JUMPDEST JUMPDEST MUL OR SWAP1 SSTORE POP CALLER DUP2 PUSH1 0x4 ADD PUSH1 0x1 PUSH2 0x100 EXP DUP2 SLOAD DUP2 PUSH20 0xFFFFFFFFFFFFFFFFFFFFFFFFFFFFFFFFFFFFFFFF MUL NOT AND SWAP1 DUP4 PUSH20 0xFFFFFFFFFFFFFFFFFFFFFFFFFFFFFFFFFFFFFFFF AND MUL OR SWAP1 SSTORE POP DUP4 PUSH1 0x40 MLOAD PUSH2 0x119D SWAP2 SWAP1 PUSH2 0x3791 JUMP JUMPDEST PUSH1 0x40 MLOAD DUP1 SWAP2 SUB SWAP1 KECCAK256 PUSH32 0x9EABD3215B4E6FAD51A44EB557FBB8224E77209A699C1E273F0D45E3849C1C2B DUP5 CALLER PUSH1 0x40 MLOAD PUSH2 0x11D6 SWAP3 SWAP2 SWAP1 PUSH2 0x3EBB JUMP JUMPDEST PUSH1 0x40 MLOAD DUP1 SWAP2 SUB SWAP1 LOG2 PUSH1 0x4 PUSH1 0x5 DUP2 GT ISZERO PUSH2 0x11F2 JUMPI PUSH2 0x11F1 PUSH2 0x2F10 JUMP JUMPDEST JUMPDEST DUP4 PUSH1 0x5 DUP2 GT ISZERO PUSH2 0x1205 JUMPI PUSH2 0x1204 PUSH2 0x2F10 JUMP JUMPDEST JUMPDEST SUB PUSH2 0x1361 JUMPI PUSH2 0x12D3 DUP2 PUSH1 0x3 ADD DUP1 SLOAD PUSH2 0x121C SWAP1 PUSH2 0x383C JUMP JUMPDEST DUP1 PUSH1 0x1F ADD PUSH1 0x20 DUP1 SWAP2 DIV MUL PUSH1 0x20 ADD PUSH1 0x40 MLOAD SWAP1 DUP2 ADD PUSH1 0x40 MSTORE DUP1 SWAP3 SWAP2 SWAP1 DUP2 DUP2 MSTORE PUSH1 0x20 ADD DUP3 DUP1 SLOAD PUSH2 0x1248 SWAP1 PUSH2 0x383C JUMP JUMPDEST DUP1 ISZERO PUSH2 0x1293 JUMPI DUP1 PUSH1 0x1F LT PUSH2 0x126A JUMPI PUSH2 0x100 DUP1 DUP4 SLOAD DIV MUL DUP4 MSTORE SWAP2 PUSH1 0x20 ADD SWAP2 PUSH2 0x1293 JUMP JUMPDEST DUP3 ADD SWAP2 SWAP1 PUSH0 MSTORE PUSH1 0x20 PUSH0 KECCAK256 SWAP1 JUMPDEST DUP2 SLOAD DUP2 MSTORE SWAP1 PUSH1 0x1 ADD SWAP1 PUSH1 0x20 ADD DUP1 DUP4 GT PUSH2 0x1276 JUMPI DUP3 SWAP1 SUB PUSH1 0x1F AND DUP3 ADD SWAP2 JUMPDEST POP POP POP POP POP PUSH1 0x40 MLOAD DUP1 PUSH1 0x40 ADD PUSH1 0x40 MSTORE DUP1 PUSH1 0xB DUP2 MSTORE PUSH1 0x20 ADD PUSH32 0x5375737461696E61626C65000000000000000000000000000000000000000000 DUP2 MSTORE POP PUSH2 0x2705 JUMP JUMPDEST DUP1 ISZERO PUSH2 0x131B JUMPI POP PUSH2 0x1319 DUP5 PUSH1 0x40 MLOAD DUP1 PUSH1 0x40 ADD PUSH1 0x40 MSTORE DUP1 PUSH1 0xB DUP2 MSTORE PUSH1 0x20 ADD PUSH32 0x5375737461696E61626C65000000000000000000000000000000000000000000 DUP2 MSTORE POP PUSH2 0x2828 JUMP JUMPDEST ISZERO JUMPDEST ISZERO PUSH2 0x1360 JUMPI PUSH2 0x135F DUP5 PUSH1 0x40 MLOAD DUP1 PUSH1 0x40 ADD PUSH1 0x40 MSTORE DUP1 PUSH1 0xB DUP2 MSTORE PUSH1 0x20 ADD PUSH32 0x5375737461696E61626C65000000000000000000000000000000000000000000 DUP2 MSTORE POP PUSH2 0x2878 JUMP JUMPDEST JUMPDEST JUMPDEST POP POP POP POP JUMP JUMPDEST PUSH0 PUSH0 SWAP1 SLOAD SWAP1 PUSH2 0x100 EXP SWAP1 DIV PUSH20 0xFFFFFFFFFFFFFFFFFFFFFFFFFFFFFFFFFFFFFFFF AND PUSH20 0xFFFFFFFFFFFFFFFFFFFFFFFFFFFFFFFFFFFFFFFF AND CALLER PUSH20 0xFFFFFFFFFFFFFFFFFFFFFFFFFFFFFFFFFFFFFFFF AND EQ PUSH2 0x13F5 JUMPI PUSH1 0x40 MLOAD PUSH32 0x8C379A000000000000000000000000000000000000000000000000000000000 DUP2 MSTORE PUSH1 0x4 ADD PUSH2 0x13EC SWAP1 PUSH2 0x3F2C JUMP JUMPDEST PUSH1 0x40 MLOAD DUP1 SWAP2 SUB SWAP1 REVERT JUMPDEST DUP1 PUSH1 0x3 PUSH0 DUP5 PUSH20 0xFFFFFFFFFFFFFFFFFFFFFFFFFFFFFFFFFFFFFFFF AND PUSH20 0xFFFFFFFFFFFFFFFFFFFFFFFFFFFFFFFFFFFFFFFF AND DUP2 MSTORE PUSH1 0x20 ADD SWAP1 DUP2 MSTORE PUSH1 0x20 ADD PUSH0 KECCAK256 PUSH0 PUSH2 0x100 EXP DUP2 SLOAD DUP2 PUSH1 0xFF MUL NOT AND SWAP1 DUP4 PUSH1 0x4 DUP2 GT ISZERO PUSH2 0x1454 JUMPI PUSH2 0x1453 PUSH2 0x2F10 JUMP JUMPDEST JUMPDEST MUL OR SWAP1 SSTORE POP DUP2 PUSH20 0xFFFFFFFFFFFFFFFFFFFFFFFFFFFFFFFFFFFFFFFF AND PUSH32 0x4AC36FA53F167CEB85964BE512E01DE2A3B8BDB9862F917DA079DEEEFF689B38 DUP3 PUSH1 0x40 MLOAD PUSH2 0x149F SWAP2 SWAP1 PUSH2 0x35C8 JUMP JUMPDEST PUSH1 0x40 MLOAD DUP1 SWAP2 SUB SWAP1 LOG2 POP POP JUMP JUMPDEST DUP2 PUSH1 0x2 DUP2 PUSH1 0x40 MLOAD PUSH2 0x14BC SWAP2 SWAP1 PUSH2 0x3791 JUMP JUMPDEST SWAP1 DUP2 MSTORE PUSH1 0x20 ADD PUSH1 0x40 MLOAD DUP1 SWAP2 SUB SWAP1 KECCAK256 PUSH0 SWAP1 SLOAD SWAP1 PUSH2 0x100 EXP SWAP1 DIV PUSH1 0xFF AND PUSH2 0x1516 JUMPI PUSH1 0x40 MLOAD PUSH32 0x8C379A000000000000000000000000000000000000000000000000000000000 DUP2 MSTORE PUSH1 0x4 ADD PUSH2 0x150D SWAP1 PUSH2 0x37F1 JUMP JUMPDEST PUSH1 0x40 MLOAD DUP1 SWAP2 SUB SWAP1 REVERT JUMPDEST PUSH0 PUSH1 0x1 DUP5 PUSH1 0x40 MLOAD PUSH2 0x1527 SWAP2 SWAP1 PUSH2 0x3791 JUMP JUMPDEST SWAP1 DUP2 MSTORE PUSH1 0x20 ADD PUSH1 0x40 MLOAD DUP1 SWAP2 SUB SWAP1 KECCAK256 SWAP1 POP PUSH0 PUSH0 SWAP1 SLOAD SWAP1 PUSH2 0x100 EXP SWAP1 DIV PUSH20 0xFFFFFFFFFFFFFFFFFFFFFFFFFFFFFFFFFFFFFFFF AND PUSH20 0xFFFFFFFFFFFFFFFFFFFFFFFFFFFFFFFFFFFFFFFF AND CALLER PUSH20 0xFFFFFFFFFFFFFFFFFFFFFFFFFFFFFFFFFFFFFFFF AND EQ DUP1 PUSH2 0x15E0 JUMPI POP DUP1 PUSH1 0x4 ADD PUSH1 0x1 SWAP1 SLOAD SWAP1 PUSH2 0x100 EXP SWAP1 DIV PUSH20 0xFFFFFFFFFFFFFFFFFFFFFFFFFFFFFFFFFFFFFFFF AND PUSH20 0xFFFFFFFFFFFFFFFFFFFFFFFFFFFFFFFFFFFFFFFF AND CALLER PUSH20 0xFFFFFFFFFFFFFFFFFFFFFFFFFFFFFFFFFFFFFFFF AND EQ JUMPDEST PUSH2 0x161F JUMPI PUSH1 0x40 MLOAD PUSH32 0x8C379A000000000000000000000000000000000000000000000000000000000 DUP2 MSTORE PUSH1 0x4 ADD PUSH2 0x1616 SWAP1 PUSH2 0x3F94 JUMP JUMPDEST PUSH1 0x40 MLOAD DUP1 SWAP2 SUB SWAP1 REVERT JUMPDEST PUSH2 0x1629 DUP5 DUP5 PUSH2 0x2828 JUMP JUMPDEST ISZERO PUSH2 0x1669 JUMPI PUSH1 0x40 MLOAD PUSH32 0x8C379A000000000000000000000000000000000000000000000000000000000 DUP2 MSTORE PUSH1 0x4 ADD PUSH2 0x1660 SWAP1 PUSH2 0x3FFC JUMP JUMPDEST PUSH1 0x40 MLOAD DUP1 SWAP2 SUB SWAP1 REVERT JUMPDEST PUSH2 0x1673 DUP5 DUP5 PUSH2 0x2878 JUMP JUMPDEST POP POP POP POP JUMP JUMPDEST PUSH1 0x2 DUP5 PUSH1 0x40 MLOAD PUSH2 0x1689 SWAP2 SWAP1 PUSH2 0x3791 JUMP JUMPDEST SWAP1 DUP2 MSTORE PUSH1 0x20 ADD PUSH1 0x40 MLOAD DUP1 SWAP2 SUB SWAP1 KECCAK256 PUSH0 SWAP1 SLOAD SWAP1 PUSH2 0x100 EXP SWAP1 DIV PUSH1 0xFF AND ISZERO PUSH2 0x16E4 JUMPI PUSH1 0x40 MLOAD PUSH32 0x8C379A000000000000000000000000000000000000000000000000000000000 DUP2 MSTORE PUSH1 0x4 ADD PUSH2 0x16DB SWAP1 PUSH2 0x4064 JUMP JUMPDEST PUSH1 0x40 MLOAD DUP1 SWAP2 SUB SWAP1 REVERT JUMPDEST PUSH0 PUSH1 0x1 DUP6 PUSH1 0x40 MLOAD PUSH2 0x16F5 SWAP2 SWAP1 PUSH2 0x3791 JUMP JUMPDEST SWAP1 DUP2 MSTORE PUSH1 0x20 ADD PUSH1 0x40 MLOAD DUP1 SWAP2 SUB SWAP1 KECCAK256 SWAP1 POP DUP5 DUP2 PUSH0 ADD SWAP1 DUP2 PUSH2 0x1715 SWAP2 SWAP1 PUSH2 0x3A9A JUMP JUMPDEST POP DUP4 DUP2 PUSH1 0x1 ADD SWAP1 DUP2 PUSH2 0x1727 SWAP2 SWAP1 PUSH2 0x3A9A JUMP JUMPDEST POP DUP3 DUP2 PUSH1 0x2 ADD SWAP1 DUP2 PUSH2 0x1739 SWAP2 SWAP1 PUSH2 0x3A9A JUMP JUMPDEST POP DUP2 DUP2 PUSH1 0x3 ADD SWAP1 DUP2 PUSH2 0x174B SWAP2 SWAP1 PUSH2 0x3A9A JUMP JUMPDEST POP PUSH0 DUP2 PUSH1 0x4 ADD PUSH0 PUSH2 0x100 EXP DUP2 SLOAD DUP2 PUSH1 0xFF MUL NOT AND SWAP1 DUP4 PUSH1 0x5 DUP2 GT ISZERO PUSH2 0x1772 JUMPI PUSH2 0x1771 PUSH2 0x2F10 JUMP JUMPDEST JUMPDEST MUL OR SWAP1 SSTORE POP CALLER DUP2 PUSH1 0x4 ADD PUSH1 0x1 PUSH2 0x100 EXP DUP2 SLOAD DUP2 PUSH20 0xFFFFFFFFFFFFFFFFFFFFFFFFFFFFFFFFFFFFFFFF MUL NOT AND SWAP1 DUP4 PUSH20 0xFFFFFFFFFFFFFFFFFFFFFFFFFFFFFFFFFFFFFFFF AND MUL OR SWAP1 SSTORE POP PUSH1 0x1 DUP2 PUSH1 0x6 ADD PUSH0 PUSH2 0x100 EXP DUP2 SLOAD DUP2 PUSH1 0xFF MUL NOT AND SWAP1 DUP4 ISZERO ISZERO MUL OR SWAP1 SSTORE POP PUSH1 0x1 PUSH1 0x2 DUP7 PUSH1 0x40 MLOAD PUSH2 0x17E8 SWAP2 SWAP1 PUSH2 0x3791 JUMP JUMPDEST SWAP1 DUP2 MSTORE PUSH1 0x20 ADD PUSH1 0x40 MLOAD DUP1 SWAP2 SUB SWAP1 KECCAK256 PUSH0 PUSH2 0x100 EXP DUP2 SLOAD DUP2 PUSH1 0xFF MUL NOT AND SWAP1 DUP4 ISZERO ISZERO MUL OR SWAP1 SSTORE POP DUP5 PUSH1 0x40 MLOAD PUSH2 0x181A SWAP2 SWAP1 PUSH2 0x3791 JUMP JUMPDEST PUSH1 0x40 MLOAD DUP1 SWAP2 SUB SWAP1 KECCAK256 PUSH32 0x5A304478B5AD812924E60FB3EE7FADBB2269EFFA0DF0EDE39B00FC1C606EE0C0 DUP6 DUP6 PUSH1 0x40 MLOAD PUSH2 0x1853 SWAP3 SWAP2 SWAP1 PUSH2 0x4082 JUMP JUMPDEST PUSH1 0x40 MLOAD DUP1 SWAP2 SUB SWAP1 LOG2 POP POP POP POP POP JUMP JUMPDEST PUSH0 PUSH0 SWAP1 SLOAD SWAP1 PUSH2 0x100 EXP SWAP1 DIV PUSH20 0xFFFFFFFFFFFFFFFFFFFFFFFFFFFFFFFFFFFFFFFF AND DUP2 JUMP JUMPDEST PUSH1 0x60 DUP1 PUSH1 0x60 DUP4 PUSH1 0x2 DUP2 PUSH1 0x40 MLOAD PUSH2 0x189C SWAP2 SWAP1 PUSH2 0x3791 JUMP JUMPDEST SWAP1 DUP2 MSTORE PUSH1 0x20 ADD PUSH1 0x40 MLOAD DUP1 SWAP2 SUB SWAP1 KECCAK256 PUSH0 SWAP1 SLOAD SWAP1 PUSH2 0x100 EXP SWAP1 DIV PUSH1 0xFF AND PUSH2 0x18F6 JUMPI PUSH1 0x40 MLOAD PUSH32 0x8C379A000000000000000000000000000000000000000000000000000000000 DUP2 MSTORE PUSH1 0x4 ADD PUSH2 0x18ED SWAP1 PUSH2 0x37F1 JUMP JUMPDEST PUSH1 0x40 MLOAD DUP1 SWAP2 SUB SWAP1 REVERT JUMPDEST PUSH0 PUSH1 0x1 DUP7 PUSH1 0x40 MLOAD PUSH2 0x1907 SWAP2 SWAP1 PUSH2 0x3791 JUMP JUMPDEST SWAP1 DUP2 MSTORE PUSH1 0x20 ADD PUSH1 0x40 MLOAD DUP1 SWAP2 SUB SWAP1 KECCAK256 SWAP1 POP PUSH0 DUP2 PUSH1 0x5 ADD DUP1 SLOAD SWAP1 POP SWAP1 POP DUP1 PUSH8 0xFFFFFFFFFFFFFFFF DUP2 GT ISZERO PUSH2 0x193C JUMPI PUSH2 0x193B PUSH2 0x2C22 JUMP JUMPDEST JUMPDEST PUSH1 0x40 MLOAD SWAP1 DUP1 DUP3 MSTORE DUP1 PUSH1 0x20 MUL PUSH1 0x20 ADD DUP3 ADD PUSH1 0x40 MSTORE DUP1 ISZERO PUSH2 0x196A JUMPI DUP2 PUSH1 0x20 ADD PUSH1 0x20 DUP3 MUL DUP1 CALLDATASIZE DUP4 CALLDATACOPY DUP1 DUP3 ADD SWAP2 POP POP SWAP1 POP JUMPDEST POP SWAP6 POP DUP1 PUSH8 0xFFFFFFFFFFFFFFFF DUP2 GT ISZERO PUSH2 0x1987 JUMPI PUSH2 0x1986 PUSH2 0x2C22 JUMP JUMPDEST JUMPDEST PUSH1 0x40 MLOAD SWAP1 DUP1 DUP3 MSTORE DUP1 PUSH1 0x20 MUL PUSH1 0x20 ADD DUP3 ADD PUSH1 0x40 MSTORE DUP1 ISZERO PUSH2 0x19BA JUMPI DUP2 PUSH1 0x20 ADD JUMPDEST PUSH1 0x60 DUP2 MSTORE PUSH1 0x20 ADD SWAP1 PUSH1 0x1 SWAP1 SUB SWAP1 DUP2 PUSH2 0x19A5 JUMPI SWAP1 POP JUMPDEST POP SWAP5 POP DUP1 PUSH8 0xFFFFFFFFFFFFFFFF DUP2 GT ISZERO PUSH2 0x19D7 JUMPI PUSH2 0x19D6 PUSH2 0x2C22 JUMP JUMPDEST JUMPDEST PUSH1 0x40 MLOAD SWAP1 DUP1 DUP3 MSTORE DUP1 PUSH1 0x20 MUL PUSH1 0x20 ADD DUP3 ADD PUSH1 0x40 MSTORE DUP1 ISZERO PUSH2 0x1A05 JUMPI DUP2 PUSH1 0x20 ADD PUSH1 0x20 DUP3 MUL DUP1 CALLDATASIZE DUP4 CALLDATACOPY DUP1 DUP3 ADD SWAP2 POP POP SWAP1 POP JUMPDEST POP SWAP4 POP PUSH0 PUSH0 SWAP1 POP JUMPDEST DUP2 DUP2 LT ISZERO PUSH2 0x1B75 JUMPI DUP3 PUSH1 0x5 ADD DUP2 DUP2 SLOAD DUP2 LT PUSH2 0x1A2B JUMPI PUSH2 0x1A2A PUSH2 0x40B7 JUMP JUMPDEST JUMPDEST SWAP1 PUSH0 MSTORE PUSH1 0x20 PUSH0 KECCAK256 SWAP1 PUSH1 0x3 MUL ADD PUSH0 ADD SLOAD DUP8 DUP3 DUP2 MLOAD DUP2 LT PUSH2 0x1A4D JUMPI PUSH2 0x1A4C PUSH2 0x40B7 JUMP JUMPDEST JUMPDEST PUSH1 0x20 MUL PUSH1 0x20 ADD ADD DUP2 DUP2 MSTORE POP POP DUP3 PUSH1 0x5 ADD DUP2 DUP2 SLOAD DUP2 LT PUSH2 0x1A6F JUMPI PUSH2 0x1A6E PUSH2 0x40B7 JUMP JUMPDEST JUMPDEST SWAP1 PUSH0 MSTORE PUSH1 0x20 PUSH0 KECCAK256 SWAP1 PUSH1 0x3 MUL ADD PUSH1 0x1 ADD DUP1 SLOAD PUSH2 0x1A89 SWAP1 PUSH2 0x383C JUMP JUMPDEST DUP1 PUSH1 0x1F ADD PUSH1 0x20 DUP1 SWAP2 DIV MUL PUSH1 0x20 ADD PUSH1 0x40 MLOAD SWAP1 DUP2 ADD PUSH1 0x40 MSTORE DUP1 SWAP3 SWAP2 SWAP1 DUP2 DUP2 MSTORE PUSH1 0x20 ADD DUP3 DUP1 SLOAD PUSH2 0x1AB5 SWAP1 PUSH2 0x383C JUMP JUMPDEST DUP1 ISZERO PUSH2 0x1B00 JUMPI DUP1 PUSH1 0x1F LT PUSH2 0x1AD7 JUMPI PUSH2 0x100 DUP1 DUP4 SLOAD DIV MUL DUP4 MSTORE SWAP2 PUSH1 0x20 ADD SWAP2 PUSH2 0x1B00 JUMP JUMPDEST DUP3 ADD SWAP2 SWAP1 PUSH0 MSTORE PUSH1 0x20 PUSH0 KECCAK256 SWAP1 JUMPDEST DUP2 SLOAD DUP2 MSTORE SWAP1 PUSH1 0x1 ADD SWAP1 PUSH1 0x20 ADD DUP1 DUP4 GT PUSH2 0x1AE3 JUMPI DUP3 SWAP1 SUB PUSH1 0x1F AND DUP3 ADD SWAP2 JUMPDEST POP POP POP POP POP DUP7 DUP3 DUP2 MLOAD DUP2 LT PUSH2 0x1B18 JUMPI PUSH2 0x1B17 PUSH2 0x40B7 JUMP JUMPDEST JUMPDEST PUSH1 0x20 MUL PUSH1 0x20 ADD ADD DUP2 SWAP1 MSTORE POP DUP3 PUSH1 0x5 ADD DUP2 DUP2 SLOAD DUP2 LT PUSH2 0x1B39 JUMPI PUSH2 0x1B38 PUSH2 0x40B7 JUMP JUMPDEST JUMPDEST SWAP1 PUSH0 MSTORE PUSH1 0x20 PUSH0 KECCAK256 SWAP1 PUSH1 0x3 MUL ADD PUSH1 0x2 ADD SLOAD DUP6 DUP3 DUP2 MLOAD DUP2 LT PUSH2 0x1B5C JUMPI PUSH2 0x1B5B PUSH2 0x40B7 JUMP JUMPDEST JUMPDEST PUSH1 0x20 MUL PUSH1 0x20 ADD ADD DUP2 DUP2 MSTORE POP POP DUP1 DUP1 PUSH1 0x1 ADD SWAP2 POP POP PUSH2 0x1A0D JUMP JUMPDEST POP POP POP POP SWAP2 SWAP4 SWAP1 SWAP3 POP JUMP JUMPDEST PUSH1 0x3 PUSH1 0x20 MSTORE DUP1 PUSH0 MSTORE PUSH1 0x40 PUSH0 KECCAK256 PUSH0 SWAP2 POP SLOAD SWAP1 PUSH2 0x100 EXP SWAP1 DIV PUSH1 0xFF AND DUP2 JUMP JUMPDEST PUSH0 PUSH0 PUSH0 PUSH0 PUSH0 DUP6 PUSH1 0x2 DUP2 PUSH1 0x40 MLOAD PUSH2 0x1BB3 SWAP2 SWAP1 PUSH2 0x3791 JUMP JUMPDEST SWAP1 DUP2 MSTORE PUSH1 0x20 ADD PUSH1 0x40 MLOAD DUP1 SWAP2 SUB SWAP1 KECCAK256 PUSH0 SWAP1 SLOAD SWAP1 PUSH2 0x100 EXP SWAP1 DIV PUSH1 0xFF AND PUSH2 0x1C0D JUMPI PUSH1 0x40 MLOAD PUSH32 0x8C379A000000000000000000000000000000000000000000000000000000000 DUP2 MSTORE PUSH1 0x4 ADD PUSH2 0x1C04 SWAP1 PUSH2 0x37F1 JUMP JUMPDEST PUSH1 0x40 MLOAD DUP1 SWAP2 SUB SWAP1 REVERT JUMPDEST PUSH0 PUSH1 0x1 DUP9 PUSH1 0x40 MLOAD PUSH2 0x1C1E SWAP2 SWAP1 PUSH2 0x3791 JUMP JUMPDEST SWAP1 DUP2 MSTORE PUSH1 0x20 ADD PUSH1 0x40 MLOAD DUP1 SWAP2 SUB SWAP1 KECCAK256 SWAP1 POP PUSH0 DUP2 PUSH1 0x5 ADD DUP1 SLOAD SWAP1 POP SWAP1 POP PUSH0 DUP2 SUB PUSH2 0x1C5E JUMPI PUSH0 PUSH0 PUSH0 PUSH0 PUSH2 0x1C4D DUP14 PUSH2 0x2351 JUMP JUMPDEST SWAP8 POP SWAP8 POP SWAP8 POP SWAP8 POP SWAP8 POP POP POP PUSH2 0x1D4E JUMP JUMPDEST PUSH0 PUSH0 SWAP1 POP PUSH0 DUP4 PUSH1 0x5 ADD PUSH0 DUP2 SLOAD DUP2 LT PUSH2 0x1C79 JUMPI PUSH2 0x1C78 PUSH2 0x40B7 JUMP JUMPDEST JUMPDEST SWAP1 PUSH0 MSTORE PUSH1 0x20 PUSH0 KECCAK256 SWAP1 PUSH1 0x3 MUL ADD PUSH0 ADD SLOAD SWAP1 POP PUSH0 DUP5 PUSH1 0x5 ADD PUSH0 DUP2 SLOAD DUP2 LT PUSH2 0x1CA1 JUMPI PUSH2 0x1CA0 PUSH2 0x40B7 JUMP JUMPDEST JUMPDEST SWAP1 PUSH0 MSTORE PUSH1 0x20 PUSH0 KECCAK256 SWAP1 PUSH1 0x3 MUL ADD PUSH0 ADD SLOAD SWAP1 POP PUSH0 PUSH0 SWAP1 POP JUMPDEST DUP5 DUP2 LT ISZERO PUSH2 0x1D1B JUMPI PUSH0 DUP7 PUSH1 0x5 ADD DUP3 DUP2 SLOAD DUP2 LT PUSH2 0x1CD6 JUMPI PUSH2 0x1CD5 PUSH2 0x40B7 JUMP JUMPDEST JUMPDEST SWAP1 PUSH0 MSTORE PUSH1 0x20 PUSH0 KECCAK256 SWAP1 PUSH1 0x3 MUL ADD PUSH0 ADD SLOAD SWAP1 POP DUP1 DUP6 PUSH2 0x1CF3 SWAP2 SWAP1 PUSH2 0x4111 JUMP JUMPDEST SWAP5 POP DUP4 DUP2 SLT ISZERO PUSH2 0x1D01 JUMPI DUP1 SWAP4 POP JUMPDEST DUP3 DUP2 SGT ISZERO PUSH2 0x1D0D JUMPI DUP1 SWAP3 POP JUMPDEST POP DUP1 DUP1 PUSH1 0x1 ADD SWAP2 POP POP PUSH2 0x1CB7 JUMP JUMPDEST POP PUSH0 DUP5 DUP5 PUSH2 0x1D29 SWAP2 SWAP1 PUSH2 0x417F JUMP JUMPDEST SWAP1 POP PUSH0 PUSH2 0x1D35 DUP15 PUSH2 0x2351 JUMP JUMPDEST SWAP1 POP DUP6 DUP3 DUP6 DUP6 DUP5 SWAP13 POP SWAP13 POP SWAP13 POP SWAP13 POP SWAP13 POP POP POP POP POP POP POP POP JUMPDEST POP SWAP2 SWAP4 SWAP6 SWAP1 SWAP3 SWAP5 POP JUMP JUMPDEST PUSH1 0x60 DUP2 PUSH1 0x2 DUP2 PUSH1 0x40 MLOAD PUSH2 0x1D6B SWAP2 SWAP1 PUSH2 0x3791 JUMP JUMPDEST SWAP1 DUP2 MSTORE PUSH1 0x20 ADD PUSH1 0x40 MLOAD DUP1 SWAP2 SUB SWAP1 KECCAK256 PUSH0 SWAP1 SLOAD SWAP1 PUSH2 0x100 EXP SWAP1 DIV PUSH1 0xFF AND PUSH2 0x1DC5 JUMPI PUSH1 0x40 MLOAD PUSH32 0x8C379A000000000000000000000000000000000000000000000000000000000 DUP2 MSTORE PUSH1 0x4 ADD PUSH2 0x1DBC SWAP1 PUSH2 0x37F1 JUMP JUMPDEST PUSH1 0x40 MLOAD DUP1 SWAP2 SUB SWAP1 REVERT JUMPDEST PUSH0 PUSH1 0x1 DUP5 PUSH1 0x40 MLOAD PUSH2 0x1DD6 SWAP2 SWAP1 PUSH2 0x3791 JUMP JUMPDEST SWAP1 DUP2 MSTORE PUSH1 0x20 ADD PUSH1 0x40 MLOAD DUP1 SWAP2 SUB SWAP1 KECCAK256 SWAP1 POP PUSH0 PUSH0 SWAP1 SLOAD SWAP1 PUSH2 0x100 EXP SWAP1 DIV PUSH20 0xFFFFFFFFFFFFFFFFFFFFFFFFFFFFFFFFFFFFFFFF AND PUSH20 0xFFFFFFFFFFFFFFFFFFFFFFFFFFFFFFFFFFFFFFFF AND CALLER PUSH20 0xFFFFFFFFFFFFFFFFFFFFFFFFFFFFFFFFFFFFFFFF AND EQ DUP1 PUSH2 0x1E8F JUMPI POP DUP1 PUSH1 0x4 ADD PUSH1 0x1 SWAP1 SLOAD SWAP1 PUSH2 0x100 EXP SWAP1 DIV PUSH20 0xFFFFFFFFFFFFFFFFFFFFFFFFFFFFFFFFFFFFFFFF AND PUSH20 0xFFFFFFFFFFFFFFFFFFFFFFFFFFFFFFFFFFFFFFFF AND CALLER PUSH20 0xFFFFFFFFFFFFFFFFFFFFFFFFFFFFFFFFFFFFFFFF AND EQ JUMPDEST PUSH2 0x1ECE JUMPI PUSH1 0x40 MLOAD PUSH32 0x8C379A000000000000000000000000000000000000000000000000000000000 DUP2 MSTORE PUSH1 0x4 ADD PUSH2 0x1EC5 SWAP1 PUSH2 0x4231 JUMP JUMPDEST PUSH1 0x40 MLOAD DUP1 SWAP2 SUB SWAP1 REVERT JUMPDEST PUSH0 DUP5 CALLER TIMESTAMP PUSH1 0x40 MLOAD PUSH1 0x20 ADD PUSH2 0x1EE4 SWAP4 SWAP3 SWAP2 SWAP1 PUSH2 0x42B4 JUMP JUMPDEST PUSH1 0x40 MLOAD PUSH1 0x20 DUP2 DUP4 SUB SUB DUP2 MSTORE SWAP1 PUSH1 0x40 MSTORE DUP1 MLOAD SWAP1 PUSH1 0x20 ADD KECCAK256 SWAP1 POP PUSH0 PUSH2 0x1F06 DUP3 PUSH2 0x2969 JUMP JUMPDEST SWAP1 POP DUP6 PUSH1 0x4 DUP3 PUSH1 0x40 MLOAD PUSH2 0x1F19 SWAP2 SWAP1 PUSH2 0x3791 JUMP JUMPDEST SWAP1 DUP2 MSTORE PUSH1 0x20 ADD PUSH1 0x40 MLOAD DUP1 SWAP2 SUB SWAP1 KECCAK256 SWAP1 DUP2 PUSH2 0x1F33 SWAP2 SWAP1 PUSH2 0x3A9A JUMP JUMPDEST POP DUP1 PUSH1 0x5 DUP8 PUSH1 0x40 MLOAD PUSH2 0x1F45 SWAP2 SWAP1 PUSH2 0x3791 JUMP JUMPDEST SWAP1 DUP2 MSTORE PUSH1 0x20 ADD PUSH1 0x40 MLOAD DUP1 SWAP2 SUB SWAP1 KECCAK256 SWAP1 DUP2 PUSH2 0x1F5F SWAP2 SWAP1 PUSH2 0x3A9A JUMP JUMPDEST POP DUP6 PUSH1 0x40 MLOAD PUSH2 0x1F6E SWAP2 SWAP1 PUSH2 0x3791 JUMP JUMPDEST PUSH1 0x40 MLOAD DUP1 SWAP2 SUB SWAP1 KECCAK256 PUSH32 0x5B09EC3FE7870357CBC45EF4E1D69860D921F49908DD748EDEEAEFC8158864DB DUP3 PUSH1 0x40 MLOAD PUSH2 0x1FA5 SWAP2 SWAP1 PUSH2 0x3650 JUMP JUMPDEST PUSH1 0x40 MLOAD DUP1 SWAP2 SUB SWAP1 LOG2 DUP1 SWAP5 POP POP POP POP POP SWAP2 SWAP1 POP JUMP JUMPDEST PUSH1 0x60 DUP1 PUSH1 0x60 DUP1 PUSH0 PUSH0 PUSH0 PUSH1 0x4 DUP9 PUSH1 0x40 MLOAD PUSH2 0x1FD2 SWAP2 SWAP1 PUSH2 0x3791 JUMP JUMPDEST SWAP1 DUP2 MSTORE PUSH1 0x20 ADD PUSH1 0x40 MLOAD DUP1 SWAP2 SUB SWAP1 KECCAK256 DUP1 SLOAD PUSH2 0x1FEB SWAP1 PUSH2 0x383C JUMP JUMPDEST DUP1 PUSH1 0x1F ADD PUSH1 0x20 DUP1 SWAP2 DIV MUL PUSH1 0x20 ADD PUSH1 0x40 MLOAD SWAP1 DUP2 ADD PUSH1 0x40 MSTORE DUP1 SWAP3 SWAP2 SWAP1 DUP2 DUP2 MSTORE PUSH1 0x20 ADD DUP3 DUP1 SLOAD PUSH2 0x2017 SWAP1 PUSH2 0x383C JUMP JUMPDEST DUP1 ISZERO PUSH2 0x2062 JUMPI DUP1 PUSH1 0x1F LT PUSH2 0x2039 JUMPI PUSH2 0x100 DUP1 DUP4 SLOAD DIV MUL DUP4 MSTORE SWAP2 PUSH1 0x20 ADD SWAP2 PUSH2 0x2062 JUMP JUMPDEST DUP3 ADD SWAP2 SWAP1 PUSH0 MSTORE PUSH1 0x20 PUSH0 KECCAK256 SWAP1 JUMPDEST DUP2 SLOAD DUP2 MSTORE SWAP1 PUSH1 0x1 ADD SWAP1 PUSH1 0x20 ADD DUP1 DUP4 GT PUSH2 0x2045 JUMPI DUP3 SWAP1 SUB PUSH1 0x1F AND DUP3 ADD SWAP2 JUMPDEST POP POP POP POP POP SWAP1 POP PUSH0 DUP2 MLOAD SUB PUSH2 0x20AC JUMPI PUSH1 0x40 MLOAD PUSH32 0x8C379A000000000000000000000000000000000000000000000000000000000 DUP2 MSTORE PUSH1 0x4 ADD PUSH2 0x20A3 SWAP1 PUSH2 0x4336 JUMP JUMPDEST PUSH1 0x40 MLOAD DUP1 SWAP2 SUB SWAP1 REVERT JUMPDEST PUSH0 PUSH1 0x1 DUP3 PUSH1 0x40 MLOAD PUSH2 0x20BD SWAP2 SWAP1 PUSH2 0x3791 JUMP JUMPDEST SWAP1 DUP2 MSTORE PUSH1 0x20 ADD PUSH1 0x40 MLOAD DUP1 SWAP2 SUB SWAP1 KECCAK256 SWAP1 POP DUP1 PUSH0 ADD DUP2 PUSH1 0x1 ADD DUP3 PUSH1 0x2 ADD DUP4 PUSH1 0x3 ADD DUP5 PUSH1 0x4 ADD PUSH0 SWAP1 SLOAD SWAP1 PUSH2 0x100 EXP SWAP1 DIV PUSH1 0xFF AND DUP6 PUSH1 0x4 ADD PUSH1 0x1 SWAP1 SLOAD SWAP1 PUSH2 0x100 EXP SWAP1 DIV PUSH20 0xFFFFFFFFFFFFFFFFFFFFFFFFFFFFFFFFFFFFFFFF AND DUP6 DUP1 SLOAD PUSH2 0x211E SWAP1 PUSH2 0x383C JUMP JUMPDEST DUP1 PUSH1 0x1F ADD PUSH1 0x20 DUP1 SWAP2 DIV MUL PUSH1 0x20 ADD PUSH1 0x40 MLOAD SWAP1 DUP2 ADD PUSH1 0x40 MSTORE DUP1 SWAP3 SWAP2 SWAP1 DUP2 DUP2 MSTORE PUSH1 0x20 ADD DUP3 DUP1 SLOAD PUSH2 0x214A SWAP1 PUSH2 0x383C JUMP JUMPDEST DUP1 ISZERO PUSH2 0x2195 JUMPI DUP1 PUSH1 0x1F LT PUSH2 0x216C JUMPI PUSH2 0x100 DUP1 DUP4 SLOAD DIV MUL DUP4 MSTORE SWAP2 PUSH1 0x20 ADD SWAP2 PUSH2 0x2195 JUMP JUMPDEST DUP3 ADD SWAP2 SWAP1 PUSH0 MSTORE PUSH1 0x20 PUSH0 KECCAK256 SWAP1 JUMPDEST DUP2 SLOAD DUP2 MSTORE SWAP1 PUSH1 0x1 ADD SWAP1 PUSH1 0x20 ADD DUP1 DUP4 GT PUSH2 0x2178 JUMPI DUP3 SWAP1 SUB PUSH1 0x1F AND DUP3 ADD SWAP2 JUMPDEST POP POP POP POP POP SWAP6 POP DUP5 DUP1 SLOAD PUSH2 0x21A8 SWAP1 PUSH2 0x383C JUMP JUMPDEST DUP1 PUSH1 0x1F ADD PUSH1 0x20 DUP1 SWAP2 DIV MUL PUSH1 0x20 ADD PUSH1 0x40 MLOAD SWAP1 DUP2 ADD PUSH1 0x40 MSTORE DUP1 SWAP3 SWAP2 SWAP1 DUP2 DUP2 MSTORE PUSH1 0x20 ADD DUP3 DUP1 SLOAD PUSH2 0x21D4 SWAP1 PUSH2 0x383C JUMP JUMPDEST DUP1 ISZERO PUSH2 0x221F JUMPI DUP1 PUSH1 0x1F LT PUSH2 0x21F6 JUMPI PUSH2 0x100 DUP1 DUP4 SLOAD DIV MUL DUP4 MSTORE SWAP2 PUSH1 0x20 ADD SWAP2 PUSH2 0x221F JUMP JUMPDEST DUP3 ADD SWAP2 SWAP1 PUSH0 MSTORE PUSH1 0x20 PUSH0 KECCAK256 SWAP1 JUMPDEST DUP2 SLOAD DUP2 MSTORE SWAP1 PUSH1 0x1 ADD SWAP1 PUSH1 0x20 ADD DUP1 DUP4 GT PUSH2 0x2202 JUMPI DUP3 SWAP1 SUB PUSH1 0x1F AND DUP3 ADD SWAP2 JUMPDEST POP POP POP POP POP SWAP5 POP DUP4 DUP1 SLOAD PUSH2 0x2232 SWAP1 PUSH2 0x383C JUMP JUMPDEST DUP1 PUSH1 0x1F ADD PUSH1 0x20 DUP1 SWAP2 DIV MUL PUSH1 0x20 ADD PUSH1 0x40 MLOAD SWAP1 DUP2 ADD PUSH1 0x40 MSTORE DUP1 SWAP3 SWAP2 SWAP1 DUP2 DUP2 MSTORE PUSH1 0x20 ADD DUP3 DUP1 SLOAD PUSH2 0x225E SWAP1 PUSH2 0x383C JUMP JUMPDEST DUP1 ISZERO PUSH2 0x22A9 JUMPI DUP1 PUSH1 0x1F LT PUSH2 0x2280 JUMPI PUSH2 0x100 DUP1 DUP4 SLOAD DIV MUL DUP4 MSTORE SWAP2 PUSH1 0x20 ADD SWAP2 PUSH2 0x22A9 JUMP JUMPDEST DUP3 ADD SWAP2 SWAP1 PUSH0 MSTORE PUSH1 0x20 PUSH0 KECCAK256 SWAP1 JUMPDEST DUP2 SLOAD DUP2 MSTORE SWAP1 PUSH1 0x1 ADD SWAP1 PUSH1 0x20 ADD DUP1 DUP4 GT PUSH2 0x228C JUMPI DUP3 SWAP1 SUB PUSH1 0x1F AND DUP3 ADD SWAP2 JUMPDEST POP POP POP POP POP SWAP4 POP DUP3 DUP1 SLOAD PUSH2 0x22BC SWAP1 PUSH2 0x383C JUMP JUMPDEST DUP1 PUSH1 0x1F ADD PUSH1 0x20 DUP1 SWAP2 DIV MUL PUSH1 0x20 ADD PUSH1 0x40 MLOAD SWAP1 DUP2 ADD PUSH1 0x40 MSTORE DUP1 SWAP3 SWAP2 SWAP1 DUP2 DUP2 MSTORE PUSH1 0x20 ADD DUP3 DUP1 SLOAD PUSH2 0x22E8 SWAP1 PUSH2 0x383C JUMP JUMPDEST DUP1 ISZERO PUSH2 0x2333 JUMPI DUP1 PUSH1 0x1F LT PUSH2 0x230A JUMPI PUSH2 0x100 DUP1 DUP4 SLOAD DIV MUL DUP4 MSTORE SWAP2 PUSH1 0x20 ADD SWAP2 PUSH2 0x2333 JUMP JUMPDEST DUP3 ADD SWAP2 SWAP1 PUSH0 MSTORE PUSH1 0x20 PUSH0 KECCAK256 SWAP1 JUMPDEST DUP2 SLOAD DUP2 MSTORE SWAP1 PUSH1 0x1 ADD SWAP1 PUSH1 0x20 ADD DUP1 DUP4 GT PUSH2 0x2316 JUMPI DUP3 SWAP1 SUB PUSH1 0x1F AND DUP3 ADD SWAP2 JUMPDEST POP POP POP POP POP SWAP3 POP SWAP8 POP SWAP8 POP SWAP8 POP SWAP8 POP SWAP8 POP SWAP8 POP POP POP SWAP2 SWAP4 SWAP6 POP SWAP2 SWAP4 SWAP6 JUMP JUMPDEST PUSH0 DUP2 PUSH1 0x2 DUP2 PUSH1 0x40 MLOAD PUSH2 0x2363 SWAP2 SWAP1 PUSH2 0x3791 JUMP JUMPDEST SWAP1 DUP2 MSTORE PUSH1 0x20 ADD PUSH1 0x40 MLOAD DUP1 SWAP2 SUB SWAP1 KECCAK256 PUSH0 SWAP1 SLOAD SWAP1 PUSH2 0x100 EXP SWAP1 DIV PUSH1 0xFF AND PUSH2 0x23BD JUMPI PUSH1 0x40 MLOAD PUSH32 0x8C379A000000000000000000000000000000000000000000000000000000000 DUP2 MSTORE PUSH1 0x4 ADD PUSH2 0x23B4 SWAP1 PUSH2 0x37F1 JUMP JUMPDEST PUSH1 0x40 MLOAD DUP1 SWAP2 SUB SWAP1 REVERT JUMPDEST PUSH0 PUSH1 0x1 DUP5 PUSH1 0x40 MLOAD PUSH2 0x23CE SWAP2 SWAP1 PUSH2 0x3791 JUMP JUMPDEST SWAP1 DUP2 MSTORE PUSH1 0x20 ADD PUSH1 0x40 MLOAD DUP1 SWAP2 SUB SWAP1 KECCAK256 SWAP1 POP DUP1 PUSH1 0x9 ADD PUSH0 SWAP1 SLOAD SWAP1 PUSH2 0x100 EXP SWAP1 DIV PUSH1 0xFF AND ISZERO DUP1 ISZERO PUSH2 0x240B JUMPI POP DUP1 PUSH1 0x9 ADD PUSH1 0x1 SWAP1 SLOAD SWAP1 PUSH2 0x100 EXP SWAP1 DIV PUSH1 0xFF AND ISZERO JUMPDEST ISZERO PUSH2 0x241A JUMPI PUSH1 0x1 SWAP3 POP POP PUSH2 0x24CC JUMP JUMPDEST PUSH0 PUSH0 SWAP1 POP JUMPDEST DUP2 PUSH1 0x5 ADD DUP1 SLOAD SWAP1 POP DUP2 LT ISZERO PUSH2 0x24C5 JUMPI PUSH0 DUP3 PUSH1 0x5 ADD DUP3 DUP2 SLOAD DUP2 LT PUSH2 0x2445 JUMPI PUSH2 0x2444 PUSH2 0x40B7 JUMP JUMPDEST JUMPDEST SWAP1 PUSH0 MSTORE PUSH1 0x20 PUSH0 KECCAK256 SWAP1 PUSH1 0x3 MUL ADD PUSH0 ADD SLOAD SWAP1 POP DUP3 PUSH1 0x9 ADD PUSH0 SWAP1 SLOAD SWAP1 PUSH2 0x100 EXP SWAP1 DIV PUSH1 0xFF AND DUP1 ISZERO PUSH2 0x2476 JUMPI POP DUP3 PUSH1 0x7 ADD SLOAD DUP2 SLT JUMPDEST ISZERO PUSH2 0x2486 JUMPI PUSH0 SWAP5 POP POP POP POP PUSH2 0x24CC JUMP JUMPDEST DUP3 PUSH1 0x9 ADD PUSH1 0x1 SWAP1 SLOAD SWAP1 PUSH2 0x100 EXP SWAP1 DIV PUSH1 0xFF AND DUP1 ISZERO PUSH2 0x24A7 JUMPI POP DUP3 PUSH1 0x8 ADD SLOAD DUP2 SGT JUMPDEST ISZERO PUSH2 0x24B7 JUMPI PUSH0 SWAP5 POP POP POP POP PUSH2 0x24CC JUMP JUMPDEST POP DUP1 DUP1 PUSH1 0x1 ADD SWAP2 POP POP PUSH2 0x241F JUMP JUMPDEST POP PUSH1 0x1 SWAP3 POP POP JUMPDEST POP SWAP2 SWAP1 POP JUMP JUMPDEST DUP3 PUSH1 0x2 DUP2 PUSH1 0x40 MLOAD PUSH2 0x24E3 SWAP2 SWAP1 PUSH2 0x3791 JUMP JUMPDEST SWAP1 DUP2 MSTORE PUSH1 0x20 ADD PUSH1 0x40 MLOAD DUP1 SWAP2 SUB SWAP1 KECCAK256 PUSH0 SWAP1 SLOAD SWAP1 PUSH2 0x100 EXP SWAP1 DIV PUSH1 0xFF AND PUSH2 0x253D JUMPI PUSH1 0x40 MLOAD PUSH32 0x8C379A000000000000000000000000000000000000000000000000000000000 DUP2 MSTORE PUSH1 0x4 ADD PUSH2 0x2534 SWAP1 PUSH2 0x37F1 JUMP JUMPDEST PUSH1 0x40 MLOAD DUP1 SWAP2 SUB SWAP1 REVERT JUMPDEST PUSH0 PUSH0 SWAP1 SLOAD SWAP1 PUSH2 0x100 EXP SWAP1 DIV PUSH20 0xFFFFFFFFFFFFFFFFFFFFFFFFFFFFFFFFFFFFFFFF AND PUSH20 0xFFFFFFFFFFFFFFFFFFFFFFFFFFFFFFFFFFFFFFFF AND CALLER PUSH20 0xFFFFFFFFFFFFFFFFFFFFFFFFFFFFFFFFFFFFFFFF AND EQ DUP1 PUSH2 0x2604 JUMPI POP PUSH0 PUSH1 0x4 DUP2 GT ISZERO PUSH2 0x25A5 JUMPI PUSH2 0x25A4 PUSH2 0x2F10 JUMP JUMPDEST JUMPDEST PUSH1 0x3 PUSH0 CALLER PUSH20 0xFFFFFFFFFFFFFFFFFFFFFFFFFFFFFFFFFFFFFFFF AND PUSH20 0xFFFFFFFFFFFFFFFFFFFFFFFFFFFFFFFFFFFFFFFF AND DUP2 MSTORE PUSH1 0x20 ADD SWAP1 DUP2 MSTORE PUSH1 0x20 ADD PUSH0 KECCAK256 PUSH0 SWAP1 SLOAD SWAP1 PUSH2 0x100 EXP SWAP1 DIV PUSH1 0xFF AND PUSH1 0x4 DUP2 GT ISZERO PUSH2 0x2601 JUMPI PUSH2 0x2600 PUSH2 0x2F10 JUMP JUMPDEST JUMPDEST EQ ISZERO JUMPDEST PUSH2 0x2643 JUMPI PUSH1 0x40 MLOAD PUSH32 0x8C379A000000000000000000000000000000000000000000000000000000000 DUP2 MSTORE PUSH1 0x4 ADD PUSH2 0x263A SWAP1 PUSH2 0x439E JUMP JUMPDEST PUSH1 0x40 MLOAD DUP1 SWAP2 SUB SWAP1 REVERT JUMPDEST PUSH0 PUSH1 0x1 DUP6 PUSH1 0x40 MLOAD PUSH2 0x2654 SWAP2 SWAP1 PUSH2 0x3791 JUMP JUMPDEST SWAP1 DUP2 MSTORE PUSH1 0x20 ADD PUSH1 0x40 MLOAD DUP1 SWAP2 SUB SWAP1 KECCAK256 SWAP1 POP DUP4 DUP2 PUSH1 0x7 ADD DUP2 SWAP1 SSTORE POP DUP3 DUP2 PUSH1 0x8 ADD DUP2 SWAP1 SSTORE POP PUSH1 0x1 DUP2 PUSH1 0x9 ADD PUSH0 PUSH2 0x100 EXP DUP2 SLOAD DUP2 PUSH1 0xFF MUL NOT AND SWAP1 DUP4 ISZERO ISZERO MUL OR SWAP1 SSTORE POP PUSH1 0x1 DUP2 PUSH1 0x9 ADD PUSH1 0x1 PUSH2 0x100 EXP DUP2 SLOAD DUP2 PUSH1 0xFF MUL NOT AND SWAP1 DUP4 ISZERO ISZERO MUL OR SWAP1 SSTORE POP DUP5 PUSH1 0x40 MLOAD PUSH2 0x26BD SWAP2 SWAP1 PUSH2 0x3791 JUMP JUMPDEST PUSH1 0x40 MLOAD DUP1 SWAP2 SUB SWAP1 KECCAK256 PUSH32 0x2927E1CE4FFBE3BB1EC8DED8077445FD60EB0DE83DEBBB3A01462A85F82AC59E DUP6 DUP6 PUSH1 0x40 MLOAD PUSH2 0x26F6 SWAP3 SWAP2 SWAP1 PUSH2 0x43BC JUMP JUMPDEST PUSH1 0x40 MLOAD DUP1 SWAP2 SUB SWAP1 LOG2 POP POP POP POP POP JUMP JUMPDEST PUSH0 PUSH0 DUP4 SWAP1 POP PUSH0 DUP4 SWAP1 POP DUP1 MLOAD DUP3 MLOAD LT ISZERO PUSH2 0x2722 JUMPI PUSH0 SWAP3 POP POP POP PUSH2 0x2822 JUMP JUMPDEST PUSH0 PUSH0 SWAP1 POP JUMPDEST DUP2 MLOAD DUP4 MLOAD PUSH2 0x2735 SWAP2 SWAP1 PUSH2 0x43E3 JUMP JUMPDEST DUP2 GT PUSH2 0x281B JUMPI PUSH0 PUSH1 0x1 SWAP1 POP PUSH0 PUSH0 SWAP1 POP JUMPDEST DUP4 MLOAD DUP2 LT ISZERO PUSH2 0x27F3 JUMPI DUP4 DUP2 DUP2 MLOAD DUP2 LT PUSH2 0x2761 JUMPI PUSH2 0x2760 PUSH2 0x40B7 JUMP JUMPDEST JUMPDEST PUSH1 0x20 ADD ADD MLOAD PUSH1 0xF8 SHR PUSH1 0xF8 SHL PUSH31 0xFFFFFFFFFFFFFFFFFFFFFFFFFFFFFFFFFFFFFFFFFFFFFFFFFFFFFFFFFFFFFF NOT AND DUP6 DUP3 DUP6 PUSH2 0x279B SWAP2 SWAP1 PUSH2 0x4416 JUMP JUMPDEST DUP2 MLOAD DUP2 LT PUSH2 0x27AC JUMPI PUSH2 0x27AB PUSH2 0x40B7 JUMP JUMPDEST JUMPDEST PUSH1 0x20 ADD ADD MLOAD PUSH1 0xF8 SHR PUSH1 0xF8 SHL PUSH31 0xFFFFFFFFFFFFFFFFFFFFFFFFFFFFFFFFFFFFFFFFFFFFFFFFFFFFFFFFFFFFFF NOT AND EQ PUSH2 0x27E6 JUMPI PUSH0 SWAP2 POP PUSH2 0x27F3 JUMP JUMPDEST DUP1 DUP1 PUSH1 0x1 ADD SWAP2 POP POP PUSH2 0x2745 JUMP JUMPDEST POP DUP1 ISZERO PUSH2 0x2807 JUMPI PUSH1 0x1 SWAP5 POP POP POP POP POP PUSH2 0x2822 JUMP JUMPDEST POP DUP1 DUP1 PUSH2 0x2813 SWAP1 PUSH2 0x4449 JUMP JUMPDEST SWAP2 POP POP PUSH2 0x2727 JUMP JUMPDEST POP PUSH0 SWAP3 POP POP POP JUMPDEST SWAP3 SWAP2 POP POP JUMP JUMPDEST PUSH0 PUSH1 0x6 DUP4 PUSH1 0x40 MLOAD PUSH2 0x2839 SWAP2 SWAP1 PUSH2 0x3791 JUMP JUMPDEST SWAP1 DUP2 MSTORE PUSH1 0x20 ADD PUSH1 0x40 MLOAD DUP1 SWAP2 SUB SWAP1 KECCAK256 DUP3 PUSH1 0x40 MLOAD PUSH2 0x2855 SWAP2 SWAP1 PUSH2 0x3791 JUMP JUMPDEST SWAP1 DUP2 MSTORE PUSH1 0x20 ADD PUSH1 0x40 MLOAD DUP1 SWAP2 SUB SWAP1 KECCAK256 PUSH0 SWAP1 SLOAD SWAP1 PUSH2 0x100 EXP SWAP1 DIV PUSH1 0xFF AND SWAP1 POP SWAP3 SWAP2 POP POP JUMP JUMPDEST PUSH1 0x1 PUSH1 0x6 DUP4 PUSH1 0x40 MLOAD PUSH2 0x288A SWAP2 SWAP1 PUSH2 0x3791 JUMP JUMPDEST SWAP1 DUP2 MSTORE PUSH1 0x20 ADD PUSH1 0x40 MLOAD DUP1 SWAP2 SUB SWAP1 KECCAK256 DUP3 PUSH1 0x40 MLOAD PUSH2 0x28A6 SWAP2 SWAP1 PUSH2 0x3791 JUMP JUMPDEST SWAP1 DUP2 MSTORE PUSH1 0x20 ADD PUSH1 0x40 MLOAD DUP1 SWAP2 SUB SWAP1 KECCAK256 PUSH0 PUSH2 0x100 EXP DUP2 SLOAD DUP2 PUSH1 0xFF MUL NOT AND SWAP1 DUP4 ISZERO ISZERO MUL OR SWAP1 SSTORE POP PUSH1 0x7 DUP3 PUSH1 0x40 MLOAD PUSH2 0x28DA SWAP2 SWAP1 PUSH2 0x3791 JUMP JUMPDEST SWAP1 DUP2 MSTORE PUSH1 0x20 ADD PUSH1 0x40 MLOAD DUP1 SWAP2 SUB SWAP1 KECCAK256 DUP2 SWAP1 DUP1 PUSH1 0x1 DUP2 SLOAD ADD DUP1 DUP3 SSTORE DUP1 SWAP2 POP POP PUSH1 0x1 SWAP1 SUB SWAP1 PUSH0 MSTORE PUSH1 0x20 PUSH0 KECCAK256 ADD PUSH0 SWAP1 SWAP2 SWAP1 SWAP2 SWAP1 SWAP2 POP SWAP1 DUP2 PUSH2 0x2917 SWAP2 SWAP1 PUSH2 0x3A9A JUMP JUMPDEST POP DUP2 PUSH1 0x40 MLOAD PUSH2 0x2926 SWAP2 SWAP1 PUSH2 0x3791 JUMP JUMPDEST PUSH1 0x40 MLOAD DUP1 SWAP2 SUB SWAP1 KECCAK256 PUSH32 0x34FCD4787ADB461453A1AABFFC2349656FEBA59E5A3E83C4AAD58836DB82BEC6 DUP3 PUSH1 0x40 MLOAD PUSH2 0x295D SWAP2 SWAP1 PUSH2 0x3650 JUMP JUMPDEST PUSH1 0x40 MLOAD DUP1 SWAP2 SUB SWAP1 LOG2 POP POP JUMP JUMPDEST PUSH1 0x60 PUSH0 PUSH32 0x3031323334353637383961626364656600000000000000000000000000000000 SWAP1 POP PUSH0 PUSH1 0x42 PUSH8 0xFFFFFFFFFFFFFFFF DUP2 GT ISZERO PUSH2 0x29AB JUMPI PUSH2 0x29AA PUSH2 0x2C22 JUMP JUMPDEST JUMPDEST PUSH1 0x40 MLOAD SWAP1 DUP1 DUP3 MSTORE DUP1 PUSH1 0x1F ADD PUSH1 0x1F NOT AND PUSH1 0x20 ADD DUP3 ADD PUSH1 0x40 MSTORE DUP1 ISZERO PUSH2 0x29DD JUMPI DUP2 PUSH1 0x20 ADD PUSH1 0x1 DUP3 MUL DUP1 CALLDATASIZE DUP4 CALLDATACOPY DUP1 DUP3 ADD SWAP2 POP POP SWAP1 POP JUMPDEST POP SWAP1 POP PUSH32 0x3000000000000000000000000000000000000000000000000000000000000000 DUP2 PUSH0 DUP2 MLOAD DUP2 LT PUSH2 0x2A14 JUMPI PUSH2 0x2A13 PUSH2 0x40B7 JUMP JUMPDEST JUMPDEST PUSH1 0x20 ADD ADD SWAP1 PUSH31 0xFFFFFFFFFFFFFFFFFFFFFFFFFFFFFFFFFFFFFFFFFFFFFFFFFFFFFFFFFFFFFF NOT AND SWAP1 DUP2 PUSH0 BYTE SWAP1 MSTORE8 POP PUSH32 0x7800000000000000000000000000000000000000000000000000000000000000 DUP2 PUSH1 0x1 DUP2 MLOAD DUP2 LT PUSH2 0x2A77 JUMPI PUSH2 0x2A76 PUSH2 0x40B7 JUMP JUMPDEST JUMPDEST PUSH1 0x20 ADD ADD SWAP1 PUSH31 0xFFFFFFFFFFFFFFFFFFFFFFFFFFFFFFFFFFFFFFFFFFFFFFFFFFFFFFFFFFFFFF NOT AND SWAP1 DUP2 PUSH0 BYTE SWAP1 MSTORE8 POP PUSH0 PUSH0 SWAP1 POP JUMPDEST PUSH1 0x20 DUP2 LT ISZERO PUSH2 0x2BEE JUMPI DUP3 PUSH1 0x4 DUP7 DUP4 PUSH1 0x20 DUP2 LT PUSH2 0x2AC9 JUMPI PUSH2 0x2AC8 PUSH2 0x40B7 JUMP JUMPDEST JUMPDEST BYTE PUSH1 0xF8 SHL PUSH1 0xF8 SHR PUSH1 0xFF AND SWAP1 SHR PUSH1 0xFF AND PUSH1 0x10 DUP2 LT PUSH2 0x2AE9 JUMPI PUSH2 0x2AE8 PUSH2 0x40B7 JUMP JUMPDEST JUMPDEST BYTE PUSH1 0xF8 SHL DUP3 PUSH1 0x2 DUP4 PUSH2 0x2AFB SWAP2 SWAP1 PUSH2 0x4490 JUMP JUMPDEST PUSH1 0x2 PUSH2 0x2B07 SWAP2 SWAP1 PUSH2 0x4416 JUMP JUMPDEST DUP2 MLOAD DUP2 LT PUSH2 0x2B18 JUMPI PUSH2 0x2B17 PUSH2 0x40B7 JUMP JUMPDEST JUMPDEST PUSH1 0x20 ADD ADD SWAP1 PUSH31 0xFFFFFFFFFFFFFFFFFFFFFFFFFFFFFFFFFFFFFFFFFFFFFFFFFFFFFFFFFFFFFF NOT AND SWAP1 DUP2 PUSH0 BYTE SWAP1 MSTORE8 POP DUP3 PUSH1 0xF DUP7 DUP4 PUSH1 0x20 DUP2 LT PUSH2 0x2B5C JUMPI PUSH2 0x2B5B PUSH2 0x40B7 JUMP JUMPDEST JUMPDEST BYTE PUSH1 0xF8 SHL PUSH1 0xF8 SHR AND PUSH1 0xFF AND PUSH1 0x10 DUP2 LT PUSH2 0x2B78 JUMPI PUSH2 0x2B77 PUSH2 0x40B7 JUMP JUMPDEST JUMPDEST BYTE PUSH1 0xF8 SHL DUP3 PUSH1 0x1 PUSH1 0x2 DUP5 PUSH2 0x2B8C SWAP2 SWAP1 PUSH2 0x4490 JUMP JUMPDEST PUSH1 0x2 PUSH2 0x2B98 SWAP2 SWAP1 PUSH2 0x4416 JUMP JUMPDEST PUSH2 0x2BA2 SWAP2 SWAP1 PUSH2 0x4416 JUMP JUMPDEST DUP2 MLOAD DUP2 LT PUSH2 0x2BB3 JUMPI PUSH2 0x2BB2 PUSH2 0x40B7 JUMP JUMPDEST JUMPDEST PUSH1 0x20 ADD ADD SWAP1 PUSH31 0xFFFFFFFFFFFFFFFFFFFFFFFFFFFFFFFFFFFFFFFFFFFFFFFFFFFFFFFFFFFFFF NOT AND SWAP1 DUP2 PUSH0 BYTE SWAP1 MSTORE8 POP DUP1 DUP1 PUSH1 0x1 ADD SWAP2 POP POP PUSH2 0x2AAA JUMP JUMPDEST POP DUP1 SWAP3 POP POP POP SWAP2 SWAP1 POP JUMP JUMPDEST PUSH0 PUSH1 0x40 MLOAD SWAP1 POP SWAP1 JUMP JUMPDEST PUSH0 PUSH0 REVERT JUMPDEST PUSH0 PUSH0 REVERT JUMPDEST PUSH0 PUSH0 REVERT JUMPDEST PUSH0 PUSH0 REVERT JUMPDEST PUSH0 PUSH1 0x1F NOT PUSH1 0x1F DUP4 ADD AND SWAP1 POP SWAP2 SWAP1 POP JUMP JUMPDEST PUSH32 0x4E487B7100000000000000000000000000000000000000000000000000000000 PUSH0 MSTORE PUSH1 0x41 PUSH1 0x4 MSTORE PUSH1 0x24 PUSH0 REVERT JUMPDEST PUSH2 0x2C58 DUP3 PUSH2 0x2C12 JUMP JUMPDEST DUP2 ADD DUP2 DUP2 LT PUSH8 0xFFFFFFFFFFFFFFFF DUP3 GT OR ISZERO PUSH2 0x2C77 JUMPI PUSH2 0x2C76 PUSH2 0x2C22 JUMP JUMPDEST JUMPDEST DUP1 PUSH1 0x40 MSTORE POP POP POP JUMP JUMPDEST PUSH0 PUSH2 0x2C89 PUSH2 0x2BF9 JUMP JUMPDEST SWAP1 POP PUSH2 0x2C95 DUP3 DUP3 PUSH2 0x2C4F JUMP JUMPDEST SWAP2 SWAP1 POP JUMP JUMPDEST PUSH0 PUSH8 0xFFFFFFFFFFFFFFFF DUP3 GT ISZERO PUSH2 0x2CB4 JUMPI PUSH2 0x2CB3 PUSH2 0x2C22 JUMP JUMPDEST JUMPDEST PUSH2 0x2CBD DUP3 PUSH2 0x2C12 JUMP JUMPDEST SWAP1 POP PUSH1 0x20 DUP2 ADD SWAP1 POP SWAP2 SWAP1 POP JUMP JUMPDEST DUP3 DUP2 DUP4 CALLDATACOPY PUSH0 DUP4 DUP4 ADD MSTORE POP POP POP JUMP JUMPDEST PUSH0 PUSH2 0x2CEA PUSH2 0x2CE5 DUP5 PUSH2 0x2C9A JUMP JUMPDEST PUSH2 0x2C80 JUMP JUMPDEST SWAP1 POP DUP3 DUP2 MSTORE PUSH1 0x20 DUP2 ADD DUP5 DUP5 DUP5 ADD GT ISZERO PUSH2 0x2D06 JUMPI PUSH2 0x2D05 PUSH2 0x2C0E JUMP JUMPDEST JUMPDEST PUSH2 0x2D11 DUP5 DUP3 DUP6 PUSH2 0x2CCA JUMP JUMPDEST POP SWAP4 SWAP3 POP POP POP JUMP JUMPDEST PUSH0 DUP3 PUSH1 0x1F DUP4 ADD SLT PUSH2 0x2D2D JUMPI PUSH2 0x2D2C PUSH2 0x2C0A JUMP JUMPDEST JUMPDEST DUP2 CALLDATALOAD PUSH2 0x2D3D DUP5 DUP3 PUSH1 0x20 DUP7 ADD PUSH2 0x2CD8 JUMP JUMPDEST SWAP2 POP POP SWAP3 SWAP2 POP POP JUMP JUMPDEST PUSH0 PUSH1 0x20 DUP3 DUP5 SUB SLT ISZERO PUSH2 0x2D5B JUMPI PUSH2 0x2D5A PUSH2 0x2C02 JUMP JUMPDEST JUMPDEST PUSH0 DUP3 ADD CALLDATALOAD PUSH8 0xFFFFFFFFFFFFFFFF DUP2 GT ISZERO PUSH2 0x2D78 JUMPI PUSH2 0x2D77 PUSH2 0x2C06 JUMP JUMPDEST JUMPDEST PUSH2 0x2D84 DUP5 DUP3 DUP6 ADD PUSH2 0x2D19 JUMP JUMPDEST SWAP2 POP POP SWAP3 SWAP2 POP POP JUMP JUMPDEST PUSH0 DUP2 MLOAD SWAP1 POP SWAP2 SWAP1 POP JUMP JUMPDEST PUSH0 DUP3 DUP3 MSTORE PUSH1 0x20 DUP3 ADD SWAP1 POP SWAP3 SWAP2 POP POP JUMP JUMPDEST PUSH0 DUP2 SWAP1 POP PUSH1 0x20 DUP3 ADD SWAP1 POP SWAP2 SWAP1 POP JUMP JUMPDEST PUSH0 DUP2 MLOAD SWAP1 POP SWAP2 SWAP1 POP JUMP JUMPDEST PUSH0 DUP3 DUP3 MSTORE PUSH1 0x20 DUP3 ADD SWAP1 POP SWAP3 SWAP2 POP POP JUMP JUMPDEST DUP3 DUP2 DUP4 MCOPY PUSH0 DUP4 DUP4 ADD MSTORE POP POP POP JUMP JUMPDEST PUSH0 PUSH2 0x2DE8 DUP3 PUSH2 0x2DB6 JUMP JUMPDEST PUSH2 0x2DF2 DUP2 DUP6 PUSH2 0x2DC0 JUMP JUMPDEST SWAP4 POP PUSH2 0x2E02 DUP2 DUP6 PUSH1 0x20 DUP7 ADD PUSH2 0x2DD0 JUMP JUMPDEST PUSH2 0x2E0B DUP2 PUSH2 0x2C12 JUMP JUMPDEST DUP5 ADD SWAP2 POP POP SWAP3 SWAP2 POP POP JUMP JUMPDEST PUSH0 PUSH2 0x2E21 DUP4 DUP4 PUSH2 0x2DDE JUMP JUMPDEST SWAP1 POP SWAP3 SWAP2 POP POP JUMP JUMPDEST PUSH0 PUSH1 0x20 DUP3 ADD SWAP1 POP SWAP2 SWAP1 POP JUMP JUMPDEST PUSH0 PUSH2 0x2E3F DUP3 PUSH2 0x2D8D JUMP JUMPDEST PUSH2 0x2E49 DUP2 DUP6 PUSH2 0x2D97 JUMP JUMPDEST SWAP4 POP DUP4 PUSH1 0x20 DUP3 MUL DUP6 ADD PUSH2 0x2E5B DUP6 PUSH2 0x2DA7 JUMP JUMPDEST DUP1 PUSH0 JUMPDEST DUP6 DUP2 LT ISZERO PUSH2 0x2E96 JUMPI DUP5 DUP5 SUB DUP10 MSTORE DUP2 MLOAD PUSH2 0x2E77 DUP6 DUP3 PUSH2 0x2E16 JUMP JUMPDEST SWAP5 POP PUSH2 0x2E82 DUP4 PUSH2 0x2E29 JUMP JUMPDEST SWAP3 POP PUSH1 0x20 DUP11 ADD SWAP10 POP POP PUSH1 0x1 DUP2 ADD SWAP1 POP PUSH2 0x2E5E JUMP JUMPDEST POP DUP3 SWAP8 POP DUP8 SWAP6 POP POP POP POP POP POP SWAP3 SWAP2 POP POP JUMP JUMPDEST PUSH0 PUSH1 0x20 DUP3 ADD SWAP1 POP DUP2 DUP2 SUB PUSH0 DUP4 ADD MSTORE PUSH2 0x2EC0 DUP2 DUP5 PUSH2 0x2E35 JUMP JUMPDEST SWAP1 POP SWAP3 SWAP2 POP POP JUMP JUMPDEST PUSH0 DUP3 DUP3 MSTORE PUSH1 0x20 DUP3 ADD SWAP1 POP SWAP3 SWAP2 POP POP JUMP JUMPDEST PUSH0 PUSH2 0x2EE2 DUP3 PUSH2 0x2DB6 JUMP JUMPDEST PUSH2 0x2EEC DUP2 DUP6 PUSH2 0x2EC8 JUMP JUMPDEST SWAP4 POP PUSH2 0x2EFC DUP2 DUP6 PUSH1 0x20 DUP7 ADD PUSH2 0x2DD0 JUMP JUMPDEST PUSH2 0x2F05 DUP2 PUSH2 0x2C12 JUMP JUMPDEST DUP5 ADD SWAP2 POP POP SWAP3 SWAP2 POP POP JUMP JUMPDEST PUSH32 0x4E487B7100000000000000000000000000000000000000000000000000000000 PUSH0 MSTORE PUSH1 0x21 PUSH1 0x4 MSTORE PUSH1 0x24 PUSH0 REVERT JUMPDEST PUSH1 0x6 DUP2 LT PUSH2 0x2F4E JUMPI PUSH2 0x2F4D PUSH2 0x2F10 JUMP JUMPDEST JUMPDEST POP JUMP JUMPDEST PUSH0 DUP2 SWAP1 POP PUSH2 0x2F5E DUP3 PUSH2 0x2F3D JUMP JUMPDEST SWAP2 SWAP1 POP JUMP JUMPDEST PUSH0 PUSH2 0x2F6D DUP3 PUSH2 0x2F51 JUMP JUMPDEST SWAP1 POP SWAP2 SWAP1 POP JUMP JUMPDEST PUSH2 0x2F7D DUP2 PUSH2 0x2F63 JUMP JUMPDEST DUP3 MSTORE POP POP JUMP JUMPDEST PUSH0 PUSH20 0xFFFFFFFFFFFFFFFFFFFFFFFFFFFFFFFFFFFFFFFF DUP3 AND SWAP1 POP SWAP2 SWAP1 POP JUMP JUMPDEST PUSH0 PUSH2 0x2FAC DUP3 PUSH2 0x2F83 JUMP JUMPDEST SWAP1 POP SWAP2 SWAP1 POP JUMP JUMPDEST PUSH2 0x2FBC DUP2 PUSH2 0x2FA2 JUMP JUMPDEST DUP3 MSTORE POP POP JUMP JUMPDEST PUSH0 PUSH1 0xC0 DUP3 ADD SWAP1 POP DUP2 DUP2 SUB PUSH0 DUP4 ADD MSTORE PUSH2 0x2FDA DUP2 DUP10 PUSH2 0x2ED8 JUMP JUMPDEST SWAP1 POP DUP2 DUP2 SUB PUSH1 0x20 DUP4 ADD MSTORE PUSH2 0x2FEE DUP2 DUP9 PUSH2 0x2ED8 JUMP JUMPDEST SWAP1 POP DUP2 DUP2 SUB PUSH1 0x40 DUP4 ADD MSTORE PUSH2 0x3002 DUP2 DUP8 PUSH2 0x2ED8 JUMP JUMPDEST SWAP1 POP PUSH2 0x3011 PUSH1 0x60 DUP4 ADD DUP7 PUSH2 0x2F74 JUMP JUMPDEST PUSH2 0x301E PUSH1 0x80 DUP4 ADD DUP6 PUSH2 0x2FB3 JUMP JUMPDEST DUP2 DUP2 SUB PUSH1 0xA0 DUP4 ADD MSTORE PUSH2 0x3030 DUP2 DUP5 PUSH2 0x2ED8 JUMP JUMPDEST SWAP1 POP SWAP8 SWAP7 POP POP POP POP POP POP POP JUMP JUMPDEST PUSH0 DUP2 SWAP1 POP SWAP2 SWAP1 POP JUMP JUMPDEST PUSH2 0x304F DUP2 PUSH2 0x303D JUMP JUMPDEST DUP2 EQ PUSH2 0x3059 JUMPI PUSH0 PUSH0 REVERT JUMPDEST POP JUMP JUMPDEST PUSH0 DUP2 CALLDATALOAD SWAP1 POP PUSH2 0x306A DUP2 PUSH2 0x3046 JUMP JUMPDEST SWAP3 SWAP2 POP POP JUMP JUMPDEST PUSH0 PUSH0 PUSH0 PUSH1 0x60 DUP5 DUP7 SUB SLT ISZERO PUSH2 0x3087 JUMPI PUSH2 0x3086 PUSH2 0x2C02 JUMP JUMPDEST JUMPDEST PUSH0 DUP5 ADD CALLDATALOAD PUSH8 0xFFFFFFFFFFFFFFFF DUP2 GT ISZERO PUSH2 0x30A4 JUMPI PUSH2 0x30A3 PUSH2 0x2C06 JUMP JUMPDEST JUMPDEST PUSH2 0x30B0 DUP7 DUP3 DUP8 ADD PUSH2 0x2D19 JUMP JUMPDEST SWAP4 POP POP PUSH1 0x20 PUSH2 0x30C1 DUP7 DUP3 DUP8 ADD PUSH2 0x305C JUMP JUMPDEST SWAP3 POP POP PUSH1 0x40 DUP5 ADD CALLDATALOAD PUSH8 0xFFFFFFFFFFFFFFFF DUP2 GT ISZERO PUSH2 0x30E2 JUMPI PUSH2 0x30E1 PUSH2 0x2C06 JUMP JUMPDEST JUMPDEST PUSH2 0x30EE DUP7 DUP3 DUP8 ADD PUSH2 0x2D19 JUMP JUMPDEST SWAP2 POP POP SWAP3 POP SWAP3 POP SWAP3 JUMP JUMPDEST PUSH0 PUSH0 PUSH1 0x40 DUP4 DUP6 SUB SLT ISZERO PUSH2 0x310E JUMPI PUSH2 0x310D PUSH2 0x2C02 JUMP JUMPDEST JUMPDEST PUSH0 DUP4 ADD CALLDATALOAD PUSH8 0xFFFFFFFFFFFFFFFF DUP2 GT ISZERO PUSH2 0x312B JUMPI PUSH2 0x312A PUSH2 0x2C06 JUMP JUMPDEST JUMPDEST PUSH2 0x3137 DUP6 DUP3 DUP7 ADD PUSH2 0x2D19 JUMP JUMPDEST SWAP3 POP POP PUSH1 0x20 DUP4 ADD CALLDATALOAD PUSH8 0xFFFFFFFFFFFFFFFF DUP2 GT ISZERO PUSH2 0x3158 JUMPI PUSH2 0x3157 PUSH2 0x2C06 JUMP JUMPDEST JUMPDEST PUSH2 0x3164 DUP6 DUP3 DUP7 ADD PUSH2 0x2D19 JUMP JUMPDEST SWAP2 POP POP SWAP3 POP SWAP3 SWAP1 POP JUMP JUMPDEST PUSH0 DUP2 ISZERO ISZERO SWAP1 POP SWAP2 SWAP1 POP JUMP JUMPDEST PUSH2 0x3182 DUP2 PUSH2 0x316E JUMP JUMPDEST DUP3 MSTORE POP POP JUMP JUMPDEST PUSH0 PUSH1 0x20 DUP3 ADD SWAP1 POP PUSH2 0x319B PUSH0 DUP4 ADD DUP5 PUSH2 0x3179 JUMP JUMPDEST SWAP3 SWAP2 POP POP JUMP JUMPDEST PUSH1 0x6 DUP2 LT PUSH2 0x31AD JUMPI PUSH0 PUSH0 REVERT JUMPDEST POP JUMP JUMPDEST PUSH0 DUP2 CALLDATALOAD SWAP1 POP PUSH2 0x31BE DUP2 PUSH2 0x31A1 JUMP JUMPDEST SWAP3 SWAP2 POP POP JUMP JUMPDEST PUSH0 PUSH0 PUSH1 0x40 DUP4 DUP6 SUB SLT ISZERO PUSH2 0x31DA JUMPI PUSH2 0x31D9 PUSH2 0x2C02 JUMP JUMPDEST JUMPDEST PUSH0 DUP4 ADD CALLDATALOAD PUSH8 0xFFFFFFFFFFFFFFFF DUP2 GT ISZERO PUSH2 0x31F7 JUMPI PUSH2 0x31F6 PUSH2 0x2C06 JUMP JUMPDEST JUMPDEST PUSH2 0x3203 DUP6 DUP3 DUP7 ADD PUSH2 0x2D19 JUMP JUMPDEST SWAP3 POP POP PUSH1 0x20 PUSH2 0x3214 DUP6 DUP3 DUP7 ADD PUSH2 0x31B0 JUMP JUMPDEST SWAP2 POP POP SWAP3 POP SWAP3 SWAP1 POP JUMP JUMPDEST PUSH2 0x3227 DUP2 PUSH2 0x2FA2 JUMP JUMPDEST DUP2 EQ PUSH2 0x3231 JUMPI PUSH0 PUSH0 REVERT JUMPDEST POP JUMP JUMPDEST PUSH0 DUP2 CALLDATALOAD SWAP1 POP PUSH2 0x3242 DUP2 PUSH2 0x321E JUMP JUMPDEST SWAP3 SWAP2 POP POP JUMP JUMPDEST PUSH1 0x5 DUP2 LT PUSH2 0x3254 JUMPI PUSH0 PUSH0 REVERT JUMPDEST POP JUMP JUMPDEST PUSH0 DUP2 CALLDATALOAD SWAP1 POP PUSH2 0x3265 DUP2 PUSH2 0x3248 JUMP JUMPDEST SWAP3 SWAP2 POP POP JUMP JUMPDEST PUSH0 PUSH0 PUSH1 0x40 DUP4 DUP6 SUB SLT ISZERO PUSH2 0x3281 JUMPI PUSH2 0x3280 PUSH2 0x2C02 JUMP JUMPDEST JUMPDEST PUSH0 PUSH2 0x328E DUP6 DUP3 DUP7 ADD PUSH2 0x3234 JUMP JUMPDEST SWAP3 POP POP PUSH1 0x20 PUSH2 0x329F DUP6 DUP3 DUP7 ADD PUSH2 0x3257 JUMP JUMPDEST SWAP2 POP POP SWAP3 POP SWAP3 SWAP1 POP JUMP JUMPDEST PUSH0 PUSH0 PUSH0 PUSH0 PUSH1 0x80 DUP6 DUP8 SUB SLT ISZERO PUSH2 0x32C1 JUMPI PUSH2 0x32C0 PUSH2 0x2C02 JUMP JUMPDEST JUMPDEST PUSH0 DUP6 ADD CALLDATALOAD PUSH8 0xFFFFFFFFFFFFFFFF DUP2 GT ISZERO PUSH2 0x32DE JUMPI PUSH2 0x32DD PUSH2 0x2C06 JUMP JUMPDEST JUMPDEST PUSH2 0x32EA DUP8 DUP3 DUP9 ADD PUSH2 0x2D19 JUMP JUMPDEST SWAP5 POP POP PUSH1 0x20 DUP6 ADD CALLDATALOAD PUSH8 0xFFFFFFFFFFFFFFFF DUP2 GT ISZERO PUSH2 0x330B JUMPI PUSH2 0x330A PUSH2 0x2C06 JUMP JUMPDEST JUMPDEST PUSH2 0x3317 DUP8 DUP3 DUP9 ADD PUSH2 0x2D19 JUMP JUMPDEST SWAP4 POP POP PUSH1 0x40 DUP6 ADD CALLDATALOAD PUSH8 0xFFFFFFFFFFFFFFFF DUP2 GT ISZERO PUSH2 0x3338 JUMPI PUSH2 0x3337 PUSH2 0x2C06 JUMP JUMPDEST JUMPDEST PUSH2 0x3344 DUP8 DUP3 DUP9 ADD PUSH2 0x2D19 JUMP JUMPDEST SWAP3 POP POP PUSH1 0x60 DUP6 ADD CALLDATALOAD PUSH8 0xFFFFFFFFFFFFFFFF DUP2 GT ISZERO PUSH2 0x3365 JUMPI PUSH2 0x3364 PUSH2 0x2C06 JUMP JUMPDEST JUMPDEST PUSH2 0x3371 DUP8 DUP3 DUP9 ADD PUSH2 0x2D19 JUMP JUMPDEST SWAP2 POP POP SWAP3 SWAP6 SWAP2 SWAP5 POP SWAP3 POP JUMP JUMPDEST PUSH0 PUSH1 0x20 DUP3 ADD SWAP1 POP PUSH2 0x3390 PUSH0 DUP4 ADD DUP5 PUSH2 0x2FB3 JUMP JUMPDEST SWAP3 SWAP2 POP POP JUMP JUMPDEST PUSH0 DUP2 MLOAD SWAP1 POP SWAP2 SWAP1 POP JUMP JUMPDEST PUSH0 DUP3 DUP3 MSTORE PUSH1 0x20 DUP3 ADD SWAP1 POP SWAP3 SWAP2 POP POP JUMP JUMPDEST PUSH0 DUP2 SWAP1 POP PUSH1 0x20 DUP3 ADD SWAP1 POP SWAP2 SWAP1 POP JUMP JUMPDEST PUSH2 0x33C8 DUP2 PUSH2 0x303D JUMP JUMPDEST DUP3 MSTORE POP POP JUMP JUMPDEST PUSH0 PUSH2 0x33D9 DUP4 DUP4 PUSH2 0x33BF JUMP JUMPDEST PUSH1 0x20 DUP4 ADD SWAP1 POP SWAP3 SWAP2 POP POP JUMP JUMPDEST PUSH0 PUSH1 0x20 DUP3 ADD SWAP1 POP SWAP2 SWAP1 POP JUMP JUMPDEST PUSH0 PUSH2 0x33FB DUP3 PUSH2 0x3396 JUMP JUMPDEST PUSH2 0x3405 DUP2 DUP6 PUSH2 0x33A0 JUMP JUMPDEST SWAP4 POP PUSH2 0x3410 DUP4 PUSH2 0x33B0 JUMP JUMPDEST DUP1 PUSH0 JUMPDEST DUP4 DUP2 LT ISZERO PUSH2 0x3440 JUMPI DUP2 MLOAD PUSH2 0x3427 DUP9 DUP3 PUSH2 0x33CE JUMP JUMPDEST SWAP8 POP PUSH2 0x3432 DUP4 PUSH2 0x33E5 JUMP JUMPDEST SWAP3 POP POP PUSH1 0x1 DUP2 ADD SWAP1 POP PUSH2 0x3413 JUMP JUMPDEST POP DUP6 SWAP4 POP POP POP POP SWAP3 SWAP2 POP POP JUMP JUMPDEST PUSH0 DUP2 MLOAD SWAP1 POP SWAP2 SWAP1 POP JUMP JUMPDEST PUSH0 DUP3 DUP3 MSTORE PUSH1 0x20 DUP3 ADD SWAP1 POP SWAP3 SWAP2 POP POP JUMP JUMPDEST PUSH0 DUP2 SWAP1 POP PUSH1 0x20 DUP3 ADD SWAP1 POP SWAP2 SWAP1 POP JUMP JUMPDEST PUSH0 DUP2 SWAP1 POP SWAP2 SWAP1 POP JUMP JUMPDEST PUSH2 0x3488 DUP2 PUSH2 0x3476 JUMP JUMPDEST DUP3 MSTORE POP POP JUMP JUMPDEST PUSH0 PUSH2 0x3499 DUP4 DUP4 PUSH2 0x347F JUMP JUMPDEST PUSH1 0x20 DUP4 ADD SWAP1 POP SWAP3 SWAP2 POP POP JUMP JUMPDEST PUSH0 PUSH1 0x20 DUP3 ADD SWAP1 POP SWAP2 SWAP1 POP JUMP JUMPDEST PUSH0 PUSH2 0x34BB DUP3 PUSH2 0x344D JUMP JUMPDEST PUSH2 0x34C5 DUP2 DUP6 PUSH2 0x3457 JUMP JUMPDEST SWAP4 POP PUSH2 0x34D0 DUP4 PUSH2 0x3467 JUMP JUMPDEST DUP1 PUSH0 JUMPDEST DUP4 DUP2 LT ISZERO PUSH2 0x3500 JUMPI DUP2 MLOAD PUSH2 0x34E7 DUP9 DUP3 PUSH2 0x348E JUMP JUMPDEST SWAP8 POP PUSH2 0x34F2 DUP4 PUSH2 0x34A5 JUMP JUMPDEST SWAP3 POP POP PUSH1 0x1 DUP2 ADD SWAP1 POP PUSH2 0x34D3 JUMP JUMPDEST POP DUP6 SWAP4 POP POP POP POP SWAP3 SWAP2 POP POP JUMP JUMPDEST PUSH0 PUSH1 0x60 DUP3 ADD SWAP1 POP DUP2 DUP2 SUB PUSH0 DUP4 ADD MSTORE PUSH2 0x3525 DUP2 DUP7 PUSH2 0x33F1 JUMP JUMPDEST SWAP1 POP DUP2 DUP2 SUB PUSH1 0x20 DUP4 ADD MSTORE PUSH2 0x3539 DUP2 DUP6 PUSH2 0x2E35 JUMP JUMPDEST SWAP1 POP DUP2 DUP2 SUB PUSH1 0x40 DUP4 ADD MSTORE PUSH2 0x354D DUP2 DUP5 PUSH2 0x34B1 JUMP JUMPDEST SWAP1 POP SWAP5 SWAP4 POP POP POP POP JUMP JUMPDEST PUSH0 PUSH1 0x20 DUP3 DUP5 SUB SLT ISZERO PUSH2 0x356C JUMPI PUSH2 0x356B PUSH2 0x2C02 JUMP JUMPDEST JUMPDEST PUSH0 PUSH2 0x3579 DUP5 DUP3 DUP6 ADD PUSH2 0x3234 JUMP JUMPDEST SWAP2 POP POP SWAP3 SWAP2 POP POP JUMP JUMPDEST PUSH1 0x5 DUP2 LT PUSH2 0x3593 JUMPI PUSH2 0x3592 PUSH2 0x2F10 JUMP JUMPDEST JUMPDEST POP JUMP JUMPDEST PUSH0 DUP2 SWAP1 POP PUSH2 0x35A3 DUP3 PUSH2 0x3582 JUMP JUMPDEST SWAP2 SWAP1 POP JUMP JUMPDEST PUSH0 PUSH2 0x35B2 DUP3 PUSH2 0x3596 JUMP JUMPDEST SWAP1 POP SWAP2 SWAP1 POP JUMP JUMPDEST PUSH2 0x35C2 DUP2 PUSH2 0x35A8 JUMP JUMPDEST DUP3 MSTORE POP POP JUMP JUMPDEST PUSH0 PUSH1 0x20 DUP3 ADD SWAP1 POP PUSH2 0x35DB PUSH0 DUP4 ADD DUP5 PUSH2 0x35B9 JUMP JUMPDEST SWAP3 SWAP2 POP POP JUMP JUMPDEST PUSH2 0x35EA DUP2 PUSH2 0x3476 JUMP JUMPDEST DUP3 MSTORE POP POP JUMP JUMPDEST PUSH2 0x35F9 DUP2 PUSH2 0x303D JUMP JUMPDEST DUP3 MSTORE POP POP JUMP JUMPDEST PUSH0 PUSH1 0xA0 DUP3 ADD SWAP1 POP PUSH2 0x3612 PUSH0 DUP4 ADD DUP9 PUSH2 0x35E1 JUMP JUMPDEST PUSH2 0x361F PUSH1 0x20 DUP4 ADD DUP8 PUSH2 0x35F0 JUMP JUMPDEST PUSH2 0x362C PUSH1 0x40 DUP4 ADD DUP7 PUSH2 0x35F0 JUMP JUMPDEST PUSH2 0x3639 PUSH1 0x60 DUP4 ADD DUP6 PUSH2 0x35F0 JUMP JUMPDEST PUSH2 0x3646 PUSH1 0x80 DUP4 ADD DUP5 PUSH2 0x3179 JUMP JUMPDEST SWAP7 SWAP6 POP POP POP POP POP POP JUMP JUMPDEST PUSH0 PUSH1 0x20 DUP3 ADD SWAP1 POP DUP2 DUP2 SUB PUSH0 DUP4 ADD MSTORE PUSH2 0x3668 DUP2 DUP5 PUSH2 0x2ED8 JUMP JUMPDEST SWAP1 POP SWAP3 SWAP2 POP POP JUMP JUMPDEST PUSH0 PUSH1 0xC0 DUP3 ADD SWAP1 POP DUP2 DUP2 SUB PUSH0 DUP4 ADD MSTORE PUSH2 0x3688 DUP2 DUP10 PUSH2 0x2ED8 JUMP JUMPDEST SWAP1 POP DUP2 DUP2 SUB PUSH1 0x20 DUP4 ADD MSTORE PUSH2 0x369C DUP2 DUP9 PUSH2 0x2ED8 JUMP JUMPDEST SWAP1 POP DUP2 DUP2 SUB PUSH1 0x40 DUP4 ADD MSTORE PUSH2 0x36B0 DUP2 DUP8 PUSH2 0x2ED8 JUMP JUMPDEST SWAP1 POP DUP2 DUP2 SUB PUSH1 0x60 DUP4 ADD MSTORE PUSH2 0x36C4 DUP2 DUP7 PUSH2 0x2ED8 JUMP JUMPDEST SWAP1 POP PUSH2 0x36D3 PUSH1 0x80 DUP4 ADD DUP6 PUSH2 0x2F74 JUMP JUMPDEST PUSH2 0x36E0 PUSH1 0xA0 DUP4 ADD DUP5 PUSH2 0x2FB3 JUMP JUMPDEST SWAP8 SWAP7 POP POP POP POP POP POP POP JUMP JUMPDEST PUSH0 PUSH0 PUSH0 PUSH1 0x60 DUP5 DUP7 SUB SLT ISZERO PUSH2 0x3702 JUMPI PUSH2 0x3701 PUSH2 0x2C02 JUMP JUMPDEST JUMPDEST PUSH0 DUP5 ADD CALLDATALOAD PUSH8 0xFFFFFFFFFFFFFFFF DUP2 GT ISZERO PUSH2 0x371F JUMPI PUSH2 0x371E PUSH2 0x2C06 JUMP JUMPDEST JUMPDEST PUSH2 0x372B DUP7 DUP3 DUP8 ADD PUSH2 0x2D19 JUMP JUMPDEST SWAP4 POP POP PUSH1 0x20 PUSH2 0x373C DUP7 DUP3 DUP8 ADD PUSH2 0x305C JUMP JUMPDEST SWAP3 POP POP PUSH1 0x40 PUSH2 0x374D DUP7 DUP3 DUP8 ADD PUSH2 0x305C JUMP JUMPDEST SWAP2 POP POP SWAP3 POP SWAP3 POP SWAP3 JUMP JUMPDEST PUSH0 DUP2 SWAP1 POP SWAP3 SWAP2 POP POP JUMP JUMPDEST PUSH0 PUSH2 0x376B DUP3 PUSH2 0x2DB6 JUMP JUMPDEST PUSH2 0x3775 DUP2 DUP6 PUSH2 0x3757 JUMP JUMPDEST SWAP4 POP PUSH2 0x3785 DUP2 DUP6 PUSH1 0x20 DUP7 ADD PUSH2 0x2DD0 JUMP JUMPDEST DUP1 DUP5 ADD SWAP2 POP POP SWAP3 SWAP2 POP POP JUMP JUMPDEST PUSH0 PUSH2 0x379C DUP3 DUP5 PUSH2 0x3761 JUMP JUMPDEST SWAP2 POP DUP2 SWAP1 POP SWAP3 SWAP2 POP POP JUMP JUMPDEST PUSH32 0x50726F64756374206E6F74207265676973746572656400000000000000000000 PUSH0 DUP3 ADD MSTORE POP JUMP JUMPDEST PUSH0 PUSH2 0x37DB PUSH1 0x16 DUP4 PUSH2 0x2EC8 JUMP JUMPDEST SWAP2 POP PUSH2 0x37E6 DUP3 PUSH2 0x37A7 JUMP JUMPDEST PUSH1 0x20 DUP3 ADD SWAP1 POP SWAP2 SWAP1 POP JUMP JUMPDEST PUSH0 PUSH1 0x20 DUP3 ADD SWAP1 POP DUP2 DUP2 SUB PUSH0 DUP4 ADD MSTORE PUSH2 0x3808 DUP2 PUSH2 0x37CF JUMP JUMPDEST SWAP1 POP SWAP2 SWAP1 POP JUMP JUMPDEST PUSH32 0x4E487B7100000000000000000000000000000000000000000000000000000000 PUSH0 MSTORE PUSH1 0x22 PUSH1 0x4 MSTORE PUSH1 0x24 PUSH0 REVERT JUMPDEST PUSH0 PUSH1 0x2 DUP3 DIV SWAP1 POP PUSH1 0x1 DUP3 AND DUP1 PUSH2 0x3853 JUMPI PUSH1 0x7F DUP3 AND SWAP2 POP JUMPDEST PUSH1 0x20 DUP3 LT DUP2 SUB PUSH2 0x3866 JUMPI PUSH2 0x3865 PUSH2 0x380F JUMP JUMPDEST JUMPDEST POP SWAP2 SWAP1 POP JUMP JUMPDEST PUSH32 0x4F6E6C79204C6F67697374696373206F72206F776E65722063616E2075706C6F PUSH0 DUP3 ADD MSTORE PUSH32 0x616420496F542064617461000000000000000000000000000000000000000000 PUSH1 0x20 DUP3 ADD MSTORE POP JUMP JUMPDEST PUSH0 PUSH2 0x38C6 PUSH1 0x2B DUP4 PUSH2 0x2EC8 JUMP JUMPDEST SWAP2 POP PUSH2 0x38D1 DUP3 PUSH2 0x386C JUMP JUMPDEST PUSH1 0x40 DUP3 ADD SWAP1 POP SWAP2 SWAP1 POP JUMP JUMPDEST PUSH0 PUSH1 0x20 DUP3 ADD SWAP1 POP DUP2 DUP2 SUB PUSH0 DUP4 ADD MSTORE PUSH2 0x38F3 DUP2 PUSH2 0x38BA JUMP JUMPDEST SWAP1 POP SWAP2 SWAP1 POP JUMP JUMPDEST PUSH0 DUP2 SWAP1 POP DUP2 PUSH0 MSTORE PUSH1 0x20 PUSH0 KECCAK256 SWAP1 POP SWAP2 SWAP1 POP JUMP JUMPDEST PUSH0 PUSH1 0x20 PUSH1 0x1F DUP4 ADD DIV SWAP1 POP SWAP2 SWAP1 POP JUMP JUMPDEST PUSH0 DUP3 DUP3 SHL SWAP1 POP SWAP3 SWAP2 POP POP JUMP JUMPDEST PUSH0 PUSH1 0x8 DUP4 MUL PUSH2 0x3956 PUSH32 0xFFFFFFFFFFFFFFFFFFFFFFFFFFFFFFFFFFFFFFFFFFFFFFFFFFFFFFFFFFFFFFFF DUP3 PUSH2 0x391B JUMP JUMPDEST PUSH2 0x3960 DUP7 DUP4 PUSH2 0x391B JUMP JUMPDEST SWAP6 POP DUP1 NOT DUP5 AND SWAP4 POP DUP1 DUP7 AND DUP5 OR SWAP3 POP POP POP SWAP4 SWAP3 POP POP POP JUMP JUMPDEST PUSH0 DUP2 SWAP1 POP SWAP2 SWAP1 POP JUMP JUMPDEST PUSH0 PUSH2 0x399B PUSH2 0x3996 PUSH2 0x3991 DUP5 PUSH2 0x3476 JUMP JUMPDEST PUSH2 0x3978 JUMP JUMPDEST PUSH2 0x3476 JUMP JUMPDEST SWAP1 POP SWAP2 SWAP1 POP JUMP JUMPDEST PUSH0 DUP2 SWAP1 POP SWAP2 SWAP1 POP JUMP JUMPDEST PUSH2 0x39B4 DUP4 PUSH2 0x3981 JUMP JUMPDEST PUSH2 0x39C8 PUSH2 0x39C0 DUP3 PUSH2 0x39A2 JUMP JUMPDEST DUP5 DUP5 SLOAD PUSH2 0x3927 JUMP JUMPDEST DUP3 SSTORE POP POP POP POP JUMP JUMPDEST PUSH0 PUSH0 SWAP1 POP SWAP1 JUMP JUMPDEST PUSH2 0x39DF PUSH2 0x39D0 JUMP JUMPDEST PUSH2 0x39EA DUP2 DUP5 DUP5 PUSH2 0x39AB JUMP JUMPDEST POP POP POP JUMP JUMPDEST JUMPDEST DUP2 DUP2 LT ISZERO PUSH2 0x3A0D JUMPI PUSH2 0x3A02 PUSH0 DUP3 PUSH2 0x39D7 JUMP JUMPDEST PUSH1 0x1 DUP2 ADD SWAP1 POP PUSH2 0x39F0 JUMP JUMPDEST POP POP JUMP JUMPDEST PUSH1 0x1F DUP3 GT ISZERO PUSH2 0x3A52 JUMPI PUSH2 0x3A23 DUP2 PUSH2 0x38FA JUMP JUMPDEST PUSH2 0x3A2C DUP5 PUSH2 0x390C JUMP JUMPDEST DUP2 ADD PUSH1 0x20 DUP6 LT ISZERO PUSH2 0x3A3B JUMPI DUP2 SWAP1 POP JUMPDEST PUSH2 0x3A4F PUSH2 0x3A47 DUP6 PUSH2 0x390C JUMP JUMPDEST DUP4 ADD DUP3 PUSH2 0x39EF JUMP JUMPDEST POP POP JUMPDEST POP POP POP JUMP JUMPDEST PUSH0 DUP3 DUP3 SHR SWAP1 POP SWAP3 SWAP2 POP POP JUMP JUMPDEST PUSH0 PUSH2 0x3A72 PUSH0 NOT DUP5 PUSH1 0x8 MUL PUSH2 0x3A57 JUMP JUMPDEST NOT DUP1 DUP4 AND SWAP2 POP POP SWAP3 SWAP2 POP POP JUMP JUMPDEST PUSH0 PUSH2 0x3A8A DUP4 DUP4 PUSH2 0x3A63 JUMP JUMPDEST SWAP2 POP DUP3 PUSH1 0x2 MUL DUP3 OR SWAP1 POP SWAP3 SWAP2 POP POP JUMP JUMPDEST PUSH2 0x3AA3 DUP3 PUSH2 0x2DB6 JUMP JUMPDEST PUSH8 0xFFFFFFFFFFFFFFFF DUP2 GT ISZERO PUSH2 0x3ABC JUMPI PUSH2 0x3ABB PUSH2 0x2C22 JUMP JUMPDEST JUMPDEST PUSH2 0x3AC6 DUP3 SLOAD PUSH2 0x383C JUMP JUMPDEST PUSH2 0x3AD1 DUP3 DUP3 DUP6 PUSH2 0x3A11 JUMP JUMPDEST PUSH0 PUSH1 0x20 SWAP1 POP PUSH1 0x1F DUP4 GT PUSH1 0x1 DUP2 EQ PUSH2 0x3B02 JUMPI PUSH0 DUP5 ISZERO PUSH2 0x3AF0 JUMPI DUP3 DUP8 ADD MLOAD SWAP1 POP JUMPDEST PUSH2 0x3AFA DUP6 DUP3 PUSH2 0x3A7F JUMP JUMPDEST DUP7 SSTORE POP PUSH2 0x3B61 JUMP JUMPDEST PUSH1 0x1F NOT DUP5 AND PUSH2 0x3B10 DUP7 PUSH2 0x38FA JUMP JUMPDEST PUSH0 JUMPDEST DUP3 DUP2 LT ISZERO PUSH2 0x3B37 JUMPI DUP5 DUP10 ADD MLOAD DUP3 SSTORE PUSH1 0x1 DUP3 ADD SWAP2 POP PUSH1 0x20 DUP6 ADD SWAP5 POP PUSH1 0x20 DUP2 ADD SWAP1 POP PUSH2 0x3B12 JUMP JUMPDEST DUP7 DUP4 LT ISZERO PUSH2 0x3B54 JUMPI DUP5 DUP10 ADD MLOAD PUSH2 0x3B50 PUSH1 0x1F DUP10 AND DUP3 PUSH2 0x3A63 JUMP JUMPDEST DUP4 SSTORE POP JUMPDEST PUSH1 0x1 PUSH1 0x2 DUP9 MUL ADD DUP9 SSTORE POP POP POP JUMPDEST POP POP POP POP POP POP JUMP JUMPDEST PUSH0 PUSH1 0x40 DUP3 ADD SWAP1 POP PUSH2 0x3B7C PUSH0 DUP4 ADD DUP6 PUSH2 0x35F0 JUMP JUMPDEST DUP2 DUP2 SUB PUSH1 0x20 DUP4 ADD MSTORE PUSH2 0x3B8E DUP2 DUP5 PUSH2 0x2ED8 JUMP JUMPDEST SWAP1 POP SWAP4 SWAP3 POP POP POP JUMP JUMPDEST PUSH32 0x496E76616C6964207374616765207472616E736974696F6E20286D7573742070 PUSH0 DUP3 ADD MSTORE PUSH32 0x726F677265737320666F72776172642900000000000000000000000000000000 PUSH1 0x20 DUP3 ADD MSTORE POP JUMP JUMPDEST PUSH0 PUSH2 0x3BF1 PUSH1 0x30 DUP4 PUSH2 0x2EC8 JUMP JUMPDEST SWAP2 POP PUSH2 0x3BFC DUP3 PUSH2 0x3B97 JUMP JUMPDEST PUSH1 0x40 DUP3 ADD SWAP1 POP SWAP2 SWAP1 POP JUMP JUMPDEST PUSH0 PUSH1 0x20 DUP3 ADD SWAP1 POP DUP2 DUP2 SUB PUSH0 DUP4 ADD MSTORE PUSH2 0x3C1E DUP2 PUSH2 0x3BE5 JUMP JUMPDEST SWAP1 POP SWAP2 SWAP1 POP JUMP JUMPDEST PUSH32 0x4D7573742062652056656E646F72000000000000000000000000000000000000 PUSH0 DUP3 ADD MSTORE POP JUMP JUMPDEST PUSH0 PUSH2 0x3C59 PUSH1 0xE DUP4 PUSH2 0x2EC8 JUMP JUMPDEST SWAP2 POP PUSH2 0x3C64 DUP3 PUSH2 0x3C25 JUMP JUMPDEST PUSH1 0x20 DUP3 ADD SWAP1 POP SWAP2 SWAP1 POP JUMP JUMPDEST PUSH0 PUSH1 0x20 DUP3 ADD SWAP1 POP DUP2 DUP2 SUB PUSH0 DUP4 ADD MSTORE PUSH2 0x3C86 DUP2 PUSH2 0x3C4D JUMP JUMPDEST SWAP1 POP SWAP2 SWAP1 POP JUMP JUMPDEST PUSH32 0x4D757374206265204D616E756661637475726572000000000000000000000000 PUSH0 DUP3 ADD MSTORE POP JUMP JUMPDEST PUSH0 PUSH2 0x3CC1 PUSH1 0x14 DUP4 PUSH2 0x2EC8 JUMP JUMPDEST SWAP2 POP PUSH2 0x3CCC DUP3 PUSH2 0x3C8D JUMP JUMPDEST PUSH1 0x20 DUP3 ADD SWAP1 POP SWAP2 SWAP1 POP JUMP JUMPDEST PUSH0 PUSH1 0x20 DUP3 ADD SWAP1 POP DUP2 DUP2 SUB PUSH0 DUP4 ADD MSTORE PUSH2 0x3CEE DUP2 PUSH2 0x3CB5 JUMP JUMPDEST SWAP1 POP SWAP2 SWAP1 POP JUMP JUMPDEST PUSH32 0x4D757374206265204C6F67697374696373000000000000000000000000000000 PUSH0 DUP3 ADD MSTORE POP JUMP JUMPDEST PUSH0 PUSH2 0x3D29 PUSH1 0x11 DUP4 PUSH2 0x2EC8 JUMP JUMPDEST SWAP2 POP PUSH2 0x3D34 DUP3 PUSH2 0x3CF5 JUMP JUMPDEST PUSH1 0x20 DUP3 ADD SWAP1 POP SWAP2 SWAP1 POP JUMP JUMPDEST PUSH0 PUSH1 0x20 DUP3 ADD SWAP1 POP DUP2 DUP2 SUB PUSH0 DUP4 ADD MSTORE PUSH2 0x3D56 DUP2 PUSH2 0x3D1D JUMP JUMPDEST SWAP1 POP SWAP2 SWAP1 POP JUMP JUMPDEST PUSH32 0x4D7573742062652052657461696C657200000000000000000000000000000000 PUSH0 DUP3 ADD MSTORE POP JUMP JUMPDEST PUSH0 PUSH2 0x3D91 PUSH1 0x10 DUP4 PUSH2 0x2EC8 JUMP JUMPDEST SWAP2 POP PUSH2 0x3D9C DUP3 PUSH2 0x3D5D JUMP JUMPDEST PUSH1 0x20 DUP3 ADD SWAP1 POP SWAP2 SWAP1 POP JUMP JUMPDEST PUSH0 PUSH1 0x20 DUP3 ADD SWAP1 POP DUP2 DUP2 SUB PUSH0 DUP4 ADD MSTORE PUSH2 0x3DBE DUP2 PUSH2 0x3D85 JUMP JUMPDEST SWAP1 POP SWAP2 SWAP1 POP JUMP JUMPDEST PUSH32 0x4D757374206265206F776E6572206F722072657461696C657220746F20636F6D PUSH0 DUP3 ADD MSTORE PUSH32 0x706C657465000000000000000000000000000000000000000000000000000000 PUSH1 0x20 DUP3 ADD MSTORE POP JUMP JUMPDEST PUSH0 PUSH2 0x3E1F PUSH1 0x25 DUP4 PUSH2 0x2EC8 JUMP JUMPDEST SWAP2 POP PUSH2 0x3E2A DUP3 PUSH2 0x3DC5 JUMP JUMPDEST PUSH1 0x40 DUP3 ADD SWAP1 POP SWAP2 SWAP1 POP JUMP JUMPDEST PUSH0 PUSH1 0x20 DUP3 ADD SWAP1 POP DUP2 DUP2 SUB PUSH0 DUP4 ADD MSTORE PUSH2 0x3E4C DUP2 PUSH2 0x3E13 JUMP JUMPDEST SWAP1 POP SWAP2 SWAP1 POP JUMP JUMPDEST PUSH32 0x556E737570706F72746564207374616765000000000000000000000000000000 PUSH0 DUP3 ADD MSTORE POP JUMP JUMPDEST PUSH0 PUSH2 0x3E87 PUSH1 0x11 DUP4 PUSH2 0x2EC8 JUMP JUMPDEST SWAP2 POP PUSH2 0x3E92 DUP3 PUSH2 0x3E53 JUMP JUMPDEST PUSH1 0x20 DUP3 ADD SWAP1 POP SWAP2 SWAP1 POP JUMP JUMPDEST PUSH0 PUSH1 0x20 DUP3 ADD SWAP1 POP DUP2 DUP2 SUB PUSH0 DUP4 ADD MSTORE PUSH2 0x3EB4 DUP2 PUSH2 0x3E7B JUMP JUMPDEST SWAP1 POP SWAP2 SWAP1 POP JUMP JUMPDEST PUSH0 PUSH1 0x40 DUP3 ADD SWAP1 POP PUSH2 0x3ECE PUSH0 DUP4 ADD DUP6 PUSH2 0x2F74 JUMP JUMPDEST PUSH2 0x3EDB PUSH1 0x20 DUP4 ADD DUP5 PUSH2 0x2FB3 JUMP JUMPDEST SWAP4 SWAP3 POP POP POP JUMP JUMPDEST PUSH32 0x4F6E6C79206F776E657200000000000000000000000000000000000000000000 PUSH0 DUP3 ADD MSTORE POP JUMP JUMPDEST PUSH0 PUSH2 0x3F16 PUSH1 0xA DUP4 PUSH2 0x2EC8 JUMP JUMPDEST SWAP2 POP PUSH2 0x3F21 DUP3 PUSH2 0x3EE2 JUMP JUMPDEST PUSH1 0x20 DUP3 ADD SWAP1 POP SWAP2 SWAP1 POP JUMP JUMPDEST PUSH0 PUSH1 0x20 DUP3 ADD SWAP1 POP DUP2 DUP2 SUB PUSH0 DUP4 ADD MSTORE PUSH2 0x3F43 DUP2 PUSH2 0x3F0A JUMP JUMPDEST SWAP1 POP SWAP2 SWAP1 POP JUMP JUMPDEST PUSH32 0x4F6E6C79206F776E6572206F722068616E646C65720000000000000000000000 PUSH0 DUP3 ADD MSTORE POP JUMP JUMPDEST PUSH0 PUSH2 0x3F7E PUSH1 0x15 DUP4 PUSH2 0x2EC8 JUMP JUMPDEST SWAP2 POP PUSH2 0x3F89 DUP3 PUSH2 0x3F4A JUMP JUMPDEST PUSH1 0x20 DUP3 ADD SWAP1 POP SWAP2 SWAP1 POP JUMP JUMPDEST PUSH0 PUSH1 0x20 DUP3 ADD SWAP1 POP DUP2 DUP2 SUB PUSH0 DUP4 ADD MSTORE PUSH2 0x3FAB DUP2 PUSH2 0x3F72 JUMP JUMPDEST SWAP1 POP SWAP2 SWAP1 POP JUMP JUMPDEST PUSH32 0x426164676520616C726561647920617761726465640000000000000000000000 PUSH0 DUP3 ADD MSTORE POP JUMP JUMPDEST PUSH0 PUSH2 0x3FE6 PUSH1 0x15 DUP4 PUSH2 0x2EC8 JUMP JUMPDEST SWAP2 POP PUSH2 0x3FF1 DUP3 PUSH2 0x3FB2 JUMP JUMPDEST PUSH1 0x20 DUP3 ADD SWAP1 POP SWAP2 SWAP1 POP JUMP JUMPDEST PUSH0 PUSH1 0x20 DUP3 ADD SWAP1 POP DUP2 DUP2 SUB PUSH0 DUP4 ADD MSTORE PUSH2 0x4013 DUP2 PUSH2 0x3FDA JUMP JUMPDEST SWAP1 POP SWAP2 SWAP1 POP JUMP JUMPDEST PUSH32 0x4C6F7420616C7265616479207265676973746572656400000000000000000000 PUSH0 DUP3 ADD MSTORE POP JUMP JUMPDEST PUSH0 PUSH2 0x404E PUSH1 0x16 DUP4 PUSH2 0x2EC8 JUMP JUMPDEST SWAP2 POP PUSH2 0x4059 DUP3 PUSH2 0x401A JUMP JUMPDEST PUSH1 0x20 DUP3 ADD SWAP1 POP SWAP2 SWAP1 POP JUMP JUMPDEST PUSH0 PUSH1 0x20 DUP3 ADD SWAP1 POP DUP2 DUP2 SUB PUSH0 DUP4 ADD MSTORE PUSH2 0x407B DUP2 PUSH2 0x4042 JUMP JUMPDEST SWAP1 POP SWAP2 SWAP1 POP JUMP JUMPDEST PUSH0 PUSH1 0x40 DUP3 ADD SWAP1 POP DUP2 DUP2 SUB PUSH0 DUP4 ADD MSTORE PUSH2 0x409A DUP2 DUP6 PUSH2 0x2ED8 JUMP JUMPDEST SWAP1 POP DUP2 DUP2 SUB PUSH1 0x20 DUP4 ADD MSTORE PUSH2 0x40AE DUP2 DUP5 PUSH2 0x2ED8 JUMP JUMPDEST SWAP1 POP SWAP4 SWAP3 POP POP POP JUMP JUMPDEST PUSH32 0x4E487B7100000000000000000000000000000000000000000000000000000000 PUSH0 MSTORE PUSH1 0x32 PUSH1 0x4 MSTORE PUSH1 0x24 PUSH0 REVERT JUMPDEST PUSH32 0x4E487B7100000000000000000000000000000000000000000000000000000000 PUSH0 MSTORE PUSH1 0x11 PUSH1 0x4 MSTORE PUSH1 0x24 PUSH0 REVERT JUMPDEST PUSH0 PUSH2 0x411B DUP3 PUSH2 0x303D JUMP JUMPDEST SWAP2 POP PUSH2 0x4126 DUP4 PUSH2 0x303D JUMP JUMPDEST SWAP3 POP DUP3 DUP3 ADD SWAP1 POP DUP3 DUP2 SLT ISZERO PUSH0 DUP4 SLT AND DUP4 DUP3 SLT PUSH0 DUP5 SLT ISZERO AND OR ISZERO PUSH2 0x414C JUMPI PUSH2 0x414B PUSH2 0x40E4 JUMP JUMPDEST JUMPDEST SWAP3 SWAP2 POP POP JUMP JUMPDEST PUSH32 0x4E487B7100000000000000000000000000000000000000000000000000000000 PUSH0 MSTORE PUSH1 0x12 PUSH1 0x4 MSTORE PUSH1 0x24 PUSH0 REVERT JUMPDEST PUSH0 PUSH2 0x4189 DUP3 PUSH2 0x303D JUMP JUMPDEST SWAP2 POP PUSH2 0x4194 DUP4 PUSH2 0x303D JUMP JUMPDEST SWAP3 POP DUP3 PUSH2 0x41A4 JUMPI PUSH2 0x41A3 PUSH2 0x4152 JUMP JUMPDEST JUMPDEST PUSH1 0x1 PUSH0 SUB DUP4 EQ PUSH32 0x8000000000000000000000000000000000000000000000000000000000000000 DUP4 EQ AND ISZERO PUSH2 0x41DC JUMPI PUSH2 0x41DB PUSH2 0x40E4 JUMP JUMPDEST JUMPDEST DUP3 DUP3 SDIV SWAP1 POP SWAP3 SWAP2 POP POP JUMP JUMPDEST PUSH32 0x4F6E6C79206F776E6572206F722063757272656E742068616E646C6572000000 PUSH0 DUP3 ADD MSTORE POP JUMP JUMPDEST PUSH0 PUSH2 0x421B PUSH1 0x1D DUP4 PUSH2 0x2EC8 JUMP JUMPDEST SWAP2 POP PUSH2 0x4226 DUP3 PUSH2 0x41E7 JUMP JUMPDEST PUSH1 0x20 DUP3 ADD SWAP1 POP SWAP2 SWAP1 POP JUMP JUMPDEST PUSH0 PUSH1 0x20 DUP3 ADD SWAP1 POP DUP2 DUP2 SUB PUSH0 DUP4 ADD MSTORE PUSH2 0x4248 DUP2 PUSH2 0x420F JUMP JUMPDEST SWAP1 POP SWAP2 SWAP1 POP JUMP JUMPDEST PUSH0 DUP2 PUSH1 0x60 SHL SWAP1 POP SWAP2 SWAP1 POP JUMP JUMPDEST PUSH0 PUSH2 0x4265 DUP3 PUSH2 0x424F JUMP JUMPDEST SWAP1 POP SWAP2 SWAP1 POP JUMP JUMPDEST PUSH0 PUSH2 0x4276 DUP3 PUSH2 0x425B JUMP JUMPDEST SWAP1 POP SWAP2 SWAP1 POP JUMP JUMPDEST PUSH2 0x428E PUSH2 0x4289 DUP3 PUSH2 0x2FA2 JUMP JUMPDEST PUSH2 0x426C JUMP JUMPDEST DUP3 MSTORE POP POP JUMP JUMPDEST PUSH0 DUP2 SWAP1 POP SWAP2 SWAP1 POP JUMP JUMPDEST PUSH2 0x42AE PUSH2 0x42A9 DUP3 PUSH2 0x3476 JUMP JUMPDEST PUSH2 0x4294 JUMP JUMPDEST DUP3 MSTORE POP POP JUMP JUMPDEST PUSH0 PUSH2 0x42BF DUP3 DUP7 PUSH2 0x3761 JUMP JUMPDEST SWAP2 POP PUSH2 0x42CB DUP3 DUP6 PUSH2 0x427D JUMP JUMPDEST PUSH1 0x14 DUP3 ADD SWAP2 POP PUSH2 0x42DB DUP3 DUP5 PUSH2 0x429D JUMP JUMPDEST PUSH1 0x20 DUP3 ADD SWAP2 POP DUP2 SWAP1 POP SWAP5 SWAP4 POP POP POP POP JUMP JUMPDEST PUSH32 0x496E76616C696420515220746F6B656E00000000000000000000000000000000 PUSH0 DUP3 ADD MSTORE POP JUMP JUMPDEST PUSH0 PUSH2 0x4320 PUSH1 0x10 DUP4 PUSH2 0x2EC8 JUMP JUMPDEST SWAP2 POP PUSH2 0x432B DUP3 PUSH2 0x42EC JUMP JUMPDEST PUSH1 0x20 DUP3 ADD SWAP1 POP SWAP2 SWAP1 POP JUMP JUMPDEST PUSH0 PUSH1 0x20 DUP3 ADD SWAP1 POP DUP2 DUP2 SUB PUSH0 DUP4 ADD MSTORE PUSH2 0x434D DUP2 PUSH2 0x4314 JUMP JUMPDEST SWAP1 POP SWAP2 SWAP1 POP JUMP JUMPDEST PUSH32 0x4F6E6C79206F776E6572206F7220726F6C650000000000000000000000000000 PUSH0 DUP3 ADD MSTORE POP JUMP JUMPDEST PUSH0 PUSH2 0x4388 PUSH1 0x12 DUP4 PUSH2 0x2EC8 JUMP JUMPDEST SWAP2 POP PUSH2 0x4393 DUP3 PUSH2 0x4354 JUMP JUMPDEST PUSH1 0x20 DUP3 ADD SWAP1 POP SWAP2 SWAP1 POP JUMP JUMPDEST PUSH0 PUSH1 0x20 DUP3 ADD SWAP1 POP DUP2 DUP2 SUB PUSH0 DUP4 ADD MSTORE PUSH2 0x43B5 DUP2 PUSH2 0x437C JUMP JUMPDEST SWAP1 POP SWAP2 SWAP1 POP JUMP JUMPDEST PUSH0 PUSH1 0x40 DUP3 ADD SWAP1 POP PUSH2 0x43CF PUSH0 DUP4 ADD DUP6 PUSH2 0x35F0 JUMP JUMPDEST PUSH2 0x43DC PUSH1 0x20 DUP4 ADD DUP5 PUSH2 0x35F0 JUMP JUMPDEST SWAP4 SWAP3 POP POP POP JUMP JUMPDEST PUSH0 PUSH2 0x43ED DUP3 PUSH2 0x3476 JUMP JUMPDEST SWAP2 POP PUSH2 0x43F8 DUP4 PUSH2 0x3476 JUMP JUMPDEST SWAP3 POP DUP3 DUP3 SUB SWAP1 POP DUP2 DUP2 GT ISZERO PUSH2 0x4410 JUMPI PUSH2 0x440F PUSH2 0x40E4 JUMP JUMPDEST JUMPDEST SWAP3 SWAP2 POP POP JUMP JUMPDEST PUSH0 PUSH2 0x4420 DUP3 PUSH2 0x3476 JUMP JUMPDEST SWAP2 POP PUSH2 0x442B DUP4 PUSH2 0x3476 JUMP JUMPDEST SWAP3 POP DUP3 DUP3 ADD SWAP1 POP DUP1 DUP3 GT ISZERO PUSH2 0x4443 JUMPI PUSH2 0x4442 PUSH2 0x40E4 JUMP JUMPDEST JUMPDEST SWAP3 SWAP2 POP POP JUMP JUMPDEST PUSH0 PUSH2 0x4453 DUP3 PUSH2 0x3476 JUMP JUMPDEST SWAP2 POP PUSH32 0xFFFFFFFFFFFFFFFFFFFFFFFFFFFFFFFFFFFFFFFFFFFFFFFFFFFFFFFFFFFFFFFF DUP3 SUB PUSH2 0x4485 JUMPI PUSH2 0x4484 PUSH2 0x40E4 JUMP JUMPDEST JUMPDEST PUSH1 0x1 DUP3 ADD SWAP1 POP SWAP2 SWAP1 POP JUMP JUMPDEST PUSH0 PUSH2 0x449A DUP3 PUSH2 0x3476 JUMP JUMPDEST SWAP2 POP PUSH2 0x44A5 DUP4 PUSH2 0x3476 JUMP JUMPDEST SWAP3 POP DUP3 DUP3 MUL PUSH2 0x44B3 DUP2 PUSH2 0x3476 JUMP JUMPDEST SWAP2 POP DUP3 DUP3 DIV DUP5 EQ DUP4 ISZERO OR PUSH2 0x44CA JUMPI PUSH2 0x44C9 PUSH2 0x40E4 JUMP JUMPDEST JUMPDEST POP SWAP3 SWAP2 POP POP JUMP INVALID LOG2 PUSH5 0x6970667358 0x22 SLT KECCAK256 0xAE 0x22 0xDE 0x4F EXP 0x4F AND 0xD4 PC DELEGATECALL RETURN PUSH4 0x15A1AD91 EXTDELEGATECALL 0x29 0xCA 0xC8 0xAD 0xB2 0xF7 SWAP8 PUSH27 0xC91DA1912ADB264736F6C634300081E0033000000000000000000 "
		},
		"gasEstimates": {
			"creation": {
				"codeDepositCost": "3534200",
				"executionCost": "52612",
				"totalCost": "3586812"
			},
			"external": {
				"assignRole(address,uint8)": "28830",
				"awardBadge(string,string)": "infinite",
				"captureIoTData(string,int256,string)": "infinite",
				"checkTemperatureCompliance(string)": "infinite",
				"consumerLookupByLot(string)": "infinite",
				"consumerLookupByQR(string)": "infinite",
				"generateQRToken(string)": "infinite",
				"getAnalytics(string)": "infinite",
				"getBadges(string)": "infinite",
				"getIoTLogs(string)": "infinite",
				"hasBadge(string,string)": "infinite",
				"owner()": "2530",
				"registerProduct(string,string,string,string)": "infinite",
				"roles(address)": "2988",
				"setTemperatureThresholds(string,int256,int256)": "infinite",
				"updateStage(string,uint8)": "infinite"
			},
			"internal": {
				"_awardBadgeInternal(string memory,string memory)": "infinite",
				"_containsCertification(string memory,string memory)": "infinite",
				"_hasBadge(string memory,string memory)": "infinite",
				"_toHexString(bytes32)": "infinite"
			}
		},
		"methodIdentifiers": {
			"assignRole(address,uint8)": "630a195b",
			"awardBadge(string,string)": "7ab6cd50",
			"captureIoTData(string,int256,string)": "3567fa7d",
			"checkTemperatureCompliance(string)": "d5feb194",
			"consumerLookupByLot(string)": "1ea32e5c",
			"consumerLookupByQR(string)": "c6b0b839",
			"generateQRToken(string)": "b6017c67",
			"getAnalytics(string)": "a560b77c",
			"getBadges(string)": "06922f52",
			"getIoTLogs(string)": "90506e02",
			"hasBadge(string,string)": "4e5ae78b",
			"owner()": "8da5cb5b",
			"registerProduct(string,string,string,string)": "8799d6fc",
			"roles(address)": "99374642",
			"setTemperatureThresholds(string,int256,int256)": "fbf4a0cd",
			"updateStage(string,uint8)": "5cf291dc"
		}
	},
	"abi": [
		{
			"inputs": [],
			"stateMutability": "nonpayable",
			"type": "constructor"
		},
		{
			"anonymous": false,
			"inputs": [
				{
					"indexed": true,
					"internalType": "string",
					"name": "lotNumber",
					"type": "string"
				},
				{
					"indexed": false,
					"internalType": "string",
					"name": "badgeName",
					"type": "string"
				}
			],
			"name": "BadgeAwarded",
			"type": "event"
		},
		{
			"anonymous": false,
			"inputs": [
				{
					"indexed": true,
					"internalType": "string",
					"name": "lotNumber",
					"type": "string"
				},
				{
					"indexed": false,
					"internalType": "int256",
					"name": "temperature",
					"type": "int256"
				},
				{
					"indexed": false,
					"internalType": "string",
					"name": "notes",
					"type": "string"
				}
			],
			"name": "IoTDataCaptured",
			"type": "event"
		},
		{
			"anonymous": false,
			"inputs": [
				{
					"indexed": true,
					"internalType": "string",
					"name": "lotNumber",
					"type": "string"
				},
				{
					"indexed": false,
					"internalType": "string",
					"name": "name",
					"type": "string"
				},
				{
					"indexed": false,
					"internalType": "string",
					"name": "origin",
					"type": "string"
				}
			],
			"name": "ProductRegistered",
			"type": "event"
		},
		{
			"anonymous": false,
			"inputs": [
				{
					"indexed": true,
					"internalType": "string",
					"name": "lotNumber",
					"type": "string"
				},
				{
					"indexed": false,
					"internalType": "string",
					"name": "qrToken",
					"type": "string"
				}
			],
			"name": "QRGenerated",
			"type": "event"
		},
		{
			"anonymous": false,
			"inputs": [
				{
					"indexed": true,
					"internalType": "address",
					"name": "account",
					"type": "address"
				},
				{
					"indexed": false,
					"internalType": "enum FoodTraceabilityFull.Role",
					"name": "role",
					"type": "uint8"
				}
			],
			"name": "RoleAssigned",
			"type": "event"
		},
		{
			"anonymous": false,
			"inputs": [
				{
					"indexed": true,
					"internalType": "string",
					"name": "lotNumber",
					"type": "string"
				},
				{
					"indexed": false,
					"internalType": "enum FoodTraceabilityFull.Stage",
					"name": "stage",
					"type": "uint8"
				},
				{
					"indexed": false,
					"internalType": "address",
					"name": "handler",
					"type": "address"
				}
			],
			"name": "StageUpdated",
			"type": "event"
		},
		{
			"anonymous": false,
			"inputs": [
				{
					"indexed": true,
					"internalType": "string",
					"name": "lotNumber",
					"type": "string"
				},
				{
					"indexed": false,
					"internalType": "int256",
					"name": "minTemp",
					"type": "int256"
				},
				{
					"indexed": false,
					"internalType": "int256",
					"name": "maxTemp",
					"type": "int256"
				}
			],
			"name": "ThresholdsSet",
			"type": "event"
		},
		{
			"inputs": [
				{
					"internalType": "address",
					"name": "account",
					"type": "address"
				},
				{
					"internalType": "enum FoodTraceabilityFull.Role",
					"name": "role",
					"type": "uint8"
				}
			],
			"name": "assignRole",
			"outputs": [],
			"stateMutability": "nonpayable",
			"type": "function"
		},
		{
			"inputs": [
				{
					"internalType": "string",
					"name": "lotNumber",
					"type": "string"
				},
				{
					"internalType": "string",
					"name": "badgeName",
					"type": "string"
				}
			],
			"name": "awardBadge",
			"outputs": [],
			"stateMutability": "nonpayable",
			"type": "function"
		},
		{
			"inputs": [
				{
					"internalType": "string",
					"name": "lotNumber",
					"type": "string"
				},
				{
					"internalType": "int256",
					"name": "temperature",
					"type": "int256"
				},
				{
					"internalType": "string",
					"name": "handlingNotes",
					"type": "string"
				}
			],
			"name": "captureIoTData",
			"outputs": [],
			"stateMutability": "nonpayable",
			"type": "function"
		},
		{
			"inputs": [
				{
					"internalType": "string",
					"name": "lotNumber",
					"type": "string"
				}
			],
			"name": "checkTemperatureCompliance",
			"outputs": [
				{
					"internalType": "bool",
					"name": "",
					"type": "bool"
				}
			],
			"stateMutability": "view",
			"type": "function"
		},
		{
			"inputs": [
				{
					"internalType": "string",
					"name": "lotNumber",
					"type": "string"
				}
			],
			"name": "consumerLookupByLot",
			"outputs": [
				{
					"internalType": "string",
					"name": "name",
					"type": "string"
				},
				{
					"internalType": "string",
					"name": "origin",
					"type": "string"
				},
				{
					"internalType": "string",
					"name": "certifications",
					"type": "string"
				},
				{
					"internalType": "enum FoodTraceabilityFull.Stage",
					"name": "stage",
					"type": "uint8"
				},
				{
					"internalType": "address",
					"name": "handler",
					"type": "address"
				},
				{
					"internalType": "string",
					"name": "latestQR",
					"type": "string"
				}
			],
			"stateMutability": "view",
			"type": "function"
		},
		{
			"inputs": [
				{
					"internalType": "string",
					"name": "qrToken",
					"type": "string"
				}
			],
			"name": "consumerLookupByQR",
			"outputs": [
				{
					"internalType": "string",
					"name": "lotNumber",
					"type": "string"
				},
				{
					"internalType": "string",
					"name": "name",
					"type": "string"
				},
				{
					"internalType": "string",
					"name": "origin",
					"type": "string"
				},
				{
					"internalType": "string",
					"name": "certifications",
					"type": "string"
				},
				{
					"internalType": "enum FoodTraceabilityFull.Stage",
					"name": "stage",
					"type": "uint8"
				},
				{
					"internalType": "address",
					"name": "handler",
					"type": "address"
				}
			],
			"stateMutability": "view",
			"type": "function"
		},
		{
			"inputs": [
				{
					"internalType": "string",
					"name": "lotNumber",
					"type": "string"
				}
			],
			"name": "generateQRToken",
			"outputs": [
				{
					"internalType": "string",
					"name": "",
					"type": "string"
				}
			],
			"stateMutability": "nonpayable",
			"type": "function"
		},
		{
			"inputs": [
				{
					"internalType": "string",
					"name": "lotNumber",
					"type": "string"
				}
			],
			"name": "getAnalytics",
			"outputs": [
				{
					"internalType": "uint256",
					"name": "totalLogs",
					"type": "uint256"
				},
				{
					"internalType": "int256",
					"name": "avgTemp",
					"type": "int256"
				},
				{
					"internalType": "int256",
					"name": "minTemp",
					"type": "int256"
				},
				{
					"internalType": "int256",
					"name": "maxTemp",
					"type": "int256"
				},
				{
					"internalType": "bool",
					"name": "compliant",
					"type": "bool"
				}
			],
			"stateMutability": "view",
			"type": "function"
		},
		{
			"inputs": [
				{
					"internalType": "string",
					"name": "lotNumber",
					"type": "string"
				}
			],
			"name": "getBadges",
			"outputs": [
				{
					"internalType": "string[]",
					"name": "",
					"type": "string[]"
				}
			],
			"stateMutability": "view",
			"type": "function"
		},
		{
			"inputs": [
				{
					"internalType": "string",
					"name": "lotNumber",
					"type": "string"
				}
			],
			"name": "getIoTLogs",
			"outputs": [
				{
					"internalType": "int256[]",
					"name": "temps",
					"type": "int256[]"
				},
				{
					"internalType": "string[]",
					"name": "notes",
					"type": "string[]"
				},
				{
					"internalType": "uint256[]",
					"name": "timestamps",
					"type": "uint256[]"
				}
			],
			"stateMutability": "view",
			"type": "function"
		},
		{
			"inputs": [
				{
					"internalType": "string",
					"name": "lotNumber",
					"type": "string"
				},
				{
					"internalType": "string",
					"name": "badgeName",
					"type": "string"
				}
			],
			"name": "hasBadge",
			"outputs": [
				{
					"internalType": "bool",
					"name": "",
					"type": "bool"
				}
			],
			"stateMutability": "view",
			"type": "function"
		},
		{
			"inputs": [],
			"name": "owner",
			"outputs": [
				{
					"internalType": "address",
					"name": "",
					"type": "address"
				}
			],
			"stateMutability": "view",
			"type": "function"
		},
		{
			"inputs": [
				{
					"internalType": "string",
					"name": "lotNumber",
					"type": "string"
				},
				{
					"internalType": "string",
					"name": "name",
					"type": "string"
				},
				{
					"internalType": "string",
					"name": "origin",
					"type": "string"
				},
				{
					"internalType": "string",
					"name": "certifications",
					"type": "string"
				}
			],
			"name": "registerProduct",
			"outputs": [],
			"stateMutability": "nonpayable",
			"type": "function"
		},
		{
			"inputs": [
				{
					"internalType": "address",
					"name": "",
					"type": "address"
				}
			],
			"name": "roles",
			"outputs": [
				{
					"internalType": "enum FoodTraceabilityFull.Role",
					"name": "",
					"type": "uint8"
				}
			],
			"stateMutability": "view",
			"type": "function"
		},
		{
			"inputs": [
				{
					"internalType": "string",
					"name": "lotNumber",
					"type": "string"
				},
				{
					"internalType": "int256",
					"name": "minTemp",
					"type": "int256"
				},
				{
					"internalType": "int256",
					"name": "maxTemp",
					"type": "int256"
				}
			],
			"name": "setTemperatureThresholds",
			"outputs": [],
			"stateMutability": "nonpayable",
			"type": "function"
		},
		{
			"inputs": [
				{
					"internalType": "string",
					"name": "lotNumber",
					"type": "string"
				},
				{
					"internalType": "enum FoodTraceabilityFull.Stage",
					"name": "newStage",
					"type": "uint8"
				}
			],
			"name": "updateStage",
			"outputs": [],
			"stateMutability": "nonpayable",
			"type": "function"
		}
	]
}